{
  "contractName": "RentalContract",
  "abi": [
    {
      "anonymous": false,
      "inputs": [
        {
          "indexed": true,
          "internalType": "string",
          "name": "contractID",
          "type": "string"
        },
        {
          "indexed": true,
          "internalType": "address",
          "name": "owner",
          "type": "address"
        },
        {
          "indexed": false,
          "internalType": "uint256",
          "name": "compensation",
          "type": "uint256"
        },
        {
          "indexed": false,
          "internalType": "uint256",
          "name": "timestamp",
          "type": "uint256"
        }
      ],
      "name": "ContractCancelledByOwner",
      "type": "event"
    },
    {
      "anonymous": false,
      "inputs": [
        {
          "indexed": true,
          "internalType": "string",
          "name": "contractID",
          "type": "string"
        },
        {
          "indexed": true,
          "internalType": "address",
          "name": "renter",
          "type": "address"
        },
        {
          "indexed": false,
          "internalType": "uint256",
          "name": "depositLoss",
          "type": "uint256"
        },
        {
          "indexed": false,
          "internalType": "uint256",
          "name": "extraCharge",
          "type": "uint256"
        },
        {
          "indexed": false,
          "internalType": "uint256",
          "name": "timestamp",
          "type": "uint256"
        }
      ],
      "name": "ContractCancelledByRenter",
      "type": "event"
    },
    {
      "anonymous": false,
      "inputs": [
        {
          "indexed": true,
          "internalType": "string",
          "name": "contractID",
          "type": "string"
        },
        {
          "indexed": false,
          "internalType": "string",
          "name": "propertyID",
          "type": "string"
        },
        {
          "indexed": true,
          "internalType": "address",
          "name": "owner",
          "type": "address"
        },
        {
          "indexed": true,
          "internalType": "address",
          "name": "renter",
          "type": "address"
        },
        {
          "indexed": false,
          "internalType": "uint256",
          "name": "depositAmount",
          "type": "uint256"
        },
        {
          "indexed": false,
          "internalType": "uint256",
          "name": "monthlyRent",
          "type": "uint256"
        }
      ],
      "name": "ContractCreated",
      "type": "event"
    },
    {
      "anonymous": false,
      "inputs": [
        {
          "indexed": true,
          "internalType": "string",
          "name": "contractID",
          "type": "string"
        },
        {
          "indexed": true,
          "internalType": "address",
          "name": "renter",
          "type": "address"
        },
        {
          "indexed": false,
          "internalType": "uint256",
          "name": "depositRefundAmount",
          "type": "uint256"
        },
        {
          "indexed": false,
          "internalType": "uint256",
          "name": "timestamp",
          "type": "uint256"
        }
      ],
      "name": "ContractEnded",
      "type": "event"
    },
    {
      "anonymous": false,
      "inputs": [
        {
          "indexed": true,
          "internalType": "string",
          "name": "contractID",
          "type": "string"
        },
        {
          "indexed": false,
          "internalType": "string",
          "name": "reason",
          "type": "string"
        }
      ],
      "name": "ContractTerminated",
      "type": "event"
    },
    {
      "anonymous": false,
      "inputs": [
        {
          "indexed": true,
          "internalType": "string",
          "name": "contractID",
          "type": "string"
        },
        {
          "indexed": false,
          "internalType": "address",
          "name": "from",
          "type": "address"
        },
        {
          "indexed": false,
          "internalType": "address",
          "name": "to",
          "type": "address"
        },
        {
          "indexed": false,
          "internalType": "uint256",
          "name": "amount",
          "type": "uint256"
        },
        {
          "indexed": false,
          "internalType": "uint256",
          "name": "timestamp",
          "type": "uint256"
        },
        {
          "indexed": false,
          "internalType": "string",
          "name": "transactionType",
          "type": "string"
        }
      ],
      "name": "TransactionRecorded",
      "type": "event"
    },
    {
      "inputs": [
        {
          "internalType": "string",
          "name": "",
          "type": "string"
        },
        {
          "internalType": "uint256",
          "name": "",
          "type": "uint256"
        }
      ],
      "name": "contractTransactions",
      "outputs": [
        {
          "internalType": "address",
          "name": "from",
          "type": "address"
        },
        {
          "internalType": "address",
          "name": "to",
          "type": "address"
        },
        {
          "internalType": "uint256",
          "name": "amount",
          "type": "uint256"
        },
        {
          "internalType": "uint256",
          "name": "timestamp",
          "type": "uint256"
        },
        {
          "internalType": "string",
          "name": "transactionType",
          "type": "string"
        }
      ],
      "stateMutability": "view",
      "type": "function",
      "constant": true
    },
    {
      "inputs": [
        {
          "internalType": "string",
          "name": "",
          "type": "string"
        }
      ],
      "name": "contracts",
      "outputs": [
        {
          "internalType": "string",
          "name": "contractID",
          "type": "string"
        },
        {
          "internalType": "string",
          "name": "propertyID",
          "type": "string"
        },
        {
          "internalType": "address payable",
          "name": "owner",
          "type": "address"
        },
        {
          "internalType": "address payable",
          "name": "renter",
          "type": "address"
        },
        {
          "internalType": "uint256",
          "name": "depositAmount",
          "type": "uint256"
        },
        {
          "internalType": "uint256",
          "name": "monthlyRent",
          "type": "uint256"
        },
        {
          "internalType": "enum RentalContract.RentalStatus",
          "name": "status",
          "type": "uint8"
        }
      ],
      "stateMutability": "view",
      "type": "function",
      "constant": true
    },
    {
      "inputs": [
        {
          "internalType": "string",
          "name": "_contractID",
          "type": "string"
        },
        {
          "internalType": "string",
          "name": "_propertyID",
          "type": "string"
        },
        {
          "internalType": "address payable",
          "name": "_owner",
          "type": "address"
        },
        {
          "internalType": "address payable",
          "name": "_renter",
          "type": "address"
        },
        {
          "internalType": "uint256",
          "name": "_depositAmount",
          "type": "uint256"
        },
        {
          "internalType": "uint256",
          "name": "_monthlyRent",
          "type": "uint256"
        }
      ],
      "name": "createContract",
      "outputs": [],
      "stateMutability": "nonpayable",
      "type": "function"
    },
    {
      "inputs": [
        {
          "internalType": "string",
          "name": "_contractID",
          "type": "string"
        }
      ],
      "name": "deposit",
      "outputs": [],
      "stateMutability": "payable",
      "type": "function",
      "payable": true
    },
    {
      "inputs": [
        {
          "internalType": "string",
          "name": "_contractID",
          "type": "string"
        }
      ],
      "name": "payRent",
      "outputs": [],
      "stateMutability": "payable",
      "type": "function",
      "payable": true
    },
    {
      "inputs": [
        {
          "internalType": "string",
          "name": "_contractID",
          "type": "string"
        },
        {
          "internalType": "address payable",
          "name": "recipient",
          "type": "address"
        },
        {
          "internalType": "uint256",
          "name": "amount",
          "type": "uint256"
        }
      ],
      "name": "transferToAddress",
      "outputs": [],
      "stateMutability": "nonpayable",
      "type": "function"
    },
    {
      "inputs": [
        {
          "internalType": "string",
          "name": "_contractID",
          "type": "string"
        }
      ],
      "name": "transferToSmartContract",
      "outputs": [],
      "stateMutability": "payable",
      "type": "function",
      "payable": true
    },
    {
      "inputs": [
        {
          "internalType": "string",
          "name": "_contractID",
          "type": "string"
        }
      ],
      "name": "cancelContractBeforeDeposit",
      "outputs": [],
      "stateMutability": "nonpayable",
      "type": "function"
    },
    {
      "inputs": [
        {
          "internalType": "string",
          "name": "_contractID",
          "type": "string"
        },
        {
          "internalType": "uint256",
          "name": "depositAmount",
          "type": "uint256"
        }
      ],
      "name": "endContract",
      "outputs": [],
      "stateMutability": "payable",
      "type": "function",
      "payable": true
    },
    {
      "inputs": [
        {
          "internalType": "string",
          "name": "_contractID",
          "type": "string"
        }
      ],
      "name": "getContractDetails",
      "outputs": [
        {
          "components": [
            {
              "internalType": "string",
              "name": "contractID",
              "type": "string"
            },
            {
              "internalType": "string",
              "name": "propertyID",
              "type": "string"
            },
            {
              "internalType": "address payable",
              "name": "owner",
              "type": "address"
            },
            {
              "internalType": "address payable",
              "name": "renter",
              "type": "address"
            },
            {
              "internalType": "uint256",
              "name": "depositAmount",
              "type": "uint256"
            },
            {
              "internalType": "uint256",
              "name": "monthlyRent",
              "type": "uint256"
            },
            {
              "internalType": "enum RentalContract.RentalStatus",
              "name": "status",
              "type": "uint8"
            }
          ],
          "internalType": "struct RentalContract.Contract",
          "name": "",
          "type": "tuple"
        }
      ],
      "stateMutability": "view",
      "type": "function",
      "constant": true
    },
    {
      "inputs": [
        {
          "internalType": "string",
          "name": "_contractID",
          "type": "string"
        }
      ],
      "name": "getContractTransactions",
      "outputs": [
        {
          "components": [
            {
              "internalType": "address",
              "name": "from",
              "type": "address"
            },
            {
              "internalType": "address",
              "name": "to",
              "type": "address"
            },
            {
              "internalType": "uint256",
              "name": "amount",
              "type": "uint256"
            },
            {
              "internalType": "uint256",
              "name": "timestamp",
              "type": "uint256"
            },
            {
              "internalType": "string",
              "name": "transactionType",
              "type": "string"
            }
          ],
          "internalType": "struct RentalContract.Transaction[]",
          "name": "",
          "type": "tuple[]"
        }
      ],
      "stateMutability": "view",
      "type": "function",
      "constant": true
    },
    {
      "inputs": [
        {
          "internalType": "string",
          "name": "_contractId",
          "type": "string"
        },
        {
          "internalType": "bool",
          "name": "notifyBefore30Days",
          "type": "bool"
        },
        {
          "internalType": "uint256",
          "name": "depositAmount",
          "type": "uint256"
        }
      ],
      "name": "cancelContractByRenter",
      "outputs": [],
      "stateMutability": "payable",
      "type": "function",
      "payable": true
    },
    {
      "inputs": [
        {
          "internalType": "string",
          "name": "_contractId",
          "type": "string"
        },
        {
          "internalType": "uint256",
          "name": "depositAmount",
          "type": "uint256"
        }
      ],
      "name": "cancelContractByOwner",
      "outputs": [],
      "stateMutability": "payable",
      "type": "function",
      "payable": true
    }
  ],
  "bytecode": "0x608060405234801561001057600080fd5b5061530f806100206000396000f3fe6080604052600436106100c25760003560e01c8063706a9c6c1161007f578063931c700811610059578063931c700814610225578063a26e11861461024e578063bfafff5b1461026a578063cd7c1147146102a7576100c2565b8063706a9c6c1461019d5780637bef444c146101c65780638c5b8385146101e2576100c2565b8063132756b5146100c75780632799a284146100e35780632b27ddd0146100ff57806340b815fe1461012857806353d04b8514610144578063541881c114610160575b600080fd5b6100e160048036038101906100dc9190613613565b6102e8565b005b6100fd60048036038101906100f89190613613565b6108a9565b005b34801561010b57600080fd5b506101266004803603810190610121919061355a565b610d7a565b005b610142600480360381019061013d91906134f3565b611105565b005b61015e6004803603810190610159919061344b565b61175c565b005b34801561016c57600080fd5b506101876004803603810190610182919061344b565b611928565b60405161019491906149b7565b60405180910390f35b3480156101a957600080fd5b506101c460048036038101906101bf919061344b565b611e3b565b005b6101e060048036038101906101db919061344b565b61213e565b005b3480156101ee57600080fd5b506102096004803603810190610204919061344b565b61262d565b60405161021c97969594939291906149fb565b60405180910390f35b34801561023157600080fd5b5061024c6004803603810190610247919061348c565b6127e2565b005b6102686004803603810190610263919061344b565b61299d565b005b34801561027657600080fd5b50610291600480360381019061028c919061344b565b612c79565b60405161029e9190614d76565b60405180910390f35b3480156102b357600080fd5b506102ce60048036038101906102c99190613613565b612fcd565b6040516102df959493929190614855565b60405180910390f35b816000816040516102f99190614671565b908152602001604051809103902060020160009054906101000a900473ffffffffffffffffffffffffffffffffffffffff1673ffffffffffffffffffffffffffffffffffffffff163373ffffffffffffffffffffffffffffffffffffffff1614610398576040517f08c379a000000000000000000000000000000000000000000000000000000000815260040161038f90614af6565b60405180910390fd5b600080846040516103a99190614671565b90815260200160405180910390209050600060048111156103f3577f4e487b7100000000000000000000000000000000000000000000000000000000600052602160045260246000fd5b8160060160009054906101000a900460ff16600481111561043d577f4e487b7100000000000000000000000000000000000000000000000000000000600052602160045260246000fd5b141561049b5760038160060160006101000a81548160ff02191690836004811115610491577f4e487b7100000000000000000000000000000000000000000000000000000000600052602160045260246000fd5b0217905550610819565b600160048111156104d5577f4e487b7100000000000000000000000000000000000000000000000000000000600052602160045260246000fd5b8160060160009054906101000a900460ff16600481111561051f577f4e487b7100000000000000000000000000000000000000000000000000000000600052602160045260246000fd5b14806105ac575060026004811115610560577f4e487b7100000000000000000000000000000000000000000000000000000000600052602160045260246000fd5b8160060160009054906101000a900460ff1660048111156105aa577f4e487b7100000000000000000000000000000000000000000000000000000000600052602160045260246000fd5b145b156107dd57824710156105f4576040517f08c379a00000000000000000000000000000000000000000000000000000000081526004016105eb90614cd6565b60405180910390fd5b60008160030160009054906101000a900473ffffffffffffffffffffffffffffffffffffffff1673ffffffffffffffffffffffffffffffffffffffff168460405161063e90614688565b60006040518083038185875af1925050503d806000811461067b576040519150601f19603f3d011682016040523d82523d6000602084013e610680565b606091505b50509050806106c4576040517f08c379a00000000000000000000000000000000000000000000000000000000081526004016106bb90614bf6565b60405180910390fd5b61070d85308460030160009054906101000a900473ffffffffffffffffffffffffffffffffffffffff168760405180608001604052806049815260200161511f604991396130fe565b8460405161071b9190614671565b60405180910390207f533295cd82e521ef5bdedbc6debf352fcb558fe7f98c397a0d52cc90e107f310308460030160009054906101000a900473ffffffffffffffffffffffffffffffffffffffff16874260405161077c94939291906146f5565b60405180910390a260038260060160006101000a81548160ff021916908360048111156107d2577f4e487b7100000000000000000000000000000000000000000000000000000000600052602160045260246000fd5b021790555050610818565b6040517f08c379a000000000000000000000000000000000000000000000000000000000815260040161080f90614b96565b60405180910390fd5b5b8060030160009054906101000a900473ffffffffffffffffffffffffffffffffffffffff1673ffffffffffffffffffffffffffffffffffffffff16846040516108629190614671565b60405180910390207ff6b22571c1ecf2dee47f025f69793accfe7ed12f07404c638536d16998c1ea47854260405161089b929190614d98565b60405180910390a350505050565b816000816040516108ba9190614671565b908152602001604051809103902060020160009054906101000a900473ffffffffffffffffffffffffffffffffffffffff1673ffffffffffffffffffffffffffffffffffffffff163373ffffffffffffffffffffffffffffffffffffffff1614610959576040517f08c379a000000000000000000000000000000000000000000000000000000000815260040161095090614af6565b60405180910390fd5b6000808460405161096a9190614671565b90815260200160405180910390209050600160048111156109b4577f4e487b7100000000000000000000000000000000000000000000000000000000600052602160045260246000fd5b8160060160009054906101000a900460ff1660048111156109fe577f4e487b7100000000000000000000000000000000000000000000000000000000600052602160045260246000fd5b1480610a8b575060026004811115610a3f577f4e487b7100000000000000000000000000000000000000000000000000000000600052602160045260246000fd5b8160060160009054906101000a900460ff166004811115610a89577f4e487b7100000000000000000000000000000000000000000000000000000000600052602160045260246000fd5b145b610aca576040517f08c379a0000000000000000000000000000000000000000000000000000000008152600401610ac190614b36565b60405180910390fd5b82471015610b0d576040517f08c379a0000000000000000000000000000000000000000000000000000000008152600401610b0490614cd6565b60405180910390fd5b60008160030160009054906101000a900473ffffffffffffffffffffffffffffffffffffffff1673ffffffffffffffffffffffffffffffffffffffff1684604051610b5790614688565b60006040518083038185875af1925050503d8060008114610b94576040519150601f19603f3d011682016040523d82523d6000602084013e610b99565b606091505b5050905080610bdd576040517f08c379a0000000000000000000000000000000000000000000000000000000008152600401610bd490614bf6565b60405180910390fd5b610c4385308460030160009054906101000a900473ffffffffffffffffffffffffffffffffffffffff16876040518060400160405280601881526020017f486fc3a06e207472e1baa3207469e1bb816e2063e1bb8d6300000000000000008152506130fe565b84604051610c519190614671565b60405180910390207f533295cd82e521ef5bdedbc6debf352fcb558fe7f98c397a0d52cc90e107f310308460030160009054906101000a900473ffffffffffffffffffffffffffffffffffffffff168742604051610cb294939291906147a5565b60405180910390a260038260060160006101000a81548160ff02191690836004811115610d08577f4e487b7100000000000000000000000000000000000000000000000000000000600052602160045260246000fd5b02179055503373ffffffffffffffffffffffffffffffffffffffff1685604051610d329190614671565b60405180910390207fe2da9dcf01d3bce438e81353c3540671c45029b87abdf8074d5a9bfb045ef6f98642604051610d6b929190614d98565b60405180910390a35050505050565b838073ffffffffffffffffffffffffffffffffffffffff163373ffffffffffffffffffffffffffffffffffffffff1614610de9576040517f08c379a0000000000000000000000000000000000000000000000000000000008152600401610de090614ab6565b60405180910390fd5b600073ffffffffffffffffffffffffffffffffffffffff168573ffffffffffffffffffffffffffffffffffffffff1614158015610e535750600073ffffffffffffffffffffffffffffffffffffffff168473ffffffffffffffffffffffffffffffffffffffff1614155b610e92576040517f08c379a0000000000000000000000000000000000000000000000000000000008152600401610e8990614cf6565b60405180910390fd5b6040518060e001604052808881526020018781526020018673ffffffffffffffffffffffffffffffffffffffff1681526020018573ffffffffffffffffffffffffffffffffffffffff16815260200184815260200183815260200160006004811115610f27577f4e487b7100000000000000000000000000000000000000000000000000000000600052602160045260246000fd5b815250600088604051610f3a9190614671565b90815260200160405180910390206000820151816000019080519060200190610f64929190613260565b506020820151816001019080519060200190610f81929190613260565b5060408201518160020160006101000a81548173ffffffffffffffffffffffffffffffffffffffff021916908373ffffffffffffffffffffffffffffffffffffffff16021790555060608201518160030160006101000a81548173ffffffffffffffffffffffffffffffffffffffff021916908373ffffffffffffffffffffffffffffffffffffffff1602179055506080820151816004015560a0820151816005015560c08201518160060160006101000a81548160ff02191690836004811115611075577f4e487b7100000000000000000000000000000000000000000000000000000000600052602160045260246000fd5b02179055509050508373ffffffffffffffffffffffffffffffffffffffff168573ffffffffffffffffffffffffffffffffffffffff16886040516110b99190614671565b60405180910390207ff7ecc3071b5ebed4a1d5658be0963bdf71f705336198be1add318654699525948987876040516110f493929190614a78565b60405180910390a450505050505050565b826000816040516111169190614671565b908152602001604051809103902060030160009054906101000a900473ffffffffffffffffffffffffffffffffffffffff1673ffffffffffffffffffffffffffffffffffffffff163373ffffffffffffffffffffffffffffffffffffffff16146111b5576040517f08c379a00000000000000000000000000000000000000000000000000000000081526004016111ac90614c16565b60405180910390fd5b600080856040516111c69190614671565b9081526020016040518091039020905060016004811115611210577f4e487b7100000000000000000000000000000000000000000000000000000000600052602160045260246000fd5b8160060160009054906101000a900460ff16600481111561125a577f4e487b7100000000000000000000000000000000000000000000000000000000600052602160045260246000fd5b14806112e757506002600481111561129b577f4e487b7100000000000000000000000000000000000000000000000000000000600052602160045260246000fd5b8160060160009054906101000a900460ff1660048111156112e5577f4e487b7100000000000000000000000000000000000000000000000000000000600052602160045260246000fd5b145b611326576040517f08c379a000000000000000000000000000000000000000000000000000000000815260040161131d90614b36565b60405180910390fd5b60008085156114c05784471015611372576040517f08c379a000000000000000000000000000000000000000000000000000000000815260040161136990614cd6565b60405180910390fd5b60008360030160009054906101000a900473ffffffffffffffffffffffffffffffffffffffff1673ffffffffffffffffffffffffffffffffffffffff16866040516113bc90614688565b60006040518083038185875af1925050503d80600081146113f9576040519150601f19603f3d011682016040523d82523d6000602084013e6113fe565b606091505b5050905080611442576040517f08c379a000000000000000000000000000000000000000000000000000000000815260040161143990614bd6565b60405180910390fd5b611467883033896040518060600160405280602b81526020016152af602b91396130fe565b876040516114759190614671565b60405180910390207f533295cd82e521ef5bdedbc6debf352fcb558fe7f98c397a0d52cc90e107f310303389426040516114b29493929190614907565b60405180910390a250611698565b84915081471015611506576040517f08c379a00000000000000000000000000000000000000000000000000000000081526004016114fd90614cd6565b60405180910390fd5b60008360020160009054906101000a900473ffffffffffffffffffffffffffffffffffffffff1673ffffffffffffffffffffffffffffffffffffffff168360405161155090614688565b60006040518083038185875af1925050503d806000811461158d576040519150601f19603f3d011682016040523d82523d6000602084013e611592565b606091505b50509050806115d6576040517f08c379a00000000000000000000000000000000000000000000000000000000081526004016115cd90614bb6565b60405180910390fd5b61161f88308660020160009054906101000a900473ffffffffffffffffffffffffffffffffffffffff1686604051806060016040528060278152602001615288602791396130fe565b8760405161162d9190614671565b60405180910390207f533295cd82e521ef5bdedbc6debf352fcb558fe7f98c397a0d52cc90e107f310308660020160009054906101000a900473ffffffffffffffffffffffffffffffffffffffff16864260405161168e94939291906147fd565b60405180910390a2505b60038360060160006101000a81548160ff021916908360048111156116e6577f4e487b7100000000000000000000000000000000000000000000000000000000600052602160045260246000fd5b02179055503373ffffffffffffffffffffffffffffffffffffffff16876040516117109190614671565b60405180910390207fadafc36edcd60759441410797064a212430ea809b0ca5ffd4aa273c16b13133284844260405161174b93929190614dc1565b60405180910390a350505050505050565b6000808260405161176d9190614671565b908152602001604051809103902090508060020160009054906101000a900473ffffffffffffffffffffffffffffffffffffffff1673ffffffffffffffffffffffffffffffffffffffff163373ffffffffffffffffffffffffffffffffffffffff161461180f576040517f08c379a000000000000000000000000000000000000000000000000000000000815260040161180690614d16565b60405180910390fd5b60003411611852576040517f08c379a000000000000000000000000000000000000000000000000000000000815260040161184990614d56565b60405180910390fd5b343373ffffffffffffffffffffffffffffffffffffffff163110156118ac576040517f08c379a00000000000000000000000000000000000000000000000000000000081526004016118a390614b16565b60405180910390fd5b6118d1823330346040518060a00160405280606381526020016151e7606391396130fe565b816040516118df9190614671565b60405180910390207f533295cd82e521ef5bdedbc6debf352fcb558fe7f98c397a0d52cc90e107f3103330344260405161191c94939291906148af565b60405180910390a25050565b60606000808360405161193b9190614671565b90815260200160405180910390206040518060e001604052908160008201805461196490614fcc565b80601f016020809104026020016040519081016040528092919081815260200182805461199090614fcc565b80156119dd5780601f106119b2576101008083540402835291602001916119dd565b820191906000526020600020905b8154815290600101906020018083116119c057829003601f168201915b505050505081526020016001820180546119f690614fcc565b80601f0160208091040260200160405190810160405280929190818152602001828054611a2290614fcc565b8015611a6f5780601f10611a4457610100808354040283529160200191611a6f565b820191906000526020600020905b815481529060010190602001808311611a5257829003601f168201915b505050505081526020016002820160009054906101000a900473ffffffffffffffffffffffffffffffffffffffff1673ffffffffffffffffffffffffffffffffffffffff1673ffffffffffffffffffffffffffffffffffffffff1681526020016003820160009054906101000a900473ffffffffffffffffffffffffffffffffffffffff1673ffffffffffffffffffffffffffffffffffffffff1673ffffffffffffffffffffffffffffffffffffffff16815260200160048201548152602001600582015481526020016006820160009054906101000a900460ff166004811115611b83577f4e487b7100000000000000000000000000000000000000000000000000000000600052602160045260246000fd5b6004811115611bbb577f4e487b7100000000000000000000000000000000000000000000000000000000600052602160045260246000fd5b815250509050806040015173ffffffffffffffffffffffffffffffffffffffff163373ffffffffffffffffffffffffffffffffffffffff161480611c2e5750806060015173ffffffffffffffffffffffffffffffffffffffff163373ffffffffffffffffffffffffffffffffffffffff16145b611c6d576040517f08c379a0000000000000000000000000000000000000000000000000000000008152600401611c6490614c96565b60405180910390fd5b600183604051611c7d9190614671565b9081526020016040518091039020805480602002602001604051908101604052809291908181526020016000905b82821015611e2f57838290600052602060002090600502016040518060a00160405290816000820160009054906101000a900473ffffffffffffffffffffffffffffffffffffffff1673ffffffffffffffffffffffffffffffffffffffff1673ffffffffffffffffffffffffffffffffffffffff1681526020016001820160009054906101000a900473ffffffffffffffffffffffffffffffffffffffff1673ffffffffffffffffffffffffffffffffffffffff1673ffffffffffffffffffffffffffffffffffffffff1681526020016002820154815260200160038201548152602001600482018054611d9e90614fcc565b80601f0160208091040260200160405190810160405280929190818152602001828054611dca90614fcc565b8015611e175780601f10611dec57610100808354040283529160200191611e17565b820191906000526020600020905b815481529060010190602001808311611dfa57829003601f168201915b50505050508152505081526020019060010190611cab565b50505050915050919050565b60008082604051611e4c9190614671565b908152602001604051809103902090508060020160009054906101000a900473ffffffffffffffffffffffffffffffffffffffff1673ffffffffffffffffffffffffffffffffffffffff163373ffffffffffffffffffffffffffffffffffffffff161480611f0957508060030160009054906101000a900473ffffffffffffffffffffffffffffffffffffffff1673ffffffffffffffffffffffffffffffffffffffff163373ffffffffffffffffffffffffffffffffffffffff16145b611f48576040517f08c379a0000000000000000000000000000000000000000000000000000000008152600401611f3f90614cb6565b60405180910390fd5b60006004811115611f82577f4e487b7100000000000000000000000000000000000000000000000000000000600052602160045260246000fd5b8160060160009054906101000a900460ff166004811115611fcc577f4e487b7100000000000000000000000000000000000000000000000000000000600052602160045260246000fd5b1461200c576040517f08c379a000000000000000000000000000000000000000000000000000000000815260040161200390614b56565b60405180910390fd5b60048160060160006101000a81548160ff0219169083600481111561205a577f4e487b7100000000000000000000000000000000000000000000000000000000600052602160045260246000fd5b02179055508160405161206d9190614671565b60405180910390207f62053ec7b590a1785a5832f731771c8a67d47e1c16b9407b5bc1903ff9b7c5258260020160009054906101000a900473ffffffffffffffffffffffffffffffffffffffff1673ffffffffffffffffffffffffffffffffffffffff163373ffffffffffffffffffffffffffffffffffffffff161461210b576040518060800160405280604281526020016151a560429139612125565b6040518060600160405280603e815260200161524a603e91395b60405161213291906149d9565b60405180910390a25050565b8060008160405161214f9190614671565b908152602001604051809103902060030160009054906101000a900473ffffffffffffffffffffffffffffffffffffffff1673ffffffffffffffffffffffffffffffffffffffff163373ffffffffffffffffffffffffffffffffffffffff16146121ee576040517f08c379a00000000000000000000000000000000000000000000000000000000081526004016121e590614c16565b60405180910390fd5b600080836040516121ff9190614671565b9081526020016040518091039020905060016004811115612249577f4e487b7100000000000000000000000000000000000000000000000000000000600052602160045260246000fd5b8160060160009054906101000a900460ff166004811115612293577f4e487b7100000000000000000000000000000000000000000000000000000000600052602160045260246000fd5b14806123205750600260048111156122d4577f4e487b7100000000000000000000000000000000000000000000000000000000600052602160045260246000fd5b8160060160009054906101000a900460ff16600481111561231e577f4e487b7100000000000000000000000000000000000000000000000000000000600052602160045260246000fd5b145b61235f576040517f08c379a000000000000000000000000000000000000000000000000000000000815260040161235690614c56565b60405180910390fd5b343373ffffffffffffffffffffffffffffffffffffffff163110156123b9576040517f08c379a00000000000000000000000000000000000000000000000000000000081526004016123b090614d36565b60405180910390fd5b600160048111156123f3577f4e487b7100000000000000000000000000000000000000000000000000000000600052602160045260246000fd5b8160060160009054906101000a900460ff16600481111561243d577f4e487b7100000000000000000000000000000000000000000000000000000000600052602160045260246000fd5b14156124975760028160060160006101000a81548160ff02191690836004811115612491577f4e487b7100000000000000000000000000000000000000000000000000000000600052602160045260246000fd5b02179055505b60008160020160009054906101000a900473ffffffffffffffffffffffffffffffffffffffff1673ffffffffffffffffffffffffffffffffffffffff16346040516124e190614688565b60006040518083038185875af1925050503d806000811461251e576040519150601f19603f3d011682016040523d82523d6000602084013e612523565b606091505b5050905080612567576040517f08c379a000000000000000000000000000000000000000000000000000000000815260040161255e90614c36565b60405180910390fd5b6125b084338460020160009054906101000a900473ffffffffffffffffffffffffffffffffffffffff16346040518060600160405280602981526020016150f6602991396130fe565b836040516125be9190614671565b60405180910390207f533295cd82e521ef5bdedbc6debf352fcb558fe7f98c397a0d52cc90e107f310338460020160009054906101000a900473ffffffffffffffffffffffffffffffffffffffff16344260405161261f949392919061469d565b60405180910390a250505050565b60008180516020810182018051848252602083016020850120818352809550505050505060009150905080600001805461266690614fcc565b80601f016020809104026020016040519081016040528092919081815260200182805461269290614fcc565b80156126df5780601f106126b4576101008083540402835291602001916126df565b820191906000526020600020905b8154815290600101906020018083116126c257829003601f168201915b5050505050908060010180546126f490614fcc565b80601f016020809104026020016040519081016040528092919081815260200182805461272090614fcc565b801561276d5780601f106127425761010080835404028352916020019161276d565b820191906000526020600020905b81548152906001019060200180831161275057829003601f168201915b5050505050908060020160009054906101000a900473ffffffffffffffffffffffffffffffffffffffff16908060030160009054906101000a900473ffffffffffffffffffffffffffffffffffffffff16908060040154908060050154908060060160009054906101000a900460ff16905087565b600080846040516127f39190614671565b908152602001604051809103902090508060020160009054906101000a900473ffffffffffffffffffffffffffffffffffffffff1673ffffffffffffffffffffffffffffffffffffffff163373ffffffffffffffffffffffffffffffffffffffff1614612895576040517f08c379a000000000000000000000000000000000000000000000000000000000815260040161288c90614d16565b60405180910390fd5b814710156128d8576040517f08c379a00000000000000000000000000000000000000000000000000000000081526004016128cf90614b16565b60405180910390fd5b8273ffffffffffffffffffffffffffffffffffffffff166108fc839081150290604051600060405180830381858888f1935050505015801561291e573d6000803e3d6000fd5b50612944843085856040518060600160405280603d8152602001615168603d91396130fe565b836040516129529190614671565b60405180910390207f533295cd82e521ef5bdedbc6debf352fcb558fe7f98c397a0d52cc90e107f3103085854260405161298f949392919061474d565b60405180910390a250505050565b806000816040516129ae9190614671565b908152602001604051809103902060030160009054906101000a900473ffffffffffffffffffffffffffffffffffffffff1673ffffffffffffffffffffffffffffffffffffffff163373ffffffffffffffffffffffffffffffffffffffff1614612a4d576040517f08c379a0000000000000000000000000000000000000000000000000000000008152600401612a4490614c16565b60405180910390fd5b60008083604051612a5e9190614671565b9081526020016040518091039020905060006004811115612aa8577f4e487b7100000000000000000000000000000000000000000000000000000000600052602160045260246000fd5b8160060160009054906101000a900460ff166004811115612af2577f4e487b7100000000000000000000000000000000000000000000000000000000600052602160045260246000fd5b14612b32576040517f08c379a0000000000000000000000000000000000000000000000000000000008152600401612b2990614b76565b60405180910390fd5b343373ffffffffffffffffffffffffffffffffffffffff16311015612b8c576040517f08c379a0000000000000000000000000000000000000000000000000000000008152600401612b8390614c76565b60405180910390fd5b60018160060160006101000a81548160ff02191690836004811115612bda577f4e487b7100000000000000000000000000000000000000000000000000000000600052602160045260246000fd5b0217905550612c21833330346040518060400160405280600c81526020017fc490e1bab7742063e1bb8d6300000000000000000000000000000000000000008152506130fe565b82604051612c2f9190614671565b60405180910390207f533295cd82e521ef5bdedbc6debf352fcb558fe7f98c397a0d52cc90e107f31033303442604051612c6c949392919061495f565b60405180910390a2505050565b612c816132e6565b60008083604051612c929190614671565b90815260200160405180910390206040518060e0016040529081600082018054612cbb90614fcc565b80601f0160208091040260200160405190810160405280929190818152602001828054612ce790614fcc565b8015612d345780601f10612d0957610100808354040283529160200191612d34565b820191906000526020600020905b815481529060010190602001808311612d1757829003601f168201915b50505050508152602001600182018054612d4d90614fcc565b80601f0160208091040260200160405190810160405280929190818152602001828054612d7990614fcc565b8015612dc65780601f10612d9b57610100808354040283529160200191612dc6565b820191906000526020600020905b815481529060010190602001808311612da957829003601f168201915b505050505081526020016002820160009054906101000a900473ffffffffffffffffffffffffffffffffffffffff1673ffffffffffffffffffffffffffffffffffffffff1673ffffffffffffffffffffffffffffffffffffffff1681526020016003820160009054906101000a900473ffffffffffffffffffffffffffffffffffffffff1673ffffffffffffffffffffffffffffffffffffffff1673ffffffffffffffffffffffffffffffffffffffff16815260200160048201548152602001600582015481526020016006820160009054906101000a900460ff166004811115612eda577f4e487b7100000000000000000000000000000000000000000000000000000000600052602160045260246000fd5b6004811115612f12577f4e487b7100000000000000000000000000000000000000000000000000000000600052602160045260246000fd5b815250509050806040015173ffffffffffffffffffffffffffffffffffffffff163373ffffffffffffffffffffffffffffffffffffffff161480612f855750806060015173ffffffffffffffffffffffffffffffffffffffff163373ffffffffffffffffffffffffffffffffffffffff16145b612fc4576040517f08c379a0000000000000000000000000000000000000000000000000000000008152600401612fbb90614ad6565b60405180910390fd5b80915050919050565b6001828051602081018201805184825260208301602085012081835280955050505050508181548110612fff57600080fd5b9060005260206000209060050201600091509150508060000160009054906101000a900473ffffffffffffffffffffffffffffffffffffffff16908060010160009054906101000a900473ffffffffffffffffffffffffffffffffffffffff169080600201549080600301549080600401805461307b90614fcc565b80601f01602080910402602001604051908101604052809291908181526020018280546130a790614fcc565b80156130f45780601f106130c9576101008083540402835291602001916130f4565b820191906000526020600020905b8154815290600101906020018083116130d757829003601f168201915b5050505050905085565b60018560405161310e9190614671565b90815260200160405180910390206040518060a001604052808673ffffffffffffffffffffffffffffffffffffffff1681526020018573ffffffffffffffffffffffffffffffffffffffff16815260200184815260200142815260200183815250908060018154018082558091505060019003906000526020600020906005020160009091909190915060008201518160000160006101000a81548173ffffffffffffffffffffffffffffffffffffffff021916908373ffffffffffffffffffffffffffffffffffffffff16021790555060208201518160010160006101000a81548173ffffffffffffffffffffffffffffffffffffffff021916908373ffffffffffffffffffffffffffffffffffffffff16021790555060408201518160020155606082015181600301556080820151816004019080519060200190613256929190613260565b5050505050505050565b82805461326c90614fcc565b90600052602060002090601f01602090048101928261328e57600085556132d5565b82601f106132a757805160ff19168380011785556132d5565b828001600101855582156132d5579182015b828111156132d45782518255916020019190600101906132b9565b5b5090506132e29190613387565b5090565b6040518060e001604052806060815260200160608152602001600073ffffffffffffffffffffffffffffffffffffffff168152602001600073ffffffffffffffffffffffffffffffffffffffff168152602001600081526020016000815260200160006004811115613381577f4e487b7100000000000000000000000000000000000000000000000000000000600052602160045260246000fd5b81525090565b5b808211156133a0576000816000905550600101613388565b5090565b60006133b76133b284614e29565b614df8565b9050828152602081018484840111156133cf57600080fd5b6133da848285614f8a565b509392505050565b6000813590506133f1816150b0565b92915050565b600081359050613406816150c7565b92915050565b600082601f83011261341d57600080fd5b813561342d8482602086016133a4565b91505092915050565b600081359050613445816150de565b92915050565b60006020828403121561345d57600080fd5b600082013567ffffffffffffffff81111561347757600080fd5b6134838482850161340c565b91505092915050565b6000806000606084860312156134a157600080fd5b600084013567ffffffffffffffff8111156134bb57600080fd5b6134c78682870161340c565b93505060206134d8868287016133e2565b92505060406134e986828701613436565b9150509250925092565b60008060006060848603121561350857600080fd5b600084013567ffffffffffffffff81111561352257600080fd5b61352e8682870161340c565b935050602061353f868287016133f7565b925050604061355086828701613436565b9150509250925092565b60008060008060008060c0878903121561357357600080fd5b600087013567ffffffffffffffff81111561358d57600080fd5b61359989828a0161340c565b965050602087013567ffffffffffffffff8111156135b657600080fd5b6135c289828a0161340c565b95505060406135d389828a016133e2565b94505060606135e489828a016133e2565b93505060806135f589828a01613436565b92505060a061360689828a01613436565b9150509295509295509295565b6000806040838503121561362657600080fd5b600083013567ffffffffffffffff81111561364057600080fd5b61364c8582860161340c565b925050602061365d85828601613436565b9150509250929050565b600061367383836145dd565b905092915050565b61368481614f42565b82525050565b61369381614ee7565b82525050565b6136a281614ee7565b82525050565b6136b181614ed5565b82525050565b6136c081614ed5565b82525050565b60006136d182614e69565b6136db8185614e8c565b9350836020820285016136ed85614e59565b8060005b85811015613729578484038952815161370a8582613667565b945061371583614e7f565b925060208a019950506001810190506136f1565b50829750879550505050505092915050565b61374481614f54565b82525050565b61375381614f54565b82525050565b600061376482614e74565b61376e8185614ea8565b935061377e818560208601614f99565b6137878161508b565b840191505092915050565b600061379d82614e74565b6137a78185614eb9565b93506137b7818560208601614f99565b6137c08161508b565b840191505092915050565b60006137d682614e74565b6137e08185614eca565b93506137f0818560208601614f99565b80840191505092915050565b6000613809603d83614eb9565b91507f4368e1bb89206368e1bba72068e1bba37020c491e1bb936e67206de1bb9b692060008301527f63c3b3207468e1bb832074e1baa16f2068e1bba37020c491e1bb936e670000006020830152604082019050919050565b600061386f605c83614eb9565b91507f4368e1bb89206368e1bba72068e1bba37020c491e1bb936e6720686fe1bab76360008301527f206e67c6b0e1bb9d6920746875c3aa206de1bb9b692063c3b3207468e1bb832060208301527f78656d20636869207469e1babf742068e1bba37020c491e1bb936e67000000006040830152606082019050919050565b60006138fb604183614eb9565b91507f4368e1bb89206368e1bba7206e68c3a0206de1bb9b692063c3b3207468e1bb8360008301527f207468e1bbb163206869e1bb876e2068c3a06e6820c491e1bb996e67206ec3a060208301527f79000000000000000000000000000000000000000000000000000000000000006040830152606082019050919050565b6000613987602b83614eb9565b91507f53e1bb912064c6b0206b68c3b46e6720c491e1bba720c491e1bb83206368757960008301527fe1bb836e207469e1bb816e0000000000000000000000000000000000000000006020830152604082019050919050565b60006139ed603983614eb9565b91507f5472e1baa16e67207468c3a1692068e1bba37020c491e1bb936e67206b68c3b460008301527f6e672068e1bba370206ce1bb8720c491e1bb832068e1bba779000000000000006020830152604082019050919050565b6000613a53603f83614eb9565b91507f5472e1baa16e67207468c3a1692068e1bba37020c491e1bb936e67206b68c3b460008301527f6e672068e1bba370206ce1bb8720c491e1bb83206be1babf74207468c3ba63006020830152604082019050919050565b6000613ab9604083614eb9565b91507f5472e1baa16e67207468c3a1692068e1bba37020c491e1bb936e67206b68c3b460008301527f6e672068e1bba370206ce1bb8720c491e1bb8320c491e1bab7742063e1bb8d636020830152604082019050919050565b6000613b1f604383614eb9565b91507f48e1bba37020c491e1bb936e67206b68c3b46e6720e1bb9f207472e1baa16e6760008301527f207468c3a1692068e1bba370206ce1bb8720c491e1bb83206be1babf7420746860208301527fc3ba6300000000000000000000000000000000000000000000000000000000006040830152606082019050919050565b6000613bab603483614eb9565b91507f5468616e6820746fc3a16e207469e1bb816e2063e1bb8d632063686f206368e160008301527fbba7206e68c3a0207468e1baa5742062e1baa1690000000000000000000000006020830152604082019050919050565b6000613c11603883614eb9565b91507f486fc3a06e207472e1baa3207469e1bb816e2063e1bb8d632063686f206e67c660008301527fb0e1bb9d6920746875c3aa207468e1baa5742062e1baa16900000000000000006020830152604082019050919050565b6000613c77602583614eb9565b91507f486fc3a06e207472e1baa3207469e1bb816e2063e1bb8d63207468e1baa5742060008301527f62e1baa1690000000000000000000000000000000000000000000000000000006020830152604082019050919050565b6000613cdd604583614eb9565b91507f4368e1bb89206e67c6b0e1bb9d6920746875c3aa206de1bb9b692063c3b3207460008301527f68e1bb83207468e1bbb163206869e1bb876e2068c3a06e6820c491e1bb996e6760208301527f206ec3a0790000000000000000000000000000000000000000000000000000006040830152606082019050919050565b6000613d69602583614eb9565b91507f5468616e6820746fc3a16e207469e1bb816e20746875c3aa207468e1baa5742060008301527f62e1baa1690000000000000000000000000000000000000000000000000000006020830152604082019050919050565b6000613dcf602983614eb9565b91507f5468616e6820746fc3a16e207469e1bb816e20746875c3aa2076e1bb9b69206360008301527f68e1bba7206e68c3a000000000000000000000000000000000000000000000006020830152604082019050919050565b6000613e35604983614eb9565b91507f486fc3a06e207472e1baa3207469e1bb816e2063e1bb8d632063686f206e67c660008301527fb0e1bb9d6920746875c3aa206b6869206be1babf74207468c3ba632068e1bba360208301527f7020c491e1bb936e6700000000000000000000000000000000000000000000006040830152606082019050919050565b6000613ec1604c83614eb9565b91507f5472e1baa16e67207468c3a1692068e1bba37020c491e1bb936e67206b68c3b460008301527f6e672068e1bba370206ce1bb8720c491e1bb83207468616e6820746fc3a16e2060208301527f7469e1bb816e20746875c3aa00000000000000000000000000000000000000006040830152606082019050919050565b6000613f4d603d83614eb9565b91507f42e1bb9369207468c6b0e1bb9d6e67207469e1bb816e206875e1bbb72068e1bb60008301527fa37020c491e1bb936e672063686f206e67c6b0e1bb9d6920746875c3aa0000006020830152604082019050919050565b6000613fb3602883614eb9565b91507f53e1bb912064c6b0206b68c3b46e6720c491e1bba720c491e1bb8320c491e1ba60008301527fb7742063e1bb8d630000000000000000000000000000000000000000000000006020830152604082019050919050565b6000614019604f83614eb9565b91507f4368e1bb89206368e1bba72068e1bba37020c491e1bb936e6720686fe1bab76360008301527f206e67c6b0e1bb9d6920746875c3aa206de1bb9b692063c3b3207468e1bb832060208301527f78656d206769616f2064e1bb8b636800000000000000000000000000000000006040830152606082019050919050565b60006140a5605483614eb9565b91507f4368e1bb892063c3b3206368e1bba7206e68c3a020686fe1bab763206e67c6b060008301527fe1bb9d6920746875c3aa206de1bb9b692063c3b3207468e1bb83206be1babf7460208301527f207468c3ba632068e1bba37020c491e1bb936e670000000000000000000000006040830152606082019050919050565b6000614131601883614eb9565b91507f486fc3a06e207472e1baa3207469e1bb816e2063e1bb8d6300000000000000006000830152602082019050919050565b6000614171604283614eb9565b91507f53e1bb912064c6b02068e1bba37020c491e1bb936e67206b68c3b46e6720c49160008301527fe1bba720c491e1bb8320686fc3a06e207472e1baa3207469e1bb816e2063e1bb60208301527f8d630000000000000000000000000000000000000000000000000000000000006040830152606082019050919050565b60006141fd606383614eb9565b91507f43687579e1bb836e207469e1bb816e2076c3a06f2068e1bba37020c491e1bb9360008301527f6e6720c491e1bb832062e1bb9369207468c6b0e1bb9d6e672063686f206e67c660208301527fb0e1bb9d6920746875c3aa2076c3ac2068e1bba7792068e1bba37020c491e1bb60408301527f936e6700000000000000000000000000000000000000000000000000000000006060830152608082019050919050565b60006142af601e83614eb9565b91507fc490e1bb8b61206368e1bb89206b68c3b46e672068e1bba370206ce1bb8700006000830152602082019050919050565b60006142ef600083614e9d565b9150600082019050919050565b6000614309603983614eb9565b91507f4368e1bb89206368e1bba72068e1bba37020c491e1bb936e67206de1bb9b692060008301527f63c3b3207468e1bb832063687579e1bb836e207469e1bb816e000000000000006020830152604082019050919050565b600061436f602783614eb9565b91507f5468616e6820746fc3a16e207469e1bb816e2063e1bb8d632063686f206368e160008301527fbba7206e68c3a0000000000000000000000000000000000000000000000000006020830152604082019050919050565b60006143d5603483614eb9565b91507f53e1bb912064c6b0206b68c3b46e6720c491e1bba720c491e1bb83207468616e60008301527f6820746fc3a16e207469e1bb816e20746875c3aa0000000000000000000000006020830152604082019050919050565b600061443b602883614eb9565b91507f53e1bb91207469e1bb816e2063687579e1bb836e207068e1baa369206ce1bb9b60008301527f6e2068c6a16e20300000000000000000000000000000000000000000000000006020830152604082019050919050565b60006144a1602b83614eb9565b91507f486fc3a06e207472e1baa3207469e1bb816e2063e1bb8d632063686f206e67c660008301527fb0e1bb9d6920746875c3aa0000000000000000000000000000000000000000006020830152604082019050919050565b6000614507600c83614eb9565b91507fc490e1bab7742063e1bb8d6300000000000000000000000000000000000000006000830152602082019050919050565b600060e08301600083015184820360008601526145578282613759565b915050602083015184820360208601526145718282613759565b9150506040830151614586604086018261368a565b506060830151614599606086018261368a565b5060808301516145ac6080860182614653565b5060a08301516145bf60a0860182614653565b5060c08301516145d260c086018261373b565b508091505092915050565b600060a0830160008301516145f560008601826136a8565b50602083015161460860208601826136a8565b50604083015161461b6040860182614653565b50606083015161462e6060860182614653565b50608083015184820360808601526146468282613759565b9150508091505092915050565b61465c81614f38565b82525050565b61466b81614f38565b82525050565b600061467d82846137cb565b915081905092915050565b6000614693826142e2565b9150819050919050565b600060a0820190506146b260008301876136b7565b6146bf602083018661367b565b6146cc6040830185614662565b6146d96060830184614662565b81810360808301526146ea81613dc2565b905095945050505050565b600060a08201905061470a60008301876136b7565b614717602083018661367b565b6147246040830185614662565b6147316060830184614662565b818103608083015261474281613e28565b905095945050505050565b600060a08201905061476260008301876136b7565b61476f602083018661367b565b61477c6040830185614662565b6147896060830184614662565b818103608083015261479a81613f40565b905095945050505050565b600060a0820190506147ba60008301876136b7565b6147c7602083018661367b565b6147d46040830185614662565b6147e16060830184614662565b81810360808301526147f281614124565b905095945050505050565b600060a08201905061481260008301876136b7565b61481f602083018661367b565b61482c6040830185614662565b6148396060830184614662565b818103608083015261484a81614362565b905095945050505050565b600060a08201905061486a60008301886136b7565b61487760208301876136b7565b6148846040830186614662565b6148916060830185614662565b81810360808301526148a38184613792565b90509695505050505050565b600060a0820190506148c460008301876136b7565b6148d160208301866136b7565b6148de6040830185614662565b6148eb6060830184614662565b81810360808301526148fc816141f0565b905095945050505050565b600060a08201905061491c60008301876136b7565b61492960208301866136b7565b6149366040830185614662565b6149436060830184614662565b818103608083015261495481614494565b905095945050505050565b600060a08201905061497460008301876136b7565b61498160208301866136b7565b61498e6040830185614662565b61499b6060830184614662565b81810360808301526149ac816144fa565b905095945050505050565b600060208201905081810360008301526149d181846136c6565b905092915050565b600060208201905081810360008301526149f38184613792565b905092915050565b600060e0820190508181036000830152614a15818a613792565b90508181036020830152614a298189613792565b9050614a386040830188613699565b614a456060830187613699565b614a526080830186614662565b614a5f60a0830185614662565b614a6c60c083018461374a565b98975050505050505050565b60006060820190508181036000830152614a928186613792565b9050614aa16020830185614662565b614aae6040830184614662565b949350505050565b60006020820190508181036000830152614acf816137fc565b9050919050565b60006020820190508181036000830152614aef81613862565b9050919050565b60006020820190508181036000830152614b0f816138ee565b9050919050565b60006020820190508181036000830152614b2f8161397a565b9050919050565b60006020820190508181036000830152614b4f816139e0565b9050919050565b60006020820190508181036000830152614b6f81613a46565b9050919050565b60006020820190508181036000830152614b8f81613aac565b9050919050565b60006020820190508181036000830152614baf81613b12565b9050919050565b60006020820190508181036000830152614bcf81613b9e565b9050919050565b60006020820190508181036000830152614bef81613c04565b9050919050565b60006020820190508181036000830152614c0f81613c6a565b9050919050565b60006020820190508181036000830152614c2f81613cd0565b9050919050565b60006020820190508181036000830152614c4f81613d5c565b9050919050565b60006020820190508181036000830152614c6f81613eb4565b9050919050565b60006020820190508181036000830152614c8f81613fa6565b9050919050565b60006020820190508181036000830152614caf8161400c565b9050919050565b60006020820190508181036000830152614ccf81614098565b9050919050565b60006020820190508181036000830152614cef81614164565b9050919050565b60006020820190508181036000830152614d0f816142a2565b9050919050565b60006020820190508181036000830152614d2f816142fc565b9050919050565b60006020820190508181036000830152614d4f816143c8565b9050919050565b60006020820190508181036000830152614d6f8161442e565b9050919050565b60006020820190508181036000830152614d90818461453a565b905092915050565b6000604082019050614dad6000830185614662565b614dba6020830184614662565b9392505050565b6000606082019050614dd66000830186614662565b614de36020830185614662565b614df06040830184614662565b949350505050565b6000604051905081810181811067ffffffffffffffff82111715614e1f57614e1e61505c565b5b8060405250919050565b600067ffffffffffffffff821115614e4457614e4361505c565b5b601f19601f8301169050602081019050919050565b6000819050602082019050919050565b600081519050919050565b600081519050919050565b6000602082019050919050565b600082825260208201905092915050565b600081905092915050565b600082825260208201905092915050565b600082825260208201905092915050565b600081905092915050565b6000614ee082614f18565b9050919050565b6000614ef282614f18565b9050919050565b60008115159050919050565b6000819050614f138261509c565b919050565b600073ffffffffffffffffffffffffffffffffffffffff82169050919050565b6000819050919050565b6000614f4d82614f66565b9050919050565b6000614f5f82614f05565b9050919050565b6000614f7182614f78565b9050919050565b6000614f8382614f18565b9050919050565b82818337600083830152505050565b60005b83811015614fb7578082015181840152602081019050614f9c565b83811115614fc6576000848401525b50505050565b60006002820490506001821680614fe457607f821691505b60208210811415614ff857614ff761502d565b5b50919050565b7f4e487b7100000000000000000000000000000000000000000000000000000000600052602160045260246000fd5b7f4e487b7100000000000000000000000000000000000000000000000000000000600052602260045260246000fd5b7f4e487b7100000000000000000000000000000000000000000000000000000000600052604160045260246000fd5b6000601f19601f8301169050919050565b600581106150ad576150ac614ffe565b5b50565b6150b981614ee7565b81146150c457600080fd5b50565b6150d081614ef9565b81146150db57600080fd5b50565b6150e781614f38565b81146150f257600080fd5b5056fe5468616e6820746fc3a16e207469e1bb816e20746875c3aa2076e1bb9b69206368e1bba7206e68c3a0486fc3a06e207472e1baa3207469e1bb816e2063e1bb8d632063686f206e67c6b0e1bb9d6920746875c3aa206b6869206be1babf74207468c3ba632068e1bba37020c491e1bb936e6742e1bb9369207468c6b0e1bb9d6e67207469e1bb816e206875e1bbb72068e1bba37020c491e1bb936e672063686f206e67c6b0e1bb9d6920746875c3aa4e67c6b0e1bb9d6920746875c3aa206be1babf74207468c3ba632068e1bba37020c491e1bb936e67207472c6b0e1bb9b63206b686920c491e1bab7742063e1bb8d6343687579e1bb836e207469e1bb816e2076c3a06f2068e1bba37020c491e1bb936e6720c491e1bb832062e1bb9369207468c6b0e1bb9d6e672063686f206e67c6b0e1bb9d6920746875c3aa2076c3ac2068e1bba7792068e1bba37020c491e1bb936e674368e1bba7206e68c3a0206be1babf74207468c3ba632068e1bba37020c491e1bb936e67207472c6b0e1bb9b63206b686920c491e1bab7742063e1bb8d635468616e6820746fc3a16e207469e1bb816e2063e1bb8d632063686f206368e1bba7206e68c3a0486fc3a06e207472e1baa3207469e1bb816e2063e1bb8d632063686f206e67c6b0e1bb9d6920746875c3aaa2646970667358221220b52ba4dc12ac3bcda0b9522ec1c41906edfb827b47b8322aa0c9e68fbceabc9064736f6c63430008000033",
  "immutableReferences": {},
  "source": "// SPDX-License-Identifier: MIT\r\npragma solidity ^0.8.0;\r\n\r\ncontract RentalContract {\r\n    enum RentalStatus {\r\n        NotCreated,\r\n        Deposited,\r\n        Ongoing,\r\n        Ended,\r\n        Cancelled\r\n    }\r\n\r\n    struct Contract {\r\n        string contractID;\r\n        string propertyID; // Thm propertyID kiu chui\r\n        address payable owner;\r\n        address payable renter;\r\n        uint depositAmount;\r\n        uint monthlyRent;\r\n        RentalStatus status;\r\n    }\r\n\r\n    struct Transaction {\r\n        address from;\r\n        address to;\r\n        uint amount;\r\n        uint timestamp;\r\n        string transactionType;\r\n    }\r\n\r\n    mapping(string => Contract) public contracts; // Thay contractID kiu chui\r\n    mapping(string => Transaction[]) public contractTransactions;\r\n\r\n    event ContractCreated(\r\n        string indexed contractID,\r\n        string propertyID,\r\n        address indexed owner,\r\n        address indexed renter,\r\n        uint depositAmount,\r\n        uint monthlyRent\r\n    );\r\n    event TransactionRecorded(\r\n        string indexed contractID,\r\n        address from,\r\n        address to,\r\n        uint amount,\r\n        uint timestamp,\r\n        string transactionType\r\n    );\r\n    event ContractCancelledByRenter(\r\n        string indexed contractID,\r\n        address indexed renter,\r\n        uint depositLoss,\r\n        uint extraCharge,\r\n        uint timestamp\r\n    );\r\n    event ContractCancelledByOwner(string indexed contractID, address indexed owner, uint compensation, uint timestamp);\r\n    event ContractTerminated(string indexed contractID, string reason);\r\n    event ContractEnded(string indexed contractID, address indexed renter, uint depositRefundAmount, uint timestamp);\r\n\r\n    modifier onlyOwner(string memory _contractID) {\r\n        require(msg.sender == contracts[_contractID].owner, unicode'Ch ch nh mi c th thc hin hnh ng ny');\r\n        _;\r\n    }\r\n\r\n    modifier onlyRenter(string memory _contractID) {\r\n        require(\r\n            msg.sender == contracts[_contractID].renter,\r\n            unicode'Ch ngi thu mi c th thc hin hnh ng ny'\r\n        );\r\n        _;\r\n    }\r\n\r\n    modifier onlyContractOwner(address _owner) {\r\n        require(msg.sender == _owner, unicode'Ch ch hp ng mi c th to hp ng');\r\n        _;\r\n    }\r\n\r\n    function createContract(\r\n        string memory _contractID,\r\n        string memory _propertyID,\r\n        address payable _owner,\r\n        address payable _renter,\r\n        uint _depositAmount,\r\n        uint _monthlyRent\r\n    ) public onlyContractOwner(_owner) {\r\n        require(_owner != address(0) && _renter != address(0), unicode'a ch khng hp l');\r\n\r\n        contracts[_contractID] = Contract({\r\n            contractID: _contractID,\r\n            propertyID: _propertyID,\r\n            owner: _owner,\r\n            renter: _renter,\r\n            depositAmount: _depositAmount,\r\n            monthlyRent: _monthlyRent,\r\n            status: RentalStatus.NotCreated\r\n        });\r\n\r\n        emit ContractCreated(_contractID, _propertyID, _owner, _renter, _depositAmount, _monthlyRent);\r\n    }\r\n\r\n    function deposit(string memory _contractID) public payable onlyRenter(_contractID) {\r\n        Contract storage contractInfo = contracts[_contractID];\r\n\r\n        require(contractInfo.status == RentalStatus.NotCreated, unicode'Trng thi hp ng khng hp l  t cc');\r\n        require(address(msg.sender).balance >= msg.value, unicode'S d khng   t cc');\r\n\r\n        contractInfo.status = RentalStatus.Deposited;\r\n\r\n        _recordTransaction(_contractID, msg.sender, address(this), msg.value, unicode't cc');\r\n\r\n        emit TransactionRecorded(_contractID, msg.sender, address(this), msg.value, block.timestamp, unicode't cc');\r\n    }\r\n\r\n    function payRent(string memory _contractID) public payable onlyRenter(_contractID) {\r\n        Contract storage contractInfo = contracts[_contractID];\r\n\r\n        require(\r\n            contractInfo.status == RentalStatus.Deposited || contractInfo.status == RentalStatus.Ongoing,\r\n            unicode'Trng thi hp ng khng hp l  thanh ton tin thu'\r\n        );\r\n        require(address(msg.sender).balance >= msg.value, unicode'S d khng   thanh ton tin thu');\r\n\r\n        if (contractInfo.status == RentalStatus.Deposited) {\r\n            contractInfo.status = RentalStatus.Ongoing;\r\n        }\r\n\r\n        (bool success, ) = contractInfo.owner.call{ value: msg.value }('');\r\n        require(success, unicode'Thanh ton tin thu tht bi');\r\n\r\n        _recordTransaction(\r\n            _contractID,\r\n            msg.sender,\r\n            contractInfo.owner,\r\n            msg.value,\r\n            unicode'Thanh ton tin thu vi ch nh'\r\n        );\r\n\r\n        emit TransactionRecorded(\r\n            _contractID,\r\n            msg.sender,\r\n            contractInfo.owner,\r\n            msg.value,\r\n            block.timestamp,\r\n            unicode'Thanh ton tin thu vi ch nh'\r\n        );\r\n    }\r\n\r\n    // FIXME\r\n    function transferToAddress(string memory _contractID, address payable recipient, uint256 amount) public {\r\n        Contract storage contractInfo = contracts[_contractID];\r\n\r\n        require(msg.sender == contractInfo.owner, unicode'Ch ch hp ng mi c th chuyn tin');\r\n        require(address(this).balance >= amount, unicode'S d khng   chuyn tin');\r\n        recipient.transfer(amount);\r\n\r\n        _recordTransaction(\r\n            _contractID,\r\n            address(this),\r\n            recipient,\r\n            amount,\r\n            unicode'Bi thng tin hu hp ng cho ngi thu'\r\n        );\r\n\r\n        emit TransactionRecorded(\r\n            _contractID,\r\n            address(this),\r\n            recipient,\r\n            amount,\r\n            block.timestamp,\r\n            unicode'Bi thng tin hu hp ng cho ngi thu'\r\n        );\r\n    }\r\n\r\n    // FIXME\r\n    function transferToSmartContract(string memory _contractID) public payable {\r\n        Contract storage contractInfo = contracts[_contractID];\r\n\r\n        require(msg.sender == contractInfo.owner, unicode'Ch ch hp ng mi c th chuyn tin');\r\n\r\n        require(msg.value > 0, unicode'S tin chuyn phi ln hn 0');\r\n        require(address(msg.sender).balance >= msg.value, unicode'S d khng   chuyn tin');\r\n\r\n        _recordTransaction(\r\n            _contractID,\r\n            msg.sender,\r\n            address(this),\r\n            msg.value,\r\n            unicode'Chuyn tin vo hp ng  bi thng cho ngi thu v hy hp ng'\r\n        );\r\n\r\n        emit TransactionRecorded(\r\n            _contractID,\r\n            msg.sender,\r\n            address(this),\r\n            msg.value,\r\n            block.timestamp,\r\n            unicode'Chuyn tin vo hp ng  bi thng cho ngi thu v hy hp ng'\r\n        );\r\n    }\r\n\r\n    // function contractualIndemnity(string memory _contractID) public payable onlyOwner(_contractID) {\r\n    //     Contract storage contractInfo = contracts[_contractID];\r\n\r\n    //     require(\r\n    //         contractInfo.status == RentalStatus.Deposited || contractInfo.status == RentalStatus.Ongoing,\r\n    //         unicode'Trng thi hp ng khng hp l  thanh ton tin thu'\r\n    //     );\r\n    //     require(address(msg.sender).balance >= msg.value, unicode'S d khng   bi thng');\r\n\r\n    //     (bool success, ) = contractInfo.renter.call{ value: msg.value }('');\r\n    //     require(success, unicode'Bi thng tin hu hp ng tht bi');\r\n\r\n    //     _recordTransaction(\r\n    //         _contractID,\r\n    //         msg.sender,\r\n    //         contractInfo.renter,\r\n    //         msg.value,\r\n    //         unicode'Bi thng hp ng cho ngi thu'\r\n    //     );\r\n\r\n    //     emit TransactionRecorded(\r\n    //         _contractID,\r\n    //         msg.sender,\r\n    //         contractInfo.renter,\r\n    //         msg.value,\r\n    //         block.timestamp,\r\n    //         unicode'Bi thng hp ng cho ngi thu'\r\n    //     );\r\n    // }\r\n\r\n    function cancelContractBeforeDeposit(string memory _contractID) public {\r\n        Contract storage contractInfo = contracts[_contractID];\r\n\r\n        // Kim tra xem ngi gi hm c phi l ch nh hoc ngi thu hay khng\r\n        require(\r\n            msg.sender == contractInfo.owner || msg.sender == contractInfo.renter,\r\n            unicode'Ch c ch nh hoc ngi thu mi c th kt thc hp ng'\r\n        );\r\n\r\n        // Kim tra trng thi hp ng\r\n        require(contractInfo.status == RentalStatus.NotCreated, unicode'Trng thi hp ng khng hp l  kt thc');\r\n\r\n        // Cp nht trng thi hp ng\r\n        contractInfo.status = RentalStatus.Cancelled;\r\n\r\n        // Pht s kin kt thc hp ng\r\n        emit ContractTerminated(\r\n            _contractID,\r\n            msg.sender == contractInfo.owner\r\n                ? unicode'Ch nh kt thc hp ng trc khi t cc'\r\n                : unicode'Ngi thu kt thc hp ng trc khi t cc'\r\n        );\r\n    }\r\n\r\n    // TODO\r\n    function endContract(string memory _contractID, uint depositAmount) public payable onlyOwner(_contractID) {\r\n        Contract storage contractInfo = contracts[_contractID];\r\n\r\n        if (contractInfo.status == RentalStatus.NotCreated) {\r\n            contractInfo.status = RentalStatus.Ended;\r\n        } else if (contractInfo.status == RentalStatus.Deposited || contractInfo.status == RentalStatus.Ongoing) {\r\n            require(address(this).balance >= depositAmount, unicode'S d hp ng khng   hon tr tin cc');\r\n\r\n            (bool success, ) = contractInfo.renter.call{ value: depositAmount }('');\r\n            require(success, unicode'Hon tr tin cc tht bi');\r\n\r\n            _recordTransaction(\r\n                _contractID,\r\n                address(this),\r\n                contractInfo.renter,\r\n                depositAmount,\r\n                unicode'Hon tr tin cc cho ngi thu khi kt thc hp ng'\r\n            );\r\n\r\n            emit TransactionRecorded(\r\n                _contractID,\r\n                address(this),\r\n                contractInfo.renter,\r\n                depositAmount,\r\n                block.timestamp,\r\n                unicode'Hon tr tin cc cho ngi thu khi kt thc hp ng'\r\n            );\r\n\r\n            contractInfo.status = RentalStatus.Ended;\r\n        } else {\r\n            revert(unicode'Hp ng khng  trng thi hp l  kt thc');\r\n        }\r\n        emit ContractEnded(_contractID, contractInfo.renter, depositAmount, block.timestamp);\r\n    }\r\n\r\n    function _recordTransaction(\r\n        string memory _contractID,\r\n        address _from,\r\n        address _to,\r\n        uint _amount,\r\n        string memory _transactionType\r\n    ) internal {\r\n        contractTransactions[_contractID].push(\r\n            Transaction({\r\n                from: _from,\r\n                to: _to,\r\n                amount: _amount,\r\n                timestamp: block.timestamp,\r\n                transactionType: _transactionType\r\n            })\r\n        );\r\n    }\r\n\r\n    function getContractDetails(string memory _contractID) public view returns (Contract memory) {\r\n        Contract memory contractInfo = contracts[_contractID];\r\n        require(\r\n            msg.sender == contractInfo.owner || msg.sender == contractInfo.renter,\r\n            unicode'Ch ch hp ng hoc ngi thu mi c th xem chi tit hp ng'\r\n        );\r\n        return contractInfo;\r\n    }\r\n\r\n    function getContractTransactions(string memory _contractID) public view returns (Transaction[] memory) {\r\n        Contract memory contractInfo = contracts[_contractID];\r\n        require(\r\n            msg.sender == contractInfo.owner || msg.sender == contractInfo.renter,\r\n            unicode'Ch ch hp ng hoc ngi thu mi c th xem giao dch'\r\n        );\r\n        return contractTransactions[_contractID];\r\n    }\r\n\r\n    // function terminateForNonPayment(string memory _contractId, uint depositAmount) public {\r\n    //     Contract storage contractInfo = contracts[_contractId];\r\n\r\n    //     // Ch cho php khi trng thi hp ng l Deposited hoc Ongoing\r\n    //     require(contractInfo.status == RentalStatus.Ongoing, unicode'Hp ng phi  trng thi ang hot ng');\r\n\r\n    //     // X l logic mt tin cc nu khng thanh ton ng hn\r\n    //     if (depositAmount > 0) {\r\n    //         require(address(this).balance >= depositAmount, unicode'S d hp ng khng   mt tin cc');\r\n\r\n    //         // Chuyn tin cc cho ch nh\r\n    //         (bool success, ) = contractInfo.owner.call{ value: depositAmount }('');\r\n    //         require(success, unicode'Thanh ton tin cc cho ch nh tht bi');\r\n\r\n    //         // Lu giao dch\r\n    //         _recordTransaction(\r\n    //             _contractId,\r\n    //             address(this),\r\n    //             contractInfo.owner,\r\n    //             depositAmount,\r\n    //             unicode'Thanh ton tin cc cho ch nh v khng thanh ton ng hn'\r\n    //         );\r\n    //     }\r\n\r\n    //     // nh du hp ng  kt thc\r\n    //     contractInfo.status = RentalStatus.Ended;\r\n    //     emit ContractEnded(_contractId, contractInfo.renter, depositAmount, block.timestamp);\r\n    // }\r\n\r\n    // FIXME\r\n    function cancelContractByRenter(\r\n        string memory _contractId,\r\n        bool notifyBefore30Days,\r\n        uint depositAmount\r\n    ) public payable onlyRenter(_contractId) {\r\n        Contract storage contractInfo = contracts[_contractId];\r\n\r\n        require(\r\n            contractInfo.status == RentalStatus.Deposited || contractInfo.status == RentalStatus.Ongoing,\r\n            unicode'Trng thi hp ng khng hp l  hy'\r\n        );\r\n\r\n        uint depositLoss = 0;\r\n        uint extraCharge = 0;\r\n\r\n        if (notifyBefore30Days) {\r\n            // Hon tr tin cc nu thng bo trc 30 ngy\r\n            require(address(this).balance >= depositAmount, unicode'S d hp ng khng   hon tr tin cc');\r\n\r\n            (bool successRefund, ) = contractInfo.renter.call{ value: depositAmount }('');\r\n            require(successRefund, unicode'Hon tr tin cc cho ngi thu tht bi');\r\n\r\n            _recordTransaction(\r\n                _contractId,\r\n                address(this),\r\n                msg.sender,\r\n                depositAmount,\r\n                unicode'Hon tr tin cc cho ngi thu'\r\n            );\r\n\r\n            emit TransactionRecorded(\r\n                _contractId,\r\n                address(this),\r\n                msg.sender,\r\n                depositAmount,\r\n                block.timestamp,\r\n                unicode'Hon tr tin cc cho ngi thu'\r\n            );\r\n        } else {\r\n            // Tnh ph b sung v chuyn tin cc nu khng thng bo trc 30 ngy\r\n            // extraCharge = contractInfo.monthlyRent;\r\n            // require(msg.value == extraCharge, \"Incorrect extra charge amount\");\r\n            // require(address(msg.sender).balance >= extraCharge, \"Insufficient balance of renter\");\r\n\r\n            // (bool successExtraCharge, ) = contractInfo.owner.call{value: extraCharge}(\"\");\r\n            // require(successExtraCharge, \"Extra charge transfer failed\");\r\n\r\n            // _recordTransaction(_contractId, msg.sender, contractInfo.owner, extraCharge, \"Extra Charge\");\r\n\r\n            depositLoss = depositAmount;\r\n            require(address(this).balance >= depositLoss, unicode'S d hp ng khng   hon tr tin cc');\r\n\r\n            (bool successDeposit, ) = contractInfo.owner.call{ value: depositLoss }(''); // Chuyn tin cc t ngi thu cho ch nh\r\n            require(successDeposit, unicode'Thanh ton tin cc cho ch nh tht bi');\r\n\r\n            _recordTransaction(\r\n                _contractId,\r\n                address(this),\r\n                contractInfo.owner,\r\n                depositLoss,\r\n                unicode'Thanh ton tin cc cho ch nh'\r\n            );\r\n\r\n            emit TransactionRecorded(\r\n                _contractId,\r\n                address(this),\r\n                contractInfo.owner,\r\n                depositLoss,\r\n                block.timestamp,\r\n                unicode'Thanh ton tin cc cho ch nh'\r\n            );\r\n        }\r\n\r\n        contractInfo.status = RentalStatus.Ended;\r\n        emit ContractCancelledByRenter(_contractId, msg.sender, depositLoss, extraCharge, block.timestamp);\r\n    }\r\n\r\n    // FIXME\r\n    function cancelContractByOwner(\r\n        string memory _contractId,\r\n        uint depositAmount\r\n    ) public payable onlyOwner(_contractId) {\r\n        Contract storage contractInfo = contracts[_contractId];\r\n\r\n        require(\r\n            contractInfo.status == RentalStatus.Deposited || contractInfo.status == RentalStatus.Ongoing,\r\n            unicode'Trng thi hp ng khng hp l  hy'\r\n        );\r\n\r\n        // Hon tr tin cc cho ngi thu nu hp ng vn cn hiu lc\r\n        require(address(this).balance >= depositAmount, unicode'S d hp ng khng   hon tr tin cc');\r\n\r\n        (bool successDeposit, ) = contractInfo.renter.call{ value: depositAmount }('');\r\n        require(successDeposit, unicode'Hon tr tin cc tht bi');\r\n\r\n        _recordTransaction(_contractId, address(this), contractInfo.renter, depositAmount, unicode'Hon tr tin cc');\r\n\r\n        emit TransactionRecorded(\r\n            _contractId,\r\n            address(this),\r\n            contractInfo.renter,\r\n            depositAmount,\r\n            block.timestamp,\r\n            unicode'Hon tr tin cc'\r\n        );\r\n\r\n        contractInfo.status = RentalStatus.Ended;\r\n        emit ContractCancelledByOwner(_contractId, msg.sender, depositAmount, block.timestamp);\r\n    }\r\n}\r\n",
  "sourcePath": "C:\\Code\\kltn\\backend\\contract-service\\contractRental\\contracts\\RentalContract.sol",
  "compiler": {
    "name": "solc",
    "version": "0.8.0+commit.c7dfd78e.Emscripten.clang"
  },
  "schemaVersion": "3.4.16",
  "updatedAt": "2024-11-02T16:23:18.760Z",
  "networkType": "ethereum",
  "devdoc": {
    "kind": "dev",
    "methods": {},
    "version": 1
  },
  "userdoc": {
    "kind": "user",
    "methods": {},
    "version": 1
  }
}