{
  "contractName": "RentalContract",
  "abi": [
    {
      "anonymous": false,
      "inputs": [
        {
          "indexed": true,
          "internalType": "string",
          "name": "contractID",
          "type": "string"
        },
        {
          "indexed": true,
          "internalType": "address",
          "name": "owner",
          "type": "address"
        },
        {
          "indexed": false,
          "internalType": "uint256",
          "name": "compensation",
          "type": "uint256"
        },
        {
          "indexed": false,
          "internalType": "uint256",
          "name": "timestamp",
          "type": "uint256"
        }
      ],
      "name": "ContractCancelledByOwner",
      "type": "event"
    },
    {
      "anonymous": false,
      "inputs": [
        {
          "indexed": true,
          "internalType": "string",
          "name": "contractID",
          "type": "string"
        },
        {
          "indexed": true,
          "internalType": "address",
          "name": "renter",
          "type": "address"
        },
        {
          "indexed": false,
          "internalType": "uint256",
          "name": "depositLoss",
          "type": "uint256"
        },
        {
          "indexed": false,
          "internalType": "uint256",
          "name": "extraCharge",
          "type": "uint256"
        },
        {
          "indexed": false,
          "internalType": "uint256",
          "name": "timestamp",
          "type": "uint256"
        }
      ],
      "name": "ContractCancelledByRenter",
      "type": "event"
    },
    {
      "anonymous": false,
      "inputs": [
        {
          "indexed": true,
          "internalType": "string",
          "name": "contractID",
          "type": "string"
        },
        {
          "indexed": false,
          "internalType": "string",
          "name": "propertyID",
          "type": "string"
        },
        {
          "indexed": true,
          "internalType": "address",
          "name": "owner",
          "type": "address"
        },
        {
          "indexed": true,
          "internalType": "address",
          "name": "renter",
          "type": "address"
        },
        {
          "indexed": false,
          "internalType": "uint256",
          "name": "depositAmount",
          "type": "uint256"
        },
        {
          "indexed": false,
          "internalType": "uint256",
          "name": "monthlyRent",
          "type": "uint256"
        }
      ],
      "name": "ContractCreated",
      "type": "event"
    },
    {
      "anonymous": false,
      "inputs": [
        {
          "indexed": true,
          "internalType": "string",
          "name": "contractID",
          "type": "string"
        },
        {
          "indexed": true,
          "internalType": "address",
          "name": "renter",
          "type": "address"
        },
        {
          "indexed": false,
          "internalType": "uint256",
          "name": "depositRefundAmount",
          "type": "uint256"
        },
        {
          "indexed": false,
          "internalType": "uint256",
          "name": "timestamp",
          "type": "uint256"
        }
      ],
      "name": "ContractEnded",
      "type": "event"
    },
    {
      "anonymous": false,
      "inputs": [
        {
          "indexed": true,
          "internalType": "string",
          "name": "contractID",
          "type": "string"
        },
        {
          "indexed": false,
          "internalType": "string",
          "name": "reason",
          "type": "string"
        }
      ],
      "name": "ContractTerminated",
      "type": "event"
    },
    {
      "anonymous": false,
      "inputs": [
        {
          "indexed": true,
          "internalType": "string",
          "name": "contractID",
          "type": "string"
        },
        {
          "indexed": false,
          "internalType": "address",
          "name": "from",
          "type": "address"
        },
        {
          "indexed": false,
          "internalType": "address",
          "name": "to",
          "type": "address"
        },
        {
          "indexed": false,
          "internalType": "uint256",
          "name": "amount",
          "type": "uint256"
        },
        {
          "indexed": false,
          "internalType": "uint256",
          "name": "timestamp",
          "type": "uint256"
        },
        {
          "indexed": false,
          "internalType": "string",
          "name": "transactionType",
          "type": "string"
        }
      ],
      "name": "TransactionRecorded",
      "type": "event"
    },
    {
      "inputs": [
        {
          "internalType": "string",
          "name": "",
          "type": "string"
        },
        {
          "internalType": "uint256",
          "name": "",
          "type": "uint256"
        }
      ],
      "name": "contractTransactions",
      "outputs": [
        {
          "internalType": "address",
          "name": "from",
          "type": "address"
        },
        {
          "internalType": "address",
          "name": "to",
          "type": "address"
        },
        {
          "internalType": "uint256",
          "name": "amount",
          "type": "uint256"
        },
        {
          "internalType": "uint256",
          "name": "timestamp",
          "type": "uint256"
        },
        {
          "internalType": "string",
          "name": "transactionType",
          "type": "string"
        }
      ],
      "stateMutability": "view",
      "type": "function",
      "constant": true
    },
    {
      "inputs": [
        {
          "internalType": "string",
          "name": "",
          "type": "string"
        }
      ],
      "name": "contracts",
      "outputs": [
        {
          "internalType": "string",
          "name": "contractID",
          "type": "string"
        },
        {
          "internalType": "string",
          "name": "propertyID",
          "type": "string"
        },
        {
          "internalType": "address payable",
          "name": "owner",
          "type": "address"
        },
        {
          "internalType": "address payable",
          "name": "renter",
          "type": "address"
        },
        {
          "internalType": "uint256",
          "name": "depositAmount",
          "type": "uint256"
        },
        {
          "internalType": "uint256",
          "name": "monthlyRent",
          "type": "uint256"
        },
        {
          "internalType": "enum RentalContract.RentalStatus",
          "name": "status",
          "type": "uint8"
        }
      ],
      "stateMutability": "view",
      "type": "function",
      "constant": true
    },
    {
      "inputs": [
        {
          "internalType": "string",
          "name": "_contractID",
          "type": "string"
        },
        {
          "internalType": "string",
          "name": "_propertyID",
          "type": "string"
        },
        {
          "internalType": "address payable",
          "name": "_owner",
          "type": "address"
        },
        {
          "internalType": "address payable",
          "name": "_renter",
          "type": "address"
        },
        {
          "internalType": "uint256",
          "name": "_depositAmount",
          "type": "uint256"
        },
        {
          "internalType": "uint256",
          "name": "_monthlyRent",
          "type": "uint256"
        }
      ],
      "name": "createContract",
      "outputs": [],
      "stateMutability": "nonpayable",
      "type": "function"
    },
    {
      "inputs": [
        {
          "internalType": "string",
          "name": "_contractID",
          "type": "string"
        }
      ],
      "name": "deposit",
      "outputs": [],
      "stateMutability": "payable",
      "type": "function",
      "payable": true
    },
    {
      "inputs": [
        {
          "internalType": "string",
          "name": "_contractID",
          "type": "string"
        }
      ],
      "name": "payRent",
      "outputs": [],
      "stateMutability": "payable",
      "type": "function",
      "payable": true
    },
    {
      "inputs": [
        {
          "internalType": "address payable",
          "name": "recipient",
          "type": "address"
        },
        {
          "internalType": "uint256",
          "name": "amount",
          "type": "uint256"
        }
      ],
      "name": "transferToAddress",
      "outputs": [],
      "stateMutability": "nonpayable",
      "type": "function"
    },
    {
      "inputs": [],
      "name": "transferToSmartContract",
      "outputs": [],
      "stateMutability": "payable",
      "type": "function",
      "payable": true
    },
    {
      "inputs": [
        {
          "internalType": "string",
          "name": "_contractID",
          "type": "string"
        }
      ],
      "name": "contractualIndemnity",
      "outputs": [],
      "stateMutability": "payable",
      "type": "function",
      "payable": true
    },
    {
      "inputs": [
        {
          "internalType": "string",
          "name": "_contractID",
          "type": "string"
        }
      ],
      "name": "cancelContractBeforeDeposit",
      "outputs": [],
      "stateMutability": "nonpayable",
      "type": "function"
    },
    {
      "inputs": [
        {
          "internalType": "string",
          "name": "_contractID",
          "type": "string"
        },
        {
          "internalType": "uint256",
          "name": "depositAmount",
          "type": "uint256"
        }
      ],
      "name": "endContract",
      "outputs": [],
      "stateMutability": "payable",
      "type": "function",
      "payable": true
    },
    {
      "inputs": [
        {
          "internalType": "string",
          "name": "_contractID",
          "type": "string"
        }
      ],
      "name": "getContractDetails",
      "outputs": [
        {
          "components": [
            {
              "internalType": "string",
              "name": "contractID",
              "type": "string"
            },
            {
              "internalType": "string",
              "name": "propertyID",
              "type": "string"
            },
            {
              "internalType": "address payable",
              "name": "owner",
              "type": "address"
            },
            {
              "internalType": "address payable",
              "name": "renter",
              "type": "address"
            },
            {
              "internalType": "uint256",
              "name": "depositAmount",
              "type": "uint256"
            },
            {
              "internalType": "uint256",
              "name": "monthlyRent",
              "type": "uint256"
            },
            {
              "internalType": "enum RentalContract.RentalStatus",
              "name": "status",
              "type": "uint8"
            }
          ],
          "internalType": "struct RentalContract.Contract",
          "name": "",
          "type": "tuple"
        }
      ],
      "stateMutability": "view",
      "type": "function",
      "constant": true
    },
    {
      "inputs": [
        {
          "internalType": "string",
          "name": "_contractID",
          "type": "string"
        }
      ],
      "name": "getContractTransactions",
      "outputs": [
        {
          "components": [
            {
              "internalType": "address",
              "name": "from",
              "type": "address"
            },
            {
              "internalType": "address",
              "name": "to",
              "type": "address"
            },
            {
              "internalType": "uint256",
              "name": "amount",
              "type": "uint256"
            },
            {
              "internalType": "uint256",
              "name": "timestamp",
              "type": "uint256"
            },
            {
              "internalType": "string",
              "name": "transactionType",
              "type": "string"
            }
          ],
          "internalType": "struct RentalContract.Transaction[]",
          "name": "",
          "type": "tuple[]"
        }
      ],
      "stateMutability": "view",
      "type": "function",
      "constant": true
    },
    {
      "inputs": [
        {
          "internalType": "string",
          "name": "_contractId",
          "type": "string"
        },
        {
          "internalType": "uint256",
          "name": "depositAmount",
          "type": "uint256"
        }
      ],
      "name": "terminateForNonPayment",
      "outputs": [],
      "stateMutability": "nonpayable",
      "type": "function"
    },
    {
      "inputs": [
        {
          "internalType": "string",
          "name": "_contractId",
          "type": "string"
        },
        {
          "internalType": "bool",
          "name": "notifyBefore30Days",
          "type": "bool"
        },
        {
          "internalType": "uint256",
          "name": "depositAmount",
          "type": "uint256"
        }
      ],
      "name": "cancelContractByRenter",
      "outputs": [],
      "stateMutability": "payable",
      "type": "function",
      "payable": true
    },
    {
      "inputs": [
        {
          "internalType": "string",
          "name": "_contractId",
          "type": "string"
        },
        {
          "internalType": "uint256",
          "name": "depositAmount",
          "type": "uint256"
        }
      ],
      "name": "cancelContractByOwner",
      "outputs": [],
      "stateMutability": "payable",
      "type": "function",
      "payable": true
    }
  ],
  "bytecode": "0x608060405234801561001057600080fd5b5061514d806100206000396000f3fe6080604052600436106100e85760003560e01c806358fd2da91161008a578063a26e118611610059578063a26e11861461027e578063acef60371461029a578063bfafff5b146102c3578063cd7c114714610300576100e8565b806358fd2da9146101ec578063706a9c6c146101f65780637bef444c1461021f5780638c5b83851461023b576100e8565b80632b27ddd0116100c65780632b27ddd01461014157806340b815fe1461016a5780634760894414610186578063541881c1146101af576100e8565b8063132756b5146100ed5780632799a284146101095780632a84cabc14610125575b600080fd5b610107600480360381019061010291906139ac565b610341565b005b610123600480360381019061011e91906139ac565b6108a8565b005b61013f600480360381019061013a919061384b565b610d02565b005b34801561014d57600080fd5b50610168600480360381019061016391906138f3565b611113565b005b610184600480360381019061017f919061388c565b61149e565b005b34801561019257600080fd5b506101ad60048036038101906101a891906139ac565b611a6c565b005b3480156101bb57600080fd5b506101d660048036038101906101d1919061384b565b611db7565b6040516101e39190614902565b60405180910390f35b6101f46122ca565b005b34801561020257600080fd5b5061021d6004803603810190610218919061384b565b61230f565b005b6102396004803603810190610234919061384b565b612612565b005b34801561024757600080fd5b50610262600480360381019061025d919061384b565b612b1e565b6040516102759796959493929190614946565b60405180910390f35b6102986004803603810190610293919061384b565b612cd3565b005b3480156102a657600080fd5b506102c160048036038101906102bc919061380f565b612faf565b005b3480156102cf57600080fd5b506102ea60048036038101906102e5919061384b565b61303d565b6040516102f79190614cc1565b60405180910390f35b34801561030c57600080fd5b50610327600480360381019061032291906139ac565b613391565b604051610338959493929190614850565b60405180910390f35b816000816040516103529190614774565b908152602001604051809103902060020160009054906101000a900473ffffffffffffffffffffffffffffffffffffffff1673ffffffffffffffffffffffffffffffffffffffff163373ffffffffffffffffffffffffffffffffffffffff16146103f1576040517f08c379a00000000000000000000000000000000000000000000000000000000081526004016103e890614a41565b60405180910390fd5b600080846040516104029190614774565b908152602001604051809103902090506000600481111561044c577f4e487b7100000000000000000000000000000000000000000000000000000000600052602160045260246000fd5b8160060160009054906101000a900460ff166004811115610496577f4e487b7100000000000000000000000000000000000000000000000000000000600052602160045260246000fd5b14156104f45760038160060160006101000a81548160ff021916908360048111156104ea577f4e487b7100000000000000000000000000000000000000000000000000000000600052602160045260246000fd5b0217905550610818565b6001600481111561052e577f4e487b7100000000000000000000000000000000000000000000000000000000600052602160045260246000fd5b8160060160009054906101000a900460ff166004811115610578577f4e487b7100000000000000000000000000000000000000000000000000000000600052602160045260246000fd5b14806106055750600260048111156105b9577f4e487b7100000000000000000000000000000000000000000000000000000000600052602160045260246000fd5b8160060160009054906101000a900460ff166004811115610603577f4e487b7100000000000000000000000000000000000000000000000000000000600052602160045260246000fd5b145b156107dc578247101561064d576040517f08c379a000000000000000000000000000000000000000000000000000000000815260040161064490614c21565b60405180910390fd5b60008160030160009054906101000a900473ffffffffffffffffffffffffffffffffffffffff1673ffffffffffffffffffffffffffffffffffffffff16846040516106979061478b565b60006040518083038185875af1925050503d80600081146106d4576040519150601f19603f3d011682016040523d82523d6000602084013e6106d9565b606091505b505090508061071d576040517f08c379a000000000000000000000000000000000000000000000000000000000815260040161071490614c61565b60405180910390fd5b61078385308460030160009054906101000a900473ffffffffffffffffffffffffffffffffffffffff16876040518060400160405280601881526020017f486fc3a06e207472e1baa3207469e1bb816e2063e1bb8d6300000000000000008152506134c2565b60038260060160006101000a81548160ff021916908360048111156107d1577f4e487b7100000000000000000000000000000000000000000000000000000000600052602160045260246000fd5b021790555050610817565b6040517f08c379a000000000000000000000000000000000000000000000000000000000815260040161080e90614b21565b60405180910390fd5b5b8060030160009054906101000a900473ffffffffffffffffffffffffffffffffffffffff1673ffffffffffffffffffffffffffffffffffffffff16846040516108619190614774565b60405180910390207ff6b22571c1ecf2dee47f025f69793accfe7ed12f07404c638536d16998c1ea47854260405161089a929190614ce3565b60405180910390a350505050565b816000816040516108b99190614774565b908152602001604051809103902060020160009054906101000a900473ffffffffffffffffffffffffffffffffffffffff1673ffffffffffffffffffffffffffffffffffffffff163373ffffffffffffffffffffffffffffffffffffffff1614610958576040517f08c379a000000000000000000000000000000000000000000000000000000000815260040161094f90614a41565b60405180910390fd5b600080846040516109699190614774565b90815260200160405180910390209050600160048111156109b3577f4e487b7100000000000000000000000000000000000000000000000000000000600052602160045260246000fd5b8160060160009054906101000a900460ff1660048111156109fd577f4e487b7100000000000000000000000000000000000000000000000000000000600052602160045260246000fd5b1480610a8a575060026004811115610a3e577f4e487b7100000000000000000000000000000000000000000000000000000000600052602160045260246000fd5b8160060160009054906101000a900460ff166004811115610a88577f4e487b7100000000000000000000000000000000000000000000000000000000600052602160045260246000fd5b145b610ac9576040517f08c379a0000000000000000000000000000000000000000000000000000000008152600401610ac090614a81565b60405180910390fd5b82471015610b0c576040517f08c379a0000000000000000000000000000000000000000000000000000000008152600401610b0390614c21565b60405180910390fd5b60008160030160009054906101000a900473ffffffffffffffffffffffffffffffffffffffff1673ffffffffffffffffffffffffffffffffffffffff1684604051610b569061478b565b60006040518083038185875af1925050503d8060008114610b93576040519150601f19603f3d011682016040523d82523d6000602084013e610b98565b606091505b5050905080610bdc576040517f08c379a0000000000000000000000000000000000000000000000000000000008152600401610bd390614c61565b60405180910390fd5b610c4285338460030160009054906101000a900473ffffffffffffffffffffffffffffffffffffffff16876040518060400160405280601881526020017f486fc3a06e207472e1baa3207469e1bb816e2063e1bb8d6300000000000000008152506134c2565b60038260060160006101000a81548160ff02191690836004811115610c90577f4e487b7100000000000000000000000000000000000000000000000000000000600052602160045260246000fd5b02179055503373ffffffffffffffffffffffffffffffffffffffff1685604051610cba9190614774565b60405180910390207fe2da9dcf01d3bce438e81353c3540671c45029b87abdf8074d5a9bfb045ef6f98642604051610cf3929190614ce3565b60405180910390a35050505050565b80600081604051610d139190614774565b908152602001604051809103902060020160009054906101000a900473ffffffffffffffffffffffffffffffffffffffff1673ffffffffffffffffffffffffffffffffffffffff163373ffffffffffffffffffffffffffffffffffffffff1614610db2576040517f08c379a0000000000000000000000000000000000000000000000000000000008152600401610da990614a41565b60405180910390fd5b60008083604051610dc39190614774565b9081526020016040518091039020905060016004811115610e0d577f4e487b7100000000000000000000000000000000000000000000000000000000600052602160045260246000fd5b8160060160009054906101000a900460ff166004811115610e57577f4e487b7100000000000000000000000000000000000000000000000000000000600052602160045260246000fd5b1480610ee4575060026004811115610e98577f4e487b7100000000000000000000000000000000000000000000000000000000600052602160045260246000fd5b8160060160009054906101000a900460ff166004811115610ee2577f4e487b7100000000000000000000000000000000000000000000000000000000600052602160045260246000fd5b145b610f23576040517f08c379a0000000000000000000000000000000000000000000000000000000008152600401610f1a90614b81565b60405180910390fd5b343373ffffffffffffffffffffffffffffffffffffffff16311015610f7d576040517f08c379a0000000000000000000000000000000000000000000000000000000008152600401610f7490614b41565b60405180910390fd5b60008160030160009054906101000a900473ffffffffffffffffffffffffffffffffffffffff1673ffffffffffffffffffffffffffffffffffffffff1634604051610fc79061478b565b60006040518083038185875af1925050503d8060008114611004576040519150601f19603f3d011682016040523d82523d6000602084013e611009565b606091505b505090508061104d576040517f08c379a000000000000000000000000000000000000000000000000000000000815260040161104490614aa1565b60405180910390fd5b61109684338460030160009054906101000a900473ffffffffffffffffffffffffffffffffffffffff1634604051806060016040528060308152602001615083603091396134c2565b836040516110a49190614774565b60405180910390207f533295cd82e521ef5bdedbc6debf352fcb558fe7f98c397a0d52cc90e107f310338460030160009054906101000a900473ffffffffffffffffffffffffffffffffffffffff16344260405161110594939291906147f8565b60405180910390a250505050565b838073ffffffffffffffffffffffffffffffffffffffff163373ffffffffffffffffffffffffffffffffffffffff1614611182576040517f08c379a000000000000000000000000000000000000000000000000000000000815260040161117990614a01565b60405180910390fd5b600073ffffffffffffffffffffffffffffffffffffffff168573ffffffffffffffffffffffffffffffffffffffff16141580156111ec5750600073ffffffffffffffffffffffffffffffffffffffff168473ffffffffffffffffffffffffffffffffffffffff1614155b61122b576040517f08c379a000000000000000000000000000000000000000000000000000000000815260040161122290614c41565b60405180910390fd5b6040518060e001604052808881526020018781526020018673ffffffffffffffffffffffffffffffffffffffff1681526020018573ffffffffffffffffffffffffffffffffffffffff168152602001848152602001838152602001600060048111156112c0577f4e487b7100000000000000000000000000000000000000000000000000000000600052602160045260246000fd5b8152506000886040516112d39190614774565b908152602001604051809103902060008201518160000190805190602001906112fd929190613624565b50602082015181600101908051906020019061131a929190613624565b5060408201518160020160006101000a81548173ffffffffffffffffffffffffffffffffffffffff021916908373ffffffffffffffffffffffffffffffffffffffff16021790555060608201518160030160006101000a81548173ffffffffffffffffffffffffffffffffffffffff021916908373ffffffffffffffffffffffffffffffffffffffff1602179055506080820151816004015560a0820151816005015560c08201518160060160006101000a81548160ff0219169083600481111561140e577f4e487b7100000000000000000000000000000000000000000000000000000000600052602160045260246000fd5b02179055509050508373ffffffffffffffffffffffffffffffffffffffff168573ffffffffffffffffffffffffffffffffffffffff16886040516114529190614774565b60405180910390207ff7ecc3071b5ebed4a1d5658be0963bdf71f705336198be1add3186546995259489878760405161148d939291906149c3565b60405180910390a450505050505050565b826000816040516114af9190614774565b908152602001604051809103902060030160009054906101000a900473ffffffffffffffffffffffffffffffffffffffff1673ffffffffffffffffffffffffffffffffffffffff163373ffffffffffffffffffffffffffffffffffffffff161461154e576040517f08c379a000000000000000000000000000000000000000000000000000000000815260040161154590614b61565b60405180910390fd5b6000808560405161155f9190614774565b90815260200160405180910390209050600160048111156115a9577f4e487b7100000000000000000000000000000000000000000000000000000000600052602160045260246000fd5b8160060160009054906101000a900460ff1660048111156115f3577f4e487b7100000000000000000000000000000000000000000000000000000000600052602160045260246000fd5b1480611680575060026004811115611634577f4e487b7100000000000000000000000000000000000000000000000000000000600052602160045260246000fd5b8160060160009054906101000a900460ff16600481111561167e577f4e487b7100000000000000000000000000000000000000000000000000000000600052602160045260246000fd5b145b6116bf576040517f08c379a00000000000000000000000000000000000000000000000000000000081526004016116b690614a81565b60405180910390fd5b6000808515611847578447101561170b576040517f08c379a000000000000000000000000000000000000000000000000000000000815260040161170290614c21565b60405180910390fd5b60008360030160009054906101000a900473ffffffffffffffffffffffffffffffffffffffff1673ffffffffffffffffffffffffffffffffffffffff16866040516117559061478b565b60006040518083038185875af1925050503d8060008114611792576040519150601f19603f3d011682016040523d82523d6000602084013e611797565b606091505b50509050806117db576040517f08c379a00000000000000000000000000000000000000000000000000000000081526004016117d290614c61565b60405180910390fd5b611841888560020160009054906101000a900473ffffffffffffffffffffffffffffffffffffffff1633896040518060400160405280601881526020017f486fc3a06e207472e1baa3207469e1bb816e2063e1bb8d6300000000000000008152506134c2565b506119a8565b8491508147101561188d576040517f08c379a000000000000000000000000000000000000000000000000000000000815260040161188490614c21565b60405180910390fd5b60008360020160009054906101000a900473ffffffffffffffffffffffffffffffffffffffff1673ffffffffffffffffffffffffffffffffffffffff16836040516118d79061478b565b60006040518083038185875af1925050503d8060008114611914576040519150601f19603f3d011682016040523d82523d6000602084013e611919565b606091505b505090508061195d576040517f08c379a000000000000000000000000000000000000000000000000000000000815260040161195490614c61565b60405180910390fd5b6119a688338660020160009054906101000a900473ffffffffffffffffffffffffffffffffffffffff16866040518060600160405280602781526020016150f1602791396134c2565b505b60038360060160006101000a81548160ff021916908360048111156119f6577f4e487b7100000000000000000000000000000000000000000000000000000000600052602160045260246000fd5b02179055503373ffffffffffffffffffffffffffffffffffffffff1687604051611a209190614774565b60405180910390207fadafc36edcd60759441410797064a212430ea809b0ca5ffd4aa273c16b131332848442604051611a5b93929190614d0c565b60405180910390a350505050505050565b60008083604051611a7d9190614774565b9081526020016040518091039020905060026004811115611ac7577f4e487b7100000000000000000000000000000000000000000000000000000000600052602160045260246000fd5b8160060160009054906101000a900460ff166004811115611b11577f4e487b7100000000000000000000000000000000000000000000000000000000600052602160045260246000fd5b14611b51576040517f08c379a0000000000000000000000000000000000000000000000000000000008152600401611b4890614c01565b60405180910390fd5b6000821115611cd55781471015611b9d576040517f08c379a0000000000000000000000000000000000000000000000000000000008152600401611b9490614ac1565b60405180910390fd5b60008160020160009054906101000a900473ffffffffffffffffffffffffffffffffffffffff1673ffffffffffffffffffffffffffffffffffffffff1683604051611be79061478b565b60006040518083038185875af1925050503d8060008114611c24576040519150601f19603f3d011682016040523d82523d6000602084013e611c29565b606091505b5050905080611c6d576040517f08c379a0000000000000000000000000000000000000000000000000000000008152600401611c6490614c61565b60405180910390fd5b611cd384308460020160009054906101000a900473ffffffffffffffffffffffffffffffffffffffff16866040518060400160405280601781526020017f5469e1bb816e2063e1bb8d632062e1bb8b206de1baa5740000000000000000008152506134c2565b505b60038160060160006101000a81548160ff02191690836004811115611d23577f4e487b7100000000000000000000000000000000000000000000000000000000600052602160045260246000fd5b02179055508060030160009054906101000a900473ffffffffffffffffffffffffffffffffffffffff1673ffffffffffffffffffffffffffffffffffffffff1683604051611d719190614774565b60405180910390207ff6b22571c1ecf2dee47f025f69793accfe7ed12f07404c638536d16998c1ea478442604051611daa929190614ce3565b60405180910390a3505050565b606060008083604051611dca9190614774565b90815260200160405180910390206040518060e0016040529081600082018054611df390614f17565b80601f0160208091040260200160405190810160405280929190818152602001828054611e1f90614f17565b8015611e6c5780601f10611e4157610100808354040283529160200191611e6c565b820191906000526020600020905b815481529060010190602001808311611e4f57829003601f168201915b50505050508152602001600182018054611e8590614f17565b80601f0160208091040260200160405190810160405280929190818152602001828054611eb190614f17565b8015611efe5780601f10611ed357610100808354040283529160200191611efe565b820191906000526020600020905b815481529060010190602001808311611ee157829003601f168201915b505050505081526020016002820160009054906101000a900473ffffffffffffffffffffffffffffffffffffffff1673ffffffffffffffffffffffffffffffffffffffff1673ffffffffffffffffffffffffffffffffffffffff1681526020016003820160009054906101000a900473ffffffffffffffffffffffffffffffffffffffff1673ffffffffffffffffffffffffffffffffffffffff1673ffffffffffffffffffffffffffffffffffffffff16815260200160048201548152602001600582015481526020016006820160009054906101000a900460ff166004811115612012577f4e487b7100000000000000000000000000000000000000000000000000000000600052602160045260246000fd5b600481111561204a577f4e487b7100000000000000000000000000000000000000000000000000000000600052602160045260246000fd5b815250509050806040015173ffffffffffffffffffffffffffffffffffffffff163373ffffffffffffffffffffffffffffffffffffffff1614806120bd5750806060015173ffffffffffffffffffffffffffffffffffffffff163373ffffffffffffffffffffffffffffffffffffffff16145b6120fc576040517f08c379a00000000000000000000000000000000000000000000000000000000081526004016120f390614bc1565b60405180910390fd5b60018360405161210c9190614774565b9081526020016040518091039020805480602002602001604051908101604052809291908181526020016000905b828210156122be57838290600052602060002090600502016040518060a00160405290816000820160009054906101000a900473ffffffffffffffffffffffffffffffffffffffff1673ffffffffffffffffffffffffffffffffffffffff1673ffffffffffffffffffffffffffffffffffffffff1681526020016001820160009054906101000a900473ffffffffffffffffffffffffffffffffffffffff1673ffffffffffffffffffffffffffffffffffffffff1673ffffffffffffffffffffffffffffffffffffffff168152602001600282015481526020016003820154815260200160048201805461222d90614f17565b80601f016020809104026020016040519081016040528092919081815260200182805461225990614f17565b80156122a65780601f1061227b576101008083540402835291602001916122a6565b820191906000526020600020905b81548152906001019060200180831161228957829003601f168201915b5050505050815250508152602001906001019061213a565b50505050915050919050565b6000341161230d576040517f08c379a000000000000000000000000000000000000000000000000000000000815260040161230490614ca1565b60405180910390fd5b565b600080826040516123209190614774565b908152602001604051809103902090508060020160009054906101000a900473ffffffffffffffffffffffffffffffffffffffff1673ffffffffffffffffffffffffffffffffffffffff163373ffffffffffffffffffffffffffffffffffffffff1614806123dd57508060030160009054906101000a900473ffffffffffffffffffffffffffffffffffffffff1673ffffffffffffffffffffffffffffffffffffffff163373ffffffffffffffffffffffffffffffffffffffff16145b61241c576040517f08c379a000000000000000000000000000000000000000000000000000000000815260040161241390614be1565b60405180910390fd5b60006004811115612456577f4e487b7100000000000000000000000000000000000000000000000000000000600052602160045260246000fd5b8160060160009054906101000a900460ff1660048111156124a0577f4e487b7100000000000000000000000000000000000000000000000000000000600052602160045260246000fd5b146124e0576040517f08c379a00000000000000000000000000000000000000000000000000000000081526004016124d790614ae1565b60405180910390fd5b60048160060160006101000a81548160ff0219169083600481111561252e577f4e487b7100000000000000000000000000000000000000000000000000000000600052602160045260246000fd5b0217905550816040516125419190614774565b60405180910390207f62053ec7b590a1785a5832f731771c8a67d47e1c16b9407b5bc1903ff9b7c5258260020160009054906101000a900473ffffffffffffffffffffffffffffffffffffffff1673ffffffffffffffffffffffffffffffffffffffff163373ffffffffffffffffffffffffffffffffffffffff16146125df57604051806080016040528060428152602001615041604291396125f9565b6040518060600160405280603e81526020016150b3603e91395b6040516126069190614924565b60405180910390a25050565b806000816040516126239190614774565b908152602001604051809103902060030160009054906101000a900473ffffffffffffffffffffffffffffffffffffffff1673ffffffffffffffffffffffffffffffffffffffff163373ffffffffffffffffffffffffffffffffffffffff16146126c2576040517f08c379a00000000000000000000000000000000000000000000000000000000081526004016126b990614b61565b60405180910390fd5b600080836040516126d39190614774565b908152602001604051809103902090506001600481111561271d577f4e487b7100000000000000000000000000000000000000000000000000000000600052602160045260246000fd5b8160060160009054906101000a900460ff166004811115612767577f4e487b7100000000000000000000000000000000000000000000000000000000600052602160045260246000fd5b14806127f45750600260048111156127a8577f4e487b7100000000000000000000000000000000000000000000000000000000600052602160045260246000fd5b8160060160009054906101000a900460ff1660048111156127f2577f4e487b7100000000000000000000000000000000000000000000000000000000600052602160045260246000fd5b145b612833576040517f08c379a000000000000000000000000000000000000000000000000000000000815260040161282a90614b81565b60405180910390fd5b343373ffffffffffffffffffffffffffffffffffffffff1631101561288d576040517f08c379a000000000000000000000000000000000000000000000000000000000815260040161288490614c81565b60405180910390fd5b600160048111156128c7577f4e487b7100000000000000000000000000000000000000000000000000000000600052602160045260246000fd5b8160060160009054906101000a900460ff166004811115612911577f4e487b7100000000000000000000000000000000000000000000000000000000600052602160045260246000fd5b141561296b5760028160060160006101000a81548160ff02191690836004811115612965577f4e487b7100000000000000000000000000000000000000000000000000000000600052602160045260246000fd5b02179055505b60008160020160009054906101000a900473ffffffffffffffffffffffffffffffffffffffff1673ffffffffffffffffffffffffffffffffffffffff16346040516129b59061478b565b60006040518083038185875af1925050503d80600081146129f2576040519150601f19603f3d011682016040523d82523d6000602084013e6129f7565b606091505b5050905080612a3b576040517f08c379a0000000000000000000000000000000000000000000000000000000008152600401612a3290614aa1565b60405180910390fd5b612aa184338460020160009054906101000a900473ffffffffffffffffffffffffffffffffffffffff16346040518060400160405280601881526020017f5468616e6820746fc3a16e207469e1bb816e20746875c3aa00000000000000008152506134c2565b83604051612aaf9190614774565b60405180910390207f533295cd82e521ef5bdedbc6debf352fcb558fe7f98c397a0d52cc90e107f310338460020160009054906101000a900473ffffffffffffffffffffffffffffffffffffffff163442604051612b1094939291906147a0565b60405180910390a250505050565b600081805160208101820180518482526020830160208501208183528095505050505050600091509050806000018054612b5790614f17565b80601f0160208091040260200160405190810160405280929190818152602001828054612b8390614f17565b8015612bd05780601f10612ba557610100808354040283529160200191612bd0565b820191906000526020600020905b815481529060010190602001808311612bb357829003601f168201915b505050505090806001018054612be590614f17565b80601f0160208091040260200160405190810160405280929190818152602001828054612c1190614f17565b8015612c5e5780601f10612c3357610100808354040283529160200191612c5e565b820191906000526020600020905b815481529060010190602001808311612c4157829003601f168201915b5050505050908060020160009054906101000a900473ffffffffffffffffffffffffffffffffffffffff16908060030160009054906101000a900473ffffffffffffffffffffffffffffffffffffffff16908060040154908060050154908060060160009054906101000a900460ff16905087565b80600081604051612ce49190614774565b908152602001604051809103902060030160009054906101000a900473ffffffffffffffffffffffffffffffffffffffff1673ffffffffffffffffffffffffffffffffffffffff163373ffffffffffffffffffffffffffffffffffffffff1614612d83576040517f08c379a0000000000000000000000000000000000000000000000000000000008152600401612d7a90614b61565b60405180910390fd5b60008083604051612d949190614774565b9081526020016040518091039020905060006004811115612dde577f4e487b7100000000000000000000000000000000000000000000000000000000600052602160045260246000fd5b8160060160009054906101000a900460ff166004811115612e28577f4e487b7100000000000000000000000000000000000000000000000000000000600052602160045260246000fd5b14612e68576040517f08c379a0000000000000000000000000000000000000000000000000000000008152600401612e5f90614b01565b60405180910390fd5b343373ffffffffffffffffffffffffffffffffffffffff16311015612ec2576040517f08c379a0000000000000000000000000000000000000000000000000000000008152600401612eb990614ba1565b60405180910390fd5b60018160060160006101000a81548160ff02191690836004811115612f10577f4e487b7100000000000000000000000000000000000000000000000000000000600052602160045260246000fd5b0217905550612f57833330346040518060400160405280600c81526020017fc490e1bab7742063e1bb8d6300000000000000000000000000000000000000008152506134c2565b82604051612f659190614774565b60405180910390207f533295cd82e521ef5bdedbc6debf352fcb558fe7f98c397a0d52cc90e107f31033303442604051612fa294939291906148aa565b60405180910390a2505050565b80471015612ff2576040517f08c379a0000000000000000000000000000000000000000000000000000000008152600401612fe990614a61565b60405180910390fd5b8173ffffffffffffffffffffffffffffffffffffffff166108fc829081150290604051600060405180830381858888f19350505050158015613038573d6000803e3d6000fd5b505050565b6130456136aa565b600080836040516130569190614774565b90815260200160405180910390206040518060e001604052908160008201805461307f90614f17565b80601f01602080910402602001604051908101604052809291908181526020018280546130ab90614f17565b80156130f85780601f106130cd576101008083540402835291602001916130f8565b820191906000526020600020905b8154815290600101906020018083116130db57829003601f168201915b5050505050815260200160018201805461311190614f17565b80601f016020809104026020016040519081016040528092919081815260200182805461313d90614f17565b801561318a5780601f1061315f5761010080835404028352916020019161318a565b820191906000526020600020905b81548152906001019060200180831161316d57829003601f168201915b505050505081526020016002820160009054906101000a900473ffffffffffffffffffffffffffffffffffffffff1673ffffffffffffffffffffffffffffffffffffffff1673ffffffffffffffffffffffffffffffffffffffff1681526020016003820160009054906101000a900473ffffffffffffffffffffffffffffffffffffffff1673ffffffffffffffffffffffffffffffffffffffff1673ffffffffffffffffffffffffffffffffffffffff16815260200160048201548152602001600582015481526020016006820160009054906101000a900460ff16600481111561329e577f4e487b7100000000000000000000000000000000000000000000000000000000600052602160045260246000fd5b60048111156132d6577f4e487b7100000000000000000000000000000000000000000000000000000000600052602160045260246000fd5b815250509050806040015173ffffffffffffffffffffffffffffffffffffffff163373ffffffffffffffffffffffffffffffffffffffff1614806133495750806060015173ffffffffffffffffffffffffffffffffffffffff163373ffffffffffffffffffffffffffffffffffffffff16145b613388576040517f08c379a000000000000000000000000000000000000000000000000000000000815260040161337f90614a21565b60405180910390fd5b80915050919050565b60018280516020810182018051848252602083016020850120818352809550505050505081815481106133c357600080fd5b9060005260206000209060050201600091509150508060000160009054906101000a900473ffffffffffffffffffffffffffffffffffffffff16908060010160009054906101000a900473ffffffffffffffffffffffffffffffffffffffff169080600201549080600301549080600401805461343f90614f17565b80601f016020809104026020016040519081016040528092919081815260200182805461346b90614f17565b80156134b85780601f1061348d576101008083540402835291602001916134b8565b820191906000526020600020905b81548152906001019060200180831161349b57829003601f168201915b5050505050905085565b6001856040516134d29190614774565b90815260200160405180910390206040518060a001604052808673ffffffffffffffffffffffffffffffffffffffff1681526020018573ffffffffffffffffffffffffffffffffffffffff16815260200184815260200142815260200183815250908060018154018082558091505060019003906000526020600020906005020160009091909190915060008201518160000160006101000a81548173ffffffffffffffffffffffffffffffffffffffff021916908373ffffffffffffffffffffffffffffffffffffffff16021790555060208201518160010160006101000a81548173ffffffffffffffffffffffffffffffffffffffff021916908373ffffffffffffffffffffffffffffffffffffffff1602179055506040820151816002015560608201518160030155608082015181600401908051906020019061361a929190613624565b5050505050505050565b82805461363090614f17565b90600052602060002090601f0160209004810192826136525760008555613699565b82601f1061366b57805160ff1916838001178555613699565b82800160010185558215613699579182015b8281111561369857825182559160200191906001019061367d565b5b5090506136a6919061374b565b5090565b6040518060e001604052806060815260200160608152602001600073ffffffffffffffffffffffffffffffffffffffff168152602001600073ffffffffffffffffffffffffffffffffffffffff168152602001600081526020016000815260200160006004811115613745577f4e487b7100000000000000000000000000000000000000000000000000000000600052602160045260246000fd5b81525090565b5b8082111561376457600081600090555060010161374c565b5090565b600061377b61377684614d74565b614d43565b90508281526020810184848401111561379357600080fd5b61379e848285614ed5565b509392505050565b6000813590506137b581614ffb565b92915050565b6000813590506137ca81615012565b92915050565b600082601f8301126137e157600080fd5b81356137f1848260208601613768565b91505092915050565b60008135905061380981615029565b92915050565b6000806040838503121561382257600080fd5b6000613830858286016137a6565b9250506020613841858286016137fa565b9150509250929050565b60006020828403121561385d57600080fd5b600082013567ffffffffffffffff81111561387757600080fd5b613883848285016137d0565b91505092915050565b6000806000606084860312156138a157600080fd5b600084013567ffffffffffffffff8111156138bb57600080fd5b6138c7868287016137d0565b93505060206138d8868287016137bb565b92505060406138e9868287016137fa565b9150509250925092565b60008060008060008060c0878903121561390c57600080fd5b600087013567ffffffffffffffff81111561392657600080fd5b61393289828a016137d0565b965050602087013567ffffffffffffffff81111561394f57600080fd5b61395b89828a016137d0565b955050604061396c89828a016137a6565b945050606061397d89828a016137a6565b935050608061398e89828a016137fa565b92505060a061399f89828a016137fa565b9150509295509295509295565b600080604083850312156139bf57600080fd5b600083013567ffffffffffffffff8111156139d957600080fd5b6139e5858286016137d0565b92505060206139f6858286016137fa565b9150509250929050565b6000613a0c83836146e0565b905092915050565b613a1d81614e8d565b82525050565b613a2c81614e32565b82525050565b613a3b81614e32565b82525050565b613a4a81614e20565b82525050565b613a5981614e20565b82525050565b6000613a6a82614db4565b613a748185614dd7565b935083602082028501613a8685614da4565b8060005b85811015613ac25784840389528151613aa38582613a00565b9450613aae83614dca565b925060208a01995050600181019050613a8a565b50829750879550505050505092915050565b613add81614e9f565b82525050565b613aec81614e9f565b82525050565b6000613afd82614dbf565b613b078185614df3565b9350613b17818560208601614ee4565b613b2081614fd6565b840191505092915050565b6000613b3682614dbf565b613b408185614e04565b9350613b50818560208601614ee4565b613b5981614fd6565b840191505092915050565b6000613b6f82614dbf565b613b798185614e15565b9350613b89818560208601614ee4565b80840191505092915050565b6000613ba2603d83614e04565b91507f4368e1bb89206368e1bba72068e1bba37020c491e1bb936e67206de1bb9b692060008301527f63c3b3207468e1bb832074e1baa16f2068e1bba37020c491e1bb936e670000006020830152604082019050919050565b6000613c08605c83614e04565b91507f4368e1bb89206368e1bba72068e1bba37020c491e1bb936e6720686fe1bab76360008301527f206e67c6b0e1bb9d6920746875c3aa206de1bb9b692063c3b3207468e1bb832060208301527f78656d20636869207469e1babf742068e1bba37020c491e1bb936e67000000006040830152606082019050919050565b6000613c94604183614e04565b91507f4368e1bb89206368e1bba7206e68c3a0206de1bb9b692063c3b3207468e1bb8360008301527f207468e1bbb163206869e1bb876e2068c3a06e6820c491e1bb996e67206ec3a060208301527f79000000000000000000000000000000000000000000000000000000000000006040830152606082019050919050565b6000613d20602b83614e04565b91507f53e1bb912064c6b0206b68c3b46e6720c491e1bba720c491e1bb83206368757960008301527fe1bb836e207469e1bb816e0000000000000000000000000000000000000000006020830152604082019050919050565b6000613d86601883614e04565b91507f5468616e6820746fc3a16e207469e1bb816e20746875c3aa00000000000000006000830152602082019050919050565b6000613dc6603983614e04565b91507f5472e1baa16e67207468c3a1692068e1bba37020c491e1bb936e67206b68c3b460008301527f6e672068e1bba370206ce1bb8720c491e1bb832068e1bba779000000000000006020830152604082019050919050565b6000613e2c601c83614e04565b91507f43687579e1bb836e207469e1bb816e207468e1baa5742062e1baa169000000006000830152602082019050919050565b6000613e6c603c83614e04565b91507f53e1bb912064c6b02068e1bba37020c491e1bb936e67206b68c3b46e6720c49160008301527fe1bba720c491e1bb83206de1baa574207469e1bb816e2063e1bb8d63000000006020830152604082019050919050565b6000613ed2603f83614e04565b91507f5472e1baa16e67207468c3a1692068e1bba37020c491e1bb936e67206b68c3b460008301527f6e672068e1bba370206ce1bb8720c491e1bb83206be1babf74207468c3ba63006020830152604082019050919050565b6000613f38604083614e04565b91507f5472e1baa16e67207468c3a1692068e1bba37020c491e1bb936e67206b68c3b460008301527f6e672068e1bba370206ce1bb8720c491e1bb8320c491e1bab7742063e1bb8d636020830152604082019050919050565b6000613f9e604383614e04565b91507f48e1bba37020c491e1bb936e67206b68c3b46e6720e1bb9f207472e1baa16e6760008301527f207468c3a1692068e1bba370206ce1bb8720c491e1bb83206be1babf7420746860208301527fc3ba6300000000000000000000000000000000000000000000000000000000006040830152606082019050919050565b600061402a602b83614e04565b91507f53e1bb912064c6b0206b68c3b46e6720c491e1bba720c491e1bb832062e1bb9360008301527f69207468c6b0e1bb9d6e670000000000000000000000000000000000000000006020830152604082019050919050565b6000614090604583614e04565b91507f4368e1bb89206e67c6b0e1bb9d6920746875c3aa206de1bb9b692063c3b3207460008301527f68e1bb83207468e1bbb163206869e1bb876e2068c3a06e6820c491e1bb996e6760208301527f206ec3a0790000000000000000000000000000000000000000000000000000006040830152606082019050919050565b600061411c604c83614e04565b91507f5472e1baa16e67207468c3a1692068e1bba37020c491e1bb936e67206b68c3b460008301527f6e672068e1bba370206ce1bb8720c491e1bb83207468616e6820746fc3a16e2060208301527f7469e1bb816e20746875c3aa00000000000000000000000000000000000000006040830152606082019050919050565b60006141a8602883614e04565b91507f53e1bb912064c6b0206b68c3b46e6720c491e1bba720c491e1bb8320c491e1ba60008301527fb7742063e1bb8d630000000000000000000000000000000000000000000000006020830152604082019050919050565b600061420e604f83614e04565b91507f4368e1bb89206368e1bba72068e1bba37020c491e1bb936e6720686fe1bab76360008301527f206e67c6b0e1bb9d6920746875c3aa206de1bb9b692063c3b3207468e1bb832060208301527f78656d206769616f2064e1bb8b636800000000000000000000000000000000006040830152606082019050919050565b600061429a605483614e04565b91507f4368e1bb892063c3b3206368e1bba7206e68c3a020686fe1bab763206e67c6b060008301527fe1bb9d6920746875c3aa206de1bb9b692063c3b3207468e1bb83206be1babf7460208301527f207468c3ba632068e1bba37020c491e1bb936e670000000000000000000000006040830152606082019050919050565b6000614326603b83614e04565b91507f48e1bba37020c491e1bb936e67207068e1baa36920e1bb9f207472e1baa16e6760008301527f207468c3a16920c491616e6720686fe1baa17420c491e1bb996e6700000000006020830152604082019050919050565b600061438c604283614e04565b91507f53e1bb912064c6b02068e1bba37020c491e1bb936e67206b68c3b46e6720c49160008301527fe1bba720c491e1bb8320686fc3a06e207472e1baa3207469e1bb816e2063e1bb60208301527f8d630000000000000000000000000000000000000000000000000000000000006040830152606082019050919050565b6000614418603083614e04565b91507f42e1bb9369207468c6b0e1bb9d6e672068e1bba37020c491e1bb936e6720636860008301527f6f206e67c6b0e1bb9d6920746875c3aa000000000000000000000000000000006020830152604082019050919050565b600061447e601e83614e04565b91507fc490e1bb8b61206368e1bb89206b68c3b46e672068e1bba370206ce1bb8700006000830152602082019050919050565b60006144be600083614de8565b9150600082019050919050565b60006144d8602283614e04565b91507f43687579e1bb836e207469e1bb816e2063e1bb8d63207468e1baa5742062e1ba60008301527fa1690000000000000000000000000000000000000000000000000000000000006020830152604082019050919050565b600061453e603483614e04565b91507f53e1bb912064c6b0206b68c3b46e6720c491e1bba720c491e1bb83207468616e60008301527f6820746fc3a16e207469e1bb816e20746875c3aa0000000000000000000000006020830152604082019050919050565b60006145a4602883614e04565b91507f53e1bb91207469e1bb816e2063687579e1bb836e207068e1baa369206ce1bb9b60008301527f6e2068c6a16e20300000000000000000000000000000000000000000000000006020830152604082019050919050565b600061460a600c83614e04565b91507fc490e1bab7742063e1bb8d6300000000000000000000000000000000000000006000830152602082019050919050565b600060e083016000830151848203600086015261465a8282613af2565b915050602083015184820360208601526146748282613af2565b91505060408301516146896040860182613a23565b50606083015161469c6060860182613a23565b5060808301516146af6080860182614756565b5060a08301516146c260a0860182614756565b5060c08301516146d560c0860182613ad4565b508091505092915050565b600060a0830160008301516146f86000860182613a41565b50602083015161470b6020860182613a41565b50604083015161471e6040860182614756565b5060608301516147316060860182614756565b50608083015184820360808601526147498282613af2565b9150508091505092915050565b61475f81614e83565b82525050565b61476e81614e83565b82525050565b60006147808284613b64565b915081905092915050565b6000614796826144b1565b9150819050919050565b600060a0820190506147b56000830187613a50565b6147c26020830186613a14565b6147cf6040830185614765565b6147dc6060830184614765565b81810360808301526147ed81613d79565b905095945050505050565b600060a08201905061480d6000830187613a50565b61481a6020830186613a14565b6148276040830185614765565b6148346060830184614765565b81810360808301526148458161440b565b905095945050505050565b600060a0820190506148656000830188613a50565b6148726020830187613a50565b61487f6040830186614765565b61488c6060830185614765565b818103608083015261489e8184613b2b565b90509695505050505050565b600060a0820190506148bf6000830187613a50565b6148cc6020830186613a50565b6148d96040830185614765565b6148e66060830184614765565b81810360808301526148f7816145fd565b905095945050505050565b6000602082019050818103600083015261491c8184613a5f565b905092915050565b6000602082019050818103600083015261493e8184613b2b565b905092915050565b600060e0820190508181036000830152614960818a613b2b565b905081810360208301526149748189613b2b565b90506149836040830188613a32565b6149906060830187613a32565b61499d6080830186614765565b6149aa60a0830185614765565b6149b760c0830184613ae3565b98975050505050505050565b600060608201905081810360008301526149dd8186613b2b565b90506149ec6020830185614765565b6149f96040830184614765565b949350505050565b60006020820190508181036000830152614a1a81613b95565b9050919050565b60006020820190508181036000830152614a3a81613bfb565b9050919050565b60006020820190508181036000830152614a5a81613c87565b9050919050565b60006020820190508181036000830152614a7a81613d13565b9050919050565b60006020820190508181036000830152614a9a81613db9565b9050919050565b60006020820190508181036000830152614aba81613e1f565b9050919050565b60006020820190508181036000830152614ada81613e5f565b9050919050565b60006020820190508181036000830152614afa81613ec5565b9050919050565b60006020820190508181036000830152614b1a81613f2b565b9050919050565b60006020820190508181036000830152614b3a81613f91565b9050919050565b60006020820190508181036000830152614b5a8161401d565b9050919050565b60006020820190508181036000830152614b7a81614083565b9050919050565b60006020820190508181036000830152614b9a8161410f565b9050919050565b60006020820190508181036000830152614bba8161419b565b9050919050565b60006020820190508181036000830152614bda81614201565b9050919050565b60006020820190508181036000830152614bfa8161428d565b9050919050565b60006020820190508181036000830152614c1a81614319565b9050919050565b60006020820190508181036000830152614c3a8161437f565b9050919050565b60006020820190508181036000830152614c5a81614471565b9050919050565b60006020820190508181036000830152614c7a816144cb565b9050919050565b60006020820190508181036000830152614c9a81614531565b9050919050565b60006020820190508181036000830152614cba81614597565b9050919050565b60006020820190508181036000830152614cdb818461463d565b905092915050565b6000604082019050614cf86000830185614765565b614d056020830184614765565b9392505050565b6000606082019050614d216000830186614765565b614d2e6020830185614765565b614d3b6040830184614765565b949350505050565b6000604051905081810181811067ffffffffffffffff82111715614d6a57614d69614fa7565b5b8060405250919050565b600067ffffffffffffffff821115614d8f57614d8e614fa7565b5b601f19601f8301169050602081019050919050565b6000819050602082019050919050565b600081519050919050565b600081519050919050565b6000602082019050919050565b600082825260208201905092915050565b600081905092915050565b600082825260208201905092915050565b600082825260208201905092915050565b600081905092915050565b6000614e2b82614e63565b9050919050565b6000614e3d82614e63565b9050919050565b60008115159050919050565b6000819050614e5e82614fe7565b919050565b600073ffffffffffffffffffffffffffffffffffffffff82169050919050565b6000819050919050565b6000614e9882614eb1565b9050919050565b6000614eaa82614e50565b9050919050565b6000614ebc82614ec3565b9050919050565b6000614ece82614e63565b9050919050565b82818337600083830152505050565b60005b83811015614f02578082015181840152602081019050614ee7565b83811115614f11576000848401525b50505050565b60006002820490506001821680614f2f57607f821691505b60208210811415614f4357614f42614f78565b5b50919050565b7f4e487b7100000000000000000000000000000000000000000000000000000000600052602160045260246000fd5b7f4e487b7100000000000000000000000000000000000000000000000000000000600052602260045260246000fd5b7f4e487b7100000000000000000000000000000000000000000000000000000000600052604160045260246000fd5b6000601f19601f8301169050919050565b60058110614ff857614ff7614f49565b5b50565b61500481614e32565b811461500f57600080fd5b50565b61501b81614e44565b811461502657600080fd5b50565b61503281614e83565b811461503d57600080fd5b5056fe4e67c6b0e1bb9d6920746875c3aa206be1babf74207468c3ba632068e1bba37020c491e1bb936e67207472c6b0e1bb9b63206b686920c491e1bab7742063e1bb8d6342e1bb9369207468c6b0e1bb9d6e672068e1bba37020c491e1bb936e672063686f206e67c6b0e1bb9d6920746875c3aa4368e1bba7206e68c3a0206be1babf74207468c3ba632068e1bba37020c491e1bb936e67207472c6b0e1bb9b63206b686920c491e1bab7742063e1bb8d635468616e6820746fc3a16e207469e1bb816e2063e1bb8d632063686f206368e1bba7206e68c3a0a2646970667358221220aa46ed7d565946f3bb8b311e9f35dfd65380d331f1aa69088b23372b08958f3c64736f6c63430008000033",
  "immutableReferences": {},
  "source": "// SPDX-License-Identifier: MIT\r\npragma solidity ^0.8.0;\r\n\r\ncontract RentalContract {\r\n    enum RentalStatus {\r\n        NotCreated,\r\n        Deposited,\r\n        Ongoing,\r\n        Ended,\r\n        Cancelled\r\n    }\r\n\r\n    struct Contract {\r\n        string contractID;\r\n        string propertyID; // Thm propertyID kiu chui\r\n        address payable owner;\r\n        address payable renter;\r\n        uint depositAmount;\r\n        uint monthlyRent;\r\n        RentalStatus status;\r\n    }\r\n\r\n    struct Transaction {\r\n        address from;\r\n        address to;\r\n        uint amount;\r\n        uint timestamp;\r\n        string transactionType;\r\n    }\r\n\r\n    mapping(string => Contract) public contracts; // Thay contractID kiu chui\r\n    mapping(string => Transaction[]) public contractTransactions;\r\n\r\n    event ContractCreated(\r\n        string indexed contractID,\r\n        string propertyID,\r\n        address indexed owner,\r\n        address indexed renter,\r\n        uint depositAmount,\r\n        uint monthlyRent\r\n    );\r\n    event TransactionRecorded(\r\n        string indexed contractID,\r\n        address from,\r\n        address to,\r\n        uint amount,\r\n        uint timestamp,\r\n        string transactionType\r\n    );\r\n    event ContractCancelledByRenter(\r\n        string indexed contractID,\r\n        address indexed renter,\r\n        uint depositLoss,\r\n        uint extraCharge,\r\n        uint timestamp\r\n    );\r\n    event ContractCancelledByOwner(string indexed contractID, address indexed owner, uint compensation, uint timestamp);\r\n    event ContractTerminated(string indexed contractID, string reason);\r\n    event ContractEnded(string indexed contractID, address indexed renter, uint depositRefundAmount, uint timestamp);\r\n\r\n    modifier onlyOwner(string memory _contractID) {\r\n        require(msg.sender == contracts[_contractID].owner, unicode'Ch ch nh mi c th thc hin hnh ng ny');\r\n        _;\r\n    }\r\n\r\n    modifier onlyRenter(string memory _contractID) {\r\n        require(\r\n            msg.sender == contracts[_contractID].renter,\r\n            unicode'Ch ngi thu mi c th thc hin hnh ng ny'\r\n        );\r\n        _;\r\n    }\r\n\r\n    modifier onlyContractOwner(address _owner) {\r\n        require(msg.sender == _owner, unicode'Ch ch hp ng mi c th to hp ng');\r\n        _;\r\n    }\r\n\r\n    function createContract(\r\n        string memory _contractID,\r\n        string memory _propertyID,\r\n        address payable _owner,\r\n        address payable _renter,\r\n        uint _depositAmount,\r\n        uint _monthlyRent\r\n    ) public onlyContractOwner(_owner) {\r\n        require(_owner != address(0) && _renter != address(0), unicode'a ch khng hp l');\r\n\r\n        contracts[_contractID] = Contract({\r\n            contractID: _contractID,\r\n            propertyID: _propertyID,\r\n            owner: _owner,\r\n            renter: _renter,\r\n            depositAmount: _depositAmount,\r\n            monthlyRent: _monthlyRent,\r\n            status: RentalStatus.NotCreated\r\n        });\r\n\r\n        emit ContractCreated(_contractID, _propertyID, _owner, _renter, _depositAmount, _monthlyRent);\r\n    }\r\n\r\n    function deposit(string memory _contractID) public payable onlyRenter(_contractID) {\r\n        Contract storage contractInfo = contracts[_contractID];\r\n\r\n        require(contractInfo.status == RentalStatus.NotCreated, unicode'Trng thi hp ng khng hp l  t cc');\r\n        require(address(msg.sender).balance >= msg.value, unicode'S d khng   t cc');\r\n\r\n        contractInfo.status = RentalStatus.Deposited;\r\n\r\n        _recordTransaction(_contractID, msg.sender, address(this), msg.value, unicode't cc');\r\n\r\n        emit TransactionRecorded(_contractID, msg.sender, address(this), msg.value, block.timestamp, unicode't cc');\r\n    }\r\n\r\n    function payRent(string memory _contractID) public payable onlyRenter(_contractID) {\r\n        Contract storage contractInfo = contracts[_contractID];\r\n\r\n        require(\r\n            contractInfo.status == RentalStatus.Deposited || contractInfo.status == RentalStatus.Ongoing,\r\n            unicode'Trng thi hp ng khng hp l  thanh ton tin thu'\r\n        );\r\n        require(address(msg.sender).balance >= msg.value, unicode'S d khng   thanh ton tin thu');\r\n\r\n        if (contractInfo.status == RentalStatus.Deposited) {\r\n            contractInfo.status = RentalStatus.Ongoing;\r\n        }\r\n\r\n        (bool success, ) = contractInfo.owner.call{ value: msg.value }('');\r\n        require(success, unicode'Chuyn tin tht bi');\r\n\r\n        _recordTransaction(_contractID, msg.sender, contractInfo.owner, msg.value, unicode'Thanh ton tin thu');\r\n\r\n        emit TransactionRecorded(\r\n            _contractID,\r\n            msg.sender,\r\n            contractInfo.owner,\r\n            msg.value,\r\n            block.timestamp,\r\n            unicode'Thanh ton tin thu'\r\n        );\r\n    }\r\n\r\n    function transferToAddress(address payable recipient, uint256 amount) public {\r\n        require(address(this).balance >= amount, unicode'S d khng   chuyn tin');\r\n        recipient.transfer(amount);\r\n    }\r\n\r\n    function transferToSmartContract() public payable {\r\n        require(msg.value > 0, unicode'S tin chuyn phi ln hn 0');\r\n    }\r\n\r\n    function contractualIndemnity(string memory _contractID) public payable onlyOwner(_contractID) {\r\n        Contract storage contractInfo = contracts[_contractID];\r\n\r\n        require(\r\n            contractInfo.status == RentalStatus.Deposited || contractInfo.status == RentalStatus.Ongoing,\r\n            unicode'Trng thi hp ng khng hp l  thanh ton tin thu'\r\n        );\r\n        require(address(msg.sender).balance >= msg.value, unicode'S d khng   bi thng');\r\n\r\n        (bool success, ) = contractInfo.renter.call{ value: msg.value }('');\r\n        require(success, unicode'Chuyn tin tht bi');\r\n\r\n        _recordTransaction(\r\n            _contractID,\r\n            msg.sender,\r\n            contractInfo.renter,\r\n            msg.value,\r\n            unicode'Bi thng hp ng cho ngi thu'\r\n        );\r\n\r\n        emit TransactionRecorded(\r\n            _contractID,\r\n            msg.sender,\r\n            contractInfo.renter,\r\n            msg.value,\r\n            block.timestamp,\r\n            unicode'Bi thng hp ng cho ngi thu'\r\n        );\r\n    }\r\n\r\n    function cancelContractBeforeDeposit(string memory _contractID) public {\r\n        Contract storage contractInfo = contracts[_contractID];\r\n\r\n        // Kim tra xem ngi gi hm c phi l ch nh hoc ngi thu hay khng\r\n        require(\r\n            msg.sender == contractInfo.owner || msg.sender == contractInfo.renter,\r\n            unicode'Ch c ch nh hoc ngi thu mi c th kt thc hp ng'\r\n        );\r\n\r\n        // Kim tra trng thi hp ng\r\n        require(contractInfo.status == RentalStatus.NotCreated, unicode'Trng thi hp ng khng hp l  kt thc');\r\n\r\n        // Cp nht trng thi hp ng\r\n        contractInfo.status = RentalStatus.Cancelled;\r\n\r\n        // Pht s kin kt thc hp ng\r\n        emit ContractTerminated(\r\n            _contractID,\r\n            msg.sender == contractInfo.owner\r\n                ? unicode'Ch nh kt thc hp ng trc khi t cc'\r\n                : unicode'Ngi thu kt thc hp ng trc khi t cc'\r\n        );\r\n    }\r\n\r\n    // TODO\r\n    function endContract(string memory _contractID, uint depositAmount) public payable onlyOwner(_contractID) {\r\n        Contract storage contractInfo = contracts[_contractID];\r\n\r\n        if (contractInfo.status == RentalStatus.NotCreated) {\r\n            contractInfo.status = RentalStatus.Ended;\r\n        } else if (contractInfo.status == RentalStatus.Deposited || contractInfo.status == RentalStatus.Ongoing) {\r\n            require(address(this).balance >= depositAmount, unicode'S d hp ng khng   hon tr tin cc');\r\n\r\n            (bool success, ) = contractInfo.renter.call{ value: depositAmount }('');\r\n            require(success, unicode'Chuyn tin cc tht bi');\r\n\r\n            _recordTransaction(\r\n                _contractID,\r\n                address(this),\r\n                contractInfo.renter,\r\n                depositAmount,\r\n                unicode'Hon tr tin cc'\r\n            );\r\n\r\n            contractInfo.status = RentalStatus.Ended;\r\n        } else {\r\n            revert(unicode'Hp ng khng  trng thi hp l  kt thc');\r\n        }\r\n        emit ContractEnded(_contractID, contractInfo.renter, depositAmount, block.timestamp);\r\n    }\r\n\r\n    function _recordTransaction(\r\n        string memory _contractID,\r\n        address _from,\r\n        address _to,\r\n        uint _amount,\r\n        string memory _transactionType\r\n    ) internal {\r\n        contractTransactions[_contractID].push(\r\n            Transaction({\r\n                from: _from,\r\n                to: _to,\r\n                amount: _amount,\r\n                timestamp: block.timestamp,\r\n                transactionType: _transactionType\r\n            })\r\n        );\r\n    }\r\n\r\n    function getContractDetails(string memory _contractID) public view returns (Contract memory) {\r\n        Contract memory contractInfo = contracts[_contractID];\r\n        require(\r\n            msg.sender == contractInfo.owner || msg.sender == contractInfo.renter,\r\n            unicode'Ch ch hp ng hoc ngi thu mi c th xem chi tit hp ng'\r\n        );\r\n        return contractInfo;\r\n    }\r\n\r\n    function getContractTransactions(string memory _contractID) public view returns (Transaction[] memory) {\r\n        Contract memory contractInfo = contracts[_contractID];\r\n        require(\r\n            msg.sender == contractInfo.owner || msg.sender == contractInfo.renter,\r\n            unicode'Ch ch hp ng hoc ngi thu mi c th xem giao dch'\r\n        );\r\n        return contractTransactions[_contractID];\r\n    }\r\n\r\n    function terminateForNonPayment(string memory _contractId, uint depositAmount) public {\r\n        Contract storage contractInfo = contracts[_contractId];\r\n\r\n        // Ch cho php khi trng thi hp ng l Deposited hoc Ongoing\r\n        require(contractInfo.status == RentalStatus.Ongoing, unicode'Hp ng phi  trng thi ang hot ng');\r\n\r\n        // X l logic mt tin cc nu khng thanh ton ng hn\r\n        if (depositAmount > 0) {\r\n            require(address(this).balance >= depositAmount, unicode'S d hp ng khng   mt tin cc');\r\n\r\n            // Chuyn tin cc cho ch nh\r\n            (bool success, ) = contractInfo.owner.call{ value: depositAmount }('');\r\n            require(success, unicode'Chuyn tin cc tht bi');\r\n\r\n            // Lu giao dch\r\n            _recordTransaction(_contractId, address(this), contractInfo.owner, depositAmount, unicode'Tin cc b mt');\r\n        }\r\n\r\n        // nh du hp ng  kt thc\r\n        contractInfo.status = RentalStatus.Ended;\r\n        emit ContractEnded(_contractId, contractInfo.renter, depositAmount, block.timestamp);\r\n    }\r\n\r\n    // FIXME\r\n    function cancelContractByRenter(\r\n        string memory _contractId,\r\n        bool notifyBefore30Days,\r\n        uint depositAmount\r\n    ) public payable onlyRenter(_contractId) {\r\n        Contract storage contractInfo = contracts[_contractId];\r\n\r\n        require(\r\n            contractInfo.status == RentalStatus.Deposited || contractInfo.status == RentalStatus.Ongoing,\r\n            unicode'Trng thi hp ng khng hp l  hy'\r\n        );\r\n\r\n        uint depositLoss = 0;\r\n        uint extraCharge = 0;\r\n\r\n        if (notifyBefore30Days) {\r\n            // Hon tr tin cc nu thng bo trc 30 ngy\r\n            require(address(this).balance >= depositAmount, unicode'S d hp ng khng   hon tr tin cc');\r\n\r\n            (bool successRefund, ) = contractInfo.renter.call{ value: depositAmount }('');\r\n            require(successRefund, unicode'Chuyn tin cc tht bi');\r\n\r\n            _recordTransaction(_contractId, contractInfo.owner, msg.sender, depositAmount, unicode'Hon tr tin cc');\r\n        } else {\r\n            // Tnh ph b sung v chuyn tin cc nu khng thng bo trc 30 ngy\r\n            // extraCharge = contractInfo.monthlyRent;\r\n            // require(msg.value == extraCharge, \"Incorrect extra charge amount\");\r\n            // require(address(msg.sender).balance >= extraCharge, \"Insufficient balance of renter\");\r\n\r\n            // (bool successExtraCharge, ) = contractInfo.owner.call{value: extraCharge}(\"\");\r\n            // require(successExtraCharge, \"Extra charge transfer failed\");\r\n\r\n            // _recordTransaction(_contractId, msg.sender, contractInfo.owner, extraCharge, \"Extra Charge\");\r\n\r\n            depositLoss = depositAmount;\r\n            require(address(this).balance >= depositLoss, unicode'S d hp ng khng   hon tr tin cc');\r\n\r\n            (bool successDeposit, ) = contractInfo.owner.call{ value: depositLoss }(''); // Chuyn tin cc t ngi thu cho ch nh\r\n            require(successDeposit, unicode'Chuyn tin cc tht bi');\r\n\r\n            _recordTransaction(\r\n                _contractId,\r\n                msg.sender,\r\n                contractInfo.owner,\r\n                depositLoss,\r\n                unicode'Thanh ton tin cc cho ch nh'\r\n            );\r\n        }\r\n\r\n        contractInfo.status = RentalStatus.Ended;\r\n        emit ContractCancelledByRenter(_contractId, msg.sender, depositLoss, extraCharge, block.timestamp);\r\n    }\r\n\r\n    // FIXME\r\n    function cancelContractByOwner(\r\n        string memory _contractId,\r\n        uint depositAmount\r\n    ) public payable onlyOwner(_contractId) {\r\n        Contract storage contractInfo = contracts[_contractId];\r\n\r\n        require(\r\n            contractInfo.status == RentalStatus.Deposited || contractInfo.status == RentalStatus.Ongoing,\r\n            unicode'Trng thi hp ng khng hp l  hy'\r\n        );\r\n\r\n        // Hon tr tin cc cho ngi thu nu hp ng vn cn hiu lc\r\n        require(address(this).balance >= depositAmount, unicode'S d hp ng khng   hon tr tin cc');\r\n\r\n        (bool successDeposit, ) = contractInfo.renter.call{ value: depositAmount }('');\r\n        require(successDeposit, unicode'Chuyn tin cc tht bi');\r\n\r\n        _recordTransaction(_contractId, msg.sender, contractInfo.renter, depositAmount, unicode'Hon tr tin cc');\r\n\r\n        contractInfo.status = RentalStatus.Ended;\r\n        emit ContractCancelledByOwner(_contractId, msg.sender, depositAmount, block.timestamp);\r\n    }\r\n}\r\n",
  "sourcePath": "C:\\Code\\kltn\\backend\\contract-service\\contractRental\\contracts\\RentalContract.sol",
  "compiler": {
    "name": "solc",
    "version": "0.8.0+commit.c7dfd78e.Emscripten.clang"
  },
  "schemaVersion": "3.4.16",
  "updatedAt": "2024-10-31T08:11:18.753Z",
  "networkType": "ethereum",
  "devdoc": {
    "kind": "dev",
    "methods": {},
    "version": 1
  },
  "userdoc": {
    "kind": "user",
    "methods": {},
    "version": 1
  }
}