{
  "contractName": "RentalContract",
  "abi": [
    {
      "anonymous": false,
      "inputs": [
        {
          "indexed": true,
          "internalType": "string",
          "name": "contractID",
          "type": "string"
        },
        {
          "indexed": true,
          "internalType": "address",
          "name": "owner",
          "type": "address"
        },
        {
          "indexed": false,
          "internalType": "uint256",
          "name": "compensation",
          "type": "uint256"
        },
        {
          "indexed": false,
          "internalType": "uint256",
          "name": "timestamp",
          "type": "uint256"
        }
      ],
      "name": "ContractCancelledByOwner",
      "type": "event"
    },
    {
      "anonymous": false,
      "inputs": [
        {
          "indexed": true,
          "internalType": "string",
          "name": "contractID",
          "type": "string"
        },
        {
          "indexed": true,
          "internalType": "address",
          "name": "renter",
          "type": "address"
        },
        {
          "indexed": false,
          "internalType": "uint256",
          "name": "depositLoss",
          "type": "uint256"
        },
        {
          "indexed": false,
          "internalType": "uint256",
          "name": "extraCharge",
          "type": "uint256"
        },
        {
          "indexed": false,
          "internalType": "uint256",
          "name": "timestamp",
          "type": "uint256"
        }
      ],
      "name": "ContractCancelledByRenter",
      "type": "event"
    },
    {
      "anonymous": false,
      "inputs": [
        {
          "indexed": true,
          "internalType": "string",
          "name": "contractID",
          "type": "string"
        },
        {
          "indexed": false,
          "internalType": "string",
          "name": "propertyID",
          "type": "string"
        },
        {
          "indexed": true,
          "internalType": "address",
          "name": "owner",
          "type": "address"
        },
        {
          "indexed": true,
          "internalType": "address",
          "name": "renter",
          "type": "address"
        },
        {
          "indexed": false,
          "internalType": "uint256",
          "name": "depositAmount",
          "type": "uint256"
        },
        {
          "indexed": false,
          "internalType": "uint256",
          "name": "monthlyRent",
          "type": "uint256"
        }
      ],
      "name": "ContractCreated",
      "type": "event"
    },
    {
      "anonymous": false,
      "inputs": [
        {
          "indexed": true,
          "internalType": "string",
          "name": "contractID",
          "type": "string"
        },
        {
          "indexed": true,
          "internalType": "address",
          "name": "renter",
          "type": "address"
        },
        {
          "indexed": false,
          "internalType": "uint256",
          "name": "depositRefundAmount",
          "type": "uint256"
        },
        {
          "indexed": false,
          "internalType": "uint256",
          "name": "timestamp",
          "type": "uint256"
        }
      ],
      "name": "ContractEnded",
      "type": "event"
    },
    {
      "anonymous": false,
      "inputs": [
        {
          "indexed": true,
          "internalType": "string",
          "name": "contractID",
          "type": "string"
        },
        {
          "indexed": false,
          "internalType": "string",
          "name": "reason",
          "type": "string"
        }
      ],
      "name": "ContractTerminated",
      "type": "event"
    },
    {
      "anonymous": false,
      "inputs": [
        {
          "indexed": true,
          "internalType": "string",
          "name": "contractID",
          "type": "string"
        },
        {
          "indexed": false,
          "internalType": "address",
          "name": "from",
          "type": "address"
        },
        {
          "indexed": false,
          "internalType": "address",
          "name": "to",
          "type": "address"
        },
        {
          "indexed": false,
          "internalType": "uint256",
          "name": "amount",
          "type": "uint256"
        },
        {
          "indexed": false,
          "internalType": "uint256",
          "name": "timestamp",
          "type": "uint256"
        },
        {
          "indexed": false,
          "internalType": "string",
          "name": "transactionType",
          "type": "string"
        }
      ],
      "name": "TransactionRecorded",
      "type": "event"
    },
    {
      "inputs": [
        {
          "internalType": "string",
          "name": "",
          "type": "string"
        },
        {
          "internalType": "uint256",
          "name": "",
          "type": "uint256"
        }
      ],
      "name": "contractTransactions",
      "outputs": [
        {
          "internalType": "address",
          "name": "from",
          "type": "address"
        },
        {
          "internalType": "address",
          "name": "to",
          "type": "address"
        },
        {
          "internalType": "uint256",
          "name": "amount",
          "type": "uint256"
        },
        {
          "internalType": "uint256",
          "name": "timestamp",
          "type": "uint256"
        },
        {
          "internalType": "string",
          "name": "transactionType",
          "type": "string"
        }
      ],
      "stateMutability": "view",
      "type": "function",
      "constant": true
    },
    {
      "inputs": [
        {
          "internalType": "string",
          "name": "",
          "type": "string"
        }
      ],
      "name": "contracts",
      "outputs": [
        {
          "internalType": "string",
          "name": "contractID",
          "type": "string"
        },
        {
          "internalType": "string",
          "name": "propertyID",
          "type": "string"
        },
        {
          "internalType": "address payable",
          "name": "owner",
          "type": "address"
        },
        {
          "internalType": "address payable",
          "name": "renter",
          "type": "address"
        },
        {
          "internalType": "uint256",
          "name": "depositAmount",
          "type": "uint256"
        },
        {
          "internalType": "uint256",
          "name": "monthlyRent",
          "type": "uint256"
        },
        {
          "internalType": "enum RentalContract.RentalStatus",
          "name": "status",
          "type": "uint8"
        }
      ],
      "stateMutability": "view",
      "type": "function",
      "constant": true
    },
    {
      "inputs": [
        {
          "internalType": "string",
          "name": "_contractID",
          "type": "string"
        },
        {
          "internalType": "string",
          "name": "_propertyID",
          "type": "string"
        },
        {
          "internalType": "address payable",
          "name": "_owner",
          "type": "address"
        },
        {
          "internalType": "address payable",
          "name": "_renter",
          "type": "address"
        },
        {
          "internalType": "uint256",
          "name": "_depositAmount",
          "type": "uint256"
        },
        {
          "internalType": "uint256",
          "name": "_monthlyRent",
          "type": "uint256"
        }
      ],
      "name": "createContract",
      "outputs": [],
      "stateMutability": "nonpayable",
      "type": "function"
    },
    {
      "inputs": [
        {
          "internalType": "string",
          "name": "_contractID",
          "type": "string"
        }
      ],
      "name": "deposit",
      "outputs": [],
      "stateMutability": "payable",
      "type": "function",
      "payable": true
    },
    {
      "inputs": [
        {
          "internalType": "string",
          "name": "_contractID",
          "type": "string"
        }
      ],
      "name": "payRent",
      "outputs": [],
      "stateMutability": "payable",
      "type": "function",
      "payable": true
    },
    {
      "inputs": [
        {
          "internalType": "string",
          "name": "_contractID",
          "type": "string"
        }
      ],
      "name": "contractualIndemnity",
      "outputs": [],
      "stateMutability": "payable",
      "type": "function",
      "payable": true
    },
    {
      "inputs": [
        {
          "internalType": "string",
          "name": "_contractID",
          "type": "string"
        }
      ],
      "name": "cancelContractBeforeDeposit",
      "outputs": [],
      "stateMutability": "nonpayable",
      "type": "function"
    },
    {
      "inputs": [
        {
          "internalType": "string",
          "name": "_contractID",
          "type": "string"
        },
        {
          "internalType": "uint256",
          "name": "depositAmount",
          "type": "uint256"
        }
      ],
      "name": "endContract",
      "outputs": [],
      "stateMutability": "payable",
      "type": "function",
      "payable": true
    },
    {
      "inputs": [
        {
          "internalType": "string",
          "name": "_contractID",
          "type": "string"
        }
      ],
      "name": "getContractDetails",
      "outputs": [
        {
          "components": [
            {
              "internalType": "string",
              "name": "contractID",
              "type": "string"
            },
            {
              "internalType": "string",
              "name": "propertyID",
              "type": "string"
            },
            {
              "internalType": "address payable",
              "name": "owner",
              "type": "address"
            },
            {
              "internalType": "address payable",
              "name": "renter",
              "type": "address"
            },
            {
              "internalType": "uint256",
              "name": "depositAmount",
              "type": "uint256"
            },
            {
              "internalType": "uint256",
              "name": "monthlyRent",
              "type": "uint256"
            },
            {
              "internalType": "enum RentalContract.RentalStatus",
              "name": "status",
              "type": "uint8"
            }
          ],
          "internalType": "struct RentalContract.Contract",
          "name": "",
          "type": "tuple"
        }
      ],
      "stateMutability": "view",
      "type": "function",
      "constant": true
    },
    {
      "inputs": [
        {
          "internalType": "string",
          "name": "_contractID",
          "type": "string"
        }
      ],
      "name": "getContractTransactions",
      "outputs": [
        {
          "components": [
            {
              "internalType": "address",
              "name": "from",
              "type": "address"
            },
            {
              "internalType": "address",
              "name": "to",
              "type": "address"
            },
            {
              "internalType": "uint256",
              "name": "amount",
              "type": "uint256"
            },
            {
              "internalType": "uint256",
              "name": "timestamp",
              "type": "uint256"
            },
            {
              "internalType": "string",
              "name": "transactionType",
              "type": "string"
            }
          ],
          "internalType": "struct RentalContract.Transaction[]",
          "name": "",
          "type": "tuple[]"
        }
      ],
      "stateMutability": "view",
      "type": "function",
      "constant": true
    },
    {
      "inputs": [
        {
          "internalType": "string",
          "name": "_contractId",
          "type": "string"
        },
        {
          "internalType": "uint256",
          "name": "depositAmount",
          "type": "uint256"
        }
      ],
      "name": "terminateForNonPayment",
      "outputs": [],
      "stateMutability": "nonpayable",
      "type": "function"
    },
    {
      "inputs": [
        {
          "internalType": "string",
          "name": "_contractId",
          "type": "string"
        },
        {
          "internalType": "bool",
          "name": "notifyBefore30Days",
          "type": "bool"
        },
        {
          "internalType": "uint256",
          "name": "depositAmount",
          "type": "uint256"
        }
      ],
      "name": "cancelContractByRenter",
      "outputs": [],
      "stateMutability": "payable",
      "type": "function",
      "payable": true
    },
    {
      "inputs": [
        {
          "internalType": "string",
          "name": "_contractId",
          "type": "string"
        },
        {
          "internalType": "uint256",
          "name": "depositAmount",
          "type": "uint256"
        }
      ],
      "name": "cancelContractByOwner",
      "outputs": [],
      "stateMutability": "payable",
      "type": "function",
      "payable": true
    }
  ],
  "bytecode": "0x608060405234801561001057600080fd5b50614ed9806100206000396000f3fe6080604052600436106100c25760003560e01c8063541881c11161007f5780638c5b8385116100595780638c5b83851461020b578063a26e11861461024e578063bfafff5b1461026a578063cd7c1147146102a7576100c2565b8063541881c114610189578063706a9c6c146101c65780637bef444c146101ef576100c2565b8063132756b5146100c75780632799a284146100e35780632a84cabc146100ff5780632b27ddd01461011b57806340b815fe146101445780634760894414610160575b600080fd5b6100e160048036038101906100dc9190613844565b6102e8565b005b6100fd60048036038101906100f89190613844565b61084f565b005b610119600480360381019061011491906136e3565b610ca9565b005b34801561012757600080fd5b50610142600480360381019061013d919061378b565b6110ba565b005b61015e60048036038101906101599190613724565b611445565b005b34801561016c57600080fd5b5061018760048036038101906101829190613844565b611a13565b005b34801561019557600080fd5b506101b060048036038101906101ab91906136e3565b611d5e565b6040516101bd91906146ce565b60405180910390f35b3480156101d257600080fd5b506101ed60048036038101906101e891906136e3565b612271565b005b610209600480360381019061020491906136e3565b612574565b005b34801561021757600080fd5b50610232600480360381019061022d91906136e3565b612a80565b6040516102459796959493929190614712565b60405180910390f35b610268600480360381019061026391906136e3565b612c35565b005b34801561027657600080fd5b50610291600480360381019061028c91906136e3565b612f11565b60405161029e9190614a4d565b60405180910390f35b3480156102b357600080fd5b506102ce60048036038101906102c99190613844565b613265565b6040516102df95949392919061461c565b60405180910390f35b816000816040516102f99190614540565b908152602001604051809103902060020160009054906101000a900473ffffffffffffffffffffffffffffffffffffffff1673ffffffffffffffffffffffffffffffffffffffff163373ffffffffffffffffffffffffffffffffffffffff1614610398576040517f08c379a000000000000000000000000000000000000000000000000000000000815260040161038f9061480d565b60405180910390fd5b600080846040516103a99190614540565b90815260200160405180910390209050600060048111156103f3577f4e487b7100000000000000000000000000000000000000000000000000000000600052602160045260246000fd5b8160060160009054906101000a900460ff16600481111561043d577f4e487b7100000000000000000000000000000000000000000000000000000000600052602160045260246000fd5b141561049b5760038160060160006101000a81548160ff02191690836004811115610491577f4e487b7100000000000000000000000000000000000000000000000000000000600052602160045260246000fd5b02179055506107bf565b600160048111156104d5577f4e487b7100000000000000000000000000000000000000000000000000000000600052602160045260246000fd5b8160060160009054906101000a900460ff16600481111561051f577f4e487b7100000000000000000000000000000000000000000000000000000000600052602160045260246000fd5b14806105ac575060026004811115610560577f4e487b7100000000000000000000000000000000000000000000000000000000600052602160045260246000fd5b8160060160009054906101000a900460ff1660048111156105aa577f4e487b7100000000000000000000000000000000000000000000000000000000600052602160045260246000fd5b145b1561078357824710156105f4576040517f08c379a00000000000000000000000000000000000000000000000000000000081526004016105eb906149cd565b60405180910390fd5b60008160030160009054906101000a900473ffffffffffffffffffffffffffffffffffffffff1673ffffffffffffffffffffffffffffffffffffffff168460405161063e90614557565b60006040518083038185875af1925050503d806000811461067b576040519150601f19603f3d011682016040523d82523d6000602084013e610680565b606091505b50509050806106c4576040517f08c379a00000000000000000000000000000000000000000000000000000000081526004016106bb90614a0d565b60405180910390fd5b61072a85308460030160009054906101000a900473ffffffffffffffffffffffffffffffffffffffff16876040518060400160405280601881526020017f486fc3a06e207472e1baa3207469e1bb816e2063e1bb8d630000000000000000815250613396565b60038260060160006101000a81548160ff02191690836004811115610778577f4e487b7100000000000000000000000000000000000000000000000000000000600052602160045260246000fd5b0217905550506107be565b6040517f08c379a00000000000000000000000000000000000000000000000000000000081526004016107b5906148cd565b60405180910390fd5b5b8060030160009054906101000a900473ffffffffffffffffffffffffffffffffffffffff1673ffffffffffffffffffffffffffffffffffffffff16846040516108089190614540565b60405180910390207ff6b22571c1ecf2dee47f025f69793accfe7ed12f07404c638536d16998c1ea478542604051610841929190614a6f565b60405180910390a350505050565b816000816040516108609190614540565b908152602001604051809103902060020160009054906101000a900473ffffffffffffffffffffffffffffffffffffffff1673ffffffffffffffffffffffffffffffffffffffff163373ffffffffffffffffffffffffffffffffffffffff16146108ff576040517f08c379a00000000000000000000000000000000000000000000000000000000081526004016108f69061480d565b60405180910390fd5b600080846040516109109190614540565b908152602001604051809103902090506001600481111561095a577f4e487b7100000000000000000000000000000000000000000000000000000000600052602160045260246000fd5b8160060160009054906101000a900460ff1660048111156109a4577f4e487b7100000000000000000000000000000000000000000000000000000000600052602160045260246000fd5b1480610a315750600260048111156109e5577f4e487b7100000000000000000000000000000000000000000000000000000000600052602160045260246000fd5b8160060160009054906101000a900460ff166004811115610a2f577f4e487b7100000000000000000000000000000000000000000000000000000000600052602160045260246000fd5b145b610a70576040517f08c379a0000000000000000000000000000000000000000000000000000000008152600401610a679061482d565b60405180910390fd5b82471015610ab3576040517f08c379a0000000000000000000000000000000000000000000000000000000008152600401610aaa906149cd565b60405180910390fd5b60008160030160009054906101000a900473ffffffffffffffffffffffffffffffffffffffff1673ffffffffffffffffffffffffffffffffffffffff1684604051610afd90614557565b60006040518083038185875af1925050503d8060008114610b3a576040519150601f19603f3d011682016040523d82523d6000602084013e610b3f565b606091505b5050905080610b83576040517f08c379a0000000000000000000000000000000000000000000000000000000008152600401610b7a90614a0d565b60405180910390fd5b610be985338460030160009054906101000a900473ffffffffffffffffffffffffffffffffffffffff16876040518060400160405280601881526020017f486fc3a06e207472e1baa3207469e1bb816e2063e1bb8d630000000000000000815250613396565b60038260060160006101000a81548160ff02191690836004811115610c37577f4e487b7100000000000000000000000000000000000000000000000000000000600052602160045260246000fd5b02179055503373ffffffffffffffffffffffffffffffffffffffff1685604051610c619190614540565b60405180910390207fe2da9dcf01d3bce438e81353c3540671c45029b87abdf8074d5a9bfb045ef6f98642604051610c9a929190614a6f565b60405180910390a35050505050565b80600081604051610cba9190614540565b908152602001604051809103902060020160009054906101000a900473ffffffffffffffffffffffffffffffffffffffff1673ffffffffffffffffffffffffffffffffffffffff163373ffffffffffffffffffffffffffffffffffffffff1614610d59576040517f08c379a0000000000000000000000000000000000000000000000000000000008152600401610d509061480d565b60405180910390fd5b60008083604051610d6a9190614540565b9081526020016040518091039020905060016004811115610db4577f4e487b7100000000000000000000000000000000000000000000000000000000600052602160045260246000fd5b8160060160009054906101000a900460ff166004811115610dfe577f4e487b7100000000000000000000000000000000000000000000000000000000600052602160045260246000fd5b1480610e8b575060026004811115610e3f577f4e487b7100000000000000000000000000000000000000000000000000000000600052602160045260246000fd5b8160060160009054906101000a900460ff166004811115610e89577f4e487b7100000000000000000000000000000000000000000000000000000000600052602160045260246000fd5b145b610eca576040517f08c379a0000000000000000000000000000000000000000000000000000000008152600401610ec19061492d565b60405180910390fd5b343373ffffffffffffffffffffffffffffffffffffffff16311015610f24576040517f08c379a0000000000000000000000000000000000000000000000000000000008152600401610f1b906148ed565b60405180910390fd5b60008160030160009054906101000a900473ffffffffffffffffffffffffffffffffffffffff1673ffffffffffffffffffffffffffffffffffffffff1634604051610f6e90614557565b60006040518083038185875af1925050503d8060008114610fab576040519150601f19603f3d011682016040523d82523d6000602084013e610fb0565b606091505b5050905080610ff4576040517f08c379a0000000000000000000000000000000000000000000000000000000008152600401610feb9061484d565b60405180910390fd5b61103d84338460030160009054906101000a900473ffffffffffffffffffffffffffffffffffffffff1634604051806060016040528060308152602001614e0f60309139613396565b8360405161104b9190614540565b60405180910390207f533295cd82e521ef5bdedbc6debf352fcb558fe7f98c397a0d52cc90e107f310338460030160009054906101000a900473ffffffffffffffffffffffffffffffffffffffff1634426040516110ac94939291906145c4565b60405180910390a250505050565b838073ffffffffffffffffffffffffffffffffffffffff163373ffffffffffffffffffffffffffffffffffffffff1614611129576040517f08c379a0000000000000000000000000000000000000000000000000000000008152600401611120906147cd565b60405180910390fd5b600073ffffffffffffffffffffffffffffffffffffffff168573ffffffffffffffffffffffffffffffffffffffff16141580156111935750600073ffffffffffffffffffffffffffffffffffffffff168473ffffffffffffffffffffffffffffffffffffffff1614155b6111d2576040517f08c379a00000000000000000000000000000000000000000000000000000000081526004016111c9906149ed565b60405180910390fd5b6040518060e001604052808881526020018781526020018673ffffffffffffffffffffffffffffffffffffffff1681526020018573ffffffffffffffffffffffffffffffffffffffff16815260200184815260200183815260200160006004811115611267577f4e487b7100000000000000000000000000000000000000000000000000000000600052602160045260246000fd5b81525060008860405161127a9190614540565b908152602001604051809103902060008201518160000190805190602001906112a49291906134f8565b5060208201518160010190805190602001906112c19291906134f8565b5060408201518160020160006101000a81548173ffffffffffffffffffffffffffffffffffffffff021916908373ffffffffffffffffffffffffffffffffffffffff16021790555060608201518160030160006101000a81548173ffffffffffffffffffffffffffffffffffffffff021916908373ffffffffffffffffffffffffffffffffffffffff1602179055506080820151816004015560a0820151816005015560c08201518160060160006101000a81548160ff021916908360048111156113b5577f4e487b7100000000000000000000000000000000000000000000000000000000600052602160045260246000fd5b02179055509050508373ffffffffffffffffffffffffffffffffffffffff168573ffffffffffffffffffffffffffffffffffffffff16886040516113f99190614540565b60405180910390207ff7ecc3071b5ebed4a1d5658be0963bdf71f705336198be1add318654699525948987876040516114349392919061478f565b60405180910390a450505050505050565b826000816040516114569190614540565b908152602001604051809103902060030160009054906101000a900473ffffffffffffffffffffffffffffffffffffffff1673ffffffffffffffffffffffffffffffffffffffff163373ffffffffffffffffffffffffffffffffffffffff16146114f5576040517f08c379a00000000000000000000000000000000000000000000000000000000081526004016114ec9061490d565b60405180910390fd5b600080856040516115069190614540565b9081526020016040518091039020905060016004811115611550577f4e487b7100000000000000000000000000000000000000000000000000000000600052602160045260246000fd5b8160060160009054906101000a900460ff16600481111561159a577f4e487b7100000000000000000000000000000000000000000000000000000000600052602160045260246000fd5b14806116275750600260048111156115db577f4e487b7100000000000000000000000000000000000000000000000000000000600052602160045260246000fd5b8160060160009054906101000a900460ff166004811115611625577f4e487b7100000000000000000000000000000000000000000000000000000000600052602160045260246000fd5b145b611666576040517f08c379a000000000000000000000000000000000000000000000000000000000815260040161165d9061482d565b60405180910390fd5b60008085156117ee57844710156116b2576040517f08c379a00000000000000000000000000000000000000000000000000000000081526004016116a9906149cd565b60405180910390fd5b60008360030160009054906101000a900473ffffffffffffffffffffffffffffffffffffffff1673ffffffffffffffffffffffffffffffffffffffff16866040516116fc90614557565b60006040518083038185875af1925050503d8060008114611739576040519150601f19603f3d011682016040523d82523d6000602084013e61173e565b606091505b5050905080611782576040517f08c379a000000000000000000000000000000000000000000000000000000000815260040161177990614a0d565b60405180910390fd5b6117e8888560020160009054906101000a900473ffffffffffffffffffffffffffffffffffffffff1633896040518060400160405280601881526020017f486fc3a06e207472e1baa3207469e1bb816e2063e1bb8d630000000000000000815250613396565b5061194f565b84915081471015611834576040517f08c379a000000000000000000000000000000000000000000000000000000000815260040161182b906149cd565b60405180910390fd5b60008360020160009054906101000a900473ffffffffffffffffffffffffffffffffffffffff1673ffffffffffffffffffffffffffffffffffffffff168360405161187e90614557565b60006040518083038185875af1925050503d80600081146118bb576040519150601f19603f3d011682016040523d82523d6000602084013e6118c0565b606091505b5050905080611904576040517f08c379a00000000000000000000000000000000000000000000000000000000081526004016118fb90614a0d565b60405180910390fd5b61194d88338660020160009054906101000a900473ffffffffffffffffffffffffffffffffffffffff1686604051806060016040528060278152602001614e7d60279139613396565b505b60038360060160006101000a81548160ff0219169083600481111561199d577f4e487b7100000000000000000000000000000000000000000000000000000000600052602160045260246000fd5b02179055503373ffffffffffffffffffffffffffffffffffffffff16876040516119c79190614540565b60405180910390207fadafc36edcd60759441410797064a212430ea809b0ca5ffd4aa273c16b131332848442604051611a0293929190614a98565b60405180910390a350505050505050565b60008083604051611a249190614540565b9081526020016040518091039020905060026004811115611a6e577f4e487b7100000000000000000000000000000000000000000000000000000000600052602160045260246000fd5b8160060160009054906101000a900460ff166004811115611ab8577f4e487b7100000000000000000000000000000000000000000000000000000000600052602160045260246000fd5b14611af8576040517f08c379a0000000000000000000000000000000000000000000000000000000008152600401611aef906149ad565b60405180910390fd5b6000821115611c7c5781471015611b44576040517f08c379a0000000000000000000000000000000000000000000000000000000008152600401611b3b9061486d565b60405180910390fd5b60008160020160009054906101000a900473ffffffffffffffffffffffffffffffffffffffff1673ffffffffffffffffffffffffffffffffffffffff1683604051611b8e90614557565b60006040518083038185875af1925050503d8060008114611bcb576040519150601f19603f3d011682016040523d82523d6000602084013e611bd0565b606091505b5050905080611c14576040517f08c379a0000000000000000000000000000000000000000000000000000000008152600401611c0b90614a0d565b60405180910390fd5b611c7a84308460020160009054906101000a900473ffffffffffffffffffffffffffffffffffffffff16866040518060400160405280601781526020017f5469e1bb816e2063e1bb8d632062e1bb8b206de1baa574000000000000000000815250613396565b505b60038160060160006101000a81548160ff02191690836004811115611cca577f4e487b7100000000000000000000000000000000000000000000000000000000600052602160045260246000fd5b02179055508060030160009054906101000a900473ffffffffffffffffffffffffffffffffffffffff1673ffffffffffffffffffffffffffffffffffffffff1683604051611d189190614540565b60405180910390207ff6b22571c1ecf2dee47f025f69793accfe7ed12f07404c638536d16998c1ea478442604051611d51929190614a6f565b60405180910390a3505050565b606060008083604051611d719190614540565b90815260200160405180910390206040518060e0016040529081600082018054611d9a90614ca3565b80601f0160208091040260200160405190810160405280929190818152602001828054611dc690614ca3565b8015611e135780601f10611de857610100808354040283529160200191611e13565b820191906000526020600020905b815481529060010190602001808311611df657829003601f168201915b50505050508152602001600182018054611e2c90614ca3565b80601f0160208091040260200160405190810160405280929190818152602001828054611e5890614ca3565b8015611ea55780601f10611e7a57610100808354040283529160200191611ea5565b820191906000526020600020905b815481529060010190602001808311611e8857829003601f168201915b505050505081526020016002820160009054906101000a900473ffffffffffffffffffffffffffffffffffffffff1673ffffffffffffffffffffffffffffffffffffffff1673ffffffffffffffffffffffffffffffffffffffff1681526020016003820160009054906101000a900473ffffffffffffffffffffffffffffffffffffffff1673ffffffffffffffffffffffffffffffffffffffff1673ffffffffffffffffffffffffffffffffffffffff16815260200160048201548152602001600582015481526020016006820160009054906101000a900460ff166004811115611fb9577f4e487b7100000000000000000000000000000000000000000000000000000000600052602160045260246000fd5b6004811115611ff1577f4e487b7100000000000000000000000000000000000000000000000000000000600052602160045260246000fd5b815250509050806040015173ffffffffffffffffffffffffffffffffffffffff163373ffffffffffffffffffffffffffffffffffffffff1614806120645750806060015173ffffffffffffffffffffffffffffffffffffffff163373ffffffffffffffffffffffffffffffffffffffff16145b6120a3576040517f08c379a000000000000000000000000000000000000000000000000000000000815260040161209a9061496d565b60405180910390fd5b6001836040516120b39190614540565b9081526020016040518091039020805480602002602001604051908101604052809291908181526020016000905b8282101561226557838290600052602060002090600502016040518060a00160405290816000820160009054906101000a900473ffffffffffffffffffffffffffffffffffffffff1673ffffffffffffffffffffffffffffffffffffffff1673ffffffffffffffffffffffffffffffffffffffff1681526020016001820160009054906101000a900473ffffffffffffffffffffffffffffffffffffffff1673ffffffffffffffffffffffffffffffffffffffff1673ffffffffffffffffffffffffffffffffffffffff16815260200160028201548152602001600382015481526020016004820180546121d490614ca3565b80601f016020809104026020016040519081016040528092919081815260200182805461220090614ca3565b801561224d5780601f106122225761010080835404028352916020019161224d565b820191906000526020600020905b81548152906001019060200180831161223057829003601f168201915b505050505081525050815260200190600101906120e1565b50505050915050919050565b600080826040516122829190614540565b908152602001604051809103902090508060020160009054906101000a900473ffffffffffffffffffffffffffffffffffffffff1673ffffffffffffffffffffffffffffffffffffffff163373ffffffffffffffffffffffffffffffffffffffff16148061233f57508060030160009054906101000a900473ffffffffffffffffffffffffffffffffffffffff1673ffffffffffffffffffffffffffffffffffffffff163373ffffffffffffffffffffffffffffffffffffffff16145b61237e576040517f08c379a00000000000000000000000000000000000000000000000000000000081526004016123759061498d565b60405180910390fd5b600060048111156123b8577f4e487b7100000000000000000000000000000000000000000000000000000000600052602160045260246000fd5b8160060160009054906101000a900460ff166004811115612402577f4e487b7100000000000000000000000000000000000000000000000000000000600052602160045260246000fd5b14612442576040517f08c379a00000000000000000000000000000000000000000000000000000000081526004016124399061488d565b60405180910390fd5b60048160060160006101000a81548160ff02191690836004811115612490577f4e487b7100000000000000000000000000000000000000000000000000000000600052602160045260246000fd5b0217905550816040516124a39190614540565b60405180910390207f62053ec7b590a1785a5832f731771c8a67d47e1c16b9407b5bc1903ff9b7c5258260020160009054906101000a900473ffffffffffffffffffffffffffffffffffffffff1673ffffffffffffffffffffffffffffffffffffffff163373ffffffffffffffffffffffffffffffffffffffff161461254157604051806080016040528060428152602001614dcd6042913961255b565b6040518060600160405280603e8152602001614e3f603e91395b60405161256891906146f0565b60405180910390a25050565b806000816040516125859190614540565b908152602001604051809103902060030160009054906101000a900473ffffffffffffffffffffffffffffffffffffffff1673ffffffffffffffffffffffffffffffffffffffff163373ffffffffffffffffffffffffffffffffffffffff1614612624576040517f08c379a000000000000000000000000000000000000000000000000000000000815260040161261b9061490d565b60405180910390fd5b600080836040516126359190614540565b908152602001604051809103902090506001600481111561267f577f4e487b7100000000000000000000000000000000000000000000000000000000600052602160045260246000fd5b8160060160009054906101000a900460ff1660048111156126c9577f4e487b7100000000000000000000000000000000000000000000000000000000600052602160045260246000fd5b148061275657506002600481111561270a577f4e487b7100000000000000000000000000000000000000000000000000000000600052602160045260246000fd5b8160060160009054906101000a900460ff166004811115612754577f4e487b7100000000000000000000000000000000000000000000000000000000600052602160045260246000fd5b145b612795576040517f08c379a000000000000000000000000000000000000000000000000000000000815260040161278c9061492d565b60405180910390fd5b343373ffffffffffffffffffffffffffffffffffffffff163110156127ef576040517f08c379a00000000000000000000000000000000000000000000000000000000081526004016127e690614a2d565b60405180910390fd5b60016004811115612829577f4e487b7100000000000000000000000000000000000000000000000000000000600052602160045260246000fd5b8160060160009054906101000a900460ff166004811115612873577f4e487b7100000000000000000000000000000000000000000000000000000000600052602160045260246000fd5b14156128cd5760028160060160006101000a81548160ff021916908360048111156128c7577f4e487b7100000000000000000000000000000000000000000000000000000000600052602160045260246000fd5b02179055505b60008160020160009054906101000a900473ffffffffffffffffffffffffffffffffffffffff1673ffffffffffffffffffffffffffffffffffffffff163460405161291790614557565b60006040518083038185875af1925050503d8060008114612954576040519150601f19603f3d011682016040523d82523d6000602084013e612959565b606091505b505090508061299d576040517f08c379a00000000000000000000000000000000000000000000000000000000081526004016129949061484d565b60405180910390fd5b612a0384338460020160009054906101000a900473ffffffffffffffffffffffffffffffffffffffff16346040518060400160405280601881526020017f5468616e6820746fc3a16e207469e1bb816e20746875c3aa0000000000000000815250613396565b83604051612a119190614540565b60405180910390207f533295cd82e521ef5bdedbc6debf352fcb558fe7f98c397a0d52cc90e107f310338460020160009054906101000a900473ffffffffffffffffffffffffffffffffffffffff163442604051612a72949392919061456c565b60405180910390a250505050565b600081805160208101820180518482526020830160208501208183528095505050505050600091509050806000018054612ab990614ca3565b80601f0160208091040260200160405190810160405280929190818152602001828054612ae590614ca3565b8015612b325780601f10612b0757610100808354040283529160200191612b32565b820191906000526020600020905b815481529060010190602001808311612b1557829003601f168201915b505050505090806001018054612b4790614ca3565b80601f0160208091040260200160405190810160405280929190818152602001828054612b7390614ca3565b8015612bc05780601f10612b9557610100808354040283529160200191612bc0565b820191906000526020600020905b815481529060010190602001808311612ba357829003601f168201915b5050505050908060020160009054906101000a900473ffffffffffffffffffffffffffffffffffffffff16908060030160009054906101000a900473ffffffffffffffffffffffffffffffffffffffff16908060040154908060050154908060060160009054906101000a900460ff16905087565b80600081604051612c469190614540565b908152602001604051809103902060030160009054906101000a900473ffffffffffffffffffffffffffffffffffffffff1673ffffffffffffffffffffffffffffffffffffffff163373ffffffffffffffffffffffffffffffffffffffff1614612ce5576040517f08c379a0000000000000000000000000000000000000000000000000000000008152600401612cdc9061490d565b60405180910390fd5b60008083604051612cf69190614540565b9081526020016040518091039020905060006004811115612d40577f4e487b7100000000000000000000000000000000000000000000000000000000600052602160045260246000fd5b8160060160009054906101000a900460ff166004811115612d8a577f4e487b7100000000000000000000000000000000000000000000000000000000600052602160045260246000fd5b14612dca576040517f08c379a0000000000000000000000000000000000000000000000000000000008152600401612dc1906148ad565b60405180910390fd5b343373ffffffffffffffffffffffffffffffffffffffff16311015612e24576040517f08c379a0000000000000000000000000000000000000000000000000000000008152600401612e1b9061494d565b60405180910390fd5b60018160060160006101000a81548160ff02191690836004811115612e72577f4e487b7100000000000000000000000000000000000000000000000000000000600052602160045260246000fd5b0217905550612eb9833330346040518060400160405280600c81526020017fc490e1bab7742063e1bb8d630000000000000000000000000000000000000000815250613396565b82604051612ec79190614540565b60405180910390207f533295cd82e521ef5bdedbc6debf352fcb558fe7f98c397a0d52cc90e107f31033303442604051612f049493929190614676565b60405180910390a2505050565b612f1961357e565b60008083604051612f2a9190614540565b90815260200160405180910390206040518060e0016040529081600082018054612f5390614ca3565b80601f0160208091040260200160405190810160405280929190818152602001828054612f7f90614ca3565b8015612fcc5780601f10612fa157610100808354040283529160200191612fcc565b820191906000526020600020905b815481529060010190602001808311612faf57829003601f168201915b50505050508152602001600182018054612fe590614ca3565b80601f016020809104026020016040519081016040528092919081815260200182805461301190614ca3565b801561305e5780601f106130335761010080835404028352916020019161305e565b820191906000526020600020905b81548152906001019060200180831161304157829003601f168201915b505050505081526020016002820160009054906101000a900473ffffffffffffffffffffffffffffffffffffffff1673ffffffffffffffffffffffffffffffffffffffff1673ffffffffffffffffffffffffffffffffffffffff1681526020016003820160009054906101000a900473ffffffffffffffffffffffffffffffffffffffff1673ffffffffffffffffffffffffffffffffffffffff1673ffffffffffffffffffffffffffffffffffffffff16815260200160048201548152602001600582015481526020016006820160009054906101000a900460ff166004811115613172577f4e487b7100000000000000000000000000000000000000000000000000000000600052602160045260246000fd5b60048111156131aa577f4e487b7100000000000000000000000000000000000000000000000000000000600052602160045260246000fd5b815250509050806040015173ffffffffffffffffffffffffffffffffffffffff163373ffffffffffffffffffffffffffffffffffffffff16148061321d5750806060015173ffffffffffffffffffffffffffffffffffffffff163373ffffffffffffffffffffffffffffffffffffffff16145b61325c576040517f08c379a0000000000000000000000000000000000000000000000000000000008152600401613253906147ed565b60405180910390fd5b80915050919050565b600182805160208101820180518482526020830160208501208183528095505050505050818154811061329757600080fd5b9060005260206000209060050201600091509150508060000160009054906101000a900473ffffffffffffffffffffffffffffffffffffffff16908060010160009054906101000a900473ffffffffffffffffffffffffffffffffffffffff169080600201549080600301549080600401805461331390614ca3565b80601f016020809104026020016040519081016040528092919081815260200182805461333f90614ca3565b801561338c5780601f106133615761010080835404028352916020019161338c565b820191906000526020600020905b81548152906001019060200180831161336f57829003601f168201915b5050505050905085565b6001856040516133a69190614540565b90815260200160405180910390206040518060a001604052808673ffffffffffffffffffffffffffffffffffffffff1681526020018573ffffffffffffffffffffffffffffffffffffffff16815260200184815260200142815260200183815250908060018154018082558091505060019003906000526020600020906005020160009091909190915060008201518160000160006101000a81548173ffffffffffffffffffffffffffffffffffffffff021916908373ffffffffffffffffffffffffffffffffffffffff16021790555060208201518160010160006101000a81548173ffffffffffffffffffffffffffffffffffffffff021916908373ffffffffffffffffffffffffffffffffffffffff160217905550604082015181600201556060820151816003015560808201518160040190805190602001906134ee9291906134f8565b5050505050505050565b82805461350490614ca3565b90600052602060002090601f016020900481019282613526576000855561356d565b82601f1061353f57805160ff191683800117855561356d565b8280016001018555821561356d579182015b8281111561356c578251825591602001919060010190613551565b5b50905061357a919061361f565b5090565b6040518060e001604052806060815260200160608152602001600073ffffffffffffffffffffffffffffffffffffffff168152602001600073ffffffffffffffffffffffffffffffffffffffff168152602001600081526020016000815260200160006004811115613619577f4e487b7100000000000000000000000000000000000000000000000000000000600052602160045260246000fd5b81525090565b5b80821115613638576000816000905550600101613620565b5090565b600061364f61364a84614b00565b614acf565b90508281526020810184848401111561366757600080fd5b613672848285614c61565b509392505050565b60008135905061368981614d87565b92915050565b60008135905061369e81614d9e565b92915050565b600082601f8301126136b557600080fd5b81356136c584826020860161363c565b91505092915050565b6000813590506136dd81614db5565b92915050565b6000602082840312156136f557600080fd5b600082013567ffffffffffffffff81111561370f57600080fd5b61371b848285016136a4565b91505092915050565b60008060006060848603121561373957600080fd5b600084013567ffffffffffffffff81111561375357600080fd5b61375f868287016136a4565b93505060206137708682870161368f565b9250506040613781868287016136ce565b9150509250925092565b60008060008060008060c087890312156137a457600080fd5b600087013567ffffffffffffffff8111156137be57600080fd5b6137ca89828a016136a4565b965050602087013567ffffffffffffffff8111156137e757600080fd5b6137f389828a016136a4565b955050604061380489828a0161367a565b945050606061381589828a0161367a565b935050608061382689828a016136ce565b92505060a061383789828a016136ce565b9150509295509295509295565b6000806040838503121561385757600080fd5b600083013567ffffffffffffffff81111561387157600080fd5b61387d858286016136a4565b925050602061388e858286016136ce565b9150509250929050565b60006138a483836144ac565b905092915050565b6138b581614c19565b82525050565b6138c481614bbe565b82525050565b6138d381614bbe565b82525050565b6138e281614bac565b82525050565b6138f181614bac565b82525050565b600061390282614b40565b61390c8185614b63565b93508360208202850161391e85614b30565b8060005b8581101561395a578484038952815161393b8582613898565b945061394683614b56565b925060208a01995050600181019050613922565b50829750879550505050505092915050565b61397581614c2b565b82525050565b61398481614c2b565b82525050565b600061399582614b4b565b61399f8185614b7f565b93506139af818560208601614c70565b6139b881614d62565b840191505092915050565b60006139ce82614b4b565b6139d88185614b90565b93506139e8818560208601614c70565b6139f181614d62565b840191505092915050565b6000613a0782614b4b565b613a118185614ba1565b9350613a21818560208601614c70565b80840191505092915050565b6000613a3a603d83614b90565b91507f4368e1bb89206368e1bba72068e1bba37020c491e1bb936e67206de1bb9b692060008301527f63c3b3207468e1bb832074e1baa16f2068e1bba37020c491e1bb936e670000006020830152604082019050919050565b6000613aa0605c83614b90565b91507f4368e1bb89206368e1bba72068e1bba37020c491e1bb936e6720686fe1bab76360008301527f206e67c6b0e1bb9d6920746875c3aa206de1bb9b692063c3b3207468e1bb832060208301527f78656d20636869207469e1babf742068e1bba37020c491e1bb936e67000000006040830152606082019050919050565b6000613b2c604183614b90565b91507f4368e1bb89206368e1bba7206e68c3a0206de1bb9b692063c3b3207468e1bb8360008301527f207468e1bbb163206869e1bb876e2068c3a06e6820c491e1bb996e67206ec3a060208301527f79000000000000000000000000000000000000000000000000000000000000006040830152606082019050919050565b6000613bb8601883614b90565b91507f5468616e6820746fc3a16e207469e1bb816e20746875c3aa00000000000000006000830152602082019050919050565b6000613bf8603983614b90565b91507f5472e1baa16e67207468c3a1692068e1bba37020c491e1bb936e67206b68c3b460008301527f6e672068e1bba370206ce1bb8720c491e1bb832068e1bba779000000000000006020830152604082019050919050565b6000613c5e601c83614b90565b91507f43687579e1bb836e207469e1bb816e207468e1baa5742062e1baa169000000006000830152602082019050919050565b6000613c9e603c83614b90565b91507f53e1bb912064c6b02068e1bba37020c491e1bb936e67206b68c3b46e6720c49160008301527fe1bba720c491e1bb83206de1baa574207469e1bb816e2063e1bb8d63000000006020830152604082019050919050565b6000613d04603f83614b90565b91507f5472e1baa16e67207468c3a1692068e1bba37020c491e1bb936e67206b68c3b460008301527f6e672068e1bba370206ce1bb8720c491e1bb83206be1babf74207468c3ba63006020830152604082019050919050565b6000613d6a604083614b90565b91507f5472e1baa16e67207468c3a1692068e1bba37020c491e1bb936e67206b68c3b460008301527f6e672068e1bba370206ce1bb8720c491e1bb8320c491e1bab7742063e1bb8d636020830152604082019050919050565b6000613dd0604383614b90565b91507f48e1bba37020c491e1bb936e67206b68c3b46e6720e1bb9f207472e1baa16e6760008301527f207468c3a1692068e1bba370206ce1bb8720c491e1bb83206be1babf7420746860208301527fc3ba6300000000000000000000000000000000000000000000000000000000006040830152606082019050919050565b6000613e5c602b83614b90565b91507f53e1bb912064c6b0206b68c3b46e6720c491e1bba720c491e1bb832062e1bb9360008301527f69207468c6b0e1bb9d6e670000000000000000000000000000000000000000006020830152604082019050919050565b6000613ec2604583614b90565b91507f4368e1bb89206e67c6b0e1bb9d6920746875c3aa206de1bb9b692063c3b3207460008301527f68e1bb83207468e1bbb163206869e1bb876e2068c3a06e6820c491e1bb996e6760208301527f206ec3a0790000000000000000000000000000000000000000000000000000006040830152606082019050919050565b6000613f4e604c83614b90565b91507f5472e1baa16e67207468c3a1692068e1bba37020c491e1bb936e67206b68c3b460008301527f6e672068e1bba370206ce1bb8720c491e1bb83207468616e6820746fc3a16e2060208301527f7469e1bb816e20746875c3aa00000000000000000000000000000000000000006040830152606082019050919050565b6000613fda602883614b90565b91507f53e1bb912064c6b0206b68c3b46e6720c491e1bba720c491e1bb8320c491e1ba60008301527fb7742063e1bb8d630000000000000000000000000000000000000000000000006020830152604082019050919050565b6000614040604f83614b90565b91507f4368e1bb89206368e1bba72068e1bba37020c491e1bb936e6720686fe1bab76360008301527f206e67c6b0e1bb9d6920746875c3aa206de1bb9b692063c3b3207468e1bb832060208301527f78656d206769616f2064e1bb8b636800000000000000000000000000000000006040830152606082019050919050565b60006140cc605483614b90565b91507f4368e1bb892063c3b3206368e1bba7206e68c3a020686fe1bab763206e67c6b060008301527fe1bb9d6920746875c3aa206de1bb9b692063c3b3207468e1bb83206be1babf7460208301527f207468c3ba632068e1bba37020c491e1bb936e670000000000000000000000006040830152606082019050919050565b6000614158603b83614b90565b91507f48e1bba37020c491e1bb936e67207068e1baa36920e1bb9f207472e1baa16e6760008301527f207468c3a16920c491616e6720686fe1baa17420c491e1bb996e6700000000006020830152604082019050919050565b60006141be604283614b90565b91507f53e1bb912064c6b02068e1bba37020c491e1bb936e67206b68c3b46e6720c49160008301527fe1bba720c491e1bb8320686fc3a06e207472e1baa3207469e1bb816e2063e1bb60208301527f8d630000000000000000000000000000000000000000000000000000000000006040830152606082019050919050565b600061424a603083614b90565b91507f42e1bb9369207468c6b0e1bb9d6e672068e1bba37020c491e1bb936e6720636860008301527f6f206e67c6b0e1bb9d6920746875c3aa000000000000000000000000000000006020830152604082019050919050565b60006142b0601e83614b90565b91507fc490e1bb8b61206368e1bb89206b68c3b46e672068e1bba370206ce1bb8700006000830152602082019050919050565b60006142f0600083614b74565b9150600082019050919050565b600061430a602283614b90565b91507f43687579e1bb836e207469e1bb816e2063e1bb8d63207468e1baa5742062e1ba60008301527fa1690000000000000000000000000000000000000000000000000000000000006020830152604082019050919050565b6000614370603483614b90565b91507f53e1bb912064c6b0206b68c3b46e6720c491e1bba720c491e1bb83207468616e60008301527f6820746fc3a16e207469e1bb816e20746875c3aa0000000000000000000000006020830152604082019050919050565b60006143d6600c83614b90565b91507fc490e1bab7742063e1bb8d6300000000000000000000000000000000000000006000830152602082019050919050565b600060e0830160008301518482036000860152614426828261398a565b91505060208301518482036020860152614440828261398a565b915050604083015161445560408601826138bb565b50606083015161446860608601826138bb565b50608083015161447b6080860182614522565b5060a083015161448e60a0860182614522565b5060c08301516144a160c086018261396c565b508091505092915050565b600060a0830160008301516144c460008601826138d9565b5060208301516144d760208601826138d9565b5060408301516144ea6040860182614522565b5060608301516144fd6060860182614522565b5060808301518482036080860152614515828261398a565b9150508091505092915050565b61452b81614c0f565b82525050565b61453a81614c0f565b82525050565b600061454c82846139fc565b915081905092915050565b6000614562826142e3565b9150819050919050565b600060a08201905061458160008301876138e8565b61458e60208301866138ac565b61459b6040830185614531565b6145a86060830184614531565b81810360808301526145b981613bab565b905095945050505050565b600060a0820190506145d960008301876138e8565b6145e660208301866138ac565b6145f36040830185614531565b6146006060830184614531565b81810360808301526146118161423d565b905095945050505050565b600060a08201905061463160008301886138e8565b61463e60208301876138e8565b61464b6040830186614531565b6146586060830185614531565b818103608083015261466a81846139c3565b90509695505050505050565b600060a08201905061468b60008301876138e8565b61469860208301866138e8565b6146a56040830185614531565b6146b26060830184614531565b81810360808301526146c3816143c9565b905095945050505050565b600060208201905081810360008301526146e881846138f7565b905092915050565b6000602082019050818103600083015261470a81846139c3565b905092915050565b600060e082019050818103600083015261472c818a6139c3565b9050818103602083015261474081896139c3565b905061474f60408301886138ca565b61475c60608301876138ca565b6147696080830186614531565b61477660a0830185614531565b61478360c083018461397b565b98975050505050505050565b600060608201905081810360008301526147a981866139c3565b90506147b86020830185614531565b6147c56040830184614531565b949350505050565b600060208201905081810360008301526147e681613a2d565b9050919050565b6000602082019050818103600083015261480681613a93565b9050919050565b6000602082019050818103600083015261482681613b1f565b9050919050565b6000602082019050818103600083015261484681613beb565b9050919050565b6000602082019050818103600083015261486681613c51565b9050919050565b6000602082019050818103600083015261488681613c91565b9050919050565b600060208201905081810360008301526148a681613cf7565b9050919050565b600060208201905081810360008301526148c681613d5d565b9050919050565b600060208201905081810360008301526148e681613dc3565b9050919050565b6000602082019050818103600083015261490681613e4f565b9050919050565b6000602082019050818103600083015261492681613eb5565b9050919050565b6000602082019050818103600083015261494681613f41565b9050919050565b6000602082019050818103600083015261496681613fcd565b9050919050565b6000602082019050818103600083015261498681614033565b9050919050565b600060208201905081810360008301526149a6816140bf565b9050919050565b600060208201905081810360008301526149c68161414b565b9050919050565b600060208201905081810360008301526149e6816141b1565b9050919050565b60006020820190508181036000830152614a06816142a3565b9050919050565b60006020820190508181036000830152614a26816142fd565b9050919050565b60006020820190508181036000830152614a4681614363565b9050919050565b60006020820190508181036000830152614a678184614409565b905092915050565b6000604082019050614a846000830185614531565b614a916020830184614531565b9392505050565b6000606082019050614aad6000830186614531565b614aba6020830185614531565b614ac76040830184614531565b949350505050565b6000604051905081810181811067ffffffffffffffff82111715614af657614af5614d33565b5b8060405250919050565b600067ffffffffffffffff821115614b1b57614b1a614d33565b5b601f19601f8301169050602081019050919050565b6000819050602082019050919050565b600081519050919050565b600081519050919050565b6000602082019050919050565b600082825260208201905092915050565b600081905092915050565b600082825260208201905092915050565b600082825260208201905092915050565b600081905092915050565b6000614bb782614bef565b9050919050565b6000614bc982614bef565b9050919050565b60008115159050919050565b6000819050614bea82614d73565b919050565b600073ffffffffffffffffffffffffffffffffffffffff82169050919050565b6000819050919050565b6000614c2482614c3d565b9050919050565b6000614c3682614bdc565b9050919050565b6000614c4882614c4f565b9050919050565b6000614c5a82614bef565b9050919050565b82818337600083830152505050565b60005b83811015614c8e578082015181840152602081019050614c73565b83811115614c9d576000848401525b50505050565b60006002820490506001821680614cbb57607f821691505b60208210811415614ccf57614cce614d04565b5b50919050565b7f4e487b7100000000000000000000000000000000000000000000000000000000600052602160045260246000fd5b7f4e487b7100000000000000000000000000000000000000000000000000000000600052602260045260246000fd5b7f4e487b7100000000000000000000000000000000000000000000000000000000600052604160045260246000fd5b6000601f19601f8301169050919050565b60058110614d8457614d83614cd5565b5b50565b614d9081614bbe565b8114614d9b57600080fd5b50565b614da781614bd0565b8114614db257600080fd5b50565b614dbe81614c0f565b8114614dc957600080fd5b5056fe4e67c6b0e1bb9d6920746875c3aa206be1babf74207468c3ba632068e1bba37020c491e1bb936e67207472c6b0e1bb9b63206b686920c491e1bab7742063e1bb8d6342e1bb9369207468c6b0e1bb9d6e672068e1bba37020c491e1bb936e672063686f206e67c6b0e1bb9d6920746875c3aa4368e1bba7206e68c3a0206be1babf74207468c3ba632068e1bba37020c491e1bb936e67207472c6b0e1bb9b63206b686920c491e1bab7742063e1bb8d635468616e6820746fc3a16e207469e1bb816e2063e1bb8d632063686f206368e1bba7206e68c3a0a26469706673582212209e7743136197f15bf532338c437fb7cc4a8e0a26f281c07d6aaabff4907ea6c464736f6c63430008000033",
  "immutableReferences": {},
  "source": "// SPDX-License-Identifier: MIT\r\npragma solidity ^0.8.0;\r\n\r\ncontract RentalContract {\r\n    enum RentalStatus {\r\n        NotCreated,\r\n        Deposited,\r\n        Ongoing,\r\n        Ended,\r\n        Cancelled\r\n    }\r\n\r\n    struct Contract {\r\n        string contractID;\r\n        string propertyID; // Thm propertyID kiu chui\r\n        address payable owner;\r\n        address payable renter;\r\n        uint depositAmount;\r\n        uint monthlyRent;\r\n        RentalStatus status;\r\n    }\r\n\r\n    struct Transaction {\r\n        address from;\r\n        address to;\r\n        uint amount;\r\n        uint timestamp;\r\n        string transactionType;\r\n    }\r\n\r\n    mapping(string => Contract) public contracts; // Thay contractID kiu chui\r\n    mapping(string => Transaction[]) public contractTransactions;\r\n\r\n    event ContractCreated(\r\n        string indexed contractID,\r\n        string propertyID,\r\n        address indexed owner,\r\n        address indexed renter,\r\n        uint depositAmount,\r\n        uint monthlyRent\r\n    );\r\n    event TransactionRecorded(\r\n        string indexed contractID,\r\n        address from,\r\n        address to,\r\n        uint amount,\r\n        uint timestamp,\r\n        string transactionType\r\n    );\r\n    event ContractCancelledByRenter(\r\n        string indexed contractID,\r\n        address indexed renter,\r\n        uint depositLoss,\r\n        uint extraCharge,\r\n        uint timestamp\r\n    );\r\n    event ContractCancelledByOwner(string indexed contractID, address indexed owner, uint compensation, uint timestamp);\r\n    event ContractTerminated(string indexed contractID, string reason);\r\n    event ContractEnded(string indexed contractID, address indexed renter, uint depositRefundAmount, uint timestamp);\r\n\r\n    modifier onlyOwner(string memory _contractID) {\r\n        require(msg.sender == contracts[_contractID].owner, unicode'Ch ch nh mi c th thc hin hnh ng ny');\r\n        _;\r\n    }\r\n\r\n    modifier onlyRenter(string memory _contractID) {\r\n        require(\r\n            msg.sender == contracts[_contractID].renter,\r\n            unicode'Ch ngi thu mi c th thc hin hnh ng ny'\r\n        );\r\n        _;\r\n    }\r\n\r\n    modifier onlyContractOwner(address _owner) {\r\n        require(msg.sender == _owner, unicode'Ch ch hp ng mi c th to hp ng');\r\n        _;\r\n    }\r\n\r\n    function createContract(\r\n        string memory _contractID,\r\n        string memory _propertyID,\r\n        address payable _owner,\r\n        address payable _renter,\r\n        uint _depositAmount,\r\n        uint _monthlyRent\r\n    ) public onlyContractOwner(_owner) {\r\n        require(_owner != address(0) && _renter != address(0), unicode'a ch khng hp l');\r\n\r\n        contracts[_contractID] = Contract({\r\n            contractID: _contractID,\r\n            propertyID: _propertyID,\r\n            owner: _owner,\r\n            renter: _renter,\r\n            depositAmount: _depositAmount,\r\n            monthlyRent: _monthlyRent,\r\n            status: RentalStatus.NotCreated\r\n        });\r\n\r\n        emit ContractCreated(_contractID, _propertyID, _owner, _renter, _depositAmount, _monthlyRent);\r\n    }\r\n\r\n    function deposit(string memory _contractID) public payable onlyRenter(_contractID) {\r\n        Contract storage contractInfo = contracts[_contractID];\r\n\r\n        require(contractInfo.status == RentalStatus.NotCreated, unicode'Trng thi hp ng khng hp l  t cc');\r\n        require(address(msg.sender).balance >= msg.value, unicode'S d khng   t cc');\r\n\r\n        contractInfo.status = RentalStatus.Deposited;\r\n\r\n        _recordTransaction(_contractID, msg.sender, address(this), msg.value, unicode't cc');\r\n\r\n        emit TransactionRecorded(_contractID, msg.sender, address(this), msg.value, block.timestamp, unicode't cc');\r\n    }\r\n\r\n    function payRent(string memory _contractID) public payable onlyRenter(_contractID) {\r\n        Contract storage contractInfo = contracts[_contractID];\r\n\r\n        require(\r\n            contractInfo.status == RentalStatus.Deposited || contractInfo.status == RentalStatus.Ongoing,\r\n            unicode'Trng thi hp ng khng hp l  thanh ton tin thu'\r\n        );\r\n        require(address(msg.sender).balance >= msg.value, unicode'S d khng   thanh ton tin thu');\r\n\r\n        if (contractInfo.status == RentalStatus.Deposited) {\r\n            contractInfo.status = RentalStatus.Ongoing;\r\n        }\r\n\r\n        (bool success, ) = contractInfo.owner.call{ value: msg.value }('');\r\n        require(success, unicode'Chuyn tin tht bi');\r\n\r\n        _recordTransaction(_contractID, msg.sender, contractInfo.owner, msg.value, unicode'Thanh ton tin thu');\r\n\r\n        emit TransactionRecorded(\r\n            _contractID,\r\n            msg.sender,\r\n            contractInfo.owner,\r\n            msg.value,\r\n            block.timestamp,\r\n            unicode'Thanh ton tin thu'\r\n        );\r\n    }\r\n\r\n    function contractualIndemnity(string memory _contractID) public payable onlyOwner(_contractID) {\r\n        Contract storage contractInfo = contracts[_contractID];\r\n\r\n        require(\r\n            contractInfo.status == RentalStatus.Deposited || contractInfo.status == RentalStatus.Ongoing,\r\n            unicode'Trng thi hp ng khng hp l  thanh ton tin thu'\r\n        );\r\n        require(address(msg.sender).balance >= msg.value, unicode'S d khng   bi thng');\r\n\r\n        (bool success, ) = contractInfo.renter.call{ value: msg.value }('');\r\n        require(success, unicode'Chuyn tin tht bi');\r\n\r\n        _recordTransaction(\r\n            _contractID,\r\n            msg.sender,\r\n            contractInfo.renter,\r\n            msg.value,\r\n            unicode'Bi thng hp ng cho ngi thu'\r\n        );\r\n\r\n        emit TransactionRecorded(\r\n            _contractID,\r\n            msg.sender,\r\n            contractInfo.renter,\r\n            msg.value,\r\n            block.timestamp,\r\n            unicode'Bi thng hp ng cho ngi thu'\r\n        );\r\n    }\r\n\r\n    function cancelContractBeforeDeposit(string memory _contractID) public {\r\n        Contract storage contractInfo = contracts[_contractID];\r\n\r\n        // Kim tra xem ngi gi hm c phi l ch nh hoc ngi thu hay khng\r\n        require(\r\n            msg.sender == contractInfo.owner || msg.sender == contractInfo.renter,\r\n            unicode'Ch c ch nh hoc ngi thu mi c th kt thc hp ng'\r\n        );\r\n\r\n        // Kim tra trng thi hp ng\r\n        require(contractInfo.status == RentalStatus.NotCreated, unicode'Trng thi hp ng khng hp l  kt thc');\r\n\r\n        // Cp nht trng thi hp ng\r\n        contractInfo.status = RentalStatus.Cancelled;\r\n\r\n        // Pht s kin kt thc hp ng\r\n        emit ContractTerminated(\r\n            _contractID,\r\n            msg.sender == contractInfo.owner\r\n                ? unicode'Ch nh kt thc hp ng trc khi t cc'\r\n                : unicode'Ngi thu kt thc hp ng trc khi t cc'\r\n        );\r\n    }\r\n\r\n    // TODO\r\n    function endContract(string memory _contractID, uint depositAmount) public payable onlyOwner(_contractID) {\r\n        Contract storage contractInfo = contracts[_contractID];\r\n\r\n        if (contractInfo.status == RentalStatus.NotCreated) {\r\n            contractInfo.status = RentalStatus.Ended;\r\n        } else if (contractInfo.status == RentalStatus.Deposited || contractInfo.status == RentalStatus.Ongoing) {\r\n            require(address(this).balance >= depositAmount, unicode'S d hp ng khng   hon tr tin cc');\r\n\r\n            (bool success, ) = contractInfo.renter.call{ value: depositAmount }('');\r\n            require(success, unicode'Chuyn tin cc tht bi');\r\n\r\n            _recordTransaction(\r\n                _contractID,\r\n                address(this),\r\n                contractInfo.renter,\r\n                depositAmount,\r\n                unicode'Hon tr tin cc'\r\n            );\r\n\r\n            contractInfo.status = RentalStatus.Ended;\r\n        } else {\r\n            revert(unicode'Hp ng khng  trng thi hp l  kt thc');\r\n        }\r\n        emit ContractEnded(_contractID, contractInfo.renter, depositAmount, block.timestamp);\r\n    }\r\n\r\n    function _recordTransaction(\r\n        string memory _contractID,\r\n        address _from,\r\n        address _to,\r\n        uint _amount,\r\n        string memory _transactionType\r\n    ) internal {\r\n        contractTransactions[_contractID].push(\r\n            Transaction({\r\n                from: _from,\r\n                to: _to,\r\n                amount: _amount,\r\n                timestamp: block.timestamp,\r\n                transactionType: _transactionType\r\n            })\r\n        );\r\n    }\r\n\r\n    function getContractDetails(string memory _contractID) public view returns (Contract memory) {\r\n        Contract memory contractInfo = contracts[_contractID];\r\n        require(\r\n            msg.sender == contractInfo.owner || msg.sender == contractInfo.renter,\r\n            unicode'Ch ch hp ng hoc ngi thu mi c th xem chi tit hp ng'\r\n        );\r\n        return contractInfo;\r\n    }\r\n\r\n    function getContractTransactions(string memory _contractID) public view returns (Transaction[] memory) {\r\n        Contract memory contractInfo = contracts[_contractID];\r\n        require(\r\n            msg.sender == contractInfo.owner || msg.sender == contractInfo.renter,\r\n            unicode'Ch ch hp ng hoc ngi thu mi c th xem giao dch'\r\n        );\r\n        return contractTransactions[_contractID];\r\n    }\r\n\r\n    function terminateForNonPayment(string memory _contractId, uint depositAmount) public {\r\n        Contract storage contractInfo = contracts[_contractId];\r\n\r\n        // Ch cho php khi trng thi hp ng l Deposited hoc Ongoing\r\n        require(contractInfo.status == RentalStatus.Ongoing, unicode'Hp ng phi  trng thi ang hot ng');\r\n\r\n        // X l logic mt tin cc nu khng thanh ton ng hn\r\n        if (depositAmount > 0) {\r\n            require(address(this).balance >= depositAmount, unicode'S d hp ng khng   mt tin cc');\r\n\r\n            // Chuyn tin cc cho ch nh\r\n            (bool success, ) = contractInfo.owner.call{ value: depositAmount }('');\r\n            require(success, unicode'Chuyn tin cc tht bi');\r\n\r\n            // Lu giao dch\r\n            _recordTransaction(_contractId, address(this), contractInfo.owner, depositAmount, unicode'Tin cc b mt');\r\n        }\r\n\r\n        // nh du hp ng  kt thc\r\n        contractInfo.status = RentalStatus.Ended;\r\n        emit ContractEnded(_contractId, contractInfo.renter, depositAmount, block.timestamp);\r\n    }\r\n\r\n    // FIXME\r\n    function cancelContractByRenter(\r\n        string memory _contractId,\r\n        bool notifyBefore30Days,\r\n        uint depositAmount\r\n    ) public payable onlyRenter(_contractId) {\r\n        Contract storage contractInfo = contracts[_contractId];\r\n\r\n        require(\r\n            contractInfo.status == RentalStatus.Deposited || contractInfo.status == RentalStatus.Ongoing,\r\n            unicode'Trng thi hp ng khng hp l  hy'\r\n        );\r\n\r\n        uint depositLoss = 0;\r\n        uint extraCharge = 0;\r\n\r\n        if (notifyBefore30Days) {\r\n            // Hon tr tin cc nu thng bo trc 30 ngy\r\n            require(address(this).balance >= depositAmount, unicode'S d hp ng khng   hon tr tin cc');\r\n\r\n            (bool successRefund, ) = contractInfo.renter.call{ value: depositAmount }('');\r\n            require(successRefund, unicode'Chuyn tin cc tht bi');\r\n\r\n            _recordTransaction(_contractId, contractInfo.owner, msg.sender, depositAmount, unicode'Hon tr tin cc');\r\n        } else {\r\n            // Tnh ph b sung v chuyn tin cc nu khng thng bo trc 30 ngy\r\n            // extraCharge = contractInfo.monthlyRent;\r\n            // require(msg.value == extraCharge, \"Incorrect extra charge amount\");\r\n            // require(address(msg.sender).balance >= extraCharge, \"Insufficient balance of renter\");\r\n\r\n            // (bool successExtraCharge, ) = contractInfo.owner.call{value: extraCharge}(\"\");\r\n            // require(successExtraCharge, \"Extra charge transfer failed\");\r\n\r\n            // _recordTransaction(_contractId, msg.sender, contractInfo.owner, extraCharge, \"Extra Charge\");\r\n\r\n            depositLoss = depositAmount;\r\n            require(address(this).balance >= depositLoss, unicode'S d hp ng khng   hon tr tin cc');\r\n\r\n            (bool successDeposit, ) = contractInfo.owner.call{ value: depositLoss }(''); // Chuyn tin cc t ngi thu cho ch nh\r\n            require(successDeposit, unicode'Chuyn tin cc tht bi');\r\n\r\n            _recordTransaction(\r\n                _contractId,\r\n                msg.sender,\r\n                contractInfo.owner,\r\n                depositLoss,\r\n                unicode'Thanh ton tin cc cho ch nh'\r\n            );\r\n        }\r\n\r\n        contractInfo.status = RentalStatus.Ended;\r\n        emit ContractCancelledByRenter(_contractId, msg.sender, depositLoss, extraCharge, block.timestamp);\r\n    }\r\n\r\n    // FIXME\r\n    function cancelContractByOwner(\r\n        string memory _contractId,\r\n        uint depositAmount\r\n    ) public payable onlyOwner(_contractId) {\r\n        Contract storage contractInfo = contracts[_contractId];\r\n\r\n        require(\r\n            contractInfo.status == RentalStatus.Deposited || contractInfo.status == RentalStatus.Ongoing,\r\n            unicode'Trng thi hp ng khng hp l  hy'\r\n        );\r\n\r\n        // Hon tr tin cc cho ngi thu nu hp ng vn cn hiu lc\r\n        require(address(this).balance >= depositAmount, unicode'S d hp ng khng   hon tr tin cc');\r\n\r\n        (bool successDeposit, ) = contractInfo.renter.call{ value: depositAmount }('');\r\n        require(successDeposit, unicode'Chuyn tin cc tht bi');\r\n\r\n        _recordTransaction(_contractId, msg.sender, contractInfo.renter, depositAmount, unicode'Hon tr tin cc');\r\n\r\n        contractInfo.status = RentalStatus.Ended;\r\n        emit ContractCancelledByOwner(_contractId, msg.sender, depositAmount, block.timestamp);\r\n    }\r\n}\r\n",
  "sourcePath": "C:\\Code\\kltn\\backend\\contract-service\\contractRental\\contracts\\RentalContract.sol",
  "compiler": {
    "name": "solc",
    "version": "0.8.0+commit.c7dfd78e.Emscripten.clang"
  },
  "schemaVersion": "3.4.16",
  "updatedAt": "2024-10-06T13:36:33.512Z",
  "networkType": "ethereum",
  "devdoc": {
    "kind": "dev",
    "methods": {},
    "version": 1
  },
  "userdoc": {
    "kind": "user",
    "methods": {},
    "version": 1
  }
}