{
  "contractName": "RentalContract",
  "abi": [
    {
      "anonymous": false,
      "inputs": [
        {
          "indexed": true,
          "internalType": "string",
          "name": "contractID",
          "type": "string"
        },
        {
          "indexed": true,
          "internalType": "address",
          "name": "owner",
          "type": "address"
        },
        {
          "indexed": false,
          "internalType": "uint256",
          "name": "compensation",
          "type": "uint256"
        },
        {
          "indexed": false,
          "internalType": "uint256",
          "name": "timestamp",
          "type": "uint256"
        }
      ],
      "name": "ContractCancelledByOwner",
      "type": "event"
    },
    {
      "anonymous": false,
      "inputs": [
        {
          "indexed": true,
          "internalType": "string",
          "name": "contractID",
          "type": "string"
        },
        {
          "indexed": true,
          "internalType": "address",
          "name": "renter",
          "type": "address"
        },
        {
          "indexed": false,
          "internalType": "uint256",
          "name": "depositLoss",
          "type": "uint256"
        },
        {
          "indexed": false,
          "internalType": "uint256",
          "name": "extraCharge",
          "type": "uint256"
        },
        {
          "indexed": false,
          "internalType": "uint256",
          "name": "timestamp",
          "type": "uint256"
        }
      ],
      "name": "ContractCancelledByRenter",
      "type": "event"
    },
    {
      "anonymous": false,
      "inputs": [
        {
          "indexed": true,
          "internalType": "string",
          "name": "contractID",
          "type": "string"
        },
        {
          "indexed": false,
          "internalType": "string",
          "name": "propertyID",
          "type": "string"
        },
        {
          "indexed": true,
          "internalType": "address",
          "name": "owner",
          "type": "address"
        },
        {
          "indexed": true,
          "internalType": "address",
          "name": "renter",
          "type": "address"
        },
        {
          "indexed": false,
          "internalType": "uint256",
          "name": "depositAmount",
          "type": "uint256"
        },
        {
          "indexed": false,
          "internalType": "uint256",
          "name": "monthlyRent",
          "type": "uint256"
        }
      ],
      "name": "ContractCreated",
      "type": "event"
    },
    {
      "anonymous": false,
      "inputs": [
        {
          "indexed": true,
          "internalType": "string",
          "name": "contractID",
          "type": "string"
        },
        {
          "indexed": true,
          "internalType": "address",
          "name": "renter",
          "type": "address"
        },
        {
          "indexed": false,
          "internalType": "uint256",
          "name": "depositRefundAmount",
          "type": "uint256"
        },
        {
          "indexed": false,
          "internalType": "uint256",
          "name": "timestamp",
          "type": "uint256"
        }
      ],
      "name": "ContractEnded",
      "type": "event"
    },
    {
      "anonymous": false,
      "inputs": [
        {
          "indexed": true,
          "internalType": "string",
          "name": "contractID",
          "type": "string"
        },
        {
          "indexed": false,
          "internalType": "string",
          "name": "reason",
          "type": "string"
        }
      ],
      "name": "ContractTerminated",
      "type": "event"
    },
    {
      "anonymous": false,
      "inputs": [
        {
          "indexed": true,
          "internalType": "string",
          "name": "contractID",
          "type": "string"
        },
        {
          "indexed": false,
          "internalType": "address",
          "name": "from",
          "type": "address"
        },
        {
          "indexed": false,
          "internalType": "address",
          "name": "to",
          "type": "address"
        },
        {
          "indexed": false,
          "internalType": "uint256",
          "name": "amount",
          "type": "uint256"
        },
        {
          "indexed": false,
          "internalType": "uint256",
          "name": "timestamp",
          "type": "uint256"
        },
        {
          "indexed": false,
          "internalType": "string",
          "name": "transactionType",
          "type": "string"
        }
      ],
      "name": "TransactionRecorded",
      "type": "event"
    },
    {
      "inputs": [
        {
          "internalType": "string",
          "name": "",
          "type": "string"
        },
        {
          "internalType": "uint256",
          "name": "",
          "type": "uint256"
        }
      ],
      "name": "contractTransactions",
      "outputs": [
        {
          "internalType": "address",
          "name": "from",
          "type": "address"
        },
        {
          "internalType": "address",
          "name": "to",
          "type": "address"
        },
        {
          "internalType": "uint256",
          "name": "amount",
          "type": "uint256"
        },
        {
          "internalType": "uint256",
          "name": "timestamp",
          "type": "uint256"
        },
        {
          "internalType": "string",
          "name": "transactionType",
          "type": "string"
        }
      ],
      "stateMutability": "view",
      "type": "function",
      "constant": true
    },
    {
      "inputs": [
        {
          "internalType": "string",
          "name": "",
          "type": "string"
        }
      ],
      "name": "contracts",
      "outputs": [
        {
          "internalType": "string",
          "name": "contractID",
          "type": "string"
        },
        {
          "internalType": "string",
          "name": "propertyID",
          "type": "string"
        },
        {
          "internalType": "address payable",
          "name": "owner",
          "type": "address"
        },
        {
          "internalType": "address payable",
          "name": "renter",
          "type": "address"
        },
        {
          "internalType": "uint256",
          "name": "depositAmount",
          "type": "uint256"
        },
        {
          "internalType": "uint256",
          "name": "monthlyRent",
          "type": "uint256"
        },
        {
          "internalType": "enum RentalContract.RentalStatus",
          "name": "status",
          "type": "uint8"
        }
      ],
      "stateMutability": "view",
      "type": "function",
      "constant": true
    },
    {
      "inputs": [
        {
          "internalType": "string",
          "name": "_contractID",
          "type": "string"
        },
        {
          "internalType": "string",
          "name": "_propertyID",
          "type": "string"
        },
        {
          "internalType": "address payable",
          "name": "_owner",
          "type": "address"
        },
        {
          "internalType": "address payable",
          "name": "_renter",
          "type": "address"
        },
        {
          "internalType": "uint256",
          "name": "_depositAmount",
          "type": "uint256"
        },
        {
          "internalType": "uint256",
          "name": "_monthlyRent",
          "type": "uint256"
        }
      ],
      "name": "createContract",
      "outputs": [],
      "stateMutability": "nonpayable",
      "type": "function"
    },
    {
      "inputs": [
        {
          "internalType": "string",
          "name": "_contractID",
          "type": "string"
        }
      ],
      "name": "deposit",
      "outputs": [],
      "stateMutability": "payable",
      "type": "function",
      "payable": true
    },
    {
      "inputs": [
        {
          "internalType": "string",
          "name": "_contractID",
          "type": "string"
        }
      ],
      "name": "payRent",
      "outputs": [],
      "stateMutability": "payable",
      "type": "function",
      "payable": true
    },
    {
      "inputs": [
        {
          "internalType": "string",
          "name": "_contractID",
          "type": "string"
        }
      ],
      "name": "cancelContractBeforeDeposit",
      "outputs": [],
      "stateMutability": "nonpayable",
      "type": "function"
    },
    {
      "inputs": [
        {
          "internalType": "string",
          "name": "_contractID",
          "type": "string"
        }
      ],
      "name": "endContract",
      "outputs": [],
      "stateMutability": "nonpayable",
      "type": "function"
    },
    {
      "inputs": [
        {
          "internalType": "string",
          "name": "_contractID",
          "type": "string"
        }
      ],
      "name": "getContractDetails",
      "outputs": [
        {
          "components": [
            {
              "internalType": "string",
              "name": "contractID",
              "type": "string"
            },
            {
              "internalType": "string",
              "name": "propertyID",
              "type": "string"
            },
            {
              "internalType": "address payable",
              "name": "owner",
              "type": "address"
            },
            {
              "internalType": "address payable",
              "name": "renter",
              "type": "address"
            },
            {
              "internalType": "uint256",
              "name": "depositAmount",
              "type": "uint256"
            },
            {
              "internalType": "uint256",
              "name": "monthlyRent",
              "type": "uint256"
            },
            {
              "internalType": "enum RentalContract.RentalStatus",
              "name": "status",
              "type": "uint8"
            }
          ],
          "internalType": "struct RentalContract.Contract",
          "name": "",
          "type": "tuple"
        }
      ],
      "stateMutability": "view",
      "type": "function",
      "constant": true
    },
    {
      "inputs": [
        {
          "internalType": "string",
          "name": "_contractID",
          "type": "string"
        }
      ],
      "name": "getContractTransactions",
      "outputs": [
        {
          "components": [
            {
              "internalType": "address",
              "name": "from",
              "type": "address"
            },
            {
              "internalType": "address",
              "name": "to",
              "type": "address"
            },
            {
              "internalType": "uint256",
              "name": "amount",
              "type": "uint256"
            },
            {
              "internalType": "uint256",
              "name": "timestamp",
              "type": "uint256"
            },
            {
              "internalType": "string",
              "name": "transactionType",
              "type": "string"
            }
          ],
          "internalType": "struct RentalContract.Transaction[]",
          "name": "",
          "type": "tuple[]"
        }
      ],
      "stateMutability": "view",
      "type": "function",
      "constant": true
    },
    {
      "inputs": [
        {
          "internalType": "string",
          "name": "_contractId",
          "type": "string"
        }
      ],
      "name": "terminateForNonPayment",
      "outputs": [],
      "stateMutability": "nonpayable",
      "type": "function"
    },
    {
      "inputs": [
        {
          "internalType": "string",
          "name": "_contractId",
          "type": "string"
        },
        {
          "internalType": "bool",
          "name": "notifyBefore30Days",
          "type": "bool"
        },
        {
          "internalType": "uint256",
          "name": "depositAmount",
          "type": "uint256"
        }
      ],
      "name": "cancelContractByRenter",
      "outputs": [],
      "stateMutability": "payable",
      "type": "function",
      "payable": true
    },
    {
      "inputs": [
        {
          "internalType": "string",
          "name": "_contractId",
          "type": "string"
        },
        {
          "internalType": "bool",
          "name": "notifyBefore30Days",
          "type": "bool"
        },
        {
          "internalType": "uint256",
          "name": "monthlyRent",
          "type": "uint256"
        },
        {
          "internalType": "uint256",
          "name": "depositAmount",
          "type": "uint256"
        }
      ],
      "name": "cancelContractByOwner",
      "outputs": [],
      "stateMutability": "payable",
      "type": "function",
      "payable": true
    }
  ],
  "bytecode": "0x608060405234801561001057600080fd5b50614a31806100206000396000f3fe6080604052600436106100a75760003560e01c80637bef444c116100645780637bef444c1461019c5780638c5b8385146101b8578063a26e1186146101fb578063bfafff5b14610217578063cd7c114714610254578063d6ba400614610295576100a7565b8063158a518e146100ac5780631f0833af146100c85780632b27ddd0146100f157806340b815fe1461011a578063541881c114610136578063706a9c6c14610173575b600080fd5b6100c660048036038101906100c19190613334565b6102be565b005b3480156100d457600080fd5b506100ef60048036038101906100ea919061328c565b610861565b005b3480156100fd57600080fd5b50610118600480360381019061011391906133af565b610d58565b005b610134600480360381019061012f91906132cd565b6110e3565b005b34801561014257600080fd5b5061015d6004803603810190610158919061328c565b611561565b60405161016a9190614234565b60405180910390f35b34801561017f57600080fd5b5061019a6004803603810190610195919061328c565b611a74565b005b6101b660048036038101906101b1919061328c565b611d77565b005b3480156101c457600080fd5b506101df60048036038101906101da919061328c565b612283565b6040516101f29796959493929190614278565b60405180910390f35b6102156004803603810190610210919061328c565b612438565b005b34801561022357600080fd5b5061023e6004803603810190610239919061328c565b61275c565b60405161024b91906145b3565b60405180910390f35b34801561026057600080fd5b5061027b60048036038101906102769190613468565b612ab0565b60405161028c9594939291906141da565b60405180910390f35b3480156102a157600080fd5b506102bc60048036038101906102b7919061328c565b612be1565b005b836000816040516102cf91906140fe565b908152602001604051809103902060020160009054906101000a900473ffffffffffffffffffffffffffffffffffffffff1673ffffffffffffffffffffffffffffffffffffffff163373ffffffffffffffffffffffffffffffffffffffff161461036e576040517f08c379a000000000000000000000000000000000000000000000000000000000815260040161036590614373565b60405180910390fd5b6000808660405161037f91906140fe565b9081526020016040518091039020905060008561050e57849050803373ffffffffffffffffffffffffffffffffffffffff163110156103f3576040517f08c379a00000000000000000000000000000000000000000000000000000000081526004016103ea90614533565b60405180910390fd5b60008260030160009054906101000a900473ffffffffffffffffffffffffffffffffffffffff1673ffffffffffffffffffffffffffffffffffffffff168260405161043d90614115565b60006040518083038185875af1925050503d806000811461047a576040519150601f19603f3d011682016040523d82523d6000602084013e61047f565b606091505b50509050806104c3576040517f08c379a00000000000000000000000000000000000000000000000000000000081526004016104ba90614493565b60405180910390fd5b61050c88338560030160009054906101000a900473ffffffffffffffffffffffffffffffffffffffff168560405180606001604052806022815260200161493360229139612f3f565b505b60016004811115610548577f4e487b7100000000000000000000000000000000000000000000000000000000600052602160045260246000fd5b8260060160009054906101000a900460ff166004811115610592577f4e487b7100000000000000000000000000000000000000000000000000000000600052602160045260246000fd5b148061061f5750600260048111156105d3577f4e487b7100000000000000000000000000000000000000000000000000000000600052602160045260246000fd5b8260060160009054906101000a900460ff16600481111561061d577f4e487b7100000000000000000000000000000000000000000000000000000000600052602160045260246000fd5b145b1561079f5783471015610667576040517f08c379a000000000000000000000000000000000000000000000000000000000815260040161065e90614513565b60405180910390fd5b60008260030160009054906101000a900473ffffffffffffffffffffffffffffffffffffffff1673ffffffffffffffffffffffffffffffffffffffff16856040516106b190614115565b60006040518083038185875af1925050503d80600081146106ee576040519150601f19603f3d011682016040523d82523d6000602084013e6106f3565b606091505b5050905080610737576040517f08c379a000000000000000000000000000000000000000000000000000000000815260040161072e90614573565b60405180910390fd5b61079d88338560030160009054906101000a900473ffffffffffffffffffffffffffffffffffffffff16886040518060400160405280601881526020017f486fc3a06e207472e1baa3207469e1bb816e2063e1bb8d630000000000000000815250612f3f565b505b60038260060160006101000a81548160ff021916908360048111156107ed577f4e487b7100000000000000000000000000000000000000000000000000000000600052602160045260246000fd5b02179055503373ffffffffffffffffffffffffffffffffffffffff168760405161081791906140fe565b60405180910390207fe2da9dcf01d3bce438e81353c3540671c45029b87abdf8074d5a9bfb045ef6f983426040516108509291906145d5565b60405180910390a350505050505050565b6000808260405161087291906140fe565b90815260200160405180910390209050600060048111156108bc577f4e487b7100000000000000000000000000000000000000000000000000000000600052602160045260246000fd5b8160060160009054906101000a900460ff166004811115610906577f4e487b7100000000000000000000000000000000000000000000000000000000600052602160045260246000fd5b14156109645760038160060160006101000a81548160ff0219169083600481111561095a577f4e487b7100000000000000000000000000000000000000000000000000000000600052602160045260246000fd5b0217905550610cc6565b6001600481111561099e577f4e487b7100000000000000000000000000000000000000000000000000000000600052602160045260246000fd5b8160060160009054906101000a900460ff1660048111156109e8577f4e487b7100000000000000000000000000000000000000000000000000000000600052602160045260246000fd5b1480610a75575060026004811115610a29577f4e487b7100000000000000000000000000000000000000000000000000000000600052602160045260246000fd5b8160060160009054906101000a900460ff166004811115610a73577f4e487b7100000000000000000000000000000000000000000000000000000000600052602160045260246000fd5b145b15610c8a57600081600401541115610c32578060040154471015610ace576040517f08c379a0000000000000000000000000000000000000000000000000000000008152600401610ac590614513565b60405180910390fd5b60008160030160009054906101000a900473ffffffffffffffffffffffffffffffffffffffff1673ffffffffffffffffffffffffffffffffffffffff168260040154604051610b1c90614115565b60006040518083038185875af1925050503d8060008114610b59576040519150601f19603f3d011682016040523d82523d6000602084013e610b5e565b606091505b5050905080610ba2576040517f08c379a0000000000000000000000000000000000000000000000000000000008152600401610b9990614573565b60405180910390fd5b610c30838360020160009054906101000a900473ffffffffffffffffffffffffffffffffffffffff168460030160009054906101000a900473ffffffffffffffffffffffffffffffffffffffff1685600401546040518060400160405280601881526020017f5469e1bb816e2063e1bb8d6320686fc3a06e207472e1baa30000000000000000815250612f3f565b505b60038160060160006101000a81548160ff02191690836004811115610c80577f4e487b7100000000000000000000000000000000000000000000000000000000600052602160045260246000fd5b0217905550610cc5565b6040517f08c379a0000000000000000000000000000000000000000000000000000000008152600401610cbc90614413565b60405180910390fd5b5b8060030160009054906101000a900473ffffffffffffffffffffffffffffffffffffffff1673ffffffffffffffffffffffffffffffffffffffff1682604051610d0f91906140fe565b60405180910390207ff6b22571c1ecf2dee47f025f69793accfe7ed12f07404c638536d16998c1ea47836004015442604051610d4c9291906145d5565b60405180910390a35050565b838073ffffffffffffffffffffffffffffffffffffffff163373ffffffffffffffffffffffffffffffffffffffff1614610dc7576040517f08c379a0000000000000000000000000000000000000000000000000000000008152600401610dbe90614333565b60405180910390fd5b600073ffffffffffffffffffffffffffffffffffffffff168573ffffffffffffffffffffffffffffffffffffffff1614158015610e315750600073ffffffffffffffffffffffffffffffffffffffff168473ffffffffffffffffffffffffffffffffffffffff1614155b610e70576040517f08c379a0000000000000000000000000000000000000000000000000000000008152600401610e6790614553565b60405180910390fd5b6040518060e001604052808881526020018781526020018673ffffffffffffffffffffffffffffffffffffffff1681526020018573ffffffffffffffffffffffffffffffffffffffff16815260200184815260200183815260200160006004811115610f05577f4e487b7100000000000000000000000000000000000000000000000000000000600052602160045260246000fd5b815250600088604051610f1891906140fe565b90815260200160405180910390206000820151816000019080519060200190610f429291906130a1565b506020820151816001019080519060200190610f5f9291906130a1565b5060408201518160020160006101000a81548173ffffffffffffffffffffffffffffffffffffffff021916908373ffffffffffffffffffffffffffffffffffffffff16021790555060608201518160030160006101000a81548173ffffffffffffffffffffffffffffffffffffffff021916908373ffffffffffffffffffffffffffffffffffffffff1602179055506080820151816004015560a0820151816005015560c08201518160060160006101000a81548160ff02191690836004811115611053577f4e487b7100000000000000000000000000000000000000000000000000000000600052602160045260246000fd5b02179055509050508373ffffffffffffffffffffffffffffffffffffffff168573ffffffffffffffffffffffffffffffffffffffff168860405161109791906140fe565b60405180910390207ff7ecc3071b5ebed4a1d5658be0963bdf71f705336198be1add318654699525948987876040516110d2939291906142f5565b60405180910390a450505050505050565b826000816040516110f491906140fe565b908152602001604051809103902060030160009054906101000a900473ffffffffffffffffffffffffffffffffffffffff1673ffffffffffffffffffffffffffffffffffffffff163373ffffffffffffffffffffffffffffffffffffffff1614611193576040517f08c379a000000000000000000000000000000000000000000000000000000000815260040161118a90614433565b60405180910390fd5b600080856040516111a491906140fe565b90815260200160405180910390209050600080851561133c5784471015611200576040517f08c379a00000000000000000000000000000000000000000000000000000000081526004016111f790614513565b60405180910390fd5b60008360030160009054906101000a900473ffffffffffffffffffffffffffffffffffffffff1673ffffffffffffffffffffffffffffffffffffffff168660405161124a90614115565b60006040518083038185875af1925050503d8060008114611287576040519150601f19603f3d011682016040523d82523d6000602084013e61128c565b606091505b50509050806112d0576040517f08c379a00000000000000000000000000000000000000000000000000000000081526004016112c790614573565b60405180910390fd5b611336888560020160009054906101000a900473ffffffffffffffffffffffffffffffffffffffff1633896040518060400160405280601881526020017f486fc3a06e207472e1baa3207469e1bb816e2063e1bb8d630000000000000000815250612f3f565b5061149d565b84915081471015611382576040517f08c379a000000000000000000000000000000000000000000000000000000000815260040161137990614513565b60405180910390fd5b60008360020160009054906101000a900473ffffffffffffffffffffffffffffffffffffffff1673ffffffffffffffffffffffffffffffffffffffff16836040516113cc90614115565b60006040518083038185875af1925050503d8060008114611409576040519150601f19603f3d011682016040523d82523d6000602084013e61140e565b606091505b5050905080611452576040517f08c379a000000000000000000000000000000000000000000000000000000000815260040161144990614573565b60405180910390fd5b61149b88338660020160009054906101000a900473ffffffffffffffffffffffffffffffffffffffff16866040518060600160405280602781526020016149d560279139612f3f565b505b60038360060160006101000a81548160ff021916908360048111156114eb577f4e487b7100000000000000000000000000000000000000000000000000000000600052602160045260246000fd5b02179055503373ffffffffffffffffffffffffffffffffffffffff168760405161151591906140fe565b60405180910390207fadafc36edcd60759441410797064a212430ea809b0ca5ffd4aa273c16b131332848442604051611550939291906145fe565b60405180910390a350505050505050565b60606000808360405161157491906140fe565b90815260200160405180910390206040518060e001604052908160008201805461159d90614809565b80601f01602080910402602001604051908101604052809291908181526020018280546115c990614809565b80156116165780601f106115eb57610100808354040283529160200191611616565b820191906000526020600020905b8154815290600101906020018083116115f957829003601f168201915b5050505050815260200160018201805461162f90614809565b80601f016020809104026020016040519081016040528092919081815260200182805461165b90614809565b80156116a85780601f1061167d576101008083540402835291602001916116a8565b820191906000526020600020905b81548152906001019060200180831161168b57829003601f168201915b505050505081526020016002820160009054906101000a900473ffffffffffffffffffffffffffffffffffffffff1673ffffffffffffffffffffffffffffffffffffffff1673ffffffffffffffffffffffffffffffffffffffff1681526020016003820160009054906101000a900473ffffffffffffffffffffffffffffffffffffffff1673ffffffffffffffffffffffffffffffffffffffff1673ffffffffffffffffffffffffffffffffffffffff16815260200160048201548152602001600582015481526020016006820160009054906101000a900460ff1660048111156117bc577f4e487b7100000000000000000000000000000000000000000000000000000000600052602160045260246000fd5b60048111156117f4577f4e487b7100000000000000000000000000000000000000000000000000000000600052602160045260246000fd5b815250509050806040015173ffffffffffffffffffffffffffffffffffffffff163373ffffffffffffffffffffffffffffffffffffffff1614806118675750806060015173ffffffffffffffffffffffffffffffffffffffff163373ffffffffffffffffffffffffffffffffffffffff16145b6118a6576040517f08c379a000000000000000000000000000000000000000000000000000000000815260040161189d906144b3565b60405180910390fd5b6001836040516118b691906140fe565b9081526020016040518091039020805480602002602001604051908101604052809291908181526020016000905b82821015611a6857838290600052602060002090600502016040518060a00160405290816000820160009054906101000a900473ffffffffffffffffffffffffffffffffffffffff1673ffffffffffffffffffffffffffffffffffffffff1673ffffffffffffffffffffffffffffffffffffffff1681526020016001820160009054906101000a900473ffffffffffffffffffffffffffffffffffffffff1673ffffffffffffffffffffffffffffffffffffffff1673ffffffffffffffffffffffffffffffffffffffff16815260200160028201548152602001600382015481526020016004820180546119d790614809565b80601f0160208091040260200160405190810160405280929190818152602001828054611a0390614809565b8015611a505780601f10611a2557610100808354040283529160200191611a50565b820191906000526020600020905b815481529060010190602001808311611a3357829003601f168201915b505050505081525050815260200190600101906118e4565b50505050915050919050565b60008082604051611a8591906140fe565b908152602001604051809103902090508060020160009054906101000a900473ffffffffffffffffffffffffffffffffffffffff1673ffffffffffffffffffffffffffffffffffffffff163373ffffffffffffffffffffffffffffffffffffffff161480611b4257508060030160009054906101000a900473ffffffffffffffffffffffffffffffffffffffff1673ffffffffffffffffffffffffffffffffffffffff163373ffffffffffffffffffffffffffffffffffffffff16145b611b81576040517f08c379a0000000000000000000000000000000000000000000000000000000008152600401611b78906144d3565b60405180910390fd5b60006004811115611bbb577f4e487b7100000000000000000000000000000000000000000000000000000000600052602160045260246000fd5b8160060160009054906101000a900460ff166004811115611c05577f4e487b7100000000000000000000000000000000000000000000000000000000600052602160045260246000fd5b14611c45576040517f08c379a0000000000000000000000000000000000000000000000000000000008152600401611c3c906143d3565b60405180910390fd5b60048160060160006101000a81548160ff02191690836004811115611c93577f4e487b7100000000000000000000000000000000000000000000000000000000600052602160045260246000fd5b021790555081604051611ca691906140fe565b60405180910390207f62053ec7b590a1785a5832f731771c8a67d47e1c16b9407b5bc1903ff9b7c5258260020160009054906101000a900473ffffffffffffffffffffffffffffffffffffffff1673ffffffffffffffffffffffffffffffffffffffff163373ffffffffffffffffffffffffffffffffffffffff1614611d445760405180608001604052806042815260200161495560429139611d5e565b6040518060600160405280603e8152602001614997603e91395b604051611d6b9190614256565b60405180910390a25050565b80600081604051611d8891906140fe565b908152602001604051809103902060030160009054906101000a900473ffffffffffffffffffffffffffffffffffffffff1673ffffffffffffffffffffffffffffffffffffffff163373ffffffffffffffffffffffffffffffffffffffff1614611e27576040517f08c379a0000000000000000000000000000000000000000000000000000000008152600401611e1e90614433565b60405180910390fd5b60008083604051611e3891906140fe565b9081526020016040518091039020905060016004811115611e82577f4e487b7100000000000000000000000000000000000000000000000000000000600052602160045260246000fd5b8160060160009054906101000a900460ff166004811115611ecc577f4e487b7100000000000000000000000000000000000000000000000000000000600052602160045260246000fd5b1480611f59575060026004811115611f0d577f4e487b7100000000000000000000000000000000000000000000000000000000600052602160045260246000fd5b8160060160009054906101000a900460ff166004811115611f57577f4e487b7100000000000000000000000000000000000000000000000000000000600052602160045260246000fd5b145b611f98576040517f08c379a0000000000000000000000000000000000000000000000000000000008152600401611f8f90614453565b60405180910390fd5b343373ffffffffffffffffffffffffffffffffffffffff16311015611ff2576040517f08c379a0000000000000000000000000000000000000000000000000000000008152600401611fe990614593565b60405180910390fd5b6001600481111561202c577f4e487b7100000000000000000000000000000000000000000000000000000000600052602160045260246000fd5b8160060160009054906101000a900460ff166004811115612076577f4e487b7100000000000000000000000000000000000000000000000000000000600052602160045260246000fd5b14156120d05760028160060160006101000a81548160ff021916908360048111156120ca577f4e487b7100000000000000000000000000000000000000000000000000000000600052602160045260246000fd5b02179055505b60008160020160009054906101000a900473ffffffffffffffffffffffffffffffffffffffff1673ffffffffffffffffffffffffffffffffffffffff163460405161211a90614115565b60006040518083038185875af1925050503d8060008114612157576040519150601f19603f3d011682016040523d82523d6000602084013e61215c565b606091505b50509050806121a0576040517f08c379a000000000000000000000000000000000000000000000000000000000815260040161219790614393565b60405180910390fd5b61220684338460020160009054906101000a900473ffffffffffffffffffffffffffffffffffffffff16346040518060400160405280601881526020017f5468616e6820746fc3a16e207469e1bb816e20746875c3aa0000000000000000815250612f3f565b8360405161221491906140fe565b60405180910390207f533295cd82e521ef5bdedbc6debf352fcb558fe7f98c397a0d52cc90e107f310338460020160009054906101000a900473ffffffffffffffffffffffffffffffffffffffff163442604051612275949392919061412a565b60405180910390a250505050565b6000818051602081018201805184825260208301602085012081835280955050505050506000915090508060000180546122bc90614809565b80601f01602080910402602001604051908101604052809291908181526020018280546122e890614809565b80156123355780601f1061230a57610100808354040283529160200191612335565b820191906000526020600020905b81548152906001019060200180831161231857829003601f168201915b50505050509080600101805461234a90614809565b80601f016020809104026020016040519081016040528092919081815260200182805461237690614809565b80156123c35780601f10612398576101008083540402835291602001916123c3565b820191906000526020600020905b8154815290600101906020018083116123a657829003601f168201915b5050505050908060020160009054906101000a900473ffffffffffffffffffffffffffffffffffffffff16908060030160009054906101000a900473ffffffffffffffffffffffffffffffffffffffff16908060040154908060050154908060060160009054906101000a900460ff16905087565b8060008160405161244991906140fe565b908152602001604051809103902060030160009054906101000a900473ffffffffffffffffffffffffffffffffffffffff1673ffffffffffffffffffffffffffffffffffffffff163373ffffffffffffffffffffffffffffffffffffffff16146124e8576040517f08c379a00000000000000000000000000000000000000000000000000000000081526004016124df90614433565b60405180910390fd5b600080836040516124f991906140fe565b9081526020016040518091039020905060006004811115612543577f4e487b7100000000000000000000000000000000000000000000000000000000600052602160045260246000fd5b8160060160009054906101000a900460ff16600481111561258d577f4e487b7100000000000000000000000000000000000000000000000000000000600052602160045260246000fd5b146125cd576040517f08c379a00000000000000000000000000000000000000000000000000000000081526004016125c4906143f3565b60405180910390fd5b343373ffffffffffffffffffffffffffffffffffffffff16311015612627576040517f08c379a000000000000000000000000000000000000000000000000000000000815260040161261e90614473565b60405180910390fd5b60018160060160006101000a81548160ff02191690836004811115612675577f4e487b7100000000000000000000000000000000000000000000000000000000600052602160045260246000fd5b02179055506126e083338360020160009054906101000a900473ffffffffffffffffffffffffffffffffffffffff16346040518060400160405280600c81526020017fc490e1bab7742063e1bb8d630000000000000000000000000000000000000000815250612f3f565b826040516126ee91906140fe565b60405180910390207f533295cd82e521ef5bdedbc6debf352fcb558fe7f98c397a0d52cc90e107f310338360020160009054906101000a900473ffffffffffffffffffffffffffffffffffffffff16344260405161274f9493929190614182565b60405180910390a2505050565b612764613127565b6000808360405161277591906140fe565b90815260200160405180910390206040518060e001604052908160008201805461279e90614809565b80601f01602080910402602001604051908101604052809291908181526020018280546127ca90614809565b80156128175780601f106127ec57610100808354040283529160200191612817565b820191906000526020600020905b8154815290600101906020018083116127fa57829003601f168201915b5050505050815260200160018201805461283090614809565b80601f016020809104026020016040519081016040528092919081815260200182805461285c90614809565b80156128a95780601f1061287e576101008083540402835291602001916128a9565b820191906000526020600020905b81548152906001019060200180831161288c57829003601f168201915b505050505081526020016002820160009054906101000a900473ffffffffffffffffffffffffffffffffffffffff1673ffffffffffffffffffffffffffffffffffffffff1673ffffffffffffffffffffffffffffffffffffffff1681526020016003820160009054906101000a900473ffffffffffffffffffffffffffffffffffffffff1673ffffffffffffffffffffffffffffffffffffffff1673ffffffffffffffffffffffffffffffffffffffff16815260200160048201548152602001600582015481526020016006820160009054906101000a900460ff1660048111156129bd577f4e487b7100000000000000000000000000000000000000000000000000000000600052602160045260246000fd5b60048111156129f5577f4e487b7100000000000000000000000000000000000000000000000000000000600052602160045260246000fd5b815250509050806040015173ffffffffffffffffffffffffffffffffffffffff163373ffffffffffffffffffffffffffffffffffffffff161480612a685750806060015173ffffffffffffffffffffffffffffffffffffffff163373ffffffffffffffffffffffffffffffffffffffff16145b612aa7576040517f08c379a0000000000000000000000000000000000000000000000000000000008152600401612a9e90614353565b60405180910390fd5b80915050919050565b6001828051602081018201805184825260208301602085012081835280955050505050508181548110612ae257600080fd5b9060005260206000209060050201600091509150508060000160009054906101000a900473ffffffffffffffffffffffffffffffffffffffff16908060010160009054906101000a900473ffffffffffffffffffffffffffffffffffffffff1690806002015490806003015490806004018054612b5e90614809565b80601f0160208091040260200160405190810160405280929190818152602001828054612b8a90614809565b8015612bd75780601f10612bac57610100808354040283529160200191612bd7565b820191906000526020600020905b815481529060010190602001808311612bba57829003601f168201915b5050505050905085565b60008082604051612bf291906140fe565b9081526020016040518091039020905060026004811115612c3c577f4e487b7100000000000000000000000000000000000000000000000000000000600052602160045260246000fd5b8160060160009054906101000a900460ff166004811115612c86577f4e487b7100000000000000000000000000000000000000000000000000000000600052602160045260246000fd5b14612cc6576040517f08c379a0000000000000000000000000000000000000000000000000000000008152600401612cbd906144f3565b60405180910390fd5b600081600401541115612e5a578060040154471015612d1a576040517f08c379a0000000000000000000000000000000000000000000000000000000008152600401612d11906143b3565b60405180910390fd5b60008160020160009054906101000a900473ffffffffffffffffffffffffffffffffffffffff1673ffffffffffffffffffffffffffffffffffffffff168260040154604051612d6890614115565b60006040518083038185875af1925050503d8060008114612da5576040519150601f19603f3d011682016040523d82523d6000602084013e612daa565b606091505b5050905080612dee576040517f08c379a0000000000000000000000000000000000000000000000000000000008152600401612de590614573565b60405180910390fd5b612e5883308460020160009054906101000a900473ffffffffffffffffffffffffffffffffffffffff1685600401546040518060400160405280601781526020017f5469e1bb816e2063e1bb8d632062e1bb8b206de1baa574000000000000000000815250612f3f565b505b60038160060160006101000a81548160ff02191690836004811115612ea8577f4e487b7100000000000000000000000000000000000000000000000000000000600052602160045260246000fd5b02179055508060030160009054906101000a900473ffffffffffffffffffffffffffffffffffffffff1673ffffffffffffffffffffffffffffffffffffffff1682604051612ef691906140fe565b60405180910390207ff6b22571c1ecf2dee47f025f69793accfe7ed12f07404c638536d16998c1ea47836004015442604051612f339291906145d5565b60405180910390a35050565b600185604051612f4f91906140fe565b90815260200160405180910390206040518060a001604052808673ffffffffffffffffffffffffffffffffffffffff1681526020018573ffffffffffffffffffffffffffffffffffffffff16815260200184815260200142815260200183815250908060018154018082558091505060019003906000526020600020906005020160009091909190915060008201518160000160006101000a81548173ffffffffffffffffffffffffffffffffffffffff021916908373ffffffffffffffffffffffffffffffffffffffff16021790555060208201518160010160006101000a81548173ffffffffffffffffffffffffffffffffffffffff021916908373ffffffffffffffffffffffffffffffffffffffff160217905550604082015181600201556060820151816003015560808201518160040190805190602001906130979291906130a1565b5050505050505050565b8280546130ad90614809565b90600052602060002090601f0160209004810192826130cf5760008555613116565b82601f106130e857805160ff1916838001178555613116565b82800160010185558215613116579182015b828111156131155782518255916020019190600101906130fa565b5b50905061312391906131c8565b5090565b6040518060e001604052806060815260200160608152602001600073ffffffffffffffffffffffffffffffffffffffff168152602001600073ffffffffffffffffffffffffffffffffffffffff1681526020016000815260200160008152602001600060048111156131c2577f4e487b7100000000000000000000000000000000000000000000000000000000600052602160045260246000fd5b81525090565b5b808211156131e15760008160009055506001016131c9565b5090565b60006131f86131f384614666565b614635565b90508281526020810184848401111561321057600080fd5b61321b8482856147c7565b509392505050565b600081359050613232816148ed565b92915050565b60008135905061324781614904565b92915050565b600082601f83011261325e57600080fd5b813561326e8482602086016131e5565b91505092915050565b6000813590506132868161491b565b92915050565b60006020828403121561329e57600080fd5b600082013567ffffffffffffffff8111156132b857600080fd5b6132c48482850161324d565b91505092915050565b6000806000606084860312156132e257600080fd5b600084013567ffffffffffffffff8111156132fc57600080fd5b6133088682870161324d565b935050602061331986828701613238565b925050604061332a86828701613277565b9150509250925092565b6000806000806080858703121561334a57600080fd5b600085013567ffffffffffffffff81111561336457600080fd5b6133708782880161324d565b945050602061338187828801613238565b935050604061339287828801613277565b92505060606133a387828801613277565b91505092959194509250565b60008060008060008060c087890312156133c857600080fd5b600087013567ffffffffffffffff8111156133e257600080fd5b6133ee89828a0161324d565b965050602087013567ffffffffffffffff81111561340b57600080fd5b61341789828a0161324d565b955050604061342889828a01613223565b945050606061343989828a01613223565b935050608061344a89828a01613277565b92505060a061345b89828a01613277565b9150509295509295509295565b6000806040838503121561347b57600080fd5b600083013567ffffffffffffffff81111561349557600080fd5b6134a18582860161324d565b92505060206134b285828601613277565b9150509250929050565b60006134c8838361406a565b905092915050565b6134d98161477f565b82525050565b6134e881614724565b82525050565b6134f781614724565b82525050565b61350681614712565b82525050565b61351581614712565b82525050565b6000613526826146a6565b61353081856146c9565b93508360208202850161354285614696565b8060005b8581101561357e578484038952815161355f85826134bc565b945061356a836146bc565b925060208a01995050600181019050613546565b50829750879550505050505092915050565b61359981614791565b82525050565b6135a881614791565b82525050565b60006135b9826146b1565b6135c381856146e5565b93506135d38185602086016147d6565b6135dc816148c8565b840191505092915050565b60006135f2826146b1565b6135fc81856146f6565b935061360c8185602086016147d6565b613615816148c8565b840191505092915050565b600061362b826146b1565b6136358185614707565b93506136458185602086016147d6565b80840191505092915050565b600061365e603d836146f6565b91507f4368e1bb89206368e1bba72068e1bba37020c491e1bb936e67206de1bb9b692060008301527f63c3b3207468e1bb832074e1baa16f2068e1bba37020c491e1bb936e670000006020830152604082019050919050565b60006136c4605c836146f6565b91507f4368e1bb89206368e1bba72068e1bba37020c491e1bb936e6720686fe1bab76360008301527f206e67c6b0e1bb9d6920746875c3aa206de1bb9b692063c3b3207468e1bb832060208301527f78656d20636869207469e1babf742068e1bba37020c491e1bb936e67000000006040830152606082019050919050565b60006137506041836146f6565b91507f4368e1bb89206368e1bba7206e68c3a0206de1bb9b692063c3b3207468e1bb8360008301527f207468e1bbb163206869e1bb876e2068c3a06e6820c491e1bb996e67206ec3a060208301527f79000000000000000000000000000000000000000000000000000000000000006040830152606082019050919050565b60006137dc6018836146f6565b91507f5468616e6820746fc3a16e207469e1bb816e20746875c3aa00000000000000006000830152602082019050919050565b600061381c601c836146f6565b91507f43687579e1bb836e207469e1bb816e207468e1baa5742062e1baa169000000006000830152602082019050919050565b600061385c603c836146f6565b91507f53e1bb912064c6b02068e1bba37020c491e1bb936e67206b68c3b46e6720c49160008301527fe1bba720c491e1bb83206de1baa574207469e1bb816e2063e1bb8d63000000006020830152604082019050919050565b60006138c2603f836146f6565b91507f5472e1baa16e67207468c3a1692068e1bba37020c491e1bb936e67206b68c3b460008301527f6e672068e1bba370206ce1bb8720c491e1bb83206be1babf74207468c3ba63006020830152604082019050919050565b60006139286040836146f6565b91507f5472e1baa16e67207468c3a1692068e1bba37020c491e1bb936e67206b68c3b460008301527f6e672068e1bba370206ce1bb8720c491e1bb8320c491e1bab7742063e1bb8d636020830152604082019050919050565b600061398e6043836146f6565b91507f48e1bba37020c491e1bb936e67206b68c3b46e6720e1bb9f207472e1baa16e6760008301527f207468c3a1692068e1bba370206ce1bb8720c491e1bb83206be1babf7420746860208301527fc3ba6300000000000000000000000000000000000000000000000000000000006040830152606082019050919050565b6000613a1a6045836146f6565b91507f4368e1bb89206e67c6b0e1bb9d6920746875c3aa206de1bb9b692063c3b3207460008301527f68e1bb83207468e1bbb163206869e1bb876e2068c3a06e6820c491e1bb996e6760208301527f206ec3a0790000000000000000000000000000000000000000000000000000006040830152606082019050919050565b6000613aa6604c836146f6565b91507f5472e1baa16e67207468c3a1692068e1bba37020c491e1bb936e67206b68c3b460008301527f6e672068e1bba370206ce1bb8720c491e1bb83207468616e6820746fc3a16e2060208301527f7469e1bb816e20746875c3aa00000000000000000000000000000000000000006040830152606082019050919050565b6000613b326028836146f6565b91507f53e1bb912064c6b0206b68c3b46e6720c491e1bba720c491e1bb8320c491e1ba60008301527fb7742063e1bb8d630000000000000000000000000000000000000000000000006020830152604082019050919050565b6000613b98602c836146f6565b91507f43687579e1bb836e207469e1bb816e2062e1bb9369207468c6b0e1bb9d6e672060008301527f7468e1baa5742062e1baa16900000000000000000000000000000000000000006020830152604082019050919050565b6000613bfe604f836146f6565b91507f4368e1bb89206368e1bba72068e1bba37020c491e1bb936e6720686fe1bab76360008301527f206e67c6b0e1bb9d6920746875c3aa206de1bb9b692063c3b3207468e1bb832060208301527f78656d206769616f2064e1bb8b636800000000000000000000000000000000006040830152606082019050919050565b6000613c8a6054836146f6565b91507f4368e1bb892063c3b3206368e1bba7206e68c3a020686fe1bab763206e67c6b060008301527fe1bb9d6920746875c3aa206de1bb9b692063c3b3207468e1bb83206be1babf7460208301527f207468c3ba632068e1bba37020c491e1bb936e670000000000000000000000006040830152606082019050919050565b6000613d16603b836146f6565b91507f48e1bba37020c491e1bb936e67207068e1baa36920e1bb9f207472e1baa16e6760008301527f207468c3a16920c491616e6720686fe1baa17420c491e1bb996e6700000000006020830152604082019050919050565b6000613d7c6042836146f6565b91507f53e1bb912064c6b02068e1bba37020c491e1bb936e67206b68c3b46e6720c49160008301527fe1bba720c491e1bb8320686fc3a06e207472e1baa3207469e1bb816e2063e1bb60208301527f8d630000000000000000000000000000000000000000000000000000000000006040830152606082019050919050565b6000613e08603e836146f6565b91507f53e1bb912064c6b0206b68c3b46e6720c491e1bba720c491e1bb832062e1bb9360008301527f69207468c6b0e1bb9d6e672063686f206e67c6b0e1bb9d6920746875c3aa00006020830152604082019050919050565b6000613e6e601e836146f6565b91507fc490e1bb8b61206368e1bb89206b68c3b46e672068e1bba370206ce1bb8700006000830152602082019050919050565b6000613eae6000836146da565b9150600082019050919050565b6000613ec86022836146f6565b91507f43687579e1bb836e207469e1bb816e2063e1bb8d63207468e1baa5742062e1ba60008301527fa1690000000000000000000000000000000000000000000000000000000000006020830152604082019050919050565b6000613f2e6034836146f6565b91507f53e1bb912064c6b0206b68c3b46e6720c491e1bba720c491e1bb83207468616e60008301527f6820746fc3a16e207469e1bb816e20746875c3aa0000000000000000000000006020830152604082019050919050565b6000613f94600c836146f6565b91507fc490e1bab7742063e1bb8d6300000000000000000000000000000000000000006000830152602082019050919050565b600060e0830160008301518482036000860152613fe482826135ae565b91505060208301518482036020860152613ffe82826135ae565b915050604083015161401360408601826134df565b50606083015161402660608601826134df565b50608083015161403960808601826140e0565b5060a083015161404c60a08601826140e0565b5060c083015161405f60c0860182613590565b508091505092915050565b600060a08301600083015161408260008601826134fd565b50602083015161409560208601826134fd565b5060408301516140a860408601826140e0565b5060608301516140bb60608601826140e0565b50608083015184820360808601526140d382826135ae565b9150508091505092915050565b6140e981614775565b82525050565b6140f881614775565b82525050565b600061410a8284613620565b915081905092915050565b600061412082613ea1565b9150819050919050565b600060a08201905061413f600083018761350c565b61414c60208301866134d0565b61415960408301856140ef565b61416660608301846140ef565b8181036080830152614177816137cf565b905095945050505050565b600060a082019050614197600083018761350c565b6141a460208301866134d0565b6141b160408301856140ef565b6141be60608301846140ef565b81810360808301526141cf81613f87565b905095945050505050565b600060a0820190506141ef600083018861350c565b6141fc602083018761350c565b61420960408301866140ef565b61421660608301856140ef565b818103608083015261422881846135e7565b90509695505050505050565b6000602082019050818103600083015261424e818461351b565b905092915050565b6000602082019050818103600083015261427081846135e7565b905092915050565b600060e0820190508181036000830152614292818a6135e7565b905081810360208301526142a681896135e7565b90506142b560408301886134ee565b6142c260608301876134ee565b6142cf60808301866140ef565b6142dc60a08301856140ef565b6142e960c083018461359f565b98975050505050505050565b6000606082019050818103600083015261430f81866135e7565b905061431e60208301856140ef565b61432b60408301846140ef565b949350505050565b6000602082019050818103600083015261434c81613651565b9050919050565b6000602082019050818103600083015261436c816136b7565b9050919050565b6000602082019050818103600083015261438c81613743565b9050919050565b600060208201905081810360008301526143ac8161380f565b9050919050565b600060208201905081810360008301526143cc8161384f565b9050919050565b600060208201905081810360008301526143ec816138b5565b9050919050565b6000602082019050818103600083015261440c8161391b565b9050919050565b6000602082019050818103600083015261442c81613981565b9050919050565b6000602082019050818103600083015261444c81613a0d565b9050919050565b6000602082019050818103600083015261446c81613a99565b9050919050565b6000602082019050818103600083015261448c81613b25565b9050919050565b600060208201905081810360008301526144ac81613b8b565b9050919050565b600060208201905081810360008301526144cc81613bf1565b9050919050565b600060208201905081810360008301526144ec81613c7d565b9050919050565b6000602082019050818103600083015261450c81613d09565b9050919050565b6000602082019050818103600083015261452c81613d6f565b9050919050565b6000602082019050818103600083015261454c81613dfb565b9050919050565b6000602082019050818103600083015261456c81613e61565b9050919050565b6000602082019050818103600083015261458c81613ebb565b9050919050565b600060208201905081810360008301526145ac81613f21565b9050919050565b600060208201905081810360008301526145cd8184613fc7565b905092915050565b60006040820190506145ea60008301856140ef565b6145f760208301846140ef565b9392505050565b600060608201905061461360008301866140ef565b61462060208301856140ef565b61462d60408301846140ef565b949350505050565b6000604051905081810181811067ffffffffffffffff8211171561465c5761465b614899565b5b8060405250919050565b600067ffffffffffffffff82111561468157614680614899565b5b601f19601f8301169050602081019050919050565b6000819050602082019050919050565b600081519050919050565b600081519050919050565b6000602082019050919050565b600082825260208201905092915050565b600081905092915050565b600082825260208201905092915050565b600082825260208201905092915050565b600081905092915050565b600061471d82614755565b9050919050565b600061472f82614755565b9050919050565b60008115159050919050565b6000819050614750826148d9565b919050565b600073ffffffffffffffffffffffffffffffffffffffff82169050919050565b6000819050919050565b600061478a826147a3565b9050919050565b600061479c82614742565b9050919050565b60006147ae826147b5565b9050919050565b60006147c082614755565b9050919050565b82818337600083830152505050565b60005b838110156147f45780820151818401526020810190506147d9565b83811115614803576000848401525b50505050565b6000600282049050600182168061482157607f821691505b602082108114156148355761483461486a565b5b50919050565b7f4e487b7100000000000000000000000000000000000000000000000000000000600052602160045260246000fd5b7f4e487b7100000000000000000000000000000000000000000000000000000000600052602260045260246000fd5b7f4e487b7100000000000000000000000000000000000000000000000000000000600052604160045260246000fd5b6000601f19601f8301169050919050565b600581106148ea576148e961483b565b5b50565b6148f681614724565b811461490157600080fd5b50565b61490d81614736565b811461491857600080fd5b50565b61492481614775565b811461492f57600080fd5b5056fe42e1bb9369207468c6b0e1bb9d6e672063686f206e67c6b0e1bb9d6920746875c3aa4e67c6b0e1bb9d6920746875c3aa206be1babf74207468c3ba632068e1bba37020c491e1bb936e67207472c6b0e1bb9b63206b686920c491e1bab7742063e1bb8d634368e1bba7206e68c3a0206be1babf74207468c3ba632068e1bba37020c491e1bb936e67207472c6b0e1bb9b63206b686920c491e1bab7742063e1bb8d635468616e6820746fc3a16e207469e1bb816e2063e1bb8d632063686f206368e1bba7206e68c3a0a2646970667358221220705eefbf231d113163c5a01428589bac3020c4c35e59635e9b9657dde4b1244964736f6c63430008000033",
  "immutableReferences": {},
  "source": "// SPDX-License-Identifier: MIT\r\npragma solidity ^0.8.0;\r\n\r\ncontract RentalContract {\r\n    enum RentalStatus { NotCreated, Deposited, Ongoing, Ended, Cancelled }\r\n\r\n    struct Contract {\r\n        string contractID;  \r\n        string propertyID;  // Thm propertyID kiu chui\r\n        address payable owner;   \r\n        address payable renter;  \r\n        uint depositAmount;\r\n        uint monthlyRent;\r\n        RentalStatus status;\r\n    }\r\n\r\n    struct Transaction {\r\n        address from;\r\n        address to;\r\n        uint amount;\r\n        uint timestamp;\r\n        string transactionType; \r\n    }\r\n\r\n    mapping(string => Contract) public contracts;  // Thay contractID kiu chui\r\n    mapping(string => Transaction[]) public contractTransactions;\r\n\r\n    event ContractCreated(string indexed contractID, string propertyID, address indexed owner, address indexed renter, uint depositAmount, uint monthlyRent);\r\n    event TransactionRecorded(string indexed contractID, address from, address to, uint amount, uint timestamp, string transactionType);\r\n    event ContractCancelledByRenter(string indexed contractID, address indexed renter, uint depositLoss, uint extraCharge, uint timestamp);\r\n    event ContractCancelledByOwner(string indexed contractID, address indexed owner, uint compensation, uint timestamp);\r\n    event ContractTerminated(string indexed contractID, string reason);\r\n    event ContractEnded(string indexed contractID, address indexed renter, uint depositRefundAmount, uint timestamp);\r\n\r\n    modifier onlyOwner(string memory _contractID) {\r\n        require(msg.sender == contracts[_contractID].owner, unicode\"Ch ch nh mi c th thc hin hnh ng ny\");\r\n        _;\r\n    }\r\n\r\n    modifier onlyRenter(string memory _contractID) {\r\n        require(msg.sender == contracts[_contractID].renter, unicode\"Ch ngi thu mi c th thc hin hnh ng ny\");\r\n        _;\r\n    }\r\n\r\n    modifier onlyContractOwner(address _owner) {\r\n        require(msg.sender == _owner, unicode\"Ch ch hp ng mi c th to hp ng\");\r\n        _;\r\n    }\r\n\r\n    function createContract(\r\n        string memory _contractID,\r\n        string memory _propertyID,\r\n        address payable _owner,\r\n        address payable _renter,\r\n        uint _depositAmount,\r\n        uint _monthlyRent\r\n    ) public onlyContractOwner(_owner) {\r\n        require(_owner != address(0) && _renter != address(0), unicode\"a ch khng hp l\");\r\n\r\n        contracts[_contractID] = Contract({\r\n            contractID: _contractID,\r\n            propertyID: _propertyID,\r\n            owner: _owner,\r\n            renter: _renter,\r\n            depositAmount: _depositAmount,\r\n            monthlyRent: _monthlyRent,\r\n            status: RentalStatus.NotCreated\r\n        });\r\n\r\n        emit ContractCreated(_contractID, _propertyID, _owner, _renter, _depositAmount, _monthlyRent);\r\n    }\r\n\r\n    function deposit(string memory _contractID) public payable onlyRenter(_contractID) {\r\n        Contract storage contractInfo = contracts[_contractID];\r\n\r\n        require(contractInfo.status == RentalStatus.NotCreated, unicode\"Trng thi hp ng khng hp l  t cc\");\r\n        require(address(msg.sender).balance >= msg.value, unicode\"S d khng   t cc\");\r\n\r\n        contractInfo.status = RentalStatus.Deposited;\r\n\r\n        _recordTransaction(_contractID, msg.sender, contractInfo.owner, msg.value, unicode\"t cc\");\r\n\r\n        emit TransactionRecorded(_contractID, msg.sender, contractInfo.owner, msg.value, block.timestamp, unicode\"t cc\");\r\n    }\r\n\r\n    function payRent(string memory _contractID) public payable onlyRenter(_contractID) {\r\n        Contract storage contractInfo = contracts[_contractID];\r\n\r\n        require(contractInfo.status == RentalStatus.Deposited || contractInfo.status == RentalStatus.Ongoing, unicode\"Trng thi hp ng khng hp l  thanh ton tin thu\");\r\n        require(address(msg.sender).balance >= msg.value, unicode\"S d khng   thanh ton tin thu\");\r\n\r\n        if (contractInfo.status == RentalStatus.Deposited) {\r\n            contractInfo.status = RentalStatus.Ongoing;\r\n        }\r\n\r\n        (bool success, ) = contractInfo.owner.call{value: msg.value}(\"\");\r\n        require(success, unicode\"Chuyn tin tht bi\");\r\n\r\n        _recordTransaction(_contractID, msg.sender, contractInfo.owner, msg.value, unicode\"Thanh ton tin thu\");\r\n\r\n        emit TransactionRecorded(_contractID, msg.sender, contractInfo.owner, msg.value, block.timestamp, unicode\"Thanh ton tin thu\");\r\n    }\r\n\r\n    function cancelContractBeforeDeposit(string memory _contractID) public {\r\n        Contract storage contractInfo = contracts[_contractID];\r\n\r\n        // Kim tra xem ngi gi hm c phi l ch nh hoc ngi thu hay khng\r\n        require(\r\n            msg.sender == contractInfo.owner || msg.sender == contractInfo.renter,\r\n            unicode\"Ch c ch nh hoc ngi thu mi c th kt thc hp ng\"\r\n        );\r\n\r\n        // Kim tra trng thi hp ng\r\n        require(\r\n            contractInfo.status == RentalStatus.NotCreated,\r\n            unicode\"Trng thi hp ng khng hp l  kt thc\"\r\n        );\r\n\r\n        // Cp nht trng thi hp ng\r\n        contractInfo.status = RentalStatus.Cancelled;\r\n\r\n        // Pht s kin kt thc hp ng\r\n        emit ContractTerminated(_contractID, msg.sender == contractInfo.owner ? unicode\"Ch nh kt thc hp ng trc khi t cc\" : unicode\"Ngi thu kt thc hp ng trc khi t cc\");\r\n    }\r\n\r\n    // TODO\r\n    function endContract(string memory _contractID) public {\r\n        Contract storage contractInfo = contracts[_contractID];\r\n\r\n        if (contractInfo.status == RentalStatus.NotCreated) {\r\n            contractInfo.status = RentalStatus.Ended;\r\n        } else if (contractInfo.status == RentalStatus.Deposited || contractInfo.status == RentalStatus.Ongoing) {\r\n            if (contractInfo.depositAmount > 0) {\r\n                require(address(this).balance >= contractInfo.depositAmount, unicode\"S d hp ng khng   hon tr tin cc\");\r\n\r\n                (bool success, ) = contractInfo.renter.call{value: contractInfo.depositAmount}(\"\");\r\n                require(success, unicode\"Chuyn tin cc tht bi\");\r\n\r\n                _recordTransaction(_contractID, contractInfo.owner, contractInfo.renter, contractInfo.depositAmount, unicode\"Tin cc hon tr\");\r\n            }\r\n            contractInfo.status = RentalStatus.Ended;\r\n        } else {\r\n            revert(unicode\"Hp ng khng  trng thi hp l  kt thc\");\r\n        }\r\n        emit ContractEnded(_contractID, contractInfo.renter, contractInfo.depositAmount, block.timestamp);\r\n    }\r\n\r\n    function _recordTransaction(string memory _contractID, address _from, address _to, uint _amount, string memory _transactionType) internal {\r\n        contractTransactions[_contractID].push(Transaction({\r\n            from: _from,\r\n            to: _to,\r\n            amount: _amount,\r\n            timestamp: block.timestamp,\r\n            transactionType: _transactionType\r\n        }));\r\n    }\r\n\r\n    function getContractDetails(string memory _contractID) public view returns (Contract memory) {\r\n        Contract memory contractInfo = contracts[_contractID];\r\n        require(msg.sender == contractInfo.owner || msg.sender == contractInfo.renter, unicode\"Ch ch hp ng hoc ngi thu mi c th xem chi tit hp ng\");\r\n        return contractInfo;\r\n    }\r\n\r\n    function getContractTransactions(string memory _contractID) public view returns (Transaction[] memory) {\r\n        Contract memory contractInfo = contracts[_contractID];\r\n        require(msg.sender == contractInfo.owner || msg.sender == contractInfo.renter, unicode\"Ch ch hp ng hoc ngi thu mi c th xem giao dch\");\r\n        return contractTransactions[_contractID];\r\n    }\r\n\r\n    function terminateForNonPayment(string memory _contractId) public {\r\n        Contract storage contractInfo = contracts[_contractId];\r\n\r\n        // Ch cho php khi trng thi hp ng l Deposited hoc Ongoing\r\n        require(contractInfo.status == RentalStatus.Ongoing, unicode\"Hp ng phi  trng thi ang hot ng\");\r\n\r\n        // X l logic mt tin cc nu khng thanh ton ng hn\r\n        if (contractInfo.depositAmount > 0) {\r\n            require(address(this).balance >= contractInfo.depositAmount, unicode\"S d hp ng khng   mt tin cc\");\r\n\r\n            // Chuyn tin cc cho ch nh\r\n            (bool success, ) = contractInfo.owner.call{value: contractInfo.depositAmount}(\"\");\r\n            require(success, unicode\"Chuyn tin cc tht bi\");\r\n\r\n            // Lu giao dch\r\n            _recordTransaction(_contractId, address(this), contractInfo.owner, contractInfo.depositAmount, unicode\"Tin cc b mt\");\r\n        }\r\n\r\n        // nh du hp ng  kt thc\r\n        contractInfo.status = RentalStatus.Ended;\r\n        emit ContractEnded(_contractId, contractInfo.renter, contractInfo.depositAmount, block.timestamp);\r\n\r\n    }\r\n\r\n    // FIXME\r\n    function cancelContractByRenter(string memory _contractId, bool notifyBefore30Days, uint depositAmount) public payable onlyRenter(_contractId) {\r\n        Contract storage contractInfo = contracts[_contractId];\r\n\r\n        uint depositLoss = 0;\r\n        uint extraCharge = 0;\r\n\r\n        if (notifyBefore30Days) {\r\n            // Hon tr tin cc nu thng bo trc 30 ngy\r\n            require(address(this).balance >= depositAmount, unicode\"S d hp ng khng   hon tr tin cc\");\r\n\r\n            (bool successRefund, ) = contractInfo.renter.call{value: depositAmount}(\"\");\r\n            require(successRefund, unicode\"Chuyn tin cc tht bi\");\r\n\r\n            _recordTransaction(_contractId, contractInfo.owner, msg.sender, depositAmount, unicode\"Hon tr tin cc\");\r\n        } else {\r\n            // Tnh ph b sung v chuyn tin cc nu khng thng bo trc 30 ngy\r\n            // extraCharge = contractInfo.monthlyRent;\r\n            // require(msg.value == extraCharge, \"Incorrect extra charge amount\");\r\n            // require(address(msg.sender).balance >= extraCharge, \"Insufficient balance of renter\");\r\n\r\n            // (bool successExtraCharge, ) = contractInfo.owner.call{value: extraCharge}(\"\");\r\n            // require(successExtraCharge, \"Extra charge transfer failed\");\r\n\r\n            // _recordTransaction(_contractId, msg.sender, contractInfo.owner, extraCharge, \"Extra Charge\");\r\n\r\n            depositLoss = depositAmount;\r\n            require(address(this).balance >= depositLoss, unicode\"S d hp ng khng   hon tr tin cc\");\r\n\r\n            (bool successDeposit, ) = contractInfo.owner.call{value: depositLoss}(\"\"); // Chuyn tin cc t ngi thu cho ch nh\r\n            require(successDeposit, unicode\"Chuyn tin cc tht bi\");\r\n\r\n            _recordTransaction(_contractId, msg.sender, contractInfo.owner, depositLoss, unicode\"Thanh ton tin cc cho ch nh\");\r\n        }\r\n\r\n        contractInfo.status = RentalStatus.Ended;\r\n        emit ContractCancelledByRenter(_contractId, msg.sender, depositLoss, extraCharge, block.timestamp);\r\n    }\r\n\r\n    // FIXME\r\n    function cancelContractByOwner(string memory _contractId, bool notifyBefore30Days, uint monthlyRent, uint depositAmount) public payable onlyOwner(_contractId) {\r\n        Contract storage contractInfo = contracts[_contractId];\r\n\r\n        uint compensation = 0;\r\n\r\n        if (!notifyBefore30Days) {\r\n            // Tnh bi thng v chuyn cho ngi thu nu khng thng bo trc 30 ngy\r\n            compensation = monthlyRent;\r\n            require(address(msg.sender).balance >= compensation, unicode\"S d khng   bi thng cho ngi thu\");\r\n\r\n            (bool successCompensation, ) = contractInfo.renter.call{value: compensation}(\"\");\r\n            require(successCompensation, unicode\"Chuyn tin bi thng tht bi\");\r\n\r\n            _recordTransaction(_contractId, msg.sender, contractInfo.renter, compensation, unicode\"Bi thng cho ngi thu\");\r\n        }\r\n\r\n        if (contractInfo.status == RentalStatus.Deposited || contractInfo.status == RentalStatus.Ongoing) {\r\n            // Hon tr tin cc cho ngi thu nu hp ng vn cn hiu lc\r\n            require(address(this).balance >= depositAmount, unicode\"S d hp ng khng   hon tr tin cc\");\r\n\r\n            (bool successDeposit, ) = contractInfo.renter.call{value: depositAmount}(\"\");\r\n            require(successDeposit, unicode\"Chuyn tin cc tht bi\");\r\n\r\n            _recordTransaction(_contractId, msg.sender, contractInfo.renter, depositAmount, unicode\"Hon tr tin cc\");\r\n        }\r\n\r\n        contractInfo.status = RentalStatus.Ended;\r\n        emit ContractCancelledByOwner(_contractId, msg.sender, compensation, block.timestamp);\r\n    }\r\n}\r\n",
  "sourcePath": "C:\\Code\\kltn\\backend\\contract-service\\contractRental\\contracts\\RentalContract.sol",
  "compiler": {
    "name": "solc",
    "version": "0.8.0+commit.c7dfd78e.Emscripten.clang"
  },
  "schemaVersion": "3.4.16",
  "updatedAt": "2024-09-29T04:13:58.328Z",
  "networkType": "ethereum",
  "devdoc": {
    "kind": "dev",
    "methods": {},
    "version": 1
  },
  "userdoc": {
    "kind": "user",
    "methods": {},
    "version": 1
  }
}