{
  "contractName": "RentalContract",
  "abi": [
    {
      "anonymous": false,
      "inputs": [
        {
          "indexed": true,
          "internalType": "string",
          "name": "contractID",
          "type": "string"
        },
        {
          "indexed": true,
          "internalType": "address",
          "name": "owner",
          "type": "address"
        },
        {
          "indexed": false,
          "internalType": "uint256",
          "name": "compensation",
          "type": "uint256"
        },
        {
          "indexed": false,
          "internalType": "uint256",
          "name": "timestamp",
          "type": "uint256"
        }
      ],
      "name": "ContractCancelledByOwner",
      "type": "event"
    },
    {
      "anonymous": false,
      "inputs": [
        {
          "indexed": true,
          "internalType": "string",
          "name": "contractID",
          "type": "string"
        },
        {
          "indexed": true,
          "internalType": "address",
          "name": "renter",
          "type": "address"
        },
        {
          "indexed": false,
          "internalType": "uint256",
          "name": "depositLoss",
          "type": "uint256"
        },
        {
          "indexed": false,
          "internalType": "uint256",
          "name": "extraCharge",
          "type": "uint256"
        },
        {
          "indexed": false,
          "internalType": "uint256",
          "name": "timestamp",
          "type": "uint256"
        }
      ],
      "name": "ContractCancelledByRenter",
      "type": "event"
    },
    {
      "anonymous": false,
      "inputs": [
        {
          "indexed": true,
          "internalType": "string",
          "name": "contractID",
          "type": "string"
        },
        {
          "indexed": false,
          "internalType": "string",
          "name": "propertyID",
          "type": "string"
        },
        {
          "indexed": true,
          "internalType": "address",
          "name": "owner",
          "type": "address"
        },
        {
          "indexed": true,
          "internalType": "address",
          "name": "renter",
          "type": "address"
        },
        {
          "indexed": false,
          "internalType": "uint256",
          "name": "depositAmount",
          "type": "uint256"
        },
        {
          "indexed": false,
          "internalType": "uint256",
          "name": "monthlyRent",
          "type": "uint256"
        }
      ],
      "name": "ContractCreated",
      "type": "event"
    },
    {
      "anonymous": false,
      "inputs": [
        {
          "indexed": true,
          "internalType": "string",
          "name": "contractID",
          "type": "string"
        },
        {
          "indexed": true,
          "internalType": "address",
          "name": "renter",
          "type": "address"
        },
        {
          "indexed": false,
          "internalType": "uint256",
          "name": "depositRefundAmount",
          "type": "uint256"
        },
        {
          "indexed": false,
          "internalType": "uint256",
          "name": "timestamp",
          "type": "uint256"
        }
      ],
      "name": "ContractEnded",
      "type": "event"
    },
    {
      "anonymous": false,
      "inputs": [
        {
          "indexed": true,
          "internalType": "string",
          "name": "contractID",
          "type": "string"
        },
        {
          "indexed": false,
          "internalType": "string",
          "name": "reason",
          "type": "string"
        }
      ],
      "name": "ContractTerminated",
      "type": "event"
    },
    {
      "anonymous": false,
      "inputs": [
        {
          "indexed": true,
          "internalType": "string",
          "name": "contractID",
          "type": "string"
        },
        {
          "indexed": false,
          "internalType": "address",
          "name": "from",
          "type": "address"
        },
        {
          "indexed": false,
          "internalType": "address",
          "name": "to",
          "type": "address"
        },
        {
          "indexed": false,
          "internalType": "uint256",
          "name": "amount",
          "type": "uint256"
        },
        {
          "indexed": false,
          "internalType": "uint256",
          "name": "timestamp",
          "type": "uint256"
        },
        {
          "indexed": false,
          "internalType": "string",
          "name": "transactionType",
          "type": "string"
        }
      ],
      "name": "TransactionRecorded",
      "type": "event"
    },
    {
      "inputs": [
        {
          "internalType": "string",
          "name": "",
          "type": "string"
        },
        {
          "internalType": "uint256",
          "name": "",
          "type": "uint256"
        }
      ],
      "name": "contractTransactions",
      "outputs": [
        {
          "internalType": "address",
          "name": "from",
          "type": "address"
        },
        {
          "internalType": "address",
          "name": "to",
          "type": "address"
        },
        {
          "internalType": "uint256",
          "name": "amount",
          "type": "uint256"
        },
        {
          "internalType": "uint256",
          "name": "timestamp",
          "type": "uint256"
        },
        {
          "internalType": "string",
          "name": "transactionType",
          "type": "string"
        }
      ],
      "stateMutability": "view",
      "type": "function",
      "constant": true
    },
    {
      "inputs": [
        {
          "internalType": "string",
          "name": "",
          "type": "string"
        }
      ],
      "name": "contracts",
      "outputs": [
        {
          "internalType": "string",
          "name": "contractID",
          "type": "string"
        },
        {
          "internalType": "string",
          "name": "propertyID",
          "type": "string"
        },
        {
          "internalType": "address payable",
          "name": "owner",
          "type": "address"
        },
        {
          "internalType": "address payable",
          "name": "renter",
          "type": "address"
        },
        {
          "internalType": "uint256",
          "name": "depositAmount",
          "type": "uint256"
        },
        {
          "internalType": "uint256",
          "name": "monthlyRent",
          "type": "uint256"
        },
        {
          "internalType": "enum RentalContract.RentalStatus",
          "name": "status",
          "type": "uint8"
        }
      ],
      "stateMutability": "view",
      "type": "function",
      "constant": true
    },
    {
      "inputs": [
        {
          "internalType": "string",
          "name": "_contractID",
          "type": "string"
        },
        {
          "internalType": "string",
          "name": "_propertyID",
          "type": "string"
        },
        {
          "internalType": "address payable",
          "name": "_owner",
          "type": "address"
        },
        {
          "internalType": "address payable",
          "name": "_renter",
          "type": "address"
        },
        {
          "internalType": "uint256",
          "name": "_depositAmount",
          "type": "uint256"
        },
        {
          "internalType": "uint256",
          "name": "_monthlyRent",
          "type": "uint256"
        }
      ],
      "name": "createContract",
      "outputs": [],
      "stateMutability": "nonpayable",
      "type": "function"
    },
    {
      "inputs": [
        {
          "internalType": "string",
          "name": "_contractID",
          "type": "string"
        }
      ],
      "name": "deposit",
      "outputs": [],
      "stateMutability": "payable",
      "type": "function",
      "payable": true
    },
    {
      "inputs": [
        {
          "internalType": "string",
          "name": "_contractID",
          "type": "string"
        }
      ],
      "name": "payRent",
      "outputs": [],
      "stateMutability": "payable",
      "type": "function",
      "payable": true
    },
    {
      "inputs": [
        {
          "internalType": "string",
          "name": "_contractID",
          "type": "string"
        }
      ],
      "name": "endContract",
      "outputs": [],
      "stateMutability": "nonpayable",
      "type": "function"
    },
    {
      "inputs": [
        {
          "internalType": "string",
          "name": "_contractID",
          "type": "string"
        }
      ],
      "name": "getContractDetails",
      "outputs": [
        {
          "components": [
            {
              "internalType": "string",
              "name": "contractID",
              "type": "string"
            },
            {
              "internalType": "string",
              "name": "propertyID",
              "type": "string"
            },
            {
              "internalType": "address payable",
              "name": "owner",
              "type": "address"
            },
            {
              "internalType": "address payable",
              "name": "renter",
              "type": "address"
            },
            {
              "internalType": "uint256",
              "name": "depositAmount",
              "type": "uint256"
            },
            {
              "internalType": "uint256",
              "name": "monthlyRent",
              "type": "uint256"
            },
            {
              "internalType": "enum RentalContract.RentalStatus",
              "name": "status",
              "type": "uint8"
            }
          ],
          "internalType": "struct RentalContract.Contract",
          "name": "",
          "type": "tuple"
        }
      ],
      "stateMutability": "view",
      "type": "function",
      "constant": true
    },
    {
      "inputs": [
        {
          "internalType": "string",
          "name": "_contractID",
          "type": "string"
        }
      ],
      "name": "getContractTransactions",
      "outputs": [
        {
          "components": [
            {
              "internalType": "address",
              "name": "from",
              "type": "address"
            },
            {
              "internalType": "address",
              "name": "to",
              "type": "address"
            },
            {
              "internalType": "uint256",
              "name": "amount",
              "type": "uint256"
            },
            {
              "internalType": "uint256",
              "name": "timestamp",
              "type": "uint256"
            },
            {
              "internalType": "string",
              "name": "transactionType",
              "type": "string"
            }
          ],
          "internalType": "struct RentalContract.Transaction[]",
          "name": "",
          "type": "tuple[]"
        }
      ],
      "stateMutability": "view",
      "type": "function",
      "constant": true
    },
    {
      "inputs": [
        {
          "internalType": "string",
          "name": "_contractId",
          "type": "string"
        }
      ],
      "name": "terminateForNonPayment",
      "outputs": [],
      "stateMutability": "nonpayable",
      "type": "function"
    },
    {
      "inputs": [
        {
          "internalType": "string",
          "name": "_contractId",
          "type": "string"
        },
        {
          "internalType": "bool",
          "name": "notifyBefore30Days",
          "type": "bool"
        }
      ],
      "name": "cancelContractByRenter",
      "outputs": [],
      "stateMutability": "payable",
      "type": "function",
      "payable": true
    },
    {
      "inputs": [
        {
          "internalType": "string",
          "name": "_contractId",
          "type": "string"
        },
        {
          "internalType": "bool",
          "name": "notifyBefore30Days",
          "type": "bool"
        }
      ],
      "name": "cancelContractByOwner",
      "outputs": [],
      "stateMutability": "payable",
      "type": "function",
      "payable": true
    }
  ],
  "bytecode": "0x608060405234801561001057600080fd5b506148a8806100206000396000f3fe60806040526004361061009c5760003560e01c80637bef444c116100645780637bef444c146101685780638c5b838514610184578063a26e1186146101c7578063bfafff5b146101e3578063cd7c114714610220578063d6ba4006146102615761009c565b8063134787d7146100a15780631f0833af146100bd5780632b27ddd0146100e65780635076efd81461010f578063541881c11461012b575b600080fd5b6100bb60048036038101906100b691906132dd565b61028a565b005b3480156100c957600080fd5b506100e460048036038101906100df919061329c565b61090d565b005b3480156100f257600080fd5b5061010d60048036038101906101089190613331565b610e04565b005b610129600480360381019061012491906132dd565b61118f565b005b34801561013757600080fd5b50610152600480360381019061014d919061329c565b61179f565b60405161015f91906140d6565b60405180910390f35b610182600480360381019061017d919061329c565b611cb2565b005b34801561019057600080fd5b506101ab60048036038101906101a6919061329c565b612204565b6040516101be97969594939291906140f8565b60405180910390f35b6101e160048036038101906101dc919061329c565b6123b9565b005b3480156101ef57600080fd5b5061020a6004803603810190610205919061329c565b612723565b60405161021791906144f3565b60405180910390f35b34801561022c57600080fd5b50610247600480360381019061024291906133ea565b612a77565b60405161025895949392919061407c565b60405180910390f35b34801561026d57600080fd5b506102886004803603810190610283919061329c565b612ba8565b005b8160008160405161029b9190613fa0565b908152602001604051809103902060030160009054906101000a900473ffffffffffffffffffffffffffffffffffffffff1673ffffffffffffffffffffffffffffffffffffffff163373ffffffffffffffffffffffffffffffffffffffff161461033a576040517f08c379a0000000000000000000000000000000000000000000000000000000008152600401610331906142d3565b60405180910390fd5b6000808460405161034b9190613fa0565b90815260200160405180910390209050600080846106c357826005015490508034146103ac576040517f08c379a00000000000000000000000000000000000000000000000000000000081526004016103a3906142b3565b60405180910390fd5b803373ffffffffffffffffffffffffffffffffffffffff16311015610406576040517f08c379a00000000000000000000000000000000000000000000000000000000081526004016103fd906143b3565b60405180910390fd5b60008360020160009054906101000a900473ffffffffffffffffffffffffffffffffffffffff1673ffffffffffffffffffffffffffffffffffffffff168260405161045090613fb7565b60006040518083038185875af1925050503d806000811461048d576040519150601f19603f3d011682016040523d82523d6000602084013e610492565b606091505b50509050806104d6576040517f08c379a00000000000000000000000000000000000000000000000000000000081526004016104cd90614373565b60405180910390fd5b61053c87338660020160009054906101000a900473ffffffffffffffffffffffffffffffffffffffff16856040518060400160405280600c81526020017f4578747261204368617267650000000000000000000000000000000000000000815250612f4f565b8360040154925082471015610586576040517f08c379a000000000000000000000000000000000000000000000000000000000815260040161057d906141d3565b60405180910390fd5b60008460020160009054906101000a900473ffffffffffffffffffffffffffffffffffffffff1673ffffffffffffffffffffffffffffffffffffffff16846040516105d090613fb7565b60006040518083038185875af1925050503d806000811461060d576040519150601f19603f3d011682016040523d82523d6000602084013e610612565b606091505b5050905080610656576040517f08c379a000000000000000000000000000000000000000000000000000000000815260040161064d906144d3565b60405180910390fd5b6106bc88338760020160009054906101000a900473ffffffffffffffffffffffffffffffffffffffff16876040518060400160405280600c81526020017f4465706f736974204c6f73730000000000000000000000000000000000000000815250612f4f565b505061084a565b826004015447101561070a576040517f08c379a0000000000000000000000000000000000000000000000000000000008152600401610701906141d3565b60405180910390fd5b60008360030160009054906101000a900473ffffffffffffffffffffffffffffffffffffffff1673ffffffffffffffffffffffffffffffffffffffff16846004015460405161075890613fb7565b60006040518083038185875af1925050503d8060008114610795576040519150601f19603f3d011682016040523d82523d6000602084013e61079a565b606091505b50509050806107de576040517f08c379a00000000000000000000000000000000000000000000000000000000081526004016107d5906141b3565b60405180910390fd5b610848878560020160009054906101000a900473ffffffffffffffffffffffffffffffffffffffff163387600401546040518060400160405280600e81526020017f4465706f73697420526566756e64000000000000000000000000000000000000815250612f4f565b505b60038360060160006101000a81548160ff02191690836003811115610898577f4e487b7100000000000000000000000000000000000000000000000000000000600052602160045260246000fd5b02179055503373ffffffffffffffffffffffffffffffffffffffff16866040516108c29190613fa0565b60405180910390207fadafc36edcd60759441410797064a212430ea809b0ca5ffd4aa273c16b1313328484426040516108fd9392919061453e565b60405180910390a3505050505050565b6000808260405161091e9190613fa0565b9081526020016040518091039020905060006003811115610968577f4e487b7100000000000000000000000000000000000000000000000000000000600052602160045260246000fd5b8160060160009054906101000a900460ff1660038111156109b2577f4e487b7100000000000000000000000000000000000000000000000000000000600052602160045260246000fd5b1415610a105760038160060160006101000a81548160ff02191690836003811115610a06577f4e487b7100000000000000000000000000000000000000000000000000000000600052602160045260246000fd5b0217905550610d72565b60016003811115610a4a577f4e487b7100000000000000000000000000000000000000000000000000000000600052602160045260246000fd5b8160060160009054906101000a900460ff166003811115610a94577f4e487b7100000000000000000000000000000000000000000000000000000000600052602160045260246000fd5b1480610b21575060026003811115610ad5577f4e487b7100000000000000000000000000000000000000000000000000000000600052602160045260246000fd5b8160060160009054906101000a900460ff166003811115610b1f577f4e487b7100000000000000000000000000000000000000000000000000000000600052602160045260246000fd5b145b15610d3657600081600401541115610cde578060040154471015610b7a576040517f08c379a0000000000000000000000000000000000000000000000000000000008152600401610b7190614293565b60405180910390fd5b60008160030160009054906101000a900473ffffffffffffffffffffffffffffffffffffffff1673ffffffffffffffffffffffffffffffffffffffff168260040154604051610bc890613fb7565b60006040518083038185875af1925050503d8060008114610c05576040519150601f19603f3d011682016040523d82523d6000602084013e610c0a565b606091505b5050905080610c4e576040517f08c379a0000000000000000000000000000000000000000000000000000000008152600401610c45906141b3565b60405180910390fd5b610cdc838360020160009054906101000a900473ffffffffffffffffffffffffffffffffffffffff168460030160009054906101000a900473ffffffffffffffffffffffffffffffffffffffff1685600401546040518060400160405280600681526020017f526566756e640000000000000000000000000000000000000000000000000000815250612f4f565b505b60038160060160006101000a81548160ff02191690836003811115610d2c577f4e487b7100000000000000000000000000000000000000000000000000000000600052602160045260246000fd5b0217905550610d71565b6040517f08c379a0000000000000000000000000000000000000000000000000000000008152600401610d6890614433565b60405180910390fd5b5b8060030160009054906101000a900473ffffffffffffffffffffffffffffffffffffffff1673ffffffffffffffffffffffffffffffffffffffff1682604051610dbb9190613fa0565b60405180910390207ff6b22571c1ecf2dee47f025f69793accfe7ed12f07404c638536d16998c1ea47836004015442604051610df8929190614515565b60405180910390a35050565b838073ffffffffffffffffffffffffffffffffffffffff163373ffffffffffffffffffffffffffffffffffffffff1614610e73576040517f08c379a0000000000000000000000000000000000000000000000000000000008152600401610e6a90614353565b60405180910390fd5b600073ffffffffffffffffffffffffffffffffffffffff168573ffffffffffffffffffffffffffffffffffffffff1614158015610edd5750600073ffffffffffffffffffffffffffffffffffffffff168473ffffffffffffffffffffffffffffffffffffffff1614155b610f1c576040517f08c379a0000000000000000000000000000000000000000000000000000000008152600401610f13906141f3565b60405180910390fd5b6040518060e001604052808881526020018781526020018673ffffffffffffffffffffffffffffffffffffffff1681526020018573ffffffffffffffffffffffffffffffffffffffff16815260200184815260200183815260200160006003811115610fb1577f4e487b7100000000000000000000000000000000000000000000000000000000600052602160045260246000fd5b815250600088604051610fc49190613fa0565b90815260200160405180910390206000820151816000019080519060200190610fee9291906130b1565b50602082015181600101908051906020019061100b9291906130b1565b5060408201518160020160006101000a81548173ffffffffffffffffffffffffffffffffffffffff021916908373ffffffffffffffffffffffffffffffffffffffff16021790555060608201518160030160006101000a81548173ffffffffffffffffffffffffffffffffffffffff021916908373ffffffffffffffffffffffffffffffffffffffff1602179055506080820151816004015560a0820151816005015560c08201518160060160006101000a81548160ff021916908360038111156110ff577f4e487b7100000000000000000000000000000000000000000000000000000000600052602160045260246000fd5b02179055509050508373ffffffffffffffffffffffffffffffffffffffff168573ffffffffffffffffffffffffffffffffffffffff16886040516111439190613fa0565b60405180910390207ff7ecc3071b5ebed4a1d5658be0963bdf71f705336198be1add3186546995259489878760405161117e93929190614175565b60405180910390a450505050505050565b816000816040516111a09190613fa0565b908152602001604051809103902060020160009054906101000a900473ffffffffffffffffffffffffffffffffffffffff1673ffffffffffffffffffffffffffffffffffffffff163373ffffffffffffffffffffffffffffffffffffffff161461123f576040517f08c379a000000000000000000000000000000000000000000000000000000000815260040161123690614213565b60405180910390fd5b600080846040516112509190613fa0565b9081526020016040518091039020905060008361144257816005015490508034146112b0576040517f08c379a00000000000000000000000000000000000000000000000000000000081526004016112a790614333565b60405180910390fd5b803373ffffffffffffffffffffffffffffffffffffffff1631101561130a576040517f08c379a000000000000000000000000000000000000000000000000000000000815260040161130190614453565b60405180910390fd5b60008260030160009054906101000a900473ffffffffffffffffffffffffffffffffffffffff1673ffffffffffffffffffffffffffffffffffffffff168260405161135490613fb7565b60006040518083038185875af1925050503d8060008114611391576040519150601f19603f3d011682016040523d82523d6000602084013e611396565b606091505b50509050806113da576040517f08c379a00000000000000000000000000000000000000000000000000000000081526004016113d190614413565b60405180910390fd5b61144086338560030160009054906101000a900473ffffffffffffffffffffffffffffffffffffffff16856040518060400160405280600c81526020017f436f6d70656e736174696f6e0000000000000000000000000000000000000000815250612f4f565b505b6001600381111561147c577f4e487b7100000000000000000000000000000000000000000000000000000000600052602160045260246000fd5b8260060160009054906101000a900460ff1660038111156114c6577f4e487b7100000000000000000000000000000000000000000000000000000000600052602160045260246000fd5b1480611553575060026003811115611507577f4e487b7100000000000000000000000000000000000000000000000000000000600052602160045260246000fd5b8260060160009054906101000a900460ff166003811115611551577f4e487b7100000000000000000000000000000000000000000000000000000000600052602160045260246000fd5b145b156116df57816004015447101561159f576040517f08c379a000000000000000000000000000000000000000000000000000000000815260040161159690614293565b60405180910390fd5b60008260030160009054906101000a900473ffffffffffffffffffffffffffffffffffffffff1673ffffffffffffffffffffffffffffffffffffffff1683600401546040516115ed90613fb7565b60006040518083038185875af1925050503d806000811461162a576040519150601f19603f3d011682016040523d82523d6000602084013e61162f565b606091505b5050905080611673576040517f08c379a000000000000000000000000000000000000000000000000000000000815260040161166a906141b3565b60405180910390fd5b6116dd86338560030160009054906101000a900473ffffffffffffffffffffffffffffffffffffffff1686600401546040518060400160405280600e81526020017f4465706f73697420526566756e64000000000000000000000000000000000000815250612f4f565b505b60038260060160006101000a81548160ff0219169083600381111561172d577f4e487b7100000000000000000000000000000000000000000000000000000000600052602160045260246000fd5b02179055503373ffffffffffffffffffffffffffffffffffffffff16856040516117579190613fa0565b60405180910390207fe2da9dcf01d3bce438e81353c3540671c45029b87abdf8074d5a9bfb045ef6f98342604051611790929190614515565b60405180910390a35050505050565b6060600080836040516117b29190613fa0565b90815260200160405180910390206040518060e00160405290816000820180546117db90614749565b80601f016020809104026020016040519081016040528092919081815260200182805461180790614749565b80156118545780601f1061182957610100808354040283529160200191611854565b820191906000526020600020905b81548152906001019060200180831161183757829003601f168201915b5050505050815260200160018201805461186d90614749565b80601f016020809104026020016040519081016040528092919081815260200182805461189990614749565b80156118e65780601f106118bb576101008083540402835291602001916118e6565b820191906000526020600020905b8154815290600101906020018083116118c957829003601f168201915b505050505081526020016002820160009054906101000a900473ffffffffffffffffffffffffffffffffffffffff1673ffffffffffffffffffffffffffffffffffffffff1673ffffffffffffffffffffffffffffffffffffffff1681526020016003820160009054906101000a900473ffffffffffffffffffffffffffffffffffffffff1673ffffffffffffffffffffffffffffffffffffffff1673ffffffffffffffffffffffffffffffffffffffff16815260200160048201548152602001600582015481526020016006820160009054906101000a900460ff1660038111156119fa577f4e487b7100000000000000000000000000000000000000000000000000000000600052602160045260246000fd5b6003811115611a32577f4e487b7100000000000000000000000000000000000000000000000000000000600052602160045260246000fd5b815250509050806040015173ffffffffffffffffffffffffffffffffffffffff163373ffffffffffffffffffffffffffffffffffffffff161480611aa55750806060015173ffffffffffffffffffffffffffffffffffffffff163373ffffffffffffffffffffffffffffffffffffffff16145b611ae4576040517f08c379a0000000000000000000000000000000000000000000000000000000008152600401611adb90614313565b60405180910390fd5b600183604051611af49190613fa0565b9081526020016040518091039020805480602002602001604051908101604052809291908181526020016000905b82821015611ca657838290600052602060002090600502016040518060a00160405290816000820160009054906101000a900473ffffffffffffffffffffffffffffffffffffffff1673ffffffffffffffffffffffffffffffffffffffff1673ffffffffffffffffffffffffffffffffffffffff1681526020016001820160009054906101000a900473ffffffffffffffffffffffffffffffffffffffff1673ffffffffffffffffffffffffffffffffffffffff1673ffffffffffffffffffffffffffffffffffffffff1681526020016002820154815260200160038201548152602001600482018054611c1590614749565b80601f0160208091040260200160405190810160405280929190818152602001828054611c4190614749565b8015611c8e5780601f10611c6357610100808354040283529160200191611c8e565b820191906000526020600020905b815481529060010190602001808311611c7157829003601f168201915b50505050508152505081526020019060010190611b22565b50505050915050919050565b80600081604051611cc39190613fa0565b908152602001604051809103902060030160009054906101000a900473ffffffffffffffffffffffffffffffffffffffff1673ffffffffffffffffffffffffffffffffffffffff163373ffffffffffffffffffffffffffffffffffffffff1614611d62576040517f08c379a0000000000000000000000000000000000000000000000000000000008152600401611d59906142d3565b60405180910390fd5b60008083604051611d739190613fa0565b9081526020016040518091039020905060016003811115611dbd577f4e487b7100000000000000000000000000000000000000000000000000000000600052602160045260246000fd5b8160060160009054906101000a900460ff166003811115611e07577f4e487b7100000000000000000000000000000000000000000000000000000000600052602160045260246000fd5b1480611e94575060026003811115611e48577f4e487b7100000000000000000000000000000000000000000000000000000000600052602160045260246000fd5b8160060160009054906101000a900460ff166003811115611e92577f4e487b7100000000000000000000000000000000000000000000000000000000600052602160045260246000fd5b145b611ed3576040517f08c379a0000000000000000000000000000000000000000000000000000000008152600401611eca90614233565b60405180910390fd5b80600501543414611f19576040517f08c379a0000000000000000000000000000000000000000000000000000000008152600401611f1090614253565b60405180910390fd5b343373ffffffffffffffffffffffffffffffffffffffff16311015611f73576040517f08c379a0000000000000000000000000000000000000000000000000000000008152600401611f6a906143b3565b60405180910390fd5b60016003811115611fad577f4e487b7100000000000000000000000000000000000000000000000000000000600052602160045260246000fd5b8160060160009054906101000a900460ff166003811115611ff7577f4e487b7100000000000000000000000000000000000000000000000000000000600052602160045260246000fd5b14156120515760028160060160006101000a81548160ff0219169083600381111561204b577f4e487b7100000000000000000000000000000000000000000000000000000000600052602160045260246000fd5b02179055505b60008160020160009054906101000a900473ffffffffffffffffffffffffffffffffffffffff1673ffffffffffffffffffffffffffffffffffffffff163460405161209b90613fb7565b60006040518083038185875af1925050503d80600081146120d8576040519150601f19603f3d011682016040523d82523d6000602084013e6120dd565b606091505b5050905080612121576040517f08c379a000000000000000000000000000000000000000000000000000000000815260040161211890614273565b60405180910390fd5b61218784338460020160009054906101000a900473ffffffffffffffffffffffffffffffffffffffff16346040518060400160405280600c81526020017f52656e74205061796d656e740000000000000000000000000000000000000000815250612f4f565b836040516121959190613fa0565b60405180910390207f533295cd82e521ef5bdedbc6debf352fcb558fe7f98c397a0d52cc90e107f310338460020160009054906101000a900473ffffffffffffffffffffffffffffffffffffffff1634426040516121f69493929190613fcc565b60405180910390a250505050565b60008180516020810182018051848252602083016020850120818352809550505050505060009150905080600001805461223d90614749565b80601f016020809104026020016040519081016040528092919081815260200182805461226990614749565b80156122b65780601f1061228b576101008083540402835291602001916122b6565b820191906000526020600020905b81548152906001019060200180831161229957829003601f168201915b5050505050908060010180546122cb90614749565b80601f01602080910402602001604051908101604052809291908181526020018280546122f790614749565b80156123445780601f1061231957610100808354040283529160200191612344565b820191906000526020600020905b81548152906001019060200180831161232757829003601f168201915b5050505050908060020160009054906101000a900473ffffffffffffffffffffffffffffffffffffffff16908060030160009054906101000a900473ffffffffffffffffffffffffffffffffffffffff16908060040154908060050154908060060160009054906101000a900460ff16905087565b806000816040516123ca9190613fa0565b908152602001604051809103902060030160009054906101000a900473ffffffffffffffffffffffffffffffffffffffff1673ffffffffffffffffffffffffffffffffffffffff163373ffffffffffffffffffffffffffffffffffffffff1614612469576040517f08c379a0000000000000000000000000000000000000000000000000000000008152600401612460906142d3565b60405180910390fd5b6000808360405161247a9190613fa0565b90815260200160405180910390209050600060038111156124c4577f4e487b7100000000000000000000000000000000000000000000000000000000600052602160045260246000fd5b8160060160009054906101000a900460ff16600381111561250e577f4e487b7100000000000000000000000000000000000000000000000000000000600052602160045260246000fd5b1461254e576040517f08c379a0000000000000000000000000000000000000000000000000000000008152600401612545906144b3565b60405180910390fd5b80600401543414612594576040517f08c379a000000000000000000000000000000000000000000000000000000000815260040161258b906143d3565b60405180910390fd5b343373ffffffffffffffffffffffffffffffffffffffff163110156125ee576040517f08c379a00000000000000000000000000000000000000000000000000000000081526004016125e5906143b3565b60405180910390fd5b60018160060160006101000a81548160ff0219169083600381111561263c577f4e487b7100000000000000000000000000000000000000000000000000000000600052602160045260246000fd5b02179055506126a783338360020160009054906101000a900473ffffffffffffffffffffffffffffffffffffffff16346040518060400160405280600781526020017f4465706f73697400000000000000000000000000000000000000000000000000815250612f4f565b826040516126b59190613fa0565b60405180910390207f533295cd82e521ef5bdedbc6debf352fcb558fe7f98c397a0d52cc90e107f310338360020160009054906101000a900473ffffffffffffffffffffffffffffffffffffffff1634426040516127169493929190614024565b60405180910390a2505050565b61272b613137565b6000808360405161273c9190613fa0565b90815260200160405180910390206040518060e001604052908160008201805461276590614749565b80601f016020809104026020016040519081016040528092919081815260200182805461279190614749565b80156127de5780601f106127b3576101008083540402835291602001916127de565b820191906000526020600020905b8154815290600101906020018083116127c157829003601f168201915b505050505081526020016001820180546127f790614749565b80601f016020809104026020016040519081016040528092919081815260200182805461282390614749565b80156128705780601f1061284557610100808354040283529160200191612870565b820191906000526020600020905b81548152906001019060200180831161285357829003601f168201915b505050505081526020016002820160009054906101000a900473ffffffffffffffffffffffffffffffffffffffff1673ffffffffffffffffffffffffffffffffffffffff1673ffffffffffffffffffffffffffffffffffffffff1681526020016003820160009054906101000a900473ffffffffffffffffffffffffffffffffffffffff1673ffffffffffffffffffffffffffffffffffffffff1673ffffffffffffffffffffffffffffffffffffffff16815260200160048201548152602001600582015481526020016006820160009054906101000a900460ff166003811115612984577f4e487b7100000000000000000000000000000000000000000000000000000000600052602160045260246000fd5b60038111156129bc577f4e487b7100000000000000000000000000000000000000000000000000000000600052602160045260246000fd5b815250509050806040015173ffffffffffffffffffffffffffffffffffffffff163373ffffffffffffffffffffffffffffffffffffffff161480612a2f5750806060015173ffffffffffffffffffffffffffffffffffffffff163373ffffffffffffffffffffffffffffffffffffffff16145b612a6e576040517f08c379a0000000000000000000000000000000000000000000000000000000008152600401612a6590614393565b60405180910390fd5b80915050919050565b6001828051602081018201805184825260208301602085012081835280955050505050508181548110612aa957600080fd5b9060005260206000209060050201600091509150508060000160009054906101000a900473ffffffffffffffffffffffffffffffffffffffff16908060010160009054906101000a900473ffffffffffffffffffffffffffffffffffffffff1690806002015490806003015490806004018054612b2590614749565b80601f0160208091040260200160405190810160405280929190818152602001828054612b5190614749565b8015612b9e5780601f10612b7357610100808354040283529160200191612b9e565b820191906000526020600020905b815481529060010190602001808311612b8157829003601f168201915b5050505050905085565b60008082604051612bb99190613fa0565b9081526020016040518091039020905060016003811115612c03577f4e487b7100000000000000000000000000000000000000000000000000000000600052602160045260246000fd5b8160060160009054906101000a900460ff166003811115612c4d577f4e487b7100000000000000000000000000000000000000000000000000000000600052602160045260246000fd5b1480612cda575060026003811115612c8e577f4e487b7100000000000000000000000000000000000000000000000000000000600052602160045260246000fd5b8160060160009054906101000a900460ff166003811115612cd8577f4e487b7100000000000000000000000000000000000000000000000000000000600052602160045260246000fd5b145b612d19576040517f08c379a0000000000000000000000000000000000000000000000000000000008152600401612d1090614473565b60405180910390fd5b600081600401541115612ead578060040154471015612d6d576040517f08c379a0000000000000000000000000000000000000000000000000000000008152600401612d64906143f3565b60405180910390fd5b60008160020160009054906101000a900473ffffffffffffffffffffffffffffffffffffffff1673ffffffffffffffffffffffffffffffffffffffff168260040154604051612dbb90613fb7565b60006040518083038185875af1925050503d8060008114612df8576040519150601f19603f3d011682016040523d82523d6000602084013e612dfd565b606091505b5050905080612e41576040517f08c379a0000000000000000000000000000000000000000000000000000000008152600401612e38906142f3565b60405180910390fd5b612eab83308460020160009054906101000a900473ffffffffffffffffffffffffffffffffffffffff1685600401546040518060400160405280601181526020017f4465706f73697420466f72666569746564000000000000000000000000000000815250612f4f565b505b60038160060160006101000a81548160ff02191690836003811115612efb577f4e487b7100000000000000000000000000000000000000000000000000000000600052602160045260246000fd5b021790555081604051612f0e9190613fa0565b60405180910390207f62053ec7b590a1785a5832f731771c8a67d47e1c16b9407b5bc1903ff9b7c525604051612f4390614493565b60405180910390a25050565b600185604051612f5f9190613fa0565b90815260200160405180910390206040518060a001604052808673ffffffffffffffffffffffffffffffffffffffff1681526020018573ffffffffffffffffffffffffffffffffffffffff16815260200184815260200142815260200183815250908060018154018082558091505060019003906000526020600020906005020160009091909190915060008201518160000160006101000a81548173ffffffffffffffffffffffffffffffffffffffff021916908373ffffffffffffffffffffffffffffffffffffffff16021790555060208201518160010160006101000a81548173ffffffffffffffffffffffffffffffffffffffff021916908373ffffffffffffffffffffffffffffffffffffffff160217905550604082015181600201556060820151816003015560808201518160040190805190602001906130a79291906130b1565b5050505050505050565b8280546130bd90614749565b90600052602060002090601f0160209004810192826130df5760008555613126565b82601f106130f857805160ff1916838001178555613126565b82800160010185558215613126579182015b8281111561312557825182559160200191906001019061310a565b5b50905061313391906131d8565b5090565b6040518060e001604052806060815260200160608152602001600073ffffffffffffffffffffffffffffffffffffffff168152602001600073ffffffffffffffffffffffffffffffffffffffff1681526020016000815260200160008152602001600060038111156131d2577f4e487b7100000000000000000000000000000000000000000000000000000000600052602160045260246000fd5b81525090565b5b808211156131f15760008160009055506001016131d9565b5090565b6000613208613203846145a6565b614575565b90508281526020810184848401111561322057600080fd5b61322b848285614707565b509392505050565b6000813590506132428161482d565b92915050565b60008135905061325781614844565b92915050565b600082601f83011261326e57600080fd5b813561327e8482602086016131f5565b91505092915050565b6000813590506132968161485b565b92915050565b6000602082840312156132ae57600080fd5b600082013567ffffffffffffffff8111156132c857600080fd5b6132d48482850161325d565b91505092915050565b600080604083850312156132f057600080fd5b600083013567ffffffffffffffff81111561330a57600080fd5b6133168582860161325d565b925050602061332785828601613248565b9150509250929050565b60008060008060008060c0878903121561334a57600080fd5b600087013567ffffffffffffffff81111561336457600080fd5b61337089828a0161325d565b965050602087013567ffffffffffffffff81111561338d57600080fd5b61339989828a0161325d565b95505060406133aa89828a01613233565b94505060606133bb89828a01613233565b93505060806133cc89828a01613287565b92505060a06133dd89828a01613287565b9150509295509295509295565b600080604083850312156133fd57600080fd5b600083013567ffffffffffffffff81111561341757600080fd5b6134238582860161325d565b925050602061343485828601613287565b9150509250929050565b600061344a8383613f0c565b905092915050565b61345b816146bf565b82525050565b61346a81614664565b82525050565b61347981614664565b82525050565b61348881614652565b82525050565b61349781614652565b82525050565b60006134a8826145e6565b6134b28185614609565b9350836020820285016134c4856145d6565b8060005b8581101561350057848403895281516134e1858261343e565b94506134ec836145fc565b925060208a019950506001810190506134c8565b50829750879550505050505092915050565b61351b816146d1565b82525050565b61352a816146d1565b82525050565b600061353b826145f1565b6135458185614625565b9350613555818560208601614716565b61355e81614808565b840191505092915050565b6000613574826145f1565b61357e8185614636565b935061358e818560208601614716565b61359781614808565b840191505092915050565b60006135ad826145f1565b6135b78185614647565b93506135c7818560208601614716565b80840191505092915050565b60006135e0601e83614636565b91507f4465706f73697420726566756e64207472616e73666572206661696c656400006000830152602082019050919050565b6000613620601d83614636565b91507f436f6e74726163742062616c616e636520696e73756666696369656e740000006000830152602082019050919050565b6000613660600f83614636565b91507f496e76616c6964206164647265737300000000000000000000000000000000006000830152602082019050919050565b60006136a0602683614636565b91507f4f6e6c7920746865206f776e65722063616e20706572666f726d20746869732060008301527f616374696f6e00000000000000000000000000000000000000000000000000006020830152604082019050919050565b6000613706601783614636565b91507f52656e74616c20706572696f64206e6f742076616c69640000000000000000006000830152602082019050919050565b6000613746601583614636565b91507f496e636f72726563742072656e7420616d6f756e7400000000000000000000006000830152602082019050919050565b6000613786601c83614636565b91507f52656e74207061796d656e74207472616e73666572206661696c6564000000006000830152602082019050919050565b60006137c6603083614636565b91507f436f6e74726163742062616c616e636520696e73756666696369656e7420666f60008301527f72206465706f73697420726566756e64000000000000000000000000000000006020830152604082019050919050565b600061382c601d83614636565b91507f496e636f72726563742065787472612063686172676520616d6f756e740000006000830152602082019050919050565b600061386c602783614636565b91507f4f6e6c79207468652072656e7465722063616e20706572666f726d207468697360008301527f20616374696f6e000000000000000000000000000000000000000000000000006020830152604082019050919050565b60006138d2602083614636565b91507f4465706f736974207472616e7366657220746f206f776e6572206661696c65646000830152602082019050919050565b6000613912603b83614636565b91507f4f6e6c792074686520636f6e7472616374206f776e6572206f722072656e746560008301527f722063616e207669657720746865207472616e73616374696f6e7300000000006020830152604082019050919050565b6000613978601d83614636565b91507f496e636f727265637420636f6d70656e736174696f6e20616d6f756e740000006000830152602082019050919050565b60006139b8602f83614636565b91507f4f6e6c792074686520636f6e7472616374206f776e65722063616e206372656160008301527f74652074686520636f6e747261637400000000000000000000000000000000006020830152604082019050919050565b6000613a1e601c83614636565b91507f457874726120636861726765207472616e73666572206661696c6564000000006000830152602082019050919050565b6000613a5e603f83614636565b91507f4f6e6c792074686520636f6e7472616374206f776e6572206f722072656e746560008301527f722063616e20766965772074686520636f6e74726163742064657461696c73006020830152604082019050919050565b6000613ac4600c83614636565b91507f52656e74205061796d656e7400000000000000000000000000000000000000006000830152602082019050919050565b6000613b04601e83614636565b91507f496e73756666696369656e742062616c616e6365206f662072656e74657200006000830152602082019050919050565b6000613b44601883614636565b91507f496e636f7272656374206465706f73697420616d6f756e7400000000000000006000830152602082019050919050565b6000613b8460008361461a565b9150600082019050919050565b6000613b9e603183614636565b91507f436f6e74726163742062616c616e636520696e73756666696369656e7420666f60008301527f72206465706f73697420666f72666569740000000000000000000000000000006020830152604082019050919050565b6000613c04601c83614636565b91507f436f6d70656e736174696f6e207472616e73666572206661696c6564000000006000830152602082019050919050565b6000613c44600783614636565b91507f4465706f736974000000000000000000000000000000000000000000000000006000830152602082019050919050565b6000613c84602b83614636565b91507f436f6e7472616374206973206e6f7420696e20612076616c696420737461746560008301527f20666f7220656e64696e670000000000000000000000000000000000000000006020830152604082019050919050565b6000613cea602d83614636565b91507f4f776e657227732062616c616e636520696e73756666696369656e7420666f7260008301527f20636f6d70656e736174696f6e000000000000000000000000000000000000006020830152604082019050919050565b6000613d50601783614636565b91507f436f6e7472616374206d757374206265206163746976650000000000000000006000830152602082019050919050565b6000613d90600b83614636565b91507f4e6f6e2d7061796d656e740000000000000000000000000000000000000000006000830152602082019050919050565b6000613dd0602883614636565b91507f436f6e747261637420737461747573206973206e6f742076616c696420666f7260008301527f206465706f7369740000000000000000000000000000000000000000000000006020830152604082019050919050565b6000613e36601783614636565b91507f4465706f736974207472616e73666572206661696c65640000000000000000006000830152602082019050919050565b600060e0830160008301518482036000860152613e868282613530565b91505060208301518482036020860152613ea08282613530565b9150506040830151613eb56040860182613461565b506060830151613ec86060860182613461565b506080830151613edb6080860182613f82565b5060a0830151613eee60a0860182613f82565b5060c0830151613f0160c0860182613512565b508091505092915050565b600060a083016000830151613f24600086018261347f565b506020830151613f37602086018261347f565b506040830151613f4a6040860182613f82565b506060830151613f5d6060860182613f82565b5060808301518482036080860152613f758282613530565b9150508091505092915050565b613f8b816146b5565b82525050565b613f9a816146b5565b82525050565b6000613fac82846135a2565b915081905092915050565b6000613fc282613b77565b9150819050919050565b600060a082019050613fe1600083018761348e565b613fee6020830186613452565b613ffb6040830185613f91565b6140086060830184613f91565b818103608083015261401981613ab7565b905095945050505050565b600060a082019050614039600083018761348e565b6140466020830186613452565b6140536040830185613f91565b6140606060830184613f91565b818103608083015261407181613c37565b905095945050505050565b600060a082019050614091600083018861348e565b61409e602083018761348e565b6140ab6040830186613f91565b6140b86060830185613f91565b81810360808301526140ca8184613569565b90509695505050505050565b600060208201905081810360008301526140f0818461349d565b905092915050565b600060e0820190508181036000830152614112818a613569565b905081810360208301526141268189613569565b90506141356040830188613470565b6141426060830187613470565b61414f6080830186613f91565b61415c60a0830185613f91565b61416960c0830184613521565b98975050505050505050565b6000606082019050818103600083015261418f8186613569565b905061419e6020830185613f91565b6141ab6040830184613f91565b949350505050565b600060208201905081810360008301526141cc816135d3565b9050919050565b600060208201905081810360008301526141ec81613613565b9050919050565b6000602082019050818103600083015261420c81613653565b9050919050565b6000602082019050818103600083015261422c81613693565b9050919050565b6000602082019050818103600083015261424c816136f9565b9050919050565b6000602082019050818103600083015261426c81613739565b9050919050565b6000602082019050818103600083015261428c81613779565b9050919050565b600060208201905081810360008301526142ac816137b9565b9050919050565b600060208201905081810360008301526142cc8161381f565b9050919050565b600060208201905081810360008301526142ec8161385f565b9050919050565b6000602082019050818103600083015261430c816138c5565b9050919050565b6000602082019050818103600083015261432c81613905565b9050919050565b6000602082019050818103600083015261434c8161396b565b9050919050565b6000602082019050818103600083015261436c816139ab565b9050919050565b6000602082019050818103600083015261438c81613a11565b9050919050565b600060208201905081810360008301526143ac81613a51565b9050919050565b600060208201905081810360008301526143cc81613af7565b9050919050565b600060208201905081810360008301526143ec81613b37565b9050919050565b6000602082019050818103600083015261440c81613b91565b9050919050565b6000602082019050818103600083015261442c81613bf7565b9050919050565b6000602082019050818103600083015261444c81613c77565b9050919050565b6000602082019050818103600083015261446c81613cdd565b9050919050565b6000602082019050818103600083015261448c81613d43565b9050919050565b600060208201905081810360008301526144ac81613d83565b9050919050565b600060208201905081810360008301526144cc81613dc3565b9050919050565b600060208201905081810360008301526144ec81613e29565b9050919050565b6000602082019050818103600083015261450d8184613e69565b905092915050565b600060408201905061452a6000830185613f91565b6145376020830184613f91565b9392505050565b60006060820190506145536000830186613f91565b6145606020830185613f91565b61456d6040830184613f91565b949350505050565b6000604051905081810181811067ffffffffffffffff8211171561459c5761459b6147d9565b5b8060405250919050565b600067ffffffffffffffff8211156145c1576145c06147d9565b5b601f19601f8301169050602081019050919050565b6000819050602082019050919050565b600081519050919050565b600081519050919050565b6000602082019050919050565b600082825260208201905092915050565b600081905092915050565b600082825260208201905092915050565b600082825260208201905092915050565b600081905092915050565b600061465d82614695565b9050919050565b600061466f82614695565b9050919050565b60008115159050919050565b600081905061469082614819565b919050565b600073ffffffffffffffffffffffffffffffffffffffff82169050919050565b6000819050919050565b60006146ca826146e3565b9050919050565b60006146dc82614682565b9050919050565b60006146ee826146f5565b9050919050565b600061470082614695565b9050919050565b82818337600083830152505050565b60005b83811015614734578082015181840152602081019050614719565b83811115614743576000848401525b50505050565b6000600282049050600182168061476157607f821691505b60208210811415614775576147746147aa565b5b50919050565b7f4e487b7100000000000000000000000000000000000000000000000000000000600052602160045260246000fd5b7f4e487b7100000000000000000000000000000000000000000000000000000000600052602260045260246000fd5b7f4e487b7100000000000000000000000000000000000000000000000000000000600052604160045260246000fd5b6000601f19601f8301169050919050565b6004811061482a5761482961477b565b5b50565b61483681614664565b811461484157600080fd5b50565b61484d81614676565b811461485857600080fd5b50565b614864816146b5565b811461486f57600080fd5b5056fea2646970667358221220bf25d96cba009b2509e5a8f4f9b7c392896caf8cc49d88aae15d504fa04bc04464736f6c63430008000033",
  "immutableReferences": {},
  "source": "// SPDX-License-Identifier: MIT\r\npragma solidity ^0.8.0;\r\n\r\ncontract RentalContract {\r\n    enum RentalStatus { NotCreated, Deposited, Ongoing, Ended }\r\n\r\n    struct Contract {\r\n        string contractID;  \r\n        string propertyID;  // Thm propertyID kiu chui\r\n        address payable owner;   \r\n        address payable renter;  \r\n        uint depositAmount;\r\n        uint monthlyRent;\r\n        RentalStatus status;\r\n    }\r\n\r\n    struct Transaction {\r\n        address from;\r\n        address to;\r\n        uint amount;\r\n        uint timestamp;\r\n        string transactionType; \r\n    }\r\n\r\n    mapping(string => Contract) public contracts;  // Thay contractID kiu chui\r\n    mapping(string => Transaction[]) public contractTransactions;\r\n\r\n    event ContractCreated(string indexed contractID, string propertyID, address indexed owner, address indexed renter, uint depositAmount, uint monthlyRent);\r\n    event TransactionRecorded(string indexed contractID, address from, address to, uint amount, uint timestamp, string transactionType);\r\n    event ContractCancelledByRenter(string indexed contractID, address indexed renter, uint depositLoss, uint extraCharge, uint timestamp);\r\n    event ContractCancelledByOwner(string indexed contractID, address indexed owner, uint compensation, uint timestamp);\r\n    event ContractTerminated(string indexed contractID, string reason);\r\n    event ContractEnded(string indexed contractID, address indexed renter, uint depositRefundAmount, uint timestamp);\r\n\r\n    modifier onlyOwner(string memory _contractID) {\r\n        require(msg.sender == contracts[_contractID].owner, \"Only the owner can perform this action\");\r\n        _;\r\n    }\r\n\r\n    modifier onlyRenter(string memory _contractID) {\r\n        require(msg.sender == contracts[_contractID].renter, \"Only the renter can perform this action\");\r\n        _;\r\n    }\r\n\r\n    modifier onlyContractOwner(address _owner) {\r\n        require(msg.sender == _owner, \"Only the contract owner can create the contract\");\r\n        _;\r\n    }\r\n\r\n    function createContract(\r\n        string memory _contractID,\r\n        string memory _propertyID,\r\n        address payable _owner,\r\n        address payable _renter,\r\n        uint _depositAmount,\r\n        uint _monthlyRent\r\n    ) public onlyContractOwner(_owner) {\r\n        require(_owner != address(0) && _renter != address(0), \"Invalid address\");\r\n\r\n        contracts[_contractID] = Contract({\r\n            contractID: _contractID,\r\n            propertyID: _propertyID,\r\n            owner: _owner,\r\n            renter: _renter,\r\n            depositAmount: _depositAmount,\r\n            monthlyRent: _monthlyRent,\r\n            status: RentalStatus.NotCreated\r\n        });\r\n\r\n        emit ContractCreated(_contractID, _propertyID, _owner, _renter, _depositAmount, _monthlyRent);\r\n    }\r\n\r\n    function deposit(string memory _contractID) public payable onlyRenter(_contractID) {\r\n        Contract storage contractInfo = contracts[_contractID];\r\n\r\n        require(contractInfo.status == RentalStatus.NotCreated, \"Contract status is not valid for deposit\");\r\n        require(msg.value == contractInfo.depositAmount, \"Incorrect deposit amount\");\r\n        require(address(msg.sender).balance >= msg.value, \"Insufficient balance of renter\");\r\n\r\n        contractInfo.status = RentalStatus.Deposited;\r\n\r\n        _recordTransaction(_contractID, msg.sender, contractInfo.owner, msg.value, \"Deposit\");\r\n\r\n        emit TransactionRecorded(_contractID, msg.sender, contractInfo.owner, msg.value, block.timestamp, \"Deposit\");\r\n    }\r\n\r\n    function payRent(string memory _contractID) public payable onlyRenter(_contractID) {\r\n        Contract storage contractInfo = contracts[_contractID];\r\n\r\n        require(contractInfo.status == RentalStatus.Deposited || contractInfo.status == RentalStatus.Ongoing, \"Rental period not valid\");\r\n        require(msg.value == contractInfo.monthlyRent, \"Incorrect rent amount\");\r\n        require(address(msg.sender).balance >= msg.value, \"Insufficient balance of renter\");\r\n\r\n        if (contractInfo.status == RentalStatus.Deposited) {\r\n            contractInfo.status = RentalStatus.Ongoing;\r\n        }\r\n\r\n        (bool success, ) = contractInfo.owner.call{value: msg.value}(\"\");\r\n        require(success, \"Rent payment transfer failed\");\r\n\r\n        _recordTransaction(_contractID, msg.sender, contractInfo.owner, msg.value, \"Rent Payment\");\r\n\r\n        emit TransactionRecorded(_contractID, msg.sender, contractInfo.owner, msg.value, block.timestamp, \"Rent Payment\");\r\n    }\r\n\r\n    function endContract(string memory _contractID) public {\r\n        Contract storage contractInfo = contracts[_contractID];\r\n\r\n        if (contractInfo.status == RentalStatus.NotCreated) {\r\n            contractInfo.status = RentalStatus.Ended;\r\n        } else if (contractInfo.status == RentalStatus.Deposited || contractInfo.status == RentalStatus.Ongoing) {\r\n            if (contractInfo.depositAmount > 0) {\r\n                require(address(this).balance >= contractInfo.depositAmount, \"Contract balance insufficient for deposit refund\");\r\n\r\n                (bool success, ) = contractInfo.renter.call{value: contractInfo.depositAmount}(\"\");\r\n                require(success, \"Deposit refund transfer failed\");\r\n\r\n                _recordTransaction(_contractID, contractInfo.owner, contractInfo.renter, contractInfo.depositAmount, \"Refund\");\r\n            }\r\n            contractInfo.status = RentalStatus.Ended;\r\n        } else {\r\n            revert(\"Contract is not in a valid state for ending\");\r\n        }\r\n        emit ContractEnded(_contractID, contractInfo.renter, contractInfo.depositAmount, block.timestamp);\r\n    }\r\n\r\n    function _recordTransaction(string memory _contractID, address _from, address _to, uint _amount, string memory _transactionType) internal {\r\n        contractTransactions[_contractID].push(Transaction({\r\n            from: _from,\r\n            to: _to,\r\n            amount: _amount,\r\n            timestamp: block.timestamp,\r\n            transactionType: _transactionType\r\n        }));\r\n    }\r\n\r\n    function getContractDetails(string memory _contractID) public view returns (Contract memory) {\r\n        Contract memory contractInfo = contracts[_contractID];\r\n        require(msg.sender == contractInfo.owner || msg.sender == contractInfo.renter, \"Only the contract owner or renter can view the contract details\");\r\n        return contractInfo;\r\n    }\r\n\r\n    function getContractTransactions(string memory _contractID) public view returns (Transaction[] memory) {\r\n        Contract memory contractInfo = contracts[_contractID];\r\n        require(msg.sender == contractInfo.owner || msg.sender == contractInfo.renter, \"Only the contract owner or renter can view the transactions\");\r\n        return contractTransactions[_contractID];\r\n    }\r\n\r\n    function terminateForNonPayment(string memory _contractId) public {\r\n        Contract storage contractInfo = contracts[_contractId];\r\n\r\n        // Ch cho php khi trng thi hp ng l Deposited hoc Ongoing\r\n        require(contractInfo.status == RentalStatus.Deposited || contractInfo.status == RentalStatus.Ongoing, \"Contract must be active\");\r\n\r\n        // X l logic mt tin cc nu khng thanh ton ng hn\r\n        if (contractInfo.depositAmount > 0) {\r\n            require(address(this).balance >= contractInfo.depositAmount, \"Contract balance insufficient for deposit forfeit\");\r\n\r\n            // Chuyn tin cc cho ch nh\r\n            (bool success, ) = contractInfo.owner.call{value: contractInfo.depositAmount}(\"\");\r\n            require(success, \"Deposit transfer to owner failed\");\r\n\r\n            // Lu giao dch\r\n            _recordTransaction(_contractId, address(this), contractInfo.owner, contractInfo.depositAmount, \"Deposit Forfeited\");\r\n        }\r\n\r\n        // nh du hp ng  kt thc\r\n        contractInfo.status = RentalStatus.Ended;\r\n        emit ContractTerminated(_contractId, \"Non-payment\");\r\n\r\n    }\r\n\r\n    function cancelContractByRenter(string memory _contractId, bool notifyBefore30Days) public payable onlyRenter(_contractId) {\r\n        Contract storage contractInfo = contracts[_contractId];\r\n\r\n        uint depositLoss = 0;\r\n        uint extraCharge = 0;\r\n\r\n        if (!notifyBefore30Days) {\r\n            // Tnh ph b sung v chuyn tin cc nu khng thng bo trc 30 ngy\r\n            extraCharge = contractInfo.monthlyRent;\r\n            require(msg.value == extraCharge, \"Incorrect extra charge amount\");\r\n            require(address(msg.sender).balance >= extraCharge, \"Insufficient balance of renter\");\r\n\r\n            (bool successExtraCharge, ) = contractInfo.owner.call{value: extraCharge}(\"\");\r\n            require(successExtraCharge, \"Extra charge transfer failed\");\r\n\r\n            _recordTransaction(_contractId, msg.sender, contractInfo.owner, extraCharge, \"Extra Charge\");\r\n\r\n            depositLoss = contractInfo.depositAmount;\r\n            require(address(this).balance >= depositLoss, \"Contract balance insufficient\");\r\n\r\n            (bool successDeposit, ) = contractInfo.owner.call{value: depositLoss}(\"\");\r\n            require(successDeposit, \"Deposit transfer failed\");\r\n\r\n            _recordTransaction(_contractId, msg.sender, contractInfo.owner, depositLoss, \"Deposit Loss\");\r\n        } else {\r\n            // Hon tr tin cc nu thng bo trc 30 ngy\r\n            require(address(this).balance >= contractInfo.depositAmount, \"Contract balance insufficient\");\r\n\r\n            (bool successRefund, ) = contractInfo.renter.call{value: contractInfo.depositAmount}(\"\");\r\n            require(successRefund, \"Deposit refund transfer failed\");\r\n\r\n            _recordTransaction(_contractId, contractInfo.owner, msg.sender, contractInfo.depositAmount, \"Deposit Refund\");\r\n        }\r\n\r\n        contractInfo.status = RentalStatus.Ended;\r\n        emit ContractCancelledByRenter(_contractId, msg.sender, depositLoss, extraCharge, block.timestamp);\r\n    }\r\n\r\n    function cancelContractByOwner(string memory _contractId, bool notifyBefore30Days) public payable onlyOwner(_contractId) {\r\n        Contract storage contractInfo = contracts[_contractId];\r\n\r\n        uint compensation = 0;\r\n\r\n        if (!notifyBefore30Days) {\r\n            // Tnh bi thng v chuyn cho ngi thu nu khng thng bo trc 30 ngy\r\n            compensation = contractInfo.monthlyRent;\r\n            require(msg.value == compensation, \"Incorrect compensation amount\");\r\n            require(address(msg.sender).balance >= compensation, \"Owner's balance insufficient for compensation\");\r\n\r\n            (bool successCompensation, ) = contractInfo.renter.call{value: compensation}(\"\");\r\n            require(successCompensation, \"Compensation transfer failed\");\r\n\r\n            _recordTransaction(_contractId, msg.sender, contractInfo.renter, compensation, \"Compensation\");\r\n        }\r\n\r\n        if (contractInfo.status == RentalStatus.Deposited || contractInfo.status == RentalStatus.Ongoing) {\r\n            // Hon tr tin cc cho ngi thu nu hp ng vn cn hiu lc\r\n            require(address(this).balance >= contractInfo.depositAmount, \"Contract balance insufficient for deposit refund\");\r\n\r\n            (bool successDeposit, ) = contractInfo.renter.call{value: contractInfo.depositAmount}(\"\");\r\n            require(successDeposit, \"Deposit refund transfer failed\");\r\n\r\n            _recordTransaction(_contractId, msg.sender, contractInfo.renter, contractInfo.depositAmount, \"Deposit Refund\");\r\n        }\r\n\r\n        contractInfo.status = RentalStatus.Ended;\r\n        emit ContractCancelledByOwner(_contractId, msg.sender, compensation, block.timestamp);\r\n    }\r\n\r\n\r\n}\r\n",
  "sourcePath": "C:\\kltn-backend\\contract-service\\contractRental\\contracts\\RentalContract.sol",
  "compiler": {
    "name": "solc",
    "version": "0.8.0+commit.c7dfd78e.Emscripten.clang"
  },
  "schemaVersion": "3.4.16",
  "updatedAt": "2024-09-17T07:18:30.120Z",
  "networkType": "ethereum",
  "devdoc": {
    "kind": "dev",
    "methods": {},
    "version": 1
  },
  "userdoc": {
    "kind": "user",
    "methods": {},
    "version": 1
  }
}