{
  "contractName": "RentalContract",
  "abi": [
    {
      "anonymous": false,
      "inputs": [
        {
          "indexed": false,
          "internalType": "address",
          "name": "owner",
          "type": "address"
        },
        {
          "indexed": false,
          "internalType": "uint256",
          "name": "compensation",
          "type": "uint256"
        },
        {
          "indexed": false,
          "internalType": "uint256",
          "name": "contractId",
          "type": "uint256"
        },
        {
          "indexed": false,
          "internalType": "uint256",
          "name": "timestamp",
          "type": "uint256"
        }
      ],
      "name": "ContractCancelledByOwner",
      "type": "event"
    },
    {
      "anonymous": false,
      "inputs": [
        {
          "indexed": false,
          "internalType": "address",
          "name": "renter",
          "type": "address"
        },
        {
          "indexed": false,
          "internalType": "uint256",
          "name": "depositLoss",
          "type": "uint256"
        },
        {
          "indexed": false,
          "internalType": "uint256",
          "name": "extraCharge",
          "type": "uint256"
        },
        {
          "indexed": false,
          "internalType": "uint256",
          "name": "contractId",
          "type": "uint256"
        },
        {
          "indexed": false,
          "internalType": "uint256",
          "name": "timestamp",
          "type": "uint256"
        }
      ],
      "name": "ContractCancelledByRenter",
      "type": "event"
    },
    {
      "anonymous": false,
      "inputs": [
        {
          "indexed": true,
          "internalType": "uint256",
          "name": "contractId",
          "type": "uint256"
        },
        {
          "indexed": true,
          "internalType": "address",
          "name": "owner",
          "type": "address"
        },
        {
          "indexed": true,
          "internalType": "address",
          "name": "renter",
          "type": "address"
        },
        {
          "indexed": false,
          "internalType": "uint256",
          "name": "startDate",
          "type": "uint256"
        },
        {
          "indexed": false,
          "internalType": "uint256",
          "name": "endDate",
          "type": "uint256"
        },
        {
          "indexed": false,
          "internalType": "uint256",
          "name": "depositAmount",
          "type": "uint256"
        },
        {
          "indexed": false,
          "internalType": "uint256",
          "name": "monthlyRent",
          "type": "uint256"
        }
      ],
      "name": "ContractCreated",
      "type": "event"
    },
    {
      "anonymous": false,
      "inputs": [
        {
          "indexed": true,
          "internalType": "uint256",
          "name": "contractId",
          "type": "uint256"
        },
        {
          "indexed": false,
          "internalType": "address",
          "name": "from",
          "type": "address"
        },
        {
          "indexed": false,
          "internalType": "address",
          "name": "to",
          "type": "address"
        },
        {
          "indexed": false,
          "internalType": "uint256",
          "name": "amount",
          "type": "uint256"
        },
        {
          "indexed": false,
          "internalType": "uint256",
          "name": "timestamp",
          "type": "uint256"
        },
        {
          "indexed": false,
          "internalType": "string",
          "name": "transactionType",
          "type": "string"
        }
      ],
      "name": "TransactionRecorded",
      "type": "event"
    },
    {
      "inputs": [
        {
          "internalType": "uint256",
          "name": "",
          "type": "uint256"
        },
        {
          "internalType": "uint256",
          "name": "",
          "type": "uint256"
        }
      ],
      "name": "contractTransactions",
      "outputs": [
        {
          "internalType": "address",
          "name": "from",
          "type": "address"
        },
        {
          "internalType": "address",
          "name": "to",
          "type": "address"
        },
        {
          "internalType": "uint256",
          "name": "amount",
          "type": "uint256"
        },
        {
          "internalType": "uint256",
          "name": "timestamp",
          "type": "uint256"
        },
        {
          "internalType": "string",
          "name": "transactionType",
          "type": "string"
        }
      ],
      "stateMutability": "view",
      "type": "function",
      "constant": true
    },
    {
      "inputs": [
        {
          "internalType": "uint256",
          "name": "",
          "type": "uint256"
        }
      ],
      "name": "contracts",
      "outputs": [
        {
          "internalType": "address payable",
          "name": "owner",
          "type": "address"
        },
        {
          "internalType": "address payable",
          "name": "renter",
          "type": "address"
        },
        {
          "internalType": "uint256",
          "name": "startDate",
          "type": "uint256"
        },
        {
          "internalType": "uint256",
          "name": "endDate",
          "type": "uint256"
        },
        {
          "internalType": "uint256",
          "name": "depositAmount",
          "type": "uint256"
        },
        {
          "internalType": "uint256",
          "name": "monthlyRent",
          "type": "uint256"
        },
        {
          "internalType": "enum RentalContract.RentalStatus",
          "name": "status",
          "type": "uint8"
        }
      ],
      "stateMutability": "view",
      "type": "function",
      "constant": true
    },
    {
      "inputs": [],
      "name": "nextContractId",
      "outputs": [
        {
          "internalType": "uint256",
          "name": "",
          "type": "uint256"
        }
      ],
      "stateMutability": "view",
      "type": "function",
      "constant": true
    },
    {
      "inputs": [
        {
          "internalType": "address payable",
          "name": "_owner",
          "type": "address"
        },
        {
          "internalType": "address payable",
          "name": "_renter",
          "type": "address"
        },
        {
          "internalType": "uint256",
          "name": "_startDate",
          "type": "uint256"
        },
        {
          "internalType": "uint256",
          "name": "_endDate",
          "type": "uint256"
        },
        {
          "internalType": "uint256",
          "name": "_depositAmount",
          "type": "uint256"
        },
        {
          "internalType": "uint256",
          "name": "_monthlyRent",
          "type": "uint256"
        }
      ],
      "name": "createContract",
      "outputs": [],
      "stateMutability": "nonpayable",
      "type": "function"
    },
    {
      "inputs": [
        {
          "internalType": "uint256",
          "name": "_contractId",
          "type": "uint256"
        }
      ],
      "name": "deposit",
      "outputs": [],
      "stateMutability": "payable",
      "type": "function",
      "payable": true
    },
    {
      "inputs": [
        {
          "internalType": "uint256",
          "name": "_contractId",
          "type": "uint256"
        }
      ],
      "name": "payRent",
      "outputs": [],
      "stateMutability": "payable",
      "type": "function",
      "payable": true
    },
    {
      "inputs": [
        {
          "internalType": "uint256",
          "name": "_contractId",
          "type": "uint256"
        }
      ],
      "name": "endContract",
      "outputs": [],
      "stateMutability": "nonpayable",
      "type": "function"
    },
    {
      "inputs": [
        {
          "internalType": "uint256",
          "name": "_contractId",
          "type": "uint256"
        },
        {
          "internalType": "bool",
          "name": "notifyBefore30Days",
          "type": "bool"
        }
      ],
      "name": "cancelContractByRenter",
      "outputs": [],
      "stateMutability": "payable",
      "type": "function",
      "payable": true
    },
    {
      "inputs": [
        {
          "internalType": "uint256",
          "name": "_contractId",
          "type": "uint256"
        },
        {
          "internalType": "bool",
          "name": "notifyBefore30Days",
          "type": "bool"
        }
      ],
      "name": "cancelContractByOwner",
      "outputs": [],
      "stateMutability": "payable",
      "type": "function",
      "payable": true
    },
    {
      "inputs": [
        {
          "internalType": "uint256",
          "name": "_contractId",
          "type": "uint256"
        }
      ],
      "name": "terminateForNonPayment",
      "outputs": [],
      "stateMutability": "nonpayable",
      "type": "function"
    },
    {
      "inputs": [
        {
          "internalType": "uint256",
          "name": "_contractId",
          "type": "uint256"
        }
      ],
      "name": "getContractDetails",
      "outputs": [
        {
          "components": [
            {
              "internalType": "address payable",
              "name": "owner",
              "type": "address"
            },
            {
              "internalType": "address payable",
              "name": "renter",
              "type": "address"
            },
            {
              "internalType": "uint256",
              "name": "startDate",
              "type": "uint256"
            },
            {
              "internalType": "uint256",
              "name": "endDate",
              "type": "uint256"
            },
            {
              "internalType": "uint256",
              "name": "depositAmount",
              "type": "uint256"
            },
            {
              "internalType": "uint256",
              "name": "monthlyRent",
              "type": "uint256"
            },
            {
              "internalType": "enum RentalContract.RentalStatus",
              "name": "status",
              "type": "uint8"
            }
          ],
          "internalType": "struct RentalContract.Contract",
          "name": "",
          "type": "tuple"
        }
      ],
      "stateMutability": "view",
      "type": "function",
      "constant": true
    },
    {
      "inputs": [
        {
          "internalType": "uint256",
          "name": "_contractId",
          "type": "uint256"
        }
      ],
      "name": "getContractTransactions",
      "outputs": [
        {
          "components": [
            {
              "internalType": "address",
              "name": "from",
              "type": "address"
            },
            {
              "internalType": "address",
              "name": "to",
              "type": "address"
            },
            {
              "internalType": "uint256",
              "name": "amount",
              "type": "uint256"
            },
            {
              "internalType": "uint256",
              "name": "timestamp",
              "type": "uint256"
            },
            {
              "internalType": "string",
              "name": "transactionType",
              "type": "string"
            }
          ],
          "internalType": "struct RentalContract.Transaction[]",
          "name": "",
          "type": "tuple[]"
        }
      ],
      "stateMutability": "view",
      "type": "function",
      "constant": true
    }
  ],
  "bytecode": "0x6080604052600160025534801561001557600080fd5b5061464b806100256000396000f3fe6080604052600436106100a75760003560e01c806383653d131161006457806383653d13146101ef5780639a262c6a146102185780639b4bc53014610234578063b6b55f251461025f578063c85a6b3d1461027b578063d9e8843f146102a4576100a7565b80633257ede5146100ac578063474da79a146100e95780634990268a1461012c5780634d6d6a9c146101485780636b0500ed146101855780636d3a973c146101c6575b600080fd5b3480156100b857600080fd5b506100d360048036038101906100ce91906130a6565b6102c0565b6040516100e09190613f6d565b60405180910390f35b3480156100f557600080fd5b50610110600480360381019061010b91906130a6565b6106ad565b6040516101239796959493929190613d5c565b60405180910390f35b610146600480360381019061014191906130cf565b61073c565b005b34801561015457600080fd5b5061016f600480360381019061016a91906130a6565b610dc5565b60405161017c91906142cf565b60405180910390f35b34801561019157600080fd5b506101ac60048036038101906101a7919061310b565b610ffe565b6040516101bd959493929190613f13565b60405180910390f35b3480156101d257600080fd5b506101ed60048036038101906101e8919061301d565b611119565b005b3480156101fb57600080fd5b50610216600480360381019061021191906130a6565b6114bd565b005b610232600480360381019061022d91906130cf565b6118b3565b005b34801561024057600080fd5b50610249611ff1565b60405161025691906142ea565b60405180910390f35b610279600480360381019061027491906130a6565b611ff7565b005b34801561028757600080fd5b506102a2600480360381019061029d91906130a6565b612335565b005b6102be60048036038101906102b991906130a6565b61281d565b005b606060008060008481526020019081526020016000206040518060e00160405290816000820160009054906101000a900473ffffffffffffffffffffffffffffffffffffffff1673ffffffffffffffffffffffffffffffffffffffff1673ffffffffffffffffffffffffffffffffffffffff1681526020016001820160009054906101000a900473ffffffffffffffffffffffffffffffffffffffff1673ffffffffffffffffffffffffffffffffffffffff1673ffffffffffffffffffffffffffffffffffffffff168152602001600282015481526020016003820154815260200160048201548152602001600582015481526020016006820160009054906101000a900460ff166003811115610400577f4e487b7100000000000000000000000000000000000000000000000000000000600052602160045260246000fd5b6003811115610438577f4e487b7100000000000000000000000000000000000000000000000000000000600052602160045260246000fd5b815250509050806000015173ffffffffffffffffffffffffffffffffffffffff163373ffffffffffffffffffffffffffffffffffffffff1614806104ab5750806020015173ffffffffffffffffffffffffffffffffffffffff163373ffffffffffffffffffffffffffffffffffffffff16145b6104ea576040517f08c379a00000000000000000000000000000000000000000000000000000000081526004016104e19061410f565b60405180910390fd5b60016000848152602001908152602001600020805480602002602001604051908101604052809291908181526020016000905b828210156106a157838290600052602060002090600502016040518060a00160405290816000820160009054906101000a900473ffffffffffffffffffffffffffffffffffffffff1673ffffffffffffffffffffffffffffffffffffffff1673ffffffffffffffffffffffffffffffffffffffff1681526020016001820160009054906101000a900473ffffffffffffffffffffffffffffffffffffffff1673ffffffffffffffffffffffffffffffffffffffff1673ffffffffffffffffffffffffffffffffffffffff1681526020016002820154815260200160038201548152602001600482018054610610906144a3565b80601f016020809104026020016040519081016040528092919081815260200182805461063c906144a3565b80156106895780601f1061065e57610100808354040283529160200191610689565b820191906000526020600020905b81548152906001019060200180831161066c57829003601f168201915b5050505050815250508152602001906001019061051d565b50505050915050919050565b60006020528060005260406000206000915090508060000160009054906101000a900473ffffffffffffffffffffffffffffffffffffffff16908060010160009054906101000a900473ffffffffffffffffffffffffffffffffffffffff16908060020154908060030154908060040154908060050154908060060160009054906101000a900460ff16905087565b8160008082815260200190815260200160002060000160009054906101000a900473ffffffffffffffffffffffffffffffffffffffff1673ffffffffffffffffffffffffffffffffffffffff163373ffffffffffffffffffffffffffffffffffffffff16146107e0576040517f08c379a00000000000000000000000000000000000000000000000000000000081526004016107d790613fef565b60405180910390fd5b8260038081111561081a577f4e487b7100000000000000000000000000000000000000000000000000000000600052602160045260246000fd5b60008083815260200190815260200160002060060160009054906101000a900460ff166003811115610875577f4e487b7100000000000000000000000000000000000000000000000000000000600052602160045260246000fd5b14156108b6576040517f08c379a00000000000000000000000000000000000000000000000000000000081526004016108ad906142af565b60405180910390fd5b60008060008681526020019081526020016000209050600084610a6c5781600501549050803373ffffffffffffffffffffffffffffffffffffffff16311015610934576040517f08c379a000000000000000000000000000000000000000000000000000000000815260040161092b9061422f565b60405180910390fd5b60008260010160009054906101000a900473ffffffffffffffffffffffffffffffffffffffff1673ffffffffffffffffffffffffffffffffffffffff168260405161097e90613cef565b60006040518083038185875af1925050503d80600081146109bb576040519150601f19603f3d011682016040523d82523d6000602084013e6109c0565b606091505b5050905080610a04576040517f08c379a00000000000000000000000000000000000000000000000000000000081526004016109fb906141ef565b60405180910390fd5b610a6a87338560010160009054906101000a900473ffffffffffffffffffffffffffffffffffffffff16856040518060400160405280600c81526020017f436f6d70656e736174696f6e0000000000000000000000000000000000000000815250612d43565b505b60016003811115610aa6577f4e487b7100000000000000000000000000000000000000000000000000000000600052602160045260246000fd5b8260060160009054906101000a900460ff166003811115610af0577f4e487b7100000000000000000000000000000000000000000000000000000000600052602160045260246000fd5b1480610b7d575060026003811115610b31577f4e487b7100000000000000000000000000000000000000000000000000000000600052602160045260246000fd5b8260060160009054906101000a900460ff166003811115610b7b577f4e487b7100000000000000000000000000000000000000000000000000000000600052602160045260246000fd5b145b15610d09578160040154471015610bc9576040517f08c379a0000000000000000000000000000000000000000000000000000000008152600401610bc09061408f565b60405180910390fd5b60008260010160009054906101000a900473ffffffffffffffffffffffffffffffffffffffff1673ffffffffffffffffffffffffffffffffffffffff168360040154604051610c1790613cef565b60006040518083038185875af1925050503d8060008114610c54576040519150601f19603f3d011682016040523d82523d6000602084013e610c59565b606091505b5050905080610c9d576040517f08c379a0000000000000000000000000000000000000000000000000000000008152600401610c9490613f8f565b60405180910390fd5b610d0787338560010160009054906101000a900473ffffffffffffffffffffffffffffffffffffffff1686600401546040518060400160405280600e81526020017f4465706f73697420526566756e64000000000000000000000000000000000000815250612d43565b505b60038260060160006101000a81548160ff02191690836003811115610d57577f4e487b7100000000000000000000000000000000000000000000000000000000600052602160045260246000fd5b02179055507f1dc21aa8807070e92e91089a649cab58fae1f758f3a76282193c35a25702836e8260000160009054906101000a900473ffffffffffffffffffffffffffffffffffffffff16828842604051610db59493929190613dcb565b60405180910390a1505050505050565b610dcd612e9a565b60008060008481526020019081526020016000206040518060e00160405290816000820160009054906101000a900473ffffffffffffffffffffffffffffffffffffffff1673ffffffffffffffffffffffffffffffffffffffff1673ffffffffffffffffffffffffffffffffffffffff1681526020016001820160009054906101000a900473ffffffffffffffffffffffffffffffffffffffff1673ffffffffffffffffffffffffffffffffffffffff1673ffffffffffffffffffffffffffffffffffffffff168152602001600282015481526020016003820154815260200160048201548152602001600582015481526020016006820160009054906101000a900460ff166003811115610f0b577f4e487b7100000000000000000000000000000000000000000000000000000000600052602160045260246000fd5b6003811115610f43577f4e487b7100000000000000000000000000000000000000000000000000000000600052602160045260246000fd5b815250509050806000015173ffffffffffffffffffffffffffffffffffffffff163373ffffffffffffffffffffffffffffffffffffffff161480610fb65750806020015173ffffffffffffffffffffffffffffffffffffffff163373ffffffffffffffffffffffffffffffffffffffff16145b610ff5576040517f08c379a0000000000000000000000000000000000000000000000000000000008152600401610fec9061416f565b60405180910390fd5b80915050919050565b6001602052816000526040600020818154811061101a57600080fd5b9060005260206000209060050201600091509150508060000160009054906101000a900473ffffffffffffffffffffffffffffffffffffffff16908060010160009054906101000a900473ffffffffffffffffffffffffffffffffffffffff1690806002015490806003015490806004018054611096906144a3565b80601f01602080910402602001604051908101604052809291908181526020018280546110c2906144a3565b801561110f5780601f106110e45761010080835404028352916020019161110f565b820191906000526020600020905b8154815290600101906020018083116110f257829003601f168201915b5050505050905085565b858073ffffffffffffffffffffffffffffffffffffffff163373ffffffffffffffffffffffffffffffffffffffff1614611188576040517f08c379a000000000000000000000000000000000000000000000000000000000815260040161117f9061412f565b60405180910390fd5b600073ffffffffffffffffffffffffffffffffffffffff168773ffffffffffffffffffffffffffffffffffffffff16141580156111f25750600073ffffffffffffffffffffffffffffffffffffffff168673ffffffffffffffffffffffffffffffffffffffff1614155b611231576040517f08c379a000000000000000000000000000000000000000000000000000000000815260040161122890613fcf565b60405180910390fd5b838510611273576040517f08c379a000000000000000000000000000000000000000000000000000000000815260040161126a9061402f565b60405180910390fd5b600060026000815480929190611288906144d5565b9190505590506040518060e001604052808973ffffffffffffffffffffffffffffffffffffffff1681526020018873ffffffffffffffffffffffffffffffffffffffff16815260200187815260200186815260200185815260200184815260200160006003811115611323577f4e487b7100000000000000000000000000000000000000000000000000000000600052602160045260246000fd5b81525060008083815260200190815260200160002060008201518160000160006101000a81548173ffffffffffffffffffffffffffffffffffffffff021916908373ffffffffffffffffffffffffffffffffffffffff16021790555060208201518160010160006101000a81548173ffffffffffffffffffffffffffffffffffffffff021916908373ffffffffffffffffffffffffffffffffffffffff16021790555060408201518160020155606082015181600301556080820151816004015560a0820151816005015560c08201518160060160006101000a81548160ff0219169083600381111561143f577f4e487b7100000000000000000000000000000000000000000000000000000000600052602160045260246000fd5b02179055509050508673ffffffffffffffffffffffffffffffffffffffff168873ffffffffffffffffffffffffffffffffffffffff16827fb54b8f26c8e97d2df79f478478998d33804e8f3091d4098e3b1de3d6e59f9740898989896040516114ab9493929190614305565b60405180910390a45050505050505050565b8060008082815260200190815260200160002060000160009054906101000a900473ffffffffffffffffffffffffffffffffffffffff1673ffffffffffffffffffffffffffffffffffffffff163373ffffffffffffffffffffffffffffffffffffffff1614611561576040517f08c379a000000000000000000000000000000000000000000000000000000000815260040161155890613fef565b60405180910390fd5b60008060008481526020019081526020016000209050600160038111156115b1577f4e487b7100000000000000000000000000000000000000000000000000000000600052602160045260246000fd5b8160060160009054906101000a900460ff1660038111156115fb577f4e487b7100000000000000000000000000000000000000000000000000000000600052602160045260246000fd5b148061168857506002600381111561163c577f4e487b7100000000000000000000000000000000000000000000000000000000600052602160045260246000fd5b8160060160009054906101000a900460ff166003811115611686577f4e487b7100000000000000000000000000000000000000000000000000000000600052602160045260246000fd5b145b6116c7576040517f08c379a00000000000000000000000000000000000000000000000000000000081526004016116be9061424f565b60405180910390fd5b60008160040154111561185b57806004015447101561171b576040517f08c379a0000000000000000000000000000000000000000000000000000000008152600401611712906141cf565b60405180910390fd5b60008160000160009054906101000a900473ffffffffffffffffffffffffffffffffffffffff1673ffffffffffffffffffffffffffffffffffffffff16826004015460405161176990613cef565b60006040518083038185875af1925050503d80600081146117a6576040519150601f19603f3d011682016040523d82523d6000602084013e6117ab565b606091505b50509050806117ef576040517f08c379a00000000000000000000000000000000000000000000000000000000081526004016117e6906140ef565b60405180910390fd5b61185984308460000160009054906101000a900473ffffffffffffffffffffffffffffffffffffffff1685600401546040518060400160405280601181526020017f4465706f73697420466f72666569746564000000000000000000000000000000815250612d43565b505b60038160060160006101000a81548160ff021916908360038111156118a9577f4e487b7100000000000000000000000000000000000000000000000000000000600052602160045260246000fd5b0217905550505050565b8160008082815260200190815260200160002060010160009054906101000a900473ffffffffffffffffffffffffffffffffffffffff1673ffffffffffffffffffffffffffffffffffffffff163373ffffffffffffffffffffffffffffffffffffffff1614611957576040517f08c379a000000000000000000000000000000000000000000000000000000000815260040161194e906140cf565b60405180910390fd5b82600380811115611991577f4e487b7100000000000000000000000000000000000000000000000000000000600052602160045260246000fd5b60008083815260200190815260200160002060060160009054906101000a900460ff1660038111156119ec577f4e487b7100000000000000000000000000000000000000000000000000000000600052602160045260246000fd5b1415611a2d576040517f08c379a0000000000000000000000000000000000000000000000000000000008152600401611a24906142af565b60405180910390fd5b6000806000868152602001908152602001600020905060008085611dab5782600501549050803414611a94576040517f08c379a0000000000000000000000000000000000000000000000000000000008152600401611a8b906140af565b60405180910390fd5b803373ffffffffffffffffffffffffffffffffffffffff16311015611aee576040517f08c379a0000000000000000000000000000000000000000000000000000000008152600401611ae59061418f565b60405180910390fd5b60008360000160009054906101000a900473ffffffffffffffffffffffffffffffffffffffff1673ffffffffffffffffffffffffffffffffffffffff1682604051611b3890613cef565b60006040518083038185875af1925050503d8060008114611b75576040519150601f19603f3d011682016040523d82523d6000602084013e611b7a565b606091505b5050905080611bbe576040517f08c379a0000000000000000000000000000000000000000000000000000000008152600401611bb59061414f565b60405180910390fd5b611c2488338660000160009054906101000a900473ffffffffffffffffffffffffffffffffffffffff16856040518060400160405280600c81526020017f4578747261204368617267650000000000000000000000000000000000000000815250612d43565b8360040154925082471015611c6e576040517f08c379a0000000000000000000000000000000000000000000000000000000008152600401611c6590613faf565b60405180910390fd5b60008460000160009054906101000a900473ffffffffffffffffffffffffffffffffffffffff1673ffffffffffffffffffffffffffffffffffffffff1684604051611cb890613cef565b60006040518083038185875af1925050503d8060008114611cf5576040519150601f19603f3d011682016040523d82523d6000602084013e611cfa565b606091505b5050905080611d3e576040517f08c379a0000000000000000000000000000000000000000000000000000000008152600401611d359061428f565b60405180910390fd5b611da489338760000160009054906101000a900473ffffffffffffffffffffffffffffffffffffffff16876040518060400160405280600c81526020017f4465706f736974204c6f73730000000000000000000000000000000000000000815250612d43565b5050611f32565b8260040154471015611df2576040517f08c379a0000000000000000000000000000000000000000000000000000000008152600401611de990613faf565b60405180910390fd5b60008360010160009054906101000a900473ffffffffffffffffffffffffffffffffffffffff1673ffffffffffffffffffffffffffffffffffffffff168460040154604051611e4090613cef565b60006040518083038185875af1925050503d8060008114611e7d576040519150601f19603f3d011682016040523d82523d6000602084013e611e82565b606091505b5050905080611ec6576040517f08c379a0000000000000000000000000000000000000000000000000000000008152600401611ebd90613f8f565b60405180910390fd5b611f30888560000160009054906101000a900473ffffffffffffffffffffffffffffffffffffffff163387600401546040518060400160405280600e81526020017f4465706f73697420526566756e64000000000000000000000000000000000000815250612d43565b505b60038360060160006101000a81548160ff02191690836003811115611f80577f4e487b7100000000000000000000000000000000000000000000000000000000600052602160045260246000fd5b02179055507fdc58c53a744e2f800430f6ba17ee79f387de734fae71f9b804356c7b194cce5e8360010160009054906101000a900473ffffffffffffffffffffffffffffffffffffffff1683838a42604051611fe0959493929190613e10565b60405180910390a150505050505050565b60025481565b8060008082815260200190815260200160002060010160009054906101000a900473ffffffffffffffffffffffffffffffffffffffff1673ffffffffffffffffffffffffffffffffffffffff163373ffffffffffffffffffffffffffffffffffffffff161461209b576040517f08c379a0000000000000000000000000000000000000000000000000000000008152600401612092906140cf565b60405180910390fd5b60008060008481526020019081526020016000209050600060038111156120eb577f4e487b7100000000000000000000000000000000000000000000000000000000600052602160045260246000fd5b8160060160009054906101000a900460ff166003811115612135577f4e487b7100000000000000000000000000000000000000000000000000000000600052602160045260246000fd5b14612175576040517f08c379a000000000000000000000000000000000000000000000000000000000815260040161216c9061426f565b60405180910390fd5b806004015434146121bb576040517f08c379a00000000000000000000000000000000000000000000000000000000081526004016121b2906141af565b60405180910390fd5b343373ffffffffffffffffffffffffffffffffffffffff16311015612215576040517f08c379a000000000000000000000000000000000000000000000000000000000815260040161220c9061418f565b60405180910390fd5b60018160060160006101000a81548160ff02191690836003811115612263577f4e487b7100000000000000000000000000000000000000000000000000000000600052602160045260246000fd5b02179055506122ce83338360000160009054906101000a900473ffffffffffffffffffffffffffffffffffffffff16346040518060400160405280600781526020017f4465706f73697400000000000000000000000000000000000000000000000000815250612d43565b827f7c1125fa63ff0df75487a4f7f7e9612f2fe97a7f74899a121b7d87e271f45274338360000160009054906101000a900473ffffffffffffffffffffffffffffffffffffffff1634426040516123289493929190613ebb565b60405180910390a2505050565b6000806000838152602001908152602001600020905060006003811115612385577f4e487b7100000000000000000000000000000000000000000000000000000000600052602160045260246000fd5b8160060160009054906101000a900460ff1660038111156123cf577f4e487b7100000000000000000000000000000000000000000000000000000000600052602160045260246000fd5b141561242d5760038160060160006101000a81548160ff02191690836003811115612423577f4e487b7100000000000000000000000000000000000000000000000000000000600052602160045260246000fd5b0217905550612819565b60016003811115612467577f4e487b7100000000000000000000000000000000000000000000000000000000600052602160045260246000fd5b8160060160009054906101000a900460ff1660038111156124b1577f4e487b7100000000000000000000000000000000000000000000000000000000600052602160045260246000fd5b148061253e5750600260038111156124f2577f4e487b7100000000000000000000000000000000000000000000000000000000600052602160045260246000fd5b8160060160009054906101000a900460ff16600381111561253c577f4e487b7100000000000000000000000000000000000000000000000000000000600052602160045260246000fd5b145b156127dd576000816004015411156126fb578060040154471015612597576040517f08c379a000000000000000000000000000000000000000000000000000000000815260040161258e9061408f565b60405180910390fd5b60008160010160009054906101000a900473ffffffffffffffffffffffffffffffffffffffff1673ffffffffffffffffffffffffffffffffffffffff1682600401546040516125e590613cef565b60006040518083038185875af1925050503d8060008114612622576040519150601f19603f3d011682016040523d82523d6000602084013e612627565b606091505b505090508061266b576040517f08c379a000000000000000000000000000000000000000000000000000000000815260040161266290613f8f565b60405180910390fd5b6126f9838360000160009054906101000a900473ffffffffffffffffffffffffffffffffffffffff168460010160009054906101000a900473ffffffffffffffffffffffffffffffffffffffff1685600401546040518060400160405280600681526020017f526566756e640000000000000000000000000000000000000000000000000000815250612d43565b505b60038160060160006101000a81548160ff02191690836003811115612749577f4e487b7100000000000000000000000000000000000000000000000000000000600052602160045260246000fd5b0217905550817f7c1125fa63ff0df75487a4f7f7e9612f2fe97a7f74899a121b7d87e271f452748260000160009054906101000a900473ffffffffffffffffffffffffffffffffffffffff168360010160009054906101000a900473ffffffffffffffffffffffffffffffffffffffff168460040154426040516127d09493929190613d04565b60405180910390a2612818565b6040517f08c379a000000000000000000000000000000000000000000000000000000000815260040161280f9061420f565b60405180910390fd5b5b5050565b8060008082815260200190815260200160002060010160009054906101000a900473ffffffffffffffffffffffffffffffffffffffff1673ffffffffffffffffffffffffffffffffffffffff163373ffffffffffffffffffffffffffffffffffffffff16146128c1576040517f08c379a00000000000000000000000000000000000000000000000000000000081526004016128b8906140cf565b60405180910390fd5b6000806000848152602001908152602001600020905060016003811115612911577f4e487b7100000000000000000000000000000000000000000000000000000000600052602160045260246000fd5b8160060160009054906101000a900460ff16600381111561295b577f4e487b7100000000000000000000000000000000000000000000000000000000600052602160045260246000fd5b14806129e857506002600381111561299c577f4e487b7100000000000000000000000000000000000000000000000000000000600052602160045260246000fd5b8160060160009054906101000a900460ff1660038111156129e6577f4e487b7100000000000000000000000000000000000000000000000000000000600052602160045260246000fd5b145b612a27576040517f08c379a0000000000000000000000000000000000000000000000000000000008152600401612a1e9061400f565b60405180910390fd5b80600501543414612a6d576040517f08c379a0000000000000000000000000000000000000000000000000000000008152600401612a649061404f565b60405180910390fd5b343373ffffffffffffffffffffffffffffffffffffffff16311015612ac7576040517f08c379a0000000000000000000000000000000000000000000000000000000008152600401612abe9061418f565b60405180910390fd5b60016003811115612b01577f4e487b7100000000000000000000000000000000000000000000000000000000600052602160045260246000fd5b8160060160009054906101000a900460ff166003811115612b4b577f4e487b7100000000000000000000000000000000000000000000000000000000600052602160045260246000fd5b1415612ba55760028160060160006101000a81548160ff02191690836003811115612b9f577f4e487b7100000000000000000000000000000000000000000000000000000000600052602160045260246000fd5b02179055505b60008160000160009054906101000a900473ffffffffffffffffffffffffffffffffffffffff1673ffffffffffffffffffffffffffffffffffffffff1634604051612bef90613cef565b60006040518083038185875af1925050503d8060008114612c2c576040519150601f19603f3d011682016040523d82523d6000602084013e612c31565b606091505b5050905080612c75576040517f08c379a0000000000000000000000000000000000000000000000000000000008152600401612c6c9061406f565b60405180910390fd5b612cdb84338460000160009054906101000a900473ffffffffffffffffffffffffffffffffffffffff16346040518060400160405280600c81526020017f52656e74205061796d656e740000000000000000000000000000000000000000815250612d43565b837f7c1125fa63ff0df75487a4f7f7e9612f2fe97a7f74899a121b7d87e271f45274338460000160009054906101000a900473ffffffffffffffffffffffffffffffffffffffff163442604051612d359493929190613e63565b60405180910390a250505050565b600160008681526020019081526020016000206040518060a001604052808673ffffffffffffffffffffffffffffffffffffffff1681526020018573ffffffffffffffffffffffffffffffffffffffff16815260200184815260200142815260200183815250908060018154018082558091505060019003906000526020600020906005020160009091909190915060008201518160000160006101000a81548173ffffffffffffffffffffffffffffffffffffffff021916908373ffffffffffffffffffffffffffffffffffffffff16021790555060208201518160010160006101000a81548173ffffffffffffffffffffffffffffffffffffffff021916908373ffffffffffffffffffffffffffffffffffffffff16021790555060408201518160020155606082015181600301556080820151816004019080519060200190612e90929190612f3b565b5050505050505050565b6040518060e00160405280600073ffffffffffffffffffffffffffffffffffffffff168152602001600073ffffffffffffffffffffffffffffffffffffffff1681526020016000815260200160008152602001600081526020016000815260200160006003811115612f35577f4e487b7100000000000000000000000000000000000000000000000000000000600052602160045260246000fd5b81525090565b828054612f47906144a3565b90600052602060002090601f016020900481019282612f695760008555612fb0565b82601f10612f8257805160ff1916838001178555612fb0565b82800160010185558215612fb0579182015b82811115612faf578251825591602001919060010190612f94565b5b509050612fbd9190612fc1565b5090565b5b80821115612fda576000816000905550600101612fc2565b5090565b600081359050612fed816145d0565b92915050565b600081359050613002816145e7565b92915050565b600081359050613017816145fe565b92915050565b60008060008060008060c0878903121561303657600080fd5b600061304489828a01612fde565b965050602061305589828a01612fde565b955050604061306689828a01613008565b945050606061307789828a01613008565b935050608061308889828a01613008565b92505060a061309989828a01613008565b9150509295509295509295565b6000602082840312156130b857600080fd5b60006130c684828501613008565b91505092915050565b600080604083850312156130e257600080fd5b60006130f085828601613008565b925050602061310185828601612ff3565b9150509250929050565b6000806040838503121561311e57600080fd5b600061312c85828601613008565b925050602061313d85828601613008565b9150509250929050565b60006131538383613c5b565b905092915050565b61316481614428565b82525050565b613173816143cd565b82525050565b613182816143cd565b82525050565b613191816143bb565b82525050565b6131a0816143bb565b82525050565b60006131b18261435a565b6131bb818561437d565b9350836020820285016131cd8561434a565b8060005b8581101561320957848403895281516131ea8582613147565b94506131f583614370565b925060208a019950506001810190506131d1565b50829750879550505050505092915050565b6132248161443a565b82525050565b6132338161443a565b82525050565b600061324482614365565b61324e8185614399565b935061325e818560208601614470565b613267816145ab565b840191505092915050565b600061327d82614365565b61328781856143aa565b9350613297818560208601614470565b6132a0816145ab565b840191505092915050565b60006132b8601e836143aa565b91507f4465706f73697420726566756e64207472616e73666572206661696c656400006000830152602082019050919050565b60006132f8601d836143aa565b91507f436f6e74726163742062616c616e636520696e73756666696369656e740000006000830152602082019050919050565b6000613338600f836143aa565b91507f496e76616c6964206164647265737300000000000000000000000000000000006000830152602082019050919050565b60006133786006836143aa565b91507f526566756e6400000000000000000000000000000000000000000000000000006000830152602082019050919050565b60006133b86026836143aa565b91507f4f6e6c7920746865206f776e65722063616e20706572666f726d20746869732060008301527f616374696f6e00000000000000000000000000000000000000000000000000006020830152604082019050919050565b600061341e6017836143aa565b91507f52656e74616c20706572696f64206e6f742076616c69640000000000000000006000830152602082019050919050565b600061345e6022836143aa565b91507f53746172742064617465206d757374206265206265666f726520656e6420646160008301527f74650000000000000000000000000000000000000000000000000000000000006020830152604082019050919050565b60006134c46015836143aa565b91507f496e636f72726563742072656e7420616d6f756e7400000000000000000000006000830152602082019050919050565b6000613504601c836143aa565b91507f52656e74207061796d656e74207472616e73666572206661696c6564000000006000830152602082019050919050565b60006135446030836143aa565b91507f436f6e74726163742062616c616e636520696e73756666696369656e7420666f60008301527f72206465706f73697420726566756e64000000000000000000000000000000006020830152604082019050919050565b60006135aa601d836143aa565b91507f496e636f72726563742065787472612063686172676520616d6f756e740000006000830152602082019050919050565b60006135ea6027836143aa565b91507f4f6e6c79207468652072656e7465722063616e20706572666f726d207468697360008301527f20616374696f6e000000000000000000000000000000000000000000000000006020830152604082019050919050565b60006136506020836143aa565b91507f4465706f736974207472616e7366657220746f206f776e6572206661696c65646000830152602082019050919050565b6000613690603b836143aa565b91507f4f6e6c792074686520636f6e7472616374206f776e6572206f722072656e746560008301527f722063616e207669657720746865207472616e73616374696f6e7300000000006020830152604082019050919050565b60006136f6602f836143aa565b91507f4f6e6c792074686520636f6e7472616374206f776e65722063616e206372656160008301527f74652074686520636f6e747261637400000000000000000000000000000000006020830152604082019050919050565b600061375c601c836143aa565b91507f457874726120636861726765207472616e73666572206661696c6564000000006000830152602082019050919050565b600061379c603f836143aa565b91507f4f6e6c792074686520636f6e7472616374206f776e6572206f722072656e746560008301527f722063616e20766965772074686520636f6e74726163742064657461696c73006020830152604082019050919050565b6000613802600c836143aa565b91507f52656e74205061796d656e7400000000000000000000000000000000000000006000830152602082019050919050565b6000613842601e836143aa565b91507f496e73756666696369656e742062616c616e6365206f662072656e74657200006000830152602082019050919050565b60006138826018836143aa565b91507f496e636f7272656374206465706f73697420616d6f756e7400000000000000006000830152602082019050919050565b60006138c260008361438e565b9150600082019050919050565b60006138dc6031836143aa565b91507f436f6e74726163742062616c616e636520696e73756666696369656e7420666f60008301527f72206465706f73697420666f72666569740000000000000000000000000000006020830152604082019050919050565b6000613942601c836143aa565b91507f436f6d70656e736174696f6e207472616e73666572206661696c6564000000006000830152602082019050919050565b60006139826007836143aa565b91507f4465706f736974000000000000000000000000000000000000000000000000006000830152602082019050919050565b60006139c2602b836143aa565b91507f436f6e7472616374206973206e6f7420696e20612076616c696420737461746560008301527f20666f7220656e64696e670000000000000000000000000000000000000000006020830152604082019050919050565b6000613a28602d836143aa565b91507f4f776e657227732062616c616e636520696e73756666696369656e7420666f7260008301527f20636f6d70656e736174696f6e000000000000000000000000000000000000006020830152604082019050919050565b6000613a8e6017836143aa565b91507f436f6e7472616374206d757374206265206163746976650000000000000000006000830152602082019050919050565b6000613ace6028836143aa565b91507f436f6e747261637420737461747573206973206e6f742076616c696420666f7260008301527f206465706f7369740000000000000000000000000000000000000000000000006020830152604082019050919050565b6000613b346017836143aa565b91507f4465706f736974207472616e73666572206661696c65640000000000000000006000830152602082019050919050565b6000613b746021836143aa565b91507f52656e74616c20636f6e74726163742068617320616c726561647920656e646560008301527f64000000000000000000000000000000000000000000000000000000000000006020830152604082019050919050565b60e082016000820151613be3600085018261316a565b506020820151613bf6602085018261316a565b506040820151613c096040850182613cd1565b506060820151613c1c6060850182613cd1565b506080820151613c2f6080850182613cd1565b5060a0820151613c4260a0850182613cd1565b5060c0820151613c5560c085018261321b565b50505050565b600060a083016000830151613c736000860182613188565b506020830151613c866020860182613188565b506040830151613c996040860182613cd1565b506060830151613cac6060860182613cd1565b5060808301518482036080860152613cc48282613239565b9150508091505092915050565b613cda8161441e565b82525050565b613ce98161441e565b82525050565b6000613cfa826138b5565b9150819050919050565b600060a082019050613d19600083018761315b565b613d26602083018661315b565b613d336040830185613ce0565b613d406060830184613ce0565b8181036080830152613d518161336b565b905095945050505050565b600060e082019050613d71600083018a613179565b613d7e6020830189613179565b613d8b6040830188613ce0565b613d986060830187613ce0565b613da56080830186613ce0565b613db260a0830185613ce0565b613dbf60c083018461322a565b98975050505050505050565b6000608082019050613de0600083018761315b565b613ded6020830186613ce0565b613dfa6040830185613ce0565b613e076060830184613ce0565b95945050505050565b600060a082019050613e25600083018861315b565b613e326020830187613ce0565b613e3f6040830186613ce0565b613e4c6060830185613ce0565b613e596080830184613ce0565b9695505050505050565b600060a082019050613e786000830187613197565b613e85602083018661315b565b613e926040830185613ce0565b613e9f6060830184613ce0565b8181036080830152613eb0816137f5565b905095945050505050565b600060a082019050613ed06000830187613197565b613edd602083018661315b565b613eea6040830185613ce0565b613ef76060830184613ce0565b8181036080830152613f0881613975565b905095945050505050565b600060a082019050613f286000830188613197565b613f356020830187613197565b613f426040830186613ce0565b613f4f6060830185613ce0565b8181036080830152613f618184613272565b90509695505050505050565b60006020820190508181036000830152613f8781846131a6565b905092915050565b60006020820190508181036000830152613fa8816132ab565b9050919050565b60006020820190508181036000830152613fc8816132eb565b9050919050565b60006020820190508181036000830152613fe88161332b565b9050919050565b60006020820190508181036000830152614008816133ab565b9050919050565b6000602082019050818103600083015261402881613411565b9050919050565b6000602082019050818103600083015261404881613451565b9050919050565b60006020820190508181036000830152614068816134b7565b9050919050565b60006020820190508181036000830152614088816134f7565b9050919050565b600060208201905081810360008301526140a881613537565b9050919050565b600060208201905081810360008301526140c88161359d565b9050919050565b600060208201905081810360008301526140e8816135dd565b9050919050565b6000602082019050818103600083015261410881613643565b9050919050565b6000602082019050818103600083015261412881613683565b9050919050565b60006020820190508181036000830152614148816136e9565b9050919050565b600060208201905081810360008301526141688161374f565b9050919050565b600060208201905081810360008301526141888161378f565b9050919050565b600060208201905081810360008301526141a881613835565b9050919050565b600060208201905081810360008301526141c881613875565b9050919050565b600060208201905081810360008301526141e8816138cf565b9050919050565b6000602082019050818103600083015261420881613935565b9050919050565b60006020820190508181036000830152614228816139b5565b9050919050565b6000602082019050818103600083015261424881613a1b565b9050919050565b6000602082019050818103600083015261426881613a81565b9050919050565b6000602082019050818103600083015261428881613ac1565b9050919050565b600060208201905081810360008301526142a881613b27565b9050919050565b600060208201905081810360008301526142c881613b67565b9050919050565b600060e0820190506142e46000830184613bcd565b92915050565b60006020820190506142ff6000830184613ce0565b92915050565b600060808201905061431a6000830187613ce0565b6143276020830186613ce0565b6143346040830185613ce0565b6143416060830184613ce0565b95945050505050565b6000819050602082019050919050565b600081519050919050565b600081519050919050565b6000602082019050919050565b600082825260208201905092915050565b600081905092915050565b600082825260208201905092915050565b600082825260208201905092915050565b60006143c6826143fe565b9050919050565b60006143d8826143fe565b9050919050565b60008115159050919050565b60008190506143f9826145bc565b919050565b600073ffffffffffffffffffffffffffffffffffffffff82169050919050565b6000819050919050565b60006144338261444c565b9050919050565b6000614445826143eb565b9050919050565b60006144578261445e565b9050919050565b6000614469826143fe565b9050919050565b60005b8381101561448e578082015181840152602081019050614473565b8381111561449d576000848401525b50505050565b600060028204905060018216806144bb57607f821691505b602082108114156144cf576144ce61457c565b5b50919050565b60006144e08261441e565b91507fffffffffffffffffffffffffffffffffffffffffffffffffffffffffffffffff8214156145135761451261451e565b5b600182019050919050565b7f4e487b7100000000000000000000000000000000000000000000000000000000600052601160045260246000fd5b7f4e487b7100000000000000000000000000000000000000000000000000000000600052602160045260246000fd5b7f4e487b7100000000000000000000000000000000000000000000000000000000600052602260045260246000fd5b6000601f19601f8301169050919050565b600481106145cd576145cc61454d565b5b50565b6145d9816143cd565b81146145e457600080fd5b50565b6145f0816143df565b81146145fb57600080fd5b50565b6146078161441e565b811461461257600080fd5b5056fea2646970667358221220ca4f211bba9d139677cae2727d54d89bf643baa18d36a970e51928e245912aea64736f6c63430008000033",
  "immutableReferences": {},
  "source": "// SPDX-License-Identifier: MIT\r\npragma solidity ^0.8.0;\r\n\r\ncontract RentalContract {\r\n    enum RentalStatus { NotCreated, Deposited, Ongoing, Ended }\r\n\r\n    struct Contract {\r\n        address payable owner;   \r\n        address payable renter;  \r\n        uint startDate;\r\n        uint endDate;\r\n        uint depositAmount;\r\n        uint monthlyRent;\r\n        RentalStatus status;\r\n    }\r\n\r\n    struct Transaction {\r\n        address from;\r\n        address to;\r\n        uint amount;\r\n        uint timestamp;\r\n        string transactionType; \r\n    }\r\n\r\n    mapping(uint => Contract) public contracts;\r\n    mapping(uint => Transaction[]) public contractTransactions;\r\n    uint public nextContractId = 1;\r\n\r\n    event ContractCreated(uint indexed contractId, address indexed owner, address indexed renter, uint startDate, uint endDate, uint depositAmount, uint monthlyRent);\r\n    event TransactionRecorded(uint indexed contractId, address from, address to, uint amount, uint timestamp, string transactionType);\r\n    event ContractCancelledByRenter(address renter, uint depositLoss, uint extraCharge, uint contractId, uint timestamp);\r\n    event ContractCancelledByOwner(address owner, uint compensation, uint contractId, uint timestamp);\r\n\r\n    modifier onlyOwner(uint _contractId) {\r\n        require(msg.sender == contracts[_contractId].owner, \"Only the owner can perform this action\");\r\n        _;\r\n    }\r\n\r\n    modifier onlyRenter(uint _contractId) {\r\n        require(msg.sender == contracts[_contractId].renter, \"Only the renter can perform this action\");\r\n        _;\r\n    }\r\n\r\n    modifier rentalNotEnded(uint _contractId) {\r\n        require(contracts[_contractId].status != RentalStatus.Ended, \"Rental contract has already ended\");\r\n        _;\r\n    }\r\n\r\n    modifier onlyContractOwner(address _owner) {\r\n        require(msg.sender == _owner, \"Only the contract owner can create the contract\");\r\n        _;\r\n    }\r\n\r\n    function createContract(\r\n        address payable _owner,\r\n        address payable _renter,\r\n        uint _startDate,\r\n        uint _endDate,\r\n        uint _depositAmount,\r\n        uint _monthlyRent\r\n    ) public onlyContractOwner(_owner) {\r\n        require(_owner != address(0) && _renter != address(0), \"Invalid address\");\r\n        require(_startDate < _endDate, \"Start date must be before end date\");\r\n\r\n        uint contractId = nextContractId++;\r\n\r\n        contracts[contractId] = Contract({\r\n            owner: _owner,\r\n            renter: _renter,\r\n            startDate: _startDate,\r\n            endDate: _endDate,\r\n            depositAmount: _depositAmount,\r\n            monthlyRent: _monthlyRent,\r\n            status: RentalStatus.NotCreated\r\n        });\r\n\r\n        emit ContractCreated(contractId, _owner, _renter, _startDate, _endDate, _depositAmount, _monthlyRent);\r\n    }\r\n\r\n    function deposit(uint _contractId) public payable onlyRenter(_contractId) {\r\n        Contract storage contractInfo = contracts[_contractId];\r\n\r\n        require(contractInfo.status == RentalStatus.NotCreated, \"Contract status is not valid for deposit\");\r\n        require(msg.value == contractInfo.depositAmount, \"Incorrect deposit amount\");\r\n        require(address(msg.sender).balance >= msg.value, \"Insufficient balance of renter\");\r\n\r\n        contractInfo.status = RentalStatus.Deposited;\r\n\r\n        _recordTransaction(_contractId, msg.sender, contractInfo.owner, msg.value, \"Deposit\");\r\n\r\n        emit TransactionRecorded(_contractId, msg.sender, contractInfo.owner, msg.value, block.timestamp, \"Deposit\");\r\n        }\r\n\r\n    function payRent(uint _contractId) public payable onlyRenter(_contractId) {\r\n        Contract storage contractInfo = contracts[_contractId];\r\n\r\n        require(contractInfo.status == RentalStatus.Deposited || contractInfo.status == RentalStatus.Ongoing, \"Rental period not valid\");\r\n        require(msg.value == contractInfo.monthlyRent, \"Incorrect rent amount\");\r\n        require(address(msg.sender).balance >= msg.value, \"Insufficient balance of renter\");\r\n\r\n        if (contractInfo.status == RentalStatus.Deposited) {\r\n            contractInfo.status = RentalStatus.Ongoing;\r\n        }\r\n\r\n        (bool success, ) = contractInfo.owner.call{value: msg.value}(\"\");\r\n        require(success, \"Rent payment transfer failed\");\r\n\r\n        _recordTransaction(_contractId, msg.sender, contractInfo.owner, msg.value, \"Rent Payment\");\r\n\r\n        emit TransactionRecorded(_contractId, msg.sender, contractInfo.owner, msg.value, block.timestamp, \"Rent Payment\");\r\n    }\r\n\r\n    function endContract(uint _contractId) public {\r\n        Contract storage contractInfo = contracts[_contractId];\r\n\r\n        // Kim tra quyn truy cp: ch ngi thu hoc ch nh mi c th gi hm ny\r\n        // require(msg.sender == contractInfo.owner || msg.sender == contractInfo.renter, \"Only the owner or renter can end the contract\");\r\n\r\n        if (contractInfo.status == RentalStatus.NotCreated) {\r\n            // Nu trng thi l NotCreated, ch cn thay i trng thi ca hp ng\r\n            contractInfo.status = RentalStatus.Ended;\r\n        } else if (contractInfo.status == RentalStatus.Deposited || contractInfo.status == RentalStatus.Ongoing) {\r\n            // Nu trng thi l Deposited hoc Ongoing, hon tr tin t cc\r\n            if (contractInfo.depositAmount > 0) {\r\n                // m bo rng hp ng c  tin  hon tr tin t cc\r\n                require(address(this).balance >= contractInfo.depositAmount, \"Contract balance insufficient for deposit refund\");\r\n\r\n                // Hon tr tin t cc cho ngi thu\r\n                (bool success, ) = contractInfo.renter.call{value: contractInfo.depositAmount}(\"\");\r\n                require(success, \"Deposit refund transfer failed\");\r\n\r\n                // Lu giao dch hon tr tin t cc\r\n                _recordTransaction(_contractId, contractInfo.owner, contractInfo.renter, contractInfo.depositAmount, \"Refund\");\r\n            }\r\n            \r\n            // nh du hp ng  kt thc sau khi cc bc khc  hon tt\r\n            contractInfo.status = RentalStatus.Ended;\r\n\r\n            // Ghi li giao dch kt thc hp ng\r\n            emit TransactionRecorded(_contractId, contractInfo.owner, contractInfo.renter, contractInfo.depositAmount, block.timestamp, \"Refund\");\r\n        } else {\r\n            revert(\"Contract is not in a valid state for ending\");\r\n        }\r\n    }\r\n\r\n    function cancelContractByRenter(uint _contractId, bool notifyBefore30Days) public payable onlyRenter(_contractId) rentalNotEnded(_contractId) {\r\n        Contract storage contractInfo = contracts[_contractId];\r\n\r\n        uint depositLoss = 0;\r\n        uint extraCharge = 0;\r\n\r\n        if (!notifyBefore30Days) {\r\n            extraCharge = contractInfo.monthlyRent;\r\n            require(msg.value == extraCharge, \"Incorrect extra charge amount\");\r\n            require(address(msg.sender).balance >= extraCharge, \"Insufficient balance of renter\");\r\n\r\n            (bool successExtraCharge, ) = contractInfo.owner.call{value: extraCharge}(\"\");\r\n            require(successExtraCharge, \"Extra charge transfer failed\");\r\n\r\n            _recordTransaction(_contractId, msg.sender, contractInfo.owner, extraCharge, \"Extra Charge\");\r\n\r\n            depositLoss = contractInfo.depositAmount;\r\n            require(address(this).balance >= depositLoss, \"Contract balance insufficient\");\r\n\r\n            (bool successDeposit, ) = contractInfo.owner.call{value: depositLoss}(\"\");\r\n            require(successDeposit, \"Deposit transfer failed\");\r\n\r\n            _recordTransaction(_contractId, msg.sender, contractInfo.owner, depositLoss, \"Deposit Loss\");\r\n        } else {\r\n            require(address(this).balance >= contractInfo.depositAmount, \"Contract balance insufficient\");\r\n\r\n            (bool successRefund, ) = contractInfo.renter.call{value: contractInfo.depositAmount}(\"\");\r\n            require(successRefund, \"Deposit refund transfer failed\");\r\n\r\n            _recordTransaction(_contractId, contractInfo.owner, msg.sender, contractInfo.depositAmount, \"Deposit Refund\");\r\n        }\r\n\r\n        contractInfo.status = RentalStatus.Ended;\r\n        emit ContractCancelledByRenter(contractInfo.renter, depositLoss, extraCharge, _contractId, block.timestamp);\r\n    }\r\n\r\n    function cancelContractByOwner(uint _contractId, bool notifyBefore30Days) public payable onlyOwner(_contractId) rentalNotEnded(_contractId) {\r\n        Contract storage contractInfo = contracts[_contractId];\r\n\r\n        uint compensation = 0;\r\n\r\n        if (!notifyBefore30Days) {\r\n            compensation = contractInfo.monthlyRent;\r\n            require(address(msg.sender).balance >= compensation, \"Owner's balance insufficient for compensation\");\r\n\r\n            (bool successCompensation, ) = contractInfo.renter.call{value: compensation}(\"\");\r\n            require(successCompensation, \"Compensation transfer failed\");\r\n\r\n            _recordTransaction(_contractId, msg.sender, contractInfo.renter, compensation, \"Compensation\");\r\n        }\r\n\r\n        if (contractInfo.status == RentalStatus.Deposited || contractInfo.status == RentalStatus.Ongoing) {\r\n            require(address(this).balance >= contractInfo.depositAmount, \"Contract balance insufficient for deposit refund\");\r\n\r\n            (bool successDeposit, ) = contractInfo.renter.call{value: contractInfo.depositAmount}(\"\");\r\n            require(successDeposit, \"Deposit refund transfer failed\");\r\n\r\n            _recordTransaction(_contractId, msg.sender, contractInfo.renter, contractInfo.depositAmount, \"Deposit Refund\");\r\n        }\r\n\r\n        contractInfo.status = RentalStatus.Ended;\r\n        emit ContractCancelledByOwner(contractInfo.owner, compensation, _contractId, block.timestamp);\r\n    }\r\n\r\n    function terminateForNonPayment(uint _contractId) public onlyOwner(_contractId) {\r\n            Contract storage contractInfo = contracts[_contractId];\r\n\r\n            // Ch cho php khi trng thi hp ng l Deposited hoc Ongoing\r\n            require(contractInfo.status == RentalStatus.Deposited || contractInfo.status == RentalStatus.Ongoing, \"Contract must be active\");\r\n\r\n            // Kim tra  qu hn thanh ton\r\n            // y l phn bn kim tra trn backend trc khi gi hm ny\r\n\r\n            // X l logic mt tin cc nu khng thanh ton ng hn\r\n            if (contractInfo.depositAmount > 0) {\r\n                require(address(this).balance >= contractInfo.depositAmount, \"Contract balance insufficient for deposit forfeit\");\r\n\r\n                // Chuyn tin cc cho ch nh\r\n                (bool success, ) = contractInfo.owner.call{value: contractInfo.depositAmount}(\"\");\r\n                require(success, \"Deposit transfer to owner failed\");\r\n\r\n                // Lu giao dch\r\n                _recordTransaction(_contractId, address(this), contractInfo.owner, contractInfo.depositAmount, \"Deposit Forfeited\");\r\n            }\r\n\r\n            // nh du hp ng  kt thc\r\n            contractInfo.status = RentalStatus.Ended;\r\n        }\r\n\r\n\r\n\r\n\r\n        function _recordTransaction(uint _contractId, address _from, address _to, uint _amount, string memory _transactionType) internal {\r\n            contractTransactions[_contractId].push(Transaction({\r\n                from: _from,\r\n                to: _to,\r\n                amount: _amount,\r\n                timestamp: block.timestamp,\r\n                transactionType: _transactionType\r\n            }));\r\n        }\r\n\r\n        function getContractDetails(uint _contractId) public view returns (Contract memory) {\r\n            Contract memory contractInfo = contracts[_contractId];\r\n            \r\n            require(msg.sender == contractInfo.owner || msg.sender == contractInfo.renter, \"Only the contract owner or renter can view the contract details\");\r\n\r\n            return contractInfo;\r\n        }\r\n\r\n        function getContractTransactions(uint _contractId) public view returns (Transaction[] memory) {\r\n            Contract memory contractInfo = contracts[_contractId];\r\n\r\n            require(msg.sender == contractInfo.owner || msg.sender == contractInfo.renter, \"Only the contract owner or renter can view the transactions\");\r\n\r\n            return contractTransactions[_contractId];\r\n        }\r\n    }\r\n",
  "sourcePath": "C:\\kltn-backend\\contract-service\\contractRental\\contracts\\RentalContract.sol",
  "compiler": {
    "name": "solc",
    "version": "0.8.0+commit.c7dfd78e.Emscripten.clang"
  },
  "schemaVersion": "3.4.16",
  "updatedAt": "2024-09-12T16:24:06.838Z",
  "networkType": "ethereum",
  "devdoc": {
    "kind": "dev",
    "methods": {},
    "version": 1
  },
  "userdoc": {
    "kind": "user",
    "methods": {},
    "version": 1
  }
}