{
  "contractName": "RentalContract",
  "abi": [
    {
      "anonymous": false,
      "inputs": [
        {
          "indexed": false,
          "internalType": "address",
          "name": "owner",
          "type": "address"
        },
        {
          "indexed": false,
          "internalType": "uint256",
          "name": "compensation",
          "type": "uint256"
        },
        {
          "indexed": false,
          "internalType": "uint256",
          "name": "contractId",
          "type": "uint256"
        },
        {
          "indexed": false,
          "internalType": "uint256",
          "name": "timestamp",
          "type": "uint256"
        }
      ],
      "name": "ContractCancelledByOwner",
      "type": "event"
    },
    {
      "anonymous": false,
      "inputs": [
        {
          "indexed": false,
          "internalType": "address",
          "name": "renter",
          "type": "address"
        },
        {
          "indexed": false,
          "internalType": "uint256",
          "name": "depositLoss",
          "type": "uint256"
        },
        {
          "indexed": false,
          "internalType": "uint256",
          "name": "extraCharge",
          "type": "uint256"
        },
        {
          "indexed": false,
          "internalType": "uint256",
          "name": "contractId",
          "type": "uint256"
        },
        {
          "indexed": false,
          "internalType": "uint256",
          "name": "timestamp",
          "type": "uint256"
        }
      ],
      "name": "ContractCancelledByRenter",
      "type": "event"
    },
    {
      "anonymous": false,
      "inputs": [
        {
          "indexed": true,
          "internalType": "uint256",
          "name": "contractId",
          "type": "uint256"
        },
        {
          "indexed": true,
          "internalType": "address",
          "name": "owner",
          "type": "address"
        },
        {
          "indexed": true,
          "internalType": "address",
          "name": "renter",
          "type": "address"
        },
        {
          "indexed": false,
          "internalType": "uint256",
          "name": "startDate",
          "type": "uint256"
        },
        {
          "indexed": false,
          "internalType": "uint256",
          "name": "endDate",
          "type": "uint256"
        },
        {
          "indexed": false,
          "internalType": "uint256",
          "name": "depositAmount",
          "type": "uint256"
        },
        {
          "indexed": false,
          "internalType": "uint256",
          "name": "monthlyRent",
          "type": "uint256"
        },
        {
          "indexed": false,
          "internalType": "string",
          "name": "addressProperty",
          "type": "string"
        }
      ],
      "name": "ContractCreated",
      "type": "event"
    },
    {
      "anonymous": false,
      "inputs": [
        {
          "indexed": true,
          "internalType": "uint256",
          "name": "contractId",
          "type": "uint256"
        },
        {
          "indexed": false,
          "internalType": "address",
          "name": "from",
          "type": "address"
        },
        {
          "indexed": false,
          "internalType": "address",
          "name": "to",
          "type": "address"
        },
        {
          "indexed": false,
          "internalType": "uint256",
          "name": "amount",
          "type": "uint256"
        },
        {
          "indexed": false,
          "internalType": "uint256",
          "name": "timestamp",
          "type": "uint256"
        },
        {
          "indexed": false,
          "internalType": "string",
          "name": "transactionType",
          "type": "string"
        }
      ],
      "name": "TransactionRecorded",
      "type": "event"
    },
    {
      "inputs": [
        {
          "internalType": "uint256",
          "name": "",
          "type": "uint256"
        },
        {
          "internalType": "uint256",
          "name": "",
          "type": "uint256"
        }
      ],
      "name": "contractTransactions",
      "outputs": [
        {
          "internalType": "address",
          "name": "from",
          "type": "address"
        },
        {
          "internalType": "address",
          "name": "to",
          "type": "address"
        },
        {
          "internalType": "uint256",
          "name": "amount",
          "type": "uint256"
        },
        {
          "internalType": "uint256",
          "name": "timestamp",
          "type": "uint256"
        },
        {
          "internalType": "string",
          "name": "transactionType",
          "type": "string"
        }
      ],
      "stateMutability": "view",
      "type": "function",
      "constant": true
    },
    {
      "inputs": [
        {
          "internalType": "uint256",
          "name": "",
          "type": "uint256"
        }
      ],
      "name": "contracts",
      "outputs": [
        {
          "internalType": "address payable",
          "name": "owner",
          "type": "address"
        },
        {
          "internalType": "address payable",
          "name": "renter",
          "type": "address"
        },
        {
          "internalType": "uint256",
          "name": "startDate",
          "type": "uint256"
        },
        {
          "internalType": "uint256",
          "name": "endDate",
          "type": "uint256"
        },
        {
          "internalType": "uint256",
          "name": "depositAmount",
          "type": "uint256"
        },
        {
          "internalType": "uint256",
          "name": "monthlyRent",
          "type": "uint256"
        },
        {
          "internalType": "enum RentalContract.RentalStatus",
          "name": "status",
          "type": "uint8"
        },
        {
          "internalType": "string",
          "name": "addressProperty",
          "type": "string"
        }
      ],
      "stateMutability": "view",
      "type": "function",
      "constant": true
    },
    {
      "inputs": [],
      "name": "nextContractId",
      "outputs": [
        {
          "internalType": "uint256",
          "name": "",
          "type": "uint256"
        }
      ],
      "stateMutability": "view",
      "type": "function",
      "constant": true
    },
    {
      "inputs": [
        {
          "internalType": "address payable",
          "name": "_owner",
          "type": "address"
        },
        {
          "internalType": "address payable",
          "name": "_renter",
          "type": "address"
        },
        {
          "internalType": "uint256",
          "name": "_startDate",
          "type": "uint256"
        },
        {
          "internalType": "uint256",
          "name": "_endDate",
          "type": "uint256"
        },
        {
          "internalType": "uint256",
          "name": "_depositAmount",
          "type": "uint256"
        },
        {
          "internalType": "uint256",
          "name": "_monthlyRent",
          "type": "uint256"
        },
        {
          "internalType": "string",
          "name": "_addressProperty",
          "type": "string"
        }
      ],
      "name": "createContract",
      "outputs": [],
      "stateMutability": "nonpayable",
      "type": "function"
    },
    {
      "inputs": [
        {
          "internalType": "uint256",
          "name": "_contractId",
          "type": "uint256"
        }
      ],
      "name": "deposit",
      "outputs": [],
      "stateMutability": "payable",
      "type": "function",
      "payable": true
    },
    {
      "inputs": [
        {
          "internalType": "uint256",
          "name": "_contractId",
          "type": "uint256"
        }
      ],
      "name": "payRent",
      "outputs": [],
      "stateMutability": "payable",
      "type": "function",
      "payable": true
    },
    {
      "inputs": [
        {
          "internalType": "uint256",
          "name": "_contractId",
          "type": "uint256"
        }
      ],
      "name": "endContract",
      "outputs": [],
      "stateMutability": "nonpayable",
      "type": "function"
    },
    {
      "inputs": [
        {
          "internalType": "uint256",
          "name": "_contractId",
          "type": "uint256"
        },
        {
          "internalType": "bool",
          "name": "notifyBefore30Days",
          "type": "bool"
        }
      ],
      "name": "cancelContractByRenter",
      "outputs": [],
      "stateMutability": "payable",
      "type": "function",
      "payable": true
    },
    {
      "inputs": [
        {
          "internalType": "uint256",
          "name": "_contractId",
          "type": "uint256"
        },
        {
          "internalType": "bool",
          "name": "notifyBefore30Days",
          "type": "bool"
        }
      ],
      "name": "cancelContractByOwner",
      "outputs": [],
      "stateMutability": "payable",
      "type": "function",
      "payable": true
    },
    {
      "inputs": [
        {
          "internalType": "uint256",
          "name": "_contractId",
          "type": "uint256"
        }
      ],
      "name": "getContractDetails",
      "outputs": [
        {
          "components": [
            {
              "internalType": "address payable",
              "name": "owner",
              "type": "address"
            },
            {
              "internalType": "address payable",
              "name": "renter",
              "type": "address"
            },
            {
              "internalType": "uint256",
              "name": "startDate",
              "type": "uint256"
            },
            {
              "internalType": "uint256",
              "name": "endDate",
              "type": "uint256"
            },
            {
              "internalType": "uint256",
              "name": "depositAmount",
              "type": "uint256"
            },
            {
              "internalType": "uint256",
              "name": "monthlyRent",
              "type": "uint256"
            },
            {
              "internalType": "enum RentalContract.RentalStatus",
              "name": "status",
              "type": "uint8"
            },
            {
              "internalType": "string",
              "name": "addressProperty",
              "type": "string"
            }
          ],
          "internalType": "struct RentalContract.Contract",
          "name": "",
          "type": "tuple"
        }
      ],
      "stateMutability": "view",
      "type": "function",
      "constant": true
    },
    {
      "inputs": [
        {
          "internalType": "uint256",
          "name": "_contractId",
          "type": "uint256"
        }
      ],
      "name": "getContractTransactions",
      "outputs": [
        {
          "components": [
            {
              "internalType": "address",
              "name": "from",
              "type": "address"
            },
            {
              "internalType": "address",
              "name": "to",
              "type": "address"
            },
            {
              "internalType": "uint256",
              "name": "amount",
              "type": "uint256"
            },
            {
              "internalType": "uint256",
              "name": "timestamp",
              "type": "uint256"
            },
            {
              "internalType": "string",
              "name": "transactionType",
              "type": "string"
            }
          ],
          "internalType": "struct RentalContract.Transaction[]",
          "name": "",
          "type": "tuple[]"
        }
      ],
      "stateMutability": "view",
      "type": "function",
      "constant": true
    }
  ],
  "bytecode": "0x6080604052600160025534801561001557600080fd5b50613baa806100256000396000f3fe60806040526004361061009c5760003560e01c80638d3b9ed1116100645780638d3b9ed1146101bc5780639a262c6a146101e55780639b4bc53014610201578063b6b55f251461022c578063c85a6b3d14610248578063d9e8843f146102715761009c565b80633257ede5146100a1578063474da79a146100de5780634990268a146101225780634d6d6a9c1461013e5780636b0500ed1461017b575b600080fd5b3480156100ad57600080fd5b506100c860048036038101906100c391906128aa565b61028d565b6040516100d59190613511565b60405180910390f35b3480156100ea57600080fd5b50610105600480360381019061010091906128aa565b61070d565b6040516101199897969594939291906132ea565b60405180910390f35b61013c600480360381019061013791906128d3565b61082a565b005b34801561014a57600080fd5b50610165600480360381019061016091906128aa565b610d42565b6040516101729190613773565b60405180910390f35b34801561018757600080fd5b506101a2600480360381019061019d919061290f565b61100e565b6040516101b39594939291906134b7565b60405180910390f35b3480156101c857600080fd5b506101e360048036038101906101de91906127f4565b611129565b005b6101ff60048036038101906101fa91906128d3565b611531565b005b34801561020d57600080fd5b50610216611a55565b6040516102239190613795565b60405180910390f35b610246600480360381019061024191906128aa565b611a5b565b005b34801561025457600080fd5b5061026f600480360381019061026a91906128aa565b611d3f565b005b61028b600480360381019061028691906128aa565b61203e565b005b60606000806000848152602001908152602001600020604051806101000160405290816000820160009054906101000a900473ffffffffffffffffffffffffffffffffffffffff1673ffffffffffffffffffffffffffffffffffffffff1673ffffffffffffffffffffffffffffffffffffffff1681526020016001820160009054906101000a900473ffffffffffffffffffffffffffffffffffffffff1673ffffffffffffffffffffffffffffffffffffffff1673ffffffffffffffffffffffffffffffffffffffff168152602001600282015481526020016003820154815260200160048201548152602001600582015481526020016006820160009054906101000a900460ff1660038111156103ce577f4e487b7100000000000000000000000000000000000000000000000000000000600052602160045260246000fd5b6003811115610406577f4e487b7100000000000000000000000000000000000000000000000000000000600052602160045260246000fd5b815260200160078201805461041a906139d3565b80601f0160208091040260200160405190810160405280929190818152602001828054610446906139d3565b80156104935780601f1061046857610100808354040283529160200191610493565b820191906000526020600020905b81548152906001019060200180831161047657829003601f168201915b5050505050815250509050806000015173ffffffffffffffffffffffffffffffffffffffff163373ffffffffffffffffffffffffffffffffffffffff16148061050b5750806020015173ffffffffffffffffffffffffffffffffffffffff163373ffffffffffffffffffffffffffffffffffffffff16145b61054a576040517f08c379a000000000000000000000000000000000000000000000000000000000815260040161054190613633565b60405180910390fd5b60016000848152602001908152602001600020805480602002602001604051908101604052809291908181526020016000905b8282101561070157838290600052602060002090600502016040518060a00160405290816000820160009054906101000a900473ffffffffffffffffffffffffffffffffffffffff1673ffffffffffffffffffffffffffffffffffffffff1673ffffffffffffffffffffffffffffffffffffffff1681526020016001820160009054906101000a900473ffffffffffffffffffffffffffffffffffffffff1673ffffffffffffffffffffffffffffffffffffffff1673ffffffffffffffffffffffffffffffffffffffff1681526020016002820154815260200160038201548152602001600482018054610670906139d3565b80601f016020809104026020016040519081016040528092919081815260200182805461069c906139d3565b80156106e95780601f106106be576101008083540402835291602001916106e9565b820191906000526020600020905b8154815290600101906020018083116106cc57829003601f168201915b5050505050815250508152602001906001019061057d565b50505050915050919050565b60006020528060005260406000206000915090508060000160009054906101000a900473ffffffffffffffffffffffffffffffffffffffff16908060010160009054906101000a900473ffffffffffffffffffffffffffffffffffffffff16908060020154908060030154908060040154908060050154908060060160009054906101000a900460ff16908060070180546107a7906139d3565b80601f01602080910402602001604051908101604052809291908181526020018280546107d3906139d3565b80156108205780601f106107f557610100808354040283529160200191610820565b820191906000526020600020905b81548152906001019060200180831161080357829003601f168201915b5050505050905088565b8160008082815260200190815260200160002060000160009054906101000a900473ffffffffffffffffffffffffffffffffffffffff1673ffffffffffffffffffffffffffffffffffffffff163373ffffffffffffffffffffffffffffffffffffffff16146108ce576040517f08c379a00000000000000000000000000000000000000000000000000000000081526004016108c590613553565b60405180910390fd5b82600380811115610908577f4e487b7100000000000000000000000000000000000000000000000000000000600052602160045260246000fd5b60008083815260200190815260200160002060060160009054906101000a900460ff166003811115610963577f4e487b7100000000000000000000000000000000000000000000000000000000600052602160045260246000fd5b14156109a4576040517f08c379a000000000000000000000000000000000000000000000000000000000815260040161099b90613753565b60405180910390fd5b60008060008681526020019081526020016000209050600084610a9a578160050154905060008260010160009054906101000a900473ffffffffffffffffffffffffffffffffffffffff1673ffffffffffffffffffffffffffffffffffffffff1682604051610a129061327d565b60006040518083038185875af1925050503d8060008114610a4f576040519150601f19603f3d011682016040523d82523d6000602084013e610a54565b606091505b5050905080610a98576040517f08c379a0000000000000000000000000000000000000000000000000000000008152600401610a8f906136f3565b60405180910390fd5b505b60016003811115610ad4577f4e487b7100000000000000000000000000000000000000000000000000000000600052602160045260246000fd5b8260060160009054906101000a900460ff166003811115610b1e577f4e487b7100000000000000000000000000000000000000000000000000000000600052602160045260246000fd5b1480610bab575060026003811115610b5f577f4e487b7100000000000000000000000000000000000000000000000000000000600052602160045260246000fd5b8260060160009054906101000a900460ff166003811115610ba9577f4e487b7100000000000000000000000000000000000000000000000000000000600052602160045260246000fd5b145b15610c865760008260010160009054906101000a900473ffffffffffffffffffffffffffffffffffffffff1673ffffffffffffffffffffffffffffffffffffffff168360040154604051610bfe9061327d565b60006040518083038185875af1925050503d8060008114610c3b576040519150601f19603f3d011682016040523d82523d6000602084013e610c40565b606091505b5050905080610c84576040517f08c379a0000000000000000000000000000000000000000000000000000000008152600401610c7b90613533565b60405180910390fd5b505b60038260060160006101000a81548160ff02191690836003811115610cd4577f4e487b7100000000000000000000000000000000000000000000000000000000600052602160045260246000fd5b02179055507f1dc21aa8807070e92e91089a649cab58fae1f758f3a76282193c35a25702836e8260000160009054906101000a900473ffffffffffffffffffffffffffffffffffffffff16828842604051610d32949392919061336f565b60405180910390a1505050505050565b610d4a612601565b6000806000848152602001908152602001600020604051806101000160405290816000820160009054906101000a900473ffffffffffffffffffffffffffffffffffffffff1673ffffffffffffffffffffffffffffffffffffffff1673ffffffffffffffffffffffffffffffffffffffff1681526020016001820160009054906101000a900473ffffffffffffffffffffffffffffffffffffffff1673ffffffffffffffffffffffffffffffffffffffff1673ffffffffffffffffffffffffffffffffffffffff168152602001600282015481526020016003820154815260200160048201548152602001600582015481526020016006820160009054906101000a900460ff166003811115610e89577f4e487b7100000000000000000000000000000000000000000000000000000000600052602160045260246000fd5b6003811115610ec1577f4e487b7100000000000000000000000000000000000000000000000000000000600052602160045260246000fd5b8152602001600782018054610ed5906139d3565b80601f0160208091040260200160405190810160405280929190818152602001828054610f01906139d3565b8015610f4e5780601f10610f2357610100808354040283529160200191610f4e565b820191906000526020600020905b815481529060010190602001808311610f3157829003601f168201915b5050505050815250509050806000015173ffffffffffffffffffffffffffffffffffffffff163373ffffffffffffffffffffffffffffffffffffffff161480610fc65750806020015173ffffffffffffffffffffffffffffffffffffffff163373ffffffffffffffffffffffffffffffffffffffff16145b611005576040517f08c379a0000000000000000000000000000000000000000000000000000000008152600401610ffc906136b3565b60405180910390fd5b80915050919050565b6001602052816000526040600020818154811061102a57600080fd5b9060005260206000209060050201600091509150508060000160009054906101000a900473ffffffffffffffffffffffffffffffffffffffff16908060010160009054906101000a900473ffffffffffffffffffffffffffffffffffffffff16908060020154908060030154908060040180546110a6906139d3565b80601f01602080910402602001604051908101604052809291908181526020018280546110d2906139d3565b801561111f5780601f106110f45761010080835404028352916020019161111f565b820191906000526020600020905b81548152906001019060200180831161110257829003601f168201915b5050505050905085565b868073ffffffffffffffffffffffffffffffffffffffff163373ffffffffffffffffffffffffffffffffffffffff1614611198576040517f08c379a000000000000000000000000000000000000000000000000000000000815260040161118f90613673565b60405180910390fd5b600073ffffffffffffffffffffffffffffffffffffffff168873ffffffffffffffffffffffffffffffffffffffff161415611208576040517f08c379a00000000000000000000000000000000000000000000000000000000081526004016111ff90613653565b60405180910390fd5b600073ffffffffffffffffffffffffffffffffffffffff168773ffffffffffffffffffffffffffffffffffffffff161415611278576040517f08c379a000000000000000000000000000000000000000000000000000000000815260040161126f906135d3565b60405180910390fd5b8486106112ba576040517f08c379a00000000000000000000000000000000000000000000000000000000081526004016112b190613593565b60405180910390fd5b6000600260008154809291906112cf90613a05565b91905055905060006040518061010001604052808b73ffffffffffffffffffffffffffffffffffffffff1681526020018a73ffffffffffffffffffffffffffffffffffffffff1681526020018981526020018881526020018781526020018681526020016000600381111561136d577f4e487b7100000000000000000000000000000000000000000000000000000000600052602160045260246000fd5b81526020018581525090508060008084815260200190815260200160002060008201518160000160006101000a81548173ffffffffffffffffffffffffffffffffffffffff021916908373ffffffffffffffffffffffffffffffffffffffff16021790555060208201518160010160006101000a81548173ffffffffffffffffffffffffffffffffffffffff021916908373ffffffffffffffffffffffffffffffffffffffff16021790555060408201518160020155606082015181600301556080820151816004015560a0820151816005015560c08201518160060160006101000a81548160ff02191690836003811115611492577f4e487b7100000000000000000000000000000000000000000000000000000000600052602160045260246000fd5b021790555060e08201518160070190805190602001906114b39291906126aa565b509050508873ffffffffffffffffffffffffffffffffffffffff168a73ffffffffffffffffffffffffffffffffffffffff16837f928d9ed61ae4572fd53382173658d163c7fd4466d2293209d8ca783f42cc71e58b8b8b8b8b60405161151d9594939291906137b0565b60405180910390a450505050505050505050565b8160008082815260200190815260200160002060010160009054906101000a900473ffffffffffffffffffffffffffffffffffffffff1673ffffffffffffffffffffffffffffffffffffffff163373ffffffffffffffffffffffffffffffffffffffff16146115d5576040517f08c379a00000000000000000000000000000000000000000000000000000000081526004016115cc90613613565b60405180910390fd5b8260038081111561160f577f4e487b7100000000000000000000000000000000000000000000000000000000600052602160045260246000fd5b60008083815260200190815260200160002060060160009054906101000a900460ff16600381111561166a577f4e487b7100000000000000000000000000000000000000000000000000000000600052602160045260246000fd5b14156116ab576040517f08c379a00000000000000000000000000000000000000000000000000000000081526004016116a290613753565b60405180910390fd5b60008060008681526020019081526020016000209050600080856118c05782600501549050803414611712576040517f08c379a0000000000000000000000000000000000000000000000000000000008152600401611709906135f3565b60405180910390fd5b60008360000160009054906101000a900473ffffffffffffffffffffffffffffffffffffffff1673ffffffffffffffffffffffffffffffffffffffff168260405161175c9061327d565b60006040518083038185875af1925050503d8060008114611799576040519150601f19603f3d011682016040523d82523d6000602084013e61179e565b606091505b50509050806117e2576040517f08c379a00000000000000000000000000000000000000000000000000000000081526004016117d990613693565b60405180910390fd5b8360040154925060008460000160009054906101000a900473ffffffffffffffffffffffffffffffffffffffff1673ffffffffffffffffffffffffffffffffffffffff16846040516118339061327d565b60006040518083038185875af1925050503d8060008114611870576040519150601f19603f3d011682016040523d82523d6000602084013e611875565b606091505b50509050806118b9576040517f08c379a00000000000000000000000000000000000000000000000000000000081526004016118b090613733565b60405180910390fd5b5050611996565b60008360010160009054906101000a900473ffffffffffffffffffffffffffffffffffffffff1673ffffffffffffffffffffffffffffffffffffffff16846004015460405161190e9061327d565b60006040518083038185875af1925050503d806000811461194b576040519150601f19603f3d011682016040523d82523d6000602084013e611950565b606091505b5050905080611994576040517f08c379a000000000000000000000000000000000000000000000000000000000815260040161198b90613533565b60405180910390fd5b505b60038360060160006101000a81548160ff021916908360038111156119e4577f4e487b7100000000000000000000000000000000000000000000000000000000600052602160045260246000fd5b02179055507fdc58c53a744e2f800430f6ba17ee79f387de734fae71f9b804356c7b194cce5e8360010160009054906101000a900473ffffffffffffffffffffffffffffffffffffffff1683838a42604051611a449594939291906133b4565b60405180910390a150505050505050565b60025481565b8060008082815260200190815260200160002060010160009054906101000a900473ffffffffffffffffffffffffffffffffffffffff1673ffffffffffffffffffffffffffffffffffffffff163373ffffffffffffffffffffffffffffffffffffffff1614611aff576040517f08c379a0000000000000000000000000000000000000000000000000000000008152600401611af690613613565b60405180910390fd5b6000806000848152602001908152602001600020905060006003811115611b4f577f4e487b7100000000000000000000000000000000000000000000000000000000600052602160045260246000fd5b8160060160009054906101000a900460ff166003811115611b99577f4e487b7100000000000000000000000000000000000000000000000000000000600052602160045260246000fd5b14611bd9576040517f08c379a0000000000000000000000000000000000000000000000000000000008152600401611bd090613713565b60405180910390fd5b80600401543414611c1f576040517f08c379a0000000000000000000000000000000000000000000000000000000008152600401611c16906136d3565b60405180910390fd5b60018160060160006101000a81548160ff02191690836003811115611c6d577f4e487b7100000000000000000000000000000000000000000000000000000000600052602160045260246000fd5b0217905550611cd883338360000160009054906101000a900473ffffffffffffffffffffffffffffffffffffffff16346040518060400160405280600781526020017f4465706f736974000000000000000000000000000000000000000000000000008152506124a4565b827f7c1125fa63ff0df75487a4f7f7e9612f2fe97a7f74899a121b7d87e271f45274338360000160009054906101000a900473ffffffffffffffffffffffffffffffffffffffff163442604051611d32949392919061345f565b60405180910390a2505050565b8060008082815260200190815260200160002060000160009054906101000a900473ffffffffffffffffffffffffffffffffffffffff1673ffffffffffffffffffffffffffffffffffffffff163373ffffffffffffffffffffffffffffffffffffffff1614611de3576040517f08c379a0000000000000000000000000000000000000000000000000000000008152600401611dda90613553565b60405180910390fd5b6000806000848152602001908152602001600020905060038160060160006101000a81548160ff02191690836003811115611e47577f4e487b7100000000000000000000000000000000000000000000000000000000600052602160045260246000fd5b021790555060008160010160009054906101000a900473ffffffffffffffffffffffffffffffffffffffff1673ffffffffffffffffffffffffffffffffffffffff168260040154604051611e9a9061327d565b60006040518083038185875af1925050503d8060008114611ed7576040519150601f19603f3d011682016040523d82523d6000602084013e611edc565b606091505b5050905080611f20576040517f08c379a0000000000000000000000000000000000000000000000000000000008152600401611f1790613533565b60405180910390fd5b611fae848360000160009054906101000a900473ffffffffffffffffffffffffffffffffffffffff168460010160009054906101000a900473ffffffffffffffffffffffffffffffffffffffff1685600401546040518060400160405280600681526020017f526566756e6400000000000000000000000000000000000000000000000000008152506124a4565b837f7c1125fa63ff0df75487a4f7f7e9612f2fe97a7f74899a121b7d87e271f452748360000160009054906101000a900473ffffffffffffffffffffffffffffffffffffffff168460010160009054906101000a900473ffffffffffffffffffffffffffffffffffffffff168560040154426040516120309493929190613292565b60405180910390a250505050565b8060008082815260200190815260200160002060010160009054906101000a900473ffffffffffffffffffffffffffffffffffffffff1673ffffffffffffffffffffffffffffffffffffffff163373ffffffffffffffffffffffffffffffffffffffff16146120e2576040517f08c379a00000000000000000000000000000000000000000000000000000000081526004016120d990613613565b60405180910390fd5b6000806000848152602001908152602001600020905060016003811115612132577f4e487b7100000000000000000000000000000000000000000000000000000000600052602160045260246000fd5b8160060160009054906101000a900460ff16600381111561217c577f4e487b7100000000000000000000000000000000000000000000000000000000600052602160045260246000fd5b14806122095750600260038111156121bd577f4e487b7100000000000000000000000000000000000000000000000000000000600052602160045260246000fd5b8160060160009054906101000a900460ff166003811115612207577f4e487b7100000000000000000000000000000000000000000000000000000000600052602160045260246000fd5b145b612248576040517f08c379a000000000000000000000000000000000000000000000000000000000815260040161223f90613573565b60405180910390fd5b8060050154341461228e576040517f08c379a0000000000000000000000000000000000000000000000000000000008152600401612285906135b3565b60405180910390fd5b600160038111156122c8577f4e487b7100000000000000000000000000000000000000000000000000000000600052602160045260246000fd5b8160060160009054906101000a900460ff166003811115612312577f4e487b7100000000000000000000000000000000000000000000000000000000600052602160045260246000fd5b141561236c5760028160060160006101000a81548160ff02191690836003811115612366577f4e487b7100000000000000000000000000000000000000000000000000000000600052602160045260246000fd5b02179055505b8060000160009054906101000a900473ffffffffffffffffffffffffffffffffffffffff1673ffffffffffffffffffffffffffffffffffffffff166108fc349081150290604051600060405180830381858888f193505050501580156123d6573d6000803e3d6000fd5b5061243d83338360000160009054906101000a900473ffffffffffffffffffffffffffffffffffffffff16346040518060400160405280600c81526020017f52656e74205061796d656e7400000000000000000000000000000000000000008152506124a4565b827f7c1125fa63ff0df75487a4f7f7e9612f2fe97a7f74899a121b7d87e271f45274338360000160009054906101000a900473ffffffffffffffffffffffffffffffffffffffff1634426040516124979493929190613407565b60405180910390a2505050565b60006040518060a001604052808673ffffffffffffffffffffffffffffffffffffffff1681526020018573ffffffffffffffffffffffffffffffffffffffff1681526020018481526020014281526020018381525090506001600087815260200190815260200160002081908060018154018082558091505060019003906000526020600020906005020160009091909190915060008201518160000160006101000a81548173ffffffffffffffffffffffffffffffffffffffff021916908373ffffffffffffffffffffffffffffffffffffffff16021790555060208201518160010160006101000a81548173ffffffffffffffffffffffffffffffffffffffff021916908373ffffffffffffffffffffffffffffffffffffffff160217905550604082015181600201556060820151816003015560808201518160040190805190602001906125f69291906126aa565b505050505050505050565b604051806101000160405280600073ffffffffffffffffffffffffffffffffffffffff168152602001600073ffffffffffffffffffffffffffffffffffffffff168152602001600081526020016000815260200160008152602001600081526020016000600381111561269d577f4e487b7100000000000000000000000000000000000000000000000000000000600052602160045260246000fd5b8152602001606081525090565b8280546126b6906139d3565b90600052602060002090601f0160209004810192826126d8576000855561271f565b82601f106126f157805160ff191683800117855561271f565b8280016001018555821561271f579182015b8281111561271e578251825591602001919060010190612703565b5b50905061272c9190612730565b5090565b5b80821115612749576000816000905550600101612731565b5090565b600061276061275b8461383b565b61380a565b90508281526020810184848401111561277857600080fd5b612783848285613991565b509392505050565b60008135905061279a81613b2f565b92915050565b6000813590506127af81613b46565b92915050565b600082601f8301126127c657600080fd5b81356127d684826020860161274d565b91505092915050565b6000813590506127ee81613b5d565b92915050565b600080600080600080600060e0888a03121561280f57600080fd5b600061281d8a828b0161278b565b975050602061282e8a828b0161278b565b965050604061283f8a828b016127df565b95505060606128508a828b016127df565b94505060806128618a828b016127df565b93505060a06128728a828b016127df565b92505060c088013567ffffffffffffffff81111561288f57600080fd5b61289b8a828b016127b5565b91505092959891949750929550565b6000602082840312156128bc57600080fd5b60006128ca848285016127df565b91505092915050565b600080604083850312156128e657600080fd5b60006128f4858286016127df565b9250506020612905858286016127a0565b9150509250929050565b6000806040838503121561292257600080fd5b6000612930858286016127df565b9250506020612941858286016127df565b9150509250929050565b600061295783836131e9565b905092915050565b61296881613949565b82525050565b612977816138ee565b82525050565b612986816138ee565b82525050565b612995816138dc565b82525050565b6129a4816138dc565b82525050565b60006129b58261387b565b6129bf818561389e565b9350836020820285016129d18561386b565b8060005b85811015612a0d57848403895281516129ee858261294b565b94506129f983613891565b925060208a019950506001810190506129d5565b50829750879550505050505092915050565b612a288161395b565b82525050565b612a378161395b565b82525050565b6000612a4882613886565b612a5281856138ba565b9350612a628185602086016139a0565b612a6b81613b0a565b840191505092915050565b6000612a8182613886565b612a8b81856138cb565b9350612a9b8185602086016139a0565b612aa481613b0a565b840191505092915050565b6000612abc601e836138cb565b91507f4465706f73697420726566756e64207472616e73666572206661696c656400006000830152602082019050919050565b6000612afc6006836138cb565b91507f526566756e6400000000000000000000000000000000000000000000000000006000830152602082019050919050565b6000612b3c6026836138cb565b91507f4f6e6c7920746865206f776e65722063616e20706572666f726d20746869732060008301527f616374696f6e00000000000000000000000000000000000000000000000000006020830152604082019050919050565b6000612ba26017836138cb565b91507f52656e74616c20706572696f64206e6f742076616c69640000000000000000006000830152602082019050919050565b6000612be26022836138cb565b91507f53746172742064617465206d757374206265206265666f726520656e6420646160008301527f74650000000000000000000000000000000000000000000000000000000000006020830152604082019050919050565b6000612c486015836138cb565b91507f496e636f72726563742072656e7420616d6f756e7400000000000000000000006000830152602082019050919050565b6000612c886016836138cb565b91507f496e76616c69642072656e7465722061646472657373000000000000000000006000830152602082019050919050565b6000612cc8601d836138cb565b91507f496e636f72726563742065787472612063686172676520616d6f756e740000006000830152602082019050919050565b6000612d086027836138cb565b91507f4f6e6c79207468652072656e7465722063616e20706572666f726d207468697360008301527f20616374696f6e000000000000000000000000000000000000000000000000006020830152604082019050919050565b6000612d6e603b836138cb565b91507f4f6e6c792074686520636f6e7472616374206f776e6572206f722072656e746560008301527f722063616e207669657720746865207472616e73616374696f6e7300000000006020830152604082019050919050565b6000612dd46015836138cb565b91507f496e76616c6964206f776e6572206164647265737300000000000000000000006000830152602082019050919050565b6000612e14602f836138cb565b91507f4f6e6c792074686520636f6e7472616374206f776e65722063616e206372656160008301527f74652074686520636f6e747261637400000000000000000000000000000000006020830152604082019050919050565b6000612e7a601c836138cb565b91507f457874726120636861726765207472616e73666572206661696c6564000000006000830152602082019050919050565b6000612eba603f836138cb565b91507f4f6e6c792074686520636f6e7472616374206f776e6572206f722072656e746560008301527f722063616e20766965772074686520636f6e74726163742064657461696c73006020830152604082019050919050565b6000612f20600c836138cb565b91507f52656e74205061796d656e7400000000000000000000000000000000000000006000830152602082019050919050565b6000612f606018836138cb565b91507f496e636f7272656374206465706f73697420616d6f756e7400000000000000006000830152602082019050919050565b6000612fa06000836138af565b9150600082019050919050565b6000612fba601c836138cb565b91507f436f6d70656e736174696f6e207472616e73666572206661696c6564000000006000830152602082019050919050565b6000612ffa6007836138cb565b91507f4465706f736974000000000000000000000000000000000000000000000000006000830152602082019050919050565b600061303a6028836138cb565b91507f436f6e747261637420737461747573206973206e6f742076616c696420666f7260008301527f206465706f7369740000000000000000000000000000000000000000000000006020830152604082019050919050565b60006130a06017836138cb565b91507f4465706f736974207472616e73666572206661696c65640000000000000000006000830152602082019050919050565b60006130e06021836138cb565b91507f52656e74616c20636f6e74726163742068617320616c726561647920656e646560008301527f64000000000000000000000000000000000000000000000000000000000000006020830152604082019050919050565b600061010083016000830151613152600086018261296e565b506020830151613165602086018261296e565b506040830151613178604086018261325f565b50606083015161318b606086018261325f565b50608083015161319e608086018261325f565b5060a08301516131b160a086018261325f565b5060c08301516131c460c0860182612a1f565b5060e083015184820360e08601526131dc8282612a3d565b9150508091505092915050565b600060a083016000830151613201600086018261298c565b506020830151613214602086018261298c565b506040830151613227604086018261325f565b50606083015161323a606086018261325f565b50608083015184820360808601526132528282612a3d565b9150508091505092915050565b6132688161393f565b82525050565b6132778161393f565b82525050565b600061328882612f93565b9150819050919050565b600060a0820190506132a7600083018761295f565b6132b4602083018661295f565b6132c1604083018561326e565b6132ce606083018461326e565b81810360808301526132df81612aef565b905095945050505050565b600061010082019050613300600083018b61297d565b61330d602083018a61297d565b61331a604083018961326e565b613327606083018861326e565b613334608083018761326e565b61334160a083018661326e565b61334e60c0830185612a2e565b81810360e08301526133608184612a76565b90509998505050505050505050565b6000608082019050613384600083018761295f565b613391602083018661326e565b61339e604083018561326e565b6133ab606083018461326e565b95945050505050565b600060a0820190506133c9600083018861295f565b6133d6602083018761326e565b6133e3604083018661326e565b6133f0606083018561326e565b6133fd608083018461326e565b9695505050505050565b600060a08201905061341c600083018761299b565b613429602083018661295f565b613436604083018561326e565b613443606083018461326e565b818103608083015261345481612f13565b905095945050505050565b600060a082019050613474600083018761299b565b613481602083018661295f565b61348e604083018561326e565b61349b606083018461326e565b81810360808301526134ac81612fed565b905095945050505050565b600060a0820190506134cc600083018861299b565b6134d9602083018761299b565b6134e6604083018661326e565b6134f3606083018561326e565b81810360808301526135058184612a76565b90509695505050505050565b6000602082019050818103600083015261352b81846129aa565b905092915050565b6000602082019050818103600083015261354c81612aaf565b9050919050565b6000602082019050818103600083015261356c81612b2f565b9050919050565b6000602082019050818103600083015261358c81612b95565b9050919050565b600060208201905081810360008301526135ac81612bd5565b9050919050565b600060208201905081810360008301526135cc81612c3b565b9050919050565b600060208201905081810360008301526135ec81612c7b565b9050919050565b6000602082019050818103600083015261360c81612cbb565b9050919050565b6000602082019050818103600083015261362c81612cfb565b9050919050565b6000602082019050818103600083015261364c81612d61565b9050919050565b6000602082019050818103600083015261366c81612dc7565b9050919050565b6000602082019050818103600083015261368c81612e07565b9050919050565b600060208201905081810360008301526136ac81612e6d565b9050919050565b600060208201905081810360008301526136cc81612ead565b9050919050565b600060208201905081810360008301526136ec81612f53565b9050919050565b6000602082019050818103600083015261370c81612fad565b9050919050565b6000602082019050818103600083015261372c8161302d565b9050919050565b6000602082019050818103600083015261374c81613093565b9050919050565b6000602082019050818103600083015261376c816130d3565b9050919050565b6000602082019050818103600083015261378d8184613139565b905092915050565b60006020820190506137aa600083018461326e565b92915050565b600060a0820190506137c5600083018861326e565b6137d2602083018761326e565b6137df604083018661326e565b6137ec606083018561326e565b81810360808301526137fe8184612a76565b90509695505050505050565b6000604051905081810181811067ffffffffffffffff8211171561383157613830613adb565b5b8060405250919050565b600067ffffffffffffffff82111561385657613855613adb565b5b601f19601f8301169050602081019050919050565b6000819050602082019050919050565b600081519050919050565b600081519050919050565b6000602082019050919050565b600082825260208201905092915050565b600081905092915050565b600082825260208201905092915050565b600082825260208201905092915050565b60006138e78261391f565b9050919050565b60006138f98261391f565b9050919050565b60008115159050919050565b600081905061391a82613b1b565b919050565b600073ffffffffffffffffffffffffffffffffffffffff82169050919050565b6000819050919050565b60006139548261396d565b9050919050565b60006139668261390c565b9050919050565b60006139788261397f565b9050919050565b600061398a8261391f565b9050919050565b82818337600083830152505050565b60005b838110156139be5780820151818401526020810190506139a3565b838111156139cd576000848401525b50505050565b600060028204905060018216806139eb57607f821691505b602082108114156139ff576139fe613aac565b5b50919050565b6000613a108261393f565b91507fffffffffffffffffffffffffffffffffffffffffffffffffffffffffffffffff821415613a4357613a42613a4e565b5b600182019050919050565b7f4e487b7100000000000000000000000000000000000000000000000000000000600052601160045260246000fd5b7f4e487b7100000000000000000000000000000000000000000000000000000000600052602160045260246000fd5b7f4e487b7100000000000000000000000000000000000000000000000000000000600052602260045260246000fd5b7f4e487b7100000000000000000000000000000000000000000000000000000000600052604160045260246000fd5b6000601f19601f8301169050919050565b60048110613b2c57613b2b613a7d565b5b50565b613b38816138ee565b8114613b4357600080fd5b50565b613b4f81613900565b8114613b5a57600080fd5b50565b613b668161393f565b8114613b7157600080fd5b5056fea264697066735822122062f27504caad7f1cea15648cbb8235db02e997eb6830057b0390134a23f95a1664736f6c63430008000033",
  "immutableReferences": {},
  "source": "// SPDX-License-Identifier: MIT\r\npragma solidity ^0.8.0;\r\n\r\ncontract RentalContract {\r\n    enum RentalStatus { NotCreated, Deposited, Ongoing, Ended }\r\n\r\n    struct Contract {\r\n        address payable owner;   \r\n        address payable renter;  \r\n        uint startDate;\r\n        uint endDate;\r\n        uint depositAmount;\r\n        uint monthlyRent;\r\n        RentalStatus status;\r\n        string addressProperty;\r\n    }\r\n\r\n    struct Transaction {\r\n        address from;\r\n        address to;\r\n        uint amount;\r\n        uint timestamp;\r\n        string transactionType; // V d: \"Deposit\", \"Rent Payment\", \"Refund\"\r\n    }\r\n\r\n    mapping(uint => Contract) public contracts;\r\n    mapping(uint => Transaction[]) public contractTransactions; // Lu tr cc giao dch ca mi hp ng\r\n    uint public nextContractId = 1;  // Bt u t 1\r\n\r\n    event ContractCreated(uint indexed contractId, address indexed owner, address indexed renter, uint startDate, uint endDate, uint depositAmount, uint monthlyRent, string addressProperty);\r\n    event TransactionRecorded(uint indexed contractId, address from, address to, uint amount, uint timestamp, string transactionType);\r\n    event ContractCancelledByRenter(address renter, uint depositLoss, uint extraCharge, uint contractId, uint timestamp);\r\n    event ContractCancelledByOwner(address owner, uint compensation, uint contractId, uint timestamp);\r\n\r\n    modifier onlyOwner(uint _contractId) {\r\n        require(msg.sender == contracts[_contractId].owner, \"Only the owner can perform this action\");\r\n        _;\r\n    }\r\n\r\n    modifier onlyRenter(uint _contractId) {\r\n        require(msg.sender == contracts[_contractId].renter, \"Only the renter can perform this action\");\r\n        _;\r\n    }\r\n\r\n    modifier rentalNotEnded(uint _contractId) {\r\n        require(contracts[_contractId].status != RentalStatus.Ended, \"Rental contract has already ended\");\r\n        _;\r\n    }\r\n\r\n    modifier onlyContractOwner(address _owner) {\r\n        require(msg.sender == _owner, \"Only the contract owner can create the contract\");\r\n        _;\r\n    }\r\n\r\n    function createContract(\r\n        address payable _owner,\r\n        address payable _renter,\r\n        uint _startDate,\r\n        uint _endDate,\r\n        uint _depositAmount,\r\n        uint _monthlyRent,\r\n        string memory _addressProperty\r\n    ) public onlyContractOwner(_owner) {\r\n        require(_owner != address(0), \"Invalid owner address\");\r\n        require(_renter != address(0), \"Invalid renter address\");\r\n        require(_startDate < _endDate, \"Start date must be before end date\");\r\n\r\n        uint contractId = nextContractId++;\r\n\r\n        Contract memory newContract = Contract({\r\n            owner: _owner,\r\n            renter: _renter,\r\n            startDate: _startDate,\r\n            endDate: _endDate,\r\n            depositAmount: _depositAmount,\r\n            monthlyRent: _monthlyRent,\r\n            status: RentalStatus.NotCreated,\r\n            addressProperty: _addressProperty\r\n        });\r\n\r\n        contracts[contractId] = newContract;\r\n        emit ContractCreated(contractId, _owner, _renter, _startDate, _endDate, _depositAmount, _monthlyRent, _addressProperty);\r\n    }\r\n\r\n    function deposit(uint _contractId) public payable onlyRenter(_contractId) {\r\n        Contract storage contractInfo = contracts[_contractId];\r\n\r\n        require(contractInfo.status == RentalStatus.NotCreated, \"Contract status is not valid for deposit\");\r\n        require(msg.value == contractInfo.depositAmount, \"Incorrect deposit amount\");\r\n\r\n        contractInfo.status = RentalStatus.Deposited;\r\n\r\n        recordTransaction(_contractId, msg.sender, contractInfo.owner, msg.value, \"Deposit\");\r\n\r\n        emit TransactionRecorded(_contractId, msg.sender, contractInfo.owner, msg.value, block.timestamp, \"Deposit\");\r\n    }\r\n\r\n    function payRent(uint _contractId) public payable onlyRenter(_contractId) {\r\n        Contract storage contractInfo = contracts[_contractId];\r\n\r\n        require(contractInfo.status == RentalStatus.Deposited || contractInfo.status == RentalStatus.Ongoing, \"Rental period not valid\");\r\n        require(msg.value == contractInfo.monthlyRent, \"Incorrect rent amount\");\r\n\r\n        if (contractInfo.status == RentalStatus.Deposited) {\r\n            contractInfo.status = RentalStatus.Ongoing;\r\n        }\r\n\r\n        contractInfo.owner.transfer(msg.value);\r\n\r\n        recordTransaction(_contractId, msg.sender, contractInfo.owner, msg.value, \"Rent Payment\");\r\n\r\n        emit TransactionRecorded(_contractId, msg.sender, contractInfo.owner, msg.value, block.timestamp, \"Rent Payment\");\r\n    }\r\n\r\n    function endContract(uint _contractId) public onlyOwner(_contractId) {\r\n        Contract storage contractInfo = contracts[_contractId];\r\n        contractInfo.status = RentalStatus.Ended;\r\n\r\n        (bool success, ) = contractInfo.renter.call{value: contractInfo.depositAmount}(\"\");\r\n        require(success, \"Deposit refund transfer failed\");\r\n\r\n        recordTransaction(_contractId, contractInfo.owner, contractInfo.renter, contractInfo.depositAmount, \"Refund\");\r\n\r\n        emit TransactionRecorded(_contractId, contractInfo.owner, contractInfo.renter, contractInfo.depositAmount, block.timestamp, \"Refund\");\r\n    }\r\n\r\n    function cancelContractByRenter(uint _contractId, bool notifyBefore30Days) public payable onlyRenter(_contractId) rentalNotEnded(_contractId) {\r\n        Contract storage contractInfo = contracts[_contractId];\r\n\r\n        uint depositLoss = 0;\r\n        uint extraCharge = 0;\r\n\r\n        if (!notifyBefore30Days) {\r\n            // Nu khng thng bo trc 30 ngy\r\n            extraCharge = contractInfo.monthlyRent;\r\n            require(msg.value == extraCharge, \"Incorrect extra charge amount\");\r\n\r\n            (bool successExtraCharge, ) = contractInfo.owner.call{value: extraCharge}(\"\");\r\n            require(successExtraCharge, \"Extra charge transfer failed\");\r\n\r\n            depositLoss = contractInfo.depositAmount;\r\n            (bool successDeposit, ) = contractInfo.owner.call{value: depositLoss}(\"\");\r\n            require(successDeposit, \"Deposit transfer failed\");\r\n        } else {\r\n            // Nu thng bo trc 30 ngy\r\n            (bool successRefund, ) = contractInfo.renter.call{value: contractInfo.depositAmount}(\"\");\r\n            require(successRefund, \"Deposit refund transfer failed\");\r\n        }\r\n\r\n        contractInfo.status = RentalStatus.Ended;\r\n        emit ContractCancelledByRenter(contractInfo.renter, depositLoss, extraCharge, _contractId, block.timestamp);\r\n    }\r\n\r\n    function cancelContractByOwner(uint _contractId, bool notifyBefore30Days) public payable onlyOwner(_contractId) rentalNotEnded(_contractId) {\r\n        Contract storage contractInfo = contracts[_contractId];\r\n\r\n        uint compensation = 0;\r\n\r\n        if (!notifyBefore30Days) {\r\n            // Nu khng thng bo trc 30 ngy, ch nh phi bi thng\r\n            compensation = contractInfo.monthlyRent;\r\n\r\n            (bool successCompensation, ) = contractInfo.renter.call{value: compensation}(\"\");\r\n            require(successCompensation, \"Compensation transfer failed\");\r\n        }\r\n\r\n        if (contractInfo.status == RentalStatus.Deposited || contractInfo.status == RentalStatus.Ongoing) {\r\n            (bool successDeposit, ) = contractInfo.renter.call{value: contractInfo.depositAmount}(\"\");\r\n            require(successDeposit, \"Deposit refund transfer failed\");\r\n        }\r\n\r\n        contractInfo.status = RentalStatus.Ended;\r\n        emit ContractCancelledByOwner(contractInfo.owner, compensation, _contractId, block.timestamp);\r\n    }\r\n\r\n    function recordTransaction(uint _contractId, address _from, address _to, uint _amount, string memory _transactionType) internal {\r\n        Transaction memory newTransaction = Transaction({\r\n            from: _from,\r\n            to: _to,\r\n            amount: _amount,\r\n            timestamp: block.timestamp,\r\n            transactionType: _transactionType\r\n        });\r\n\r\n        contractTransactions[_contractId].push(newTransaction);\r\n    }\r\n\r\n    function getContractDetails(uint _contractId) public view returns (Contract memory) {\r\n    Contract memory contractInfo = contracts[_contractId];\r\n    \r\n    // Kim tra quyn truy cp\r\n    require(msg.sender == contractInfo.owner || msg.sender == contractInfo.renter, \"Only the contract owner or renter can view the contract details\");\r\n\r\n    return contractInfo;\r\n}\r\n\r\n\r\n    function getContractTransactions(uint _contractId) public view returns (Transaction[] memory) {\r\n        Contract memory contractInfo = contracts[_contractId];\r\n\r\n        require(msg.sender == contractInfo.owner || msg.sender == contractInfo.renter, \"Only the contract owner or renter can view the transactions\");\r\n\r\n        return contractTransactions[_contractId];\r\n    }\r\n}\r\n",
  "sourcePath": "C:\\g\\kltn-backend\\contract-service\\contractRental\\contracts\\RentalContract.sol",
  "compiler": {
    "name": "solc",
    "version": "0.8.0+commit.c7dfd78e.Emscripten.clang"
  },
  "schemaVersion": "3.4.16",
  "updatedAt": "2024-08-27T15:13:41.196Z",
  "networkType": "ethereum",
  "devdoc": {
    "kind": "dev",
    "methods": {},
    "version": 1
  },
  "userdoc": {
    "kind": "user",
    "methods": {},
    "version": 1
  }
}