{
  "contractName": "RentalContract",
  "abi": [
    {
      "anonymous": false,
      "inputs": [
        {
          "indexed": true,
          "internalType": "string",
          "name": "contractID",
          "type": "string"
        },
        {
          "indexed": true,
          "internalType": "address",
          "name": "owner",
          "type": "address"
        },
        {
          "indexed": false,
          "internalType": "uint256",
          "name": "compensation",
          "type": "uint256"
        },
        {
          "indexed": false,
          "internalType": "uint256",
          "name": "timestamp",
          "type": "uint256"
        }
      ],
      "name": "ContractCancelledByOwner",
      "type": "event"
    },
    {
      "anonymous": false,
      "inputs": [
        {
          "indexed": true,
          "internalType": "string",
          "name": "contractID",
          "type": "string"
        },
        {
          "indexed": true,
          "internalType": "address",
          "name": "renter",
          "type": "address"
        },
        {
          "indexed": false,
          "internalType": "uint256",
          "name": "depositLoss",
          "type": "uint256"
        },
        {
          "indexed": false,
          "internalType": "uint256",
          "name": "extraCharge",
          "type": "uint256"
        },
        {
          "indexed": false,
          "internalType": "uint256",
          "name": "timestamp",
          "type": "uint256"
        }
      ],
      "name": "ContractCancelledByRenter",
      "type": "event"
    },
    {
      "anonymous": false,
      "inputs": [
        {
          "indexed": true,
          "internalType": "string",
          "name": "contractID",
          "type": "string"
        },
        {
          "indexed": false,
          "internalType": "string",
          "name": "propertyID",
          "type": "string"
        },
        {
          "indexed": true,
          "internalType": "address",
          "name": "owner",
          "type": "address"
        },
        {
          "indexed": true,
          "internalType": "address",
          "name": "renter",
          "type": "address"
        },
        {
          "indexed": false,
          "internalType": "uint256",
          "name": "depositAmount",
          "type": "uint256"
        },
        {
          "indexed": false,
          "internalType": "uint256",
          "name": "monthlyRent",
          "type": "uint256"
        }
      ],
      "name": "ContractCreated",
      "type": "event"
    },
    {
      "anonymous": false,
      "inputs": [
        {
          "indexed": true,
          "internalType": "string",
          "name": "contractID",
          "type": "string"
        },
        {
          "indexed": true,
          "internalType": "address",
          "name": "renter",
          "type": "address"
        },
        {
          "indexed": false,
          "internalType": "uint256",
          "name": "depositRefundAmount",
          "type": "uint256"
        },
        {
          "indexed": false,
          "internalType": "uint256",
          "name": "timestamp",
          "type": "uint256"
        }
      ],
      "name": "ContractEnded",
      "type": "event"
    },
    {
      "anonymous": false,
      "inputs": [
        {
          "indexed": true,
          "internalType": "string",
          "name": "contractID",
          "type": "string"
        },
        {
          "indexed": false,
          "internalType": "string",
          "name": "reason",
          "type": "string"
        }
      ],
      "name": "ContractTerminated",
      "type": "event"
    },
    {
      "anonymous": false,
      "inputs": [
        {
          "indexed": true,
          "internalType": "string",
          "name": "contractID",
          "type": "string"
        },
        {
          "indexed": false,
          "internalType": "address",
          "name": "from",
          "type": "address"
        },
        {
          "indexed": false,
          "internalType": "address",
          "name": "to",
          "type": "address"
        },
        {
          "indexed": false,
          "internalType": "uint256",
          "name": "amount",
          "type": "uint256"
        },
        {
          "indexed": false,
          "internalType": "uint256",
          "name": "timestamp",
          "type": "uint256"
        },
        {
          "indexed": false,
          "internalType": "string",
          "name": "transactionType",
          "type": "string"
        }
      ],
      "name": "TransactionRecorded",
      "type": "event"
    },
    {
      "inputs": [
        {
          "internalType": "string",
          "name": "",
          "type": "string"
        },
        {
          "internalType": "uint256",
          "name": "",
          "type": "uint256"
        }
      ],
      "name": "contractTransactions",
      "outputs": [
        {
          "internalType": "address",
          "name": "from",
          "type": "address"
        },
        {
          "internalType": "address",
          "name": "to",
          "type": "address"
        },
        {
          "internalType": "uint256",
          "name": "amount",
          "type": "uint256"
        },
        {
          "internalType": "uint256",
          "name": "timestamp",
          "type": "uint256"
        },
        {
          "internalType": "string",
          "name": "transactionType",
          "type": "string"
        }
      ],
      "stateMutability": "view",
      "type": "function",
      "constant": true
    },
    {
      "inputs": [
        {
          "internalType": "string",
          "name": "",
          "type": "string"
        }
      ],
      "name": "contracts",
      "outputs": [
        {
          "internalType": "string",
          "name": "contractID",
          "type": "string"
        },
        {
          "internalType": "string",
          "name": "propertyID",
          "type": "string"
        },
        {
          "internalType": "address payable",
          "name": "owner",
          "type": "address"
        },
        {
          "internalType": "address payable",
          "name": "renter",
          "type": "address"
        },
        {
          "internalType": "uint256",
          "name": "depositAmount",
          "type": "uint256"
        },
        {
          "internalType": "uint256",
          "name": "monthlyRent",
          "type": "uint256"
        },
        {
          "internalType": "enum RentalContract.RentalStatus",
          "name": "status",
          "type": "uint8"
        }
      ],
      "stateMutability": "view",
      "type": "function",
      "constant": true
    },
    {
      "inputs": [
        {
          "internalType": "string",
          "name": "_contractID",
          "type": "string"
        },
        {
          "internalType": "string",
          "name": "_propertyID",
          "type": "string"
        },
        {
          "internalType": "address payable",
          "name": "_owner",
          "type": "address"
        },
        {
          "internalType": "address payable",
          "name": "_renter",
          "type": "address"
        },
        {
          "internalType": "uint256",
          "name": "_depositAmount",
          "type": "uint256"
        },
        {
          "internalType": "uint256",
          "name": "_monthlyRent",
          "type": "uint256"
        }
      ],
      "name": "createContract",
      "outputs": [],
      "stateMutability": "nonpayable",
      "type": "function"
    },
    {
      "inputs": [
        {
          "internalType": "string",
          "name": "_contractID",
          "type": "string"
        }
      ],
      "name": "deposit",
      "outputs": [],
      "stateMutability": "payable",
      "type": "function",
      "payable": true
    },
    {
      "inputs": [
        {
          "internalType": "string",
          "name": "_contractID",
          "type": "string"
        }
      ],
      "name": "payRent",
      "outputs": [],
      "stateMutability": "payable",
      "type": "function",
      "payable": true
    },
    {
      "inputs": [
        {
          "internalType": "string",
          "name": "_contractID",
          "type": "string"
        }
      ],
      "name": "endContract",
      "outputs": [],
      "stateMutability": "nonpayable",
      "type": "function"
    },
    {
      "inputs": [
        {
          "internalType": "string",
          "name": "_contractID",
          "type": "string"
        }
      ],
      "name": "getContractDetails",
      "outputs": [
        {
          "components": [
            {
              "internalType": "string",
              "name": "contractID",
              "type": "string"
            },
            {
              "internalType": "string",
              "name": "propertyID",
              "type": "string"
            },
            {
              "internalType": "address payable",
              "name": "owner",
              "type": "address"
            },
            {
              "internalType": "address payable",
              "name": "renter",
              "type": "address"
            },
            {
              "internalType": "uint256",
              "name": "depositAmount",
              "type": "uint256"
            },
            {
              "internalType": "uint256",
              "name": "monthlyRent",
              "type": "uint256"
            },
            {
              "internalType": "enum RentalContract.RentalStatus",
              "name": "status",
              "type": "uint8"
            }
          ],
          "internalType": "struct RentalContract.Contract",
          "name": "",
          "type": "tuple"
        }
      ],
      "stateMutability": "view",
      "type": "function",
      "constant": true
    },
    {
      "inputs": [
        {
          "internalType": "string",
          "name": "_contractID",
          "type": "string"
        }
      ],
      "name": "getContractTransactions",
      "outputs": [
        {
          "components": [
            {
              "internalType": "address",
              "name": "from",
              "type": "address"
            },
            {
              "internalType": "address",
              "name": "to",
              "type": "address"
            },
            {
              "internalType": "uint256",
              "name": "amount",
              "type": "uint256"
            },
            {
              "internalType": "uint256",
              "name": "timestamp",
              "type": "uint256"
            },
            {
              "internalType": "string",
              "name": "transactionType",
              "type": "string"
            }
          ],
          "internalType": "struct RentalContract.Transaction[]",
          "name": "",
          "type": "tuple[]"
        }
      ],
      "stateMutability": "view",
      "type": "function",
      "constant": true
    },
    {
      "inputs": [
        {
          "internalType": "string",
          "name": "_contractId",
          "type": "string"
        }
      ],
      "name": "terminateForNonPayment",
      "outputs": [],
      "stateMutability": "nonpayable",
      "type": "function"
    },
    {
      "inputs": [
        {
          "internalType": "string",
          "name": "_contractId",
          "type": "string"
        },
        {
          "internalType": "bool",
          "name": "notifyBefore30Days",
          "type": "bool"
        },
        {
          "internalType": "uint256",
          "name": "depositAmount",
          "type": "uint256"
        }
      ],
      "name": "cancelContractByRenter",
      "outputs": [],
      "stateMutability": "payable",
      "type": "function",
      "payable": true
    },
    {
      "inputs": [
        {
          "internalType": "string",
          "name": "_contractId",
          "type": "string"
        },
        {
          "internalType": "bool",
          "name": "notifyBefore30Days",
          "type": "bool"
        },
        {
          "internalType": "uint256",
          "name": "monthlyRent",
          "type": "uint256"
        },
        {
          "internalType": "uint256",
          "name": "depositAmount",
          "type": "uint256"
        }
      ],
      "name": "cancelContractByOwner",
      "outputs": [],
      "stateMutability": "payable",
      "type": "function",
      "payable": true
    }
  ],
  "bytecode": "0x608060405234801561001057600080fd5b5061451f806100206000396000f3fe60806040526004361061009c5760003560e01c80637bef444c116100645780637bef444c146101685780638c5b838514610184578063a26e1186146101c7578063bfafff5b146101e3578063cd7c114714610220578063d6ba4006146102615761009c565b8063158a518e146100a15780631f0833af146100bd5780632b27ddd0146100e657806340b815fe1461010f578063541881c11461012b575b600080fd5b6100bb60048036038101906100b6919061301d565b61028a565b005b3480156100c957600080fd5b506100e460048036038101906100df9190612f75565b610831565b005b3480156100f257600080fd5b5061010d60048036038101906101089190613098565b610d28565b005b61012960048036038101906101249190612fb6565b6110b3565b005b34801561013757600080fd5b50610152600480360381019061014d9190612f75565b61154d565b60405161015f9190613e2b565b60405180910390f35b610182600480360381019061017d9190612f75565b611a60565b005b34801561019057600080fd5b506101ab60048036038101906101a69190612f75565b611f6c565b6040516101be9796959493929190613e4d565b60405180910390f35b6101e160048036038101906101dc9190612f75565b612121565b005b3480156101ef57600080fd5b5061020a60048036038101906102059190612f75565b612445565b6040516102179190614148565b60405180910390f35b34801561022c57600080fd5b5061024760048036038101906102429190613151565b612799565b604051610258959493929190613dd1565b60405180910390f35b34801561026d57600080fd5b5061028860048036038101906102839190612f75565b6128ca565b005b8360008160405161029b9190613cf5565b908152602001604051809103902060020160009054906101000a900473ffffffffffffffffffffffffffffffffffffffff1673ffffffffffffffffffffffffffffffffffffffff163373ffffffffffffffffffffffffffffffffffffffff161461033a576040517f08c379a000000000000000000000000000000000000000000000000000000000815260040161033190613f48565b60405180910390fd5b6000808660405161034b9190613cf5565b908152602001604051809103902090506000856104da57849050803373ffffffffffffffffffffffffffffffffffffffff163110156103bf576040517f08c379a00000000000000000000000000000000000000000000000000000000081526004016103b6906140c8565b60405180910390fd5b60008260030160009054906101000a900473ffffffffffffffffffffffffffffffffffffffff1673ffffffffffffffffffffffffffffffffffffffff168260405161040990613d0c565b60006040518083038185875af1925050503d8060008114610446576040519150601f19603f3d011682016040523d82523d6000602084013e61044b565b606091505b505090508061048f576040517f08c379a000000000000000000000000000000000000000000000000000000000815260040161048690614048565b60405180910390fd5b6104d888338560030160009054906101000a900473ffffffffffffffffffffffffffffffffffffffff16856040518060600160405280602281526020016144c860229139612c28565b505b60016003811115610514577f4e487b7100000000000000000000000000000000000000000000000000000000600052602160045260246000fd5b8260060160009054906101000a900460ff16600381111561055e577f4e487b7100000000000000000000000000000000000000000000000000000000600052602160045260246000fd5b14806105eb57506002600381111561059f577f4e487b7100000000000000000000000000000000000000000000000000000000600052602160045260246000fd5b8260060160009054906101000a900460ff1660038111156105e9577f4e487b7100000000000000000000000000000000000000000000000000000000600052602160045260246000fd5b145b1561076f5783471015610633576040517f08c379a000000000000000000000000000000000000000000000000000000000815260040161062a906140a8565b60405180910390fd5b60008260030160009054906101000a900473ffffffffffffffffffffffffffffffffffffffff1673ffffffffffffffffffffffffffffffffffffffff16836004015460405161068190613d0c565b60006040518083038185875af1925050503d80600081146106be576040519150601f19603f3d011682016040523d82523d6000602084013e6106c3565b606091505b5050905080610707576040517f08c379a00000000000000000000000000000000000000000000000000000000081526004016106fe90614108565b60405180910390fd5b61076d88338560030160009054906101000a900473ffffffffffffffffffffffffffffffffffffffff16886040518060400160405280601881526020017f5469e1bb816e2063e1bb8d6320686fc3a06e207472e1baa30000000000000000815250612c28565b505b60038260060160006101000a81548160ff021916908360038111156107bd577f4e487b7100000000000000000000000000000000000000000000000000000000600052602160045260246000fd5b02179055503373ffffffffffffffffffffffffffffffffffffffff16876040516107e79190613cf5565b60405180910390207fe2da9dcf01d3bce438e81353c3540671c45029b87abdf8074d5a9bfb045ef6f9834260405161082092919061416a565b60405180910390a350505050505050565b600080826040516108429190613cf5565b908152602001604051809103902090506000600381111561088c577f4e487b7100000000000000000000000000000000000000000000000000000000600052602160045260246000fd5b8160060160009054906101000a900460ff1660038111156108d6577f4e487b7100000000000000000000000000000000000000000000000000000000600052602160045260246000fd5b14156109345760038160060160006101000a81548160ff0219169083600381111561092a577f4e487b7100000000000000000000000000000000000000000000000000000000600052602160045260246000fd5b0217905550610c96565b6001600381111561096e577f4e487b7100000000000000000000000000000000000000000000000000000000600052602160045260246000fd5b8160060160009054906101000a900460ff1660038111156109b8577f4e487b7100000000000000000000000000000000000000000000000000000000600052602160045260246000fd5b1480610a455750600260038111156109f9577f4e487b7100000000000000000000000000000000000000000000000000000000600052602160045260246000fd5b8160060160009054906101000a900460ff166003811115610a43577f4e487b7100000000000000000000000000000000000000000000000000000000600052602160045260246000fd5b145b15610c5a57600081600401541115610c02578060040154471015610a9e576040517f08c379a0000000000000000000000000000000000000000000000000000000008152600401610a95906140a8565b60405180910390fd5b60008160030160009054906101000a900473ffffffffffffffffffffffffffffffffffffffff1673ffffffffffffffffffffffffffffffffffffffff168260040154604051610aec90613d0c565b60006040518083038185875af1925050503d8060008114610b29576040519150601f19603f3d011682016040523d82523d6000602084013e610b2e565b606091505b5050905080610b72576040517f08c379a0000000000000000000000000000000000000000000000000000000008152600401610b6990614108565b60405180910390fd5b610c00838360020160009054906101000a900473ffffffffffffffffffffffffffffffffffffffff168460030160009054906101000a900473ffffffffffffffffffffffffffffffffffffffff1685600401546040518060400160405280601881526020017f5469e1bb816e2063e1bb8d6320686fc3a06e207472e1baa30000000000000000815250612c28565b505b60038160060160006101000a81548160ff02191690836003811115610c50577f4e487b7100000000000000000000000000000000000000000000000000000000600052602160045260246000fd5b0217905550610c95565b6040517f08c379a0000000000000000000000000000000000000000000000000000000008152600401610c8c90613fc8565b60405180910390fd5b5b8060030160009054906101000a900473ffffffffffffffffffffffffffffffffffffffff1673ffffffffffffffffffffffffffffffffffffffff1682604051610cdf9190613cf5565b60405180910390207ff6b22571c1ecf2dee47f025f69793accfe7ed12f07404c638536d16998c1ea47836004015442604051610d1c92919061416a565b60405180910390a35050565b838073ffffffffffffffffffffffffffffffffffffffff163373ffffffffffffffffffffffffffffffffffffffff1614610d97576040517f08c379a0000000000000000000000000000000000000000000000000000000008152600401610d8e90613f08565b60405180910390fd5b600073ffffffffffffffffffffffffffffffffffffffff168573ffffffffffffffffffffffffffffffffffffffff1614158015610e015750600073ffffffffffffffffffffffffffffffffffffffff168473ffffffffffffffffffffffffffffffffffffffff1614155b610e40576040517f08c379a0000000000000000000000000000000000000000000000000000000008152600401610e37906140e8565b60405180910390fd5b6040518060e001604052808881526020018781526020018673ffffffffffffffffffffffffffffffffffffffff1681526020018573ffffffffffffffffffffffffffffffffffffffff16815260200184815260200183815260200160006003811115610ed5577f4e487b7100000000000000000000000000000000000000000000000000000000600052602160045260246000fd5b815250600088604051610ee89190613cf5565b90815260200160405180910390206000820151816000019080519060200190610f12929190612d8a565b506020820151816001019080519060200190610f2f929190612d8a565b5060408201518160020160006101000a81548173ffffffffffffffffffffffffffffffffffffffff021916908373ffffffffffffffffffffffffffffffffffffffff16021790555060608201518160030160006101000a81548173ffffffffffffffffffffffffffffffffffffffff021916908373ffffffffffffffffffffffffffffffffffffffff1602179055506080820151816004015560a0820151816005015560c08201518160060160006101000a81548160ff02191690836003811115611023577f4e487b7100000000000000000000000000000000000000000000000000000000600052602160045260246000fd5b02179055509050508373ffffffffffffffffffffffffffffffffffffffff168573ffffffffffffffffffffffffffffffffffffffff16886040516110679190613cf5565b60405180910390207ff7ecc3071b5ebed4a1d5658be0963bdf71f705336198be1add318654699525948987876040516110a293929190613eca565b60405180910390a450505050505050565b826000816040516110c49190613cf5565b908152602001604051809103902060030160009054906101000a900473ffffffffffffffffffffffffffffffffffffffff1673ffffffffffffffffffffffffffffffffffffffff163373ffffffffffffffffffffffffffffffffffffffff1614611163576040517f08c379a000000000000000000000000000000000000000000000000000000000815260040161115a90613fe8565b60405180910390fd5b600080856040516111749190613cf5565b908152602001604051809103902090506000808561130e57849150814710156111d2576040517f08c379a00000000000000000000000000000000000000000000000000000000081526004016111c9906140a8565b60405180910390fd5b60008360020160009054906101000a900473ffffffffffffffffffffffffffffffffffffffff1673ffffffffffffffffffffffffffffffffffffffff168360405161121c90613d0c565b60006040518083038185875af1925050503d8060008114611259576040519150601f19603f3d011682016040523d82523d6000602084013e61125e565b606091505b50509050806112a2576040517f08c379a000000000000000000000000000000000000000000000000000000000815260040161129990614108565b60405180910390fd5b61130888338660020160009054906101000a900473ffffffffffffffffffffffffffffffffffffffff16866040518060400160405280601781526020017f5469e1bb816e2063e1bb8d632062e1bb8b206de1baa574000000000000000000815250612c28565b50611489565b84471015611351576040517f08c379a0000000000000000000000000000000000000000000000000000000008152600401611348906140a8565b60405180910390fd5b60008360030160009054906101000a900473ffffffffffffffffffffffffffffffffffffffff1673ffffffffffffffffffffffffffffffffffffffff168660405161139b90613d0c565b60006040518083038185875af1925050503d80600081146113d8576040519150601f19603f3d011682016040523d82523d6000602084013e6113dd565b606091505b5050905080611421576040517f08c379a000000000000000000000000000000000000000000000000000000000815260040161141890614108565b60405180910390fd5b611487888560020160009054906101000a900473ffffffffffffffffffffffffffffffffffffffff1633896040518060400160405280601881526020017f5469e1bb816e2063e1bb8d6320686fc3a06e207472e1baa30000000000000000815250612c28565b505b60038360060160006101000a81548160ff021916908360038111156114d7577f4e487b7100000000000000000000000000000000000000000000000000000000600052602160045260246000fd5b02179055503373ffffffffffffffffffffffffffffffffffffffff16876040516115019190613cf5565b60405180910390207fadafc36edcd60759441410797064a212430ea809b0ca5ffd4aa273c16b13133284844260405161153c93929190614193565b60405180910390a350505050505050565b6060600080836040516115609190613cf5565b90815260200160405180910390206040518060e00160405290816000820180546115899061439e565b80601f01602080910402602001604051908101604052809291908181526020018280546115b59061439e565b80156116025780601f106115d757610100808354040283529160200191611602565b820191906000526020600020905b8154815290600101906020018083116115e557829003601f168201915b5050505050815260200160018201805461161b9061439e565b80601f01602080910402602001604051908101604052809291908181526020018280546116479061439e565b80156116945780601f1061166957610100808354040283529160200191611694565b820191906000526020600020905b81548152906001019060200180831161167757829003601f168201915b505050505081526020016002820160009054906101000a900473ffffffffffffffffffffffffffffffffffffffff1673ffffffffffffffffffffffffffffffffffffffff1673ffffffffffffffffffffffffffffffffffffffff1681526020016003820160009054906101000a900473ffffffffffffffffffffffffffffffffffffffff1673ffffffffffffffffffffffffffffffffffffffff1673ffffffffffffffffffffffffffffffffffffffff16815260200160048201548152602001600582015481526020016006820160009054906101000a900460ff1660038111156117a8577f4e487b7100000000000000000000000000000000000000000000000000000000600052602160045260246000fd5b60038111156117e0577f4e487b7100000000000000000000000000000000000000000000000000000000600052602160045260246000fd5b815250509050806040015173ffffffffffffffffffffffffffffffffffffffff163373ffffffffffffffffffffffffffffffffffffffff1614806118535750806060015173ffffffffffffffffffffffffffffffffffffffff163373ffffffffffffffffffffffffffffffffffffffff16145b611892576040517f08c379a000000000000000000000000000000000000000000000000000000000815260040161188990614068565b60405180910390fd5b6001836040516118a29190613cf5565b9081526020016040518091039020805480602002602001604051908101604052809291908181526020016000905b82821015611a5457838290600052602060002090600502016040518060a00160405290816000820160009054906101000a900473ffffffffffffffffffffffffffffffffffffffff1673ffffffffffffffffffffffffffffffffffffffff1673ffffffffffffffffffffffffffffffffffffffff1681526020016001820160009054906101000a900473ffffffffffffffffffffffffffffffffffffffff1673ffffffffffffffffffffffffffffffffffffffff1673ffffffffffffffffffffffffffffffffffffffff16815260200160028201548152602001600382015481526020016004820180546119c39061439e565b80601f01602080910402602001604051908101604052809291908181526020018280546119ef9061439e565b8015611a3c5780601f10611a1157610100808354040283529160200191611a3c565b820191906000526020600020905b815481529060010190602001808311611a1f57829003601f168201915b505050505081525050815260200190600101906118d0565b50505050915050919050565b80600081604051611a719190613cf5565b908152602001604051809103902060030160009054906101000a900473ffffffffffffffffffffffffffffffffffffffff1673ffffffffffffffffffffffffffffffffffffffff163373ffffffffffffffffffffffffffffffffffffffff1614611b10576040517f08c379a0000000000000000000000000000000000000000000000000000000008152600401611b0790613fe8565b60405180910390fd5b60008083604051611b219190613cf5565b9081526020016040518091039020905060016003811115611b6b577f4e487b7100000000000000000000000000000000000000000000000000000000600052602160045260246000fd5b8160060160009054906101000a900460ff166003811115611bb5577f4e487b7100000000000000000000000000000000000000000000000000000000600052602160045260246000fd5b1480611c42575060026003811115611bf6577f4e487b7100000000000000000000000000000000000000000000000000000000600052602160045260246000fd5b8160060160009054906101000a900460ff166003811115611c40577f4e487b7100000000000000000000000000000000000000000000000000000000600052602160045260246000fd5b145b611c81576040517f08c379a0000000000000000000000000000000000000000000000000000000008152600401611c7890614008565b60405180910390fd5b343373ffffffffffffffffffffffffffffffffffffffff16311015611cdb576040517f08c379a0000000000000000000000000000000000000000000000000000000008152600401611cd290614128565b60405180910390fd5b60016003811115611d15577f4e487b7100000000000000000000000000000000000000000000000000000000600052602160045260246000fd5b8160060160009054906101000a900460ff166003811115611d5f577f4e487b7100000000000000000000000000000000000000000000000000000000600052602160045260246000fd5b1415611db95760028160060160006101000a81548160ff02191690836003811115611db3577f4e487b7100000000000000000000000000000000000000000000000000000000600052602160045260246000fd5b02179055505b60008160020160009054906101000a900473ffffffffffffffffffffffffffffffffffffffff1673ffffffffffffffffffffffffffffffffffffffff1634604051611e0390613d0c565b60006040518083038185875af1925050503d8060008114611e40576040519150601f19603f3d011682016040523d82523d6000602084013e611e45565b606091505b5050905080611e89576040517f08c379a0000000000000000000000000000000000000000000000000000000008152600401611e8090613f68565b60405180910390fd5b611eef84338460020160009054906101000a900473ffffffffffffffffffffffffffffffffffffffff16346040518060400160405280601881526020017f5468616e6820746fc3a16e207469e1bb816e20746875c3aa0000000000000000815250612c28565b83604051611efd9190613cf5565b60405180910390207f533295cd82e521ef5bdedbc6debf352fcb558fe7f98c397a0d52cc90e107f310338460020160009054906101000a900473ffffffffffffffffffffffffffffffffffffffff163442604051611f5e9493929190613d21565b60405180910390a250505050565b600081805160208101820180518482526020830160208501208183528095505050505050600091509050806000018054611fa59061439e565b80601f0160208091040260200160405190810160405280929190818152602001828054611fd19061439e565b801561201e5780601f10611ff35761010080835404028352916020019161201e565b820191906000526020600020905b81548152906001019060200180831161200157829003601f168201915b5050505050908060010180546120339061439e565b80601f016020809104026020016040519081016040528092919081815260200182805461205f9061439e565b80156120ac5780601f10612081576101008083540402835291602001916120ac565b820191906000526020600020905b81548152906001019060200180831161208f57829003601f168201915b5050505050908060020160009054906101000a900473ffffffffffffffffffffffffffffffffffffffff16908060030160009054906101000a900473ffffffffffffffffffffffffffffffffffffffff16908060040154908060050154908060060160009054906101000a900460ff16905087565b806000816040516121329190613cf5565b908152602001604051809103902060030160009054906101000a900473ffffffffffffffffffffffffffffffffffffffff1673ffffffffffffffffffffffffffffffffffffffff163373ffffffffffffffffffffffffffffffffffffffff16146121d1576040517f08c379a00000000000000000000000000000000000000000000000000000000081526004016121c890613fe8565b60405180910390fd5b600080836040516121e29190613cf5565b908152602001604051809103902090506000600381111561222c577f4e487b7100000000000000000000000000000000000000000000000000000000600052602160045260246000fd5b8160060160009054906101000a900460ff166003811115612276577f4e487b7100000000000000000000000000000000000000000000000000000000600052602160045260246000fd5b146122b6576040517f08c379a00000000000000000000000000000000000000000000000000000000081526004016122ad90613fa8565b60405180910390fd5b343373ffffffffffffffffffffffffffffffffffffffff16311015612310576040517f08c379a000000000000000000000000000000000000000000000000000000000815260040161230790614028565b60405180910390fd5b60018160060160006101000a81548160ff0219169083600381111561235e577f4e487b7100000000000000000000000000000000000000000000000000000000600052602160045260246000fd5b02179055506123c983338360020160009054906101000a900473ffffffffffffffffffffffffffffffffffffffff16346040518060400160405280600c81526020017fc490e1bab7742063e1bb8d630000000000000000000000000000000000000000815250612c28565b826040516123d79190613cf5565b60405180910390207f533295cd82e521ef5bdedbc6debf352fcb558fe7f98c397a0d52cc90e107f310338360020160009054906101000a900473ffffffffffffffffffffffffffffffffffffffff1634426040516124389493929190613d79565b60405180910390a2505050565b61244d612e10565b6000808360405161245e9190613cf5565b90815260200160405180910390206040518060e00160405290816000820180546124879061439e565b80601f01602080910402602001604051908101604052809291908181526020018280546124b39061439e565b80156125005780601f106124d557610100808354040283529160200191612500565b820191906000526020600020905b8154815290600101906020018083116124e357829003601f168201915b505050505081526020016001820180546125199061439e565b80601f01602080910402602001604051908101604052809291908181526020018280546125459061439e565b80156125925780601f1061256757610100808354040283529160200191612592565b820191906000526020600020905b81548152906001019060200180831161257557829003601f168201915b505050505081526020016002820160009054906101000a900473ffffffffffffffffffffffffffffffffffffffff1673ffffffffffffffffffffffffffffffffffffffff1673ffffffffffffffffffffffffffffffffffffffff1681526020016003820160009054906101000a900473ffffffffffffffffffffffffffffffffffffffff1673ffffffffffffffffffffffffffffffffffffffff1673ffffffffffffffffffffffffffffffffffffffff16815260200160048201548152602001600582015481526020016006820160009054906101000a900460ff1660038111156126a6577f4e487b7100000000000000000000000000000000000000000000000000000000600052602160045260246000fd5b60038111156126de577f4e487b7100000000000000000000000000000000000000000000000000000000600052602160045260246000fd5b815250509050806040015173ffffffffffffffffffffffffffffffffffffffff163373ffffffffffffffffffffffffffffffffffffffff1614806127515750806060015173ffffffffffffffffffffffffffffffffffffffff163373ffffffffffffffffffffffffffffffffffffffff16145b612790576040517f08c379a000000000000000000000000000000000000000000000000000000000815260040161278790613f28565b60405180910390fd5b80915050919050565b60018280516020810182018051848252602083016020850120818352809550505050505081815481106127cb57600080fd5b9060005260206000209060050201600091509150508060000160009054906101000a900473ffffffffffffffffffffffffffffffffffffffff16908060010160009054906101000a900473ffffffffffffffffffffffffffffffffffffffff16908060020154908060030154908060040180546128479061439e565b80601f01602080910402602001604051908101604052809291908181526020018280546128739061439e565b80156128c05780601f10612895576101008083540402835291602001916128c0565b820191906000526020600020905b8154815290600101906020018083116128a357829003601f168201915b5050505050905085565b600080826040516128db9190613cf5565b9081526020016040518091039020905060026003811115612925577f4e487b7100000000000000000000000000000000000000000000000000000000600052602160045260246000fd5b8160060160009054906101000a900460ff16600381111561296f577f4e487b7100000000000000000000000000000000000000000000000000000000600052602160045260246000fd5b146129af576040517f08c379a00000000000000000000000000000000000000000000000000000000081526004016129a690614088565b60405180910390fd5b600081600401541115612b43578060040154471015612a03576040517f08c379a00000000000000000000000000000000000000000000000000000000081526004016129fa90613f88565b60405180910390fd5b60008160020160009054906101000a900473ffffffffffffffffffffffffffffffffffffffff1673ffffffffffffffffffffffffffffffffffffffff168260040154604051612a5190613d0c565b60006040518083038185875af1925050503d8060008114612a8e576040519150601f19603f3d011682016040523d82523d6000602084013e612a93565b606091505b5050905080612ad7576040517f08c379a0000000000000000000000000000000000000000000000000000000008152600401612ace90614108565b60405180910390fd5b612b4183308460020160009054906101000a900473ffffffffffffffffffffffffffffffffffffffff1685600401546040518060400160405280601781526020017f5469e1bb816e2063e1bb8d632062e1bb8b206de1baa574000000000000000000815250612c28565b505b60038160060160006101000a81548160ff02191690836003811115612b91577f4e487b7100000000000000000000000000000000000000000000000000000000600052602160045260246000fd5b02179055508060030160009054906101000a900473ffffffffffffffffffffffffffffffffffffffff1673ffffffffffffffffffffffffffffffffffffffff1682604051612bdf9190613cf5565b60405180910390207ff6b22571c1ecf2dee47f025f69793accfe7ed12f07404c638536d16998c1ea47836004015442604051612c1c92919061416a565b60405180910390a35050565b600185604051612c389190613cf5565b90815260200160405180910390206040518060a001604052808673ffffffffffffffffffffffffffffffffffffffff1681526020018573ffffffffffffffffffffffffffffffffffffffff16815260200184815260200142815260200183815250908060018154018082558091505060019003906000526020600020906005020160009091909190915060008201518160000160006101000a81548173ffffffffffffffffffffffffffffffffffffffff021916908373ffffffffffffffffffffffffffffffffffffffff16021790555060208201518160010160006101000a81548173ffffffffffffffffffffffffffffffffffffffff021916908373ffffffffffffffffffffffffffffffffffffffff16021790555060408201518160020155606082015181600301556080820151816004019080519060200190612d80929190612d8a565b5050505050505050565b828054612d969061439e565b90600052602060002090601f016020900481019282612db85760008555612dff565b82601f10612dd157805160ff1916838001178555612dff565b82800160010185558215612dff579182015b82811115612dfe578251825591602001919060010190612de3565b5b509050612e0c9190612eb1565b5090565b6040518060e001604052806060815260200160608152602001600073ffffffffffffffffffffffffffffffffffffffff168152602001600073ffffffffffffffffffffffffffffffffffffffff168152602001600081526020016000815260200160006003811115612eab577f4e487b7100000000000000000000000000000000000000000000000000000000600052602160045260246000fd5b81525090565b5b80821115612eca576000816000905550600101612eb2565b5090565b6000612ee1612edc846141fb565b6141ca565b905082815260208101848484011115612ef957600080fd5b612f0484828561435c565b509392505050565b600081359050612f1b81614482565b92915050565b600081359050612f3081614499565b92915050565b600082601f830112612f4757600080fd5b8135612f57848260208601612ece565b91505092915050565b600081359050612f6f816144b0565b92915050565b600060208284031215612f8757600080fd5b600082013567ffffffffffffffff811115612fa157600080fd5b612fad84828501612f36565b91505092915050565b600080600060608486031215612fcb57600080fd5b600084013567ffffffffffffffff811115612fe557600080fd5b612ff186828701612f36565b935050602061300286828701612f21565b925050604061301386828701612f60565b9150509250925092565b6000806000806080858703121561303357600080fd5b600085013567ffffffffffffffff81111561304d57600080fd5b61305987828801612f36565b945050602061306a87828801612f21565b935050604061307b87828801612f60565b925050606061308c87828801612f60565b91505092959194509250565b60008060008060008060c087890312156130b157600080fd5b600087013567ffffffffffffffff8111156130cb57600080fd5b6130d789828a01612f36565b965050602087013567ffffffffffffffff8111156130f457600080fd5b61310089828a01612f36565b955050604061311189828a01612f0c565b945050606061312289828a01612f0c565b935050608061313389828a01612f60565b92505060a061314489828a01612f60565b9150509295509295509295565b6000806040838503121561316457600080fd5b600083013567ffffffffffffffff81111561317e57600080fd5b61318a85828601612f36565b925050602061319b85828601612f60565b9150509250929050565b60006131b18383613c61565b905092915050565b6131c281614314565b82525050565b6131d1816142b9565b82525050565b6131e0816142b9565b82525050565b6131ef816142a7565b82525050565b6131fe816142a7565b82525050565b600061320f8261423b565b613219818561425e565b93508360208202850161322b8561422b565b8060005b85811015613267578484038952815161324885826131a5565b945061325383614251565b925060208a0199505060018101905061322f565b50829750879550505050505092915050565b61328281614326565b82525050565b61329181614326565b82525050565b60006132a282614246565b6132ac818561427a565b93506132bc81856020860161436b565b6132c58161445d565b840191505092915050565b60006132db82614246565b6132e5818561428b565b93506132f581856020860161436b565b6132fe8161445d565b840191505092915050565b600061331482614246565b61331e818561429c565b935061332e81856020860161436b565b80840191505092915050565b6000613347603d8361428b565b91507f4368e1bb89206368e1bba72068e1bba37020c491e1bb936e67206de1bb9b692060008301527f63c3b3207468e1bb832074e1baa16f2068e1bba37020c491e1bb936e670000006020830152604082019050919050565b60006133ad605c8361428b565b91507f4368e1bb89206368e1bba72068e1bba37020c491e1bb936e6720686fe1bab76360008301527f206e67c6b0e1bb9d6920746875c3aa206de1bb9b692063c3b3207468e1bb832060208301527f78656d20636869207469e1babf742068e1bba37020c491e1bb936e67000000006040830152606082019050919050565b600061343960418361428b565b91507f4368e1bb89206368e1bba7206e68c3a0206de1bb9b692063c3b3207468e1bb8360008301527f207468e1bbb163206869e1bb876e2068c3a06e6820c491e1bb996e67206ec3a060208301527f79000000000000000000000000000000000000000000000000000000000000006040830152606082019050919050565b60006134c560188361428b565b91507f5468616e6820746fc3a16e207469e1bb816e20746875c3aa00000000000000006000830152602082019050919050565b6000613505601c8361428b565b91507f43687579e1bb836e207469e1bb816e207468e1baa5742062e1baa169000000006000830152602082019050919050565b6000613545603c8361428b565b91507f53e1bb912064c6b02068e1bba37020c491e1bb936e67206b68c3b46e6720c49160008301527fe1bba720c491e1bb83206de1baa574207469e1bb816e2063e1bb8d63000000006020830152604082019050919050565b60006135ab60408361428b565b91507f5472e1baa16e67207468c3a1692068e1bba37020c491e1bb936e67206b68c3b460008301527f6e672068e1bba370206ce1bb8720c491e1bb8320c491e1bab7742063e1bb8d636020830152604082019050919050565b600061361160438361428b565b91507f48e1bba37020c491e1bb936e67206b68c3b46e6720e1bb9f207472e1baa16e6760008301527f207468c3a1692068e1bba370206ce1bb8720c491e1bb83206be1babf7420746860208301527fc3ba6300000000000000000000000000000000000000000000000000000000006040830152606082019050919050565b600061369d60458361428b565b91507f4368e1bb89206e67c6b0e1bb9d6920746875c3aa206de1bb9b692063c3b3207460008301527f68e1bb83207468e1bbb163206869e1bb876e2068c3a06e6820c491e1bb996e6760208301527f206ec3a0790000000000000000000000000000000000000000000000000000006040830152606082019050919050565b6000613729604c8361428b565b91507f5472e1baa16e67207468c3a1692068e1bba37020c491e1bb936e67206b68c3b460008301527f6e672068e1bba370206ce1bb8720c491e1bb83207468616e6820746fc3a16e2060208301527f7469e1bb816e20746875c3aa00000000000000000000000000000000000000006040830152606082019050919050565b60006137b560288361428b565b91507f53e1bb912064c6b0206b68c3b46e6720c491e1bba720c491e1bb8320c491e1ba60008301527fb7742063e1bb8d630000000000000000000000000000000000000000000000006020830152604082019050919050565b600061381b602c8361428b565b91507f43687579e1bb836e207469e1bb816e2062e1bb9369207468c6b0e1bb9d6e672060008301527f7468e1baa5742062e1baa16900000000000000000000000000000000000000006020830152604082019050919050565b6000613881604f8361428b565b91507f4368e1bb89206368e1bba72068e1bba37020c491e1bb936e6720686fe1bab76360008301527f206e67c6b0e1bb9d6920746875c3aa206de1bb9b692063c3b3207468e1bb832060208301527f78656d206769616f2064e1bb8b636800000000000000000000000000000000006040830152606082019050919050565b600061390d603b8361428b565b91507f48e1bba37020c491e1bb936e67207068e1baa36920e1bb9f207472e1baa16e6760008301527f207468c3a16920c491616e6720686fe1baa17420c491e1bb996e6700000000006020830152604082019050919050565b600061397360428361428b565b91507f53e1bb912064c6b02068e1bba37020c491e1bb936e67206b68c3b46e6720c49160008301527fe1bba720c491e1bb8320686fc3a06e207472e1baa3207469e1bb816e2063e1bb60208301527f8d630000000000000000000000000000000000000000000000000000000000006040830152606082019050919050565b60006139ff603e8361428b565b91507f53e1bb912064c6b0206b68c3b46e6720c491e1bba720c491e1bb832062e1bb9360008301527f69207468c6b0e1bb9d6e672063686f206e67c6b0e1bb9d6920746875c3aa00006020830152604082019050919050565b6000613a65601e8361428b565b91507fc490e1bb8b61206368e1bb89206b68c3b46e672068e1bba370206ce1bb8700006000830152602082019050919050565b6000613aa560008361426f565b9150600082019050919050565b6000613abf60228361428b565b91507f43687579e1bb836e207469e1bb816e2063e1bb8d63207468e1baa5742062e1ba60008301527fa1690000000000000000000000000000000000000000000000000000000000006020830152604082019050919050565b6000613b2560348361428b565b91507f53e1bb912064c6b0206b68c3b46e6720c491e1bba720c491e1bb83207468616e60008301527f6820746fc3a16e207469e1bb816e20746875c3aa0000000000000000000000006020830152604082019050919050565b6000613b8b600c8361428b565b91507fc490e1bab7742063e1bb8d6300000000000000000000000000000000000000006000830152602082019050919050565b600060e0830160008301518482036000860152613bdb8282613297565b91505060208301518482036020860152613bf58282613297565b9150506040830151613c0a60408601826131c8565b506060830151613c1d60608601826131c8565b506080830151613c306080860182613cd7565b5060a0830151613c4360a0860182613cd7565b5060c0830151613c5660c0860182613279565b508091505092915050565b600060a083016000830151613c7960008601826131e6565b506020830151613c8c60208601826131e6565b506040830151613c9f6040860182613cd7565b506060830151613cb26060860182613cd7565b5060808301518482036080860152613cca8282613297565b9150508091505092915050565b613ce08161430a565b82525050565b613cef8161430a565b82525050565b6000613d018284613309565b915081905092915050565b6000613d1782613a98565b9150819050919050565b600060a082019050613d3660008301876131f5565b613d4360208301866131b9565b613d506040830185613ce6565b613d5d6060830184613ce6565b8181036080830152613d6e816134b8565b905095945050505050565b600060a082019050613d8e60008301876131f5565b613d9b60208301866131b9565b613da86040830185613ce6565b613db56060830184613ce6565b8181036080830152613dc681613b7e565b905095945050505050565b600060a082019050613de660008301886131f5565b613df360208301876131f5565b613e006040830186613ce6565b613e0d6060830185613ce6565b8181036080830152613e1f81846132d0565b90509695505050505050565b60006020820190508181036000830152613e458184613204565b905092915050565b600060e0820190508181036000830152613e67818a6132d0565b90508181036020830152613e7b81896132d0565b9050613e8a60408301886131d7565b613e9760608301876131d7565b613ea46080830186613ce6565b613eb160a0830185613ce6565b613ebe60c0830184613288565b98975050505050505050565b60006060820190508181036000830152613ee481866132d0565b9050613ef36020830185613ce6565b613f006040830184613ce6565b949350505050565b60006020820190508181036000830152613f218161333a565b9050919050565b60006020820190508181036000830152613f41816133a0565b9050919050565b60006020820190508181036000830152613f618161342c565b9050919050565b60006020820190508181036000830152613f81816134f8565b9050919050565b60006020820190508181036000830152613fa181613538565b9050919050565b60006020820190508181036000830152613fc18161359e565b9050919050565b60006020820190508181036000830152613fe181613604565b9050919050565b6000602082019050818103600083015261400181613690565b9050919050565b600060208201905081810360008301526140218161371c565b9050919050565b60006020820190508181036000830152614041816137a8565b9050919050565b600060208201905081810360008301526140618161380e565b9050919050565b6000602082019050818103600083015261408181613874565b9050919050565b600060208201905081810360008301526140a181613900565b9050919050565b600060208201905081810360008301526140c181613966565b9050919050565b600060208201905081810360008301526140e1816139f2565b9050919050565b6000602082019050818103600083015261410181613a58565b9050919050565b6000602082019050818103600083015261412181613ab2565b9050919050565b6000602082019050818103600083015261414181613b18565b9050919050565b600060208201905081810360008301526141628184613bbe565b905092915050565b600060408201905061417f6000830185613ce6565b61418c6020830184613ce6565b9392505050565b60006060820190506141a86000830186613ce6565b6141b56020830185613ce6565b6141c26040830184613ce6565b949350505050565b6000604051905081810181811067ffffffffffffffff821117156141f1576141f061442e565b5b8060405250919050565b600067ffffffffffffffff8211156142165761421561442e565b5b601f19601f8301169050602081019050919050565b6000819050602082019050919050565b600081519050919050565b600081519050919050565b6000602082019050919050565b600082825260208201905092915050565b600081905092915050565b600082825260208201905092915050565b600082825260208201905092915050565b600081905092915050565b60006142b2826142ea565b9050919050565b60006142c4826142ea565b9050919050565b60008115159050919050565b60008190506142e58261446e565b919050565b600073ffffffffffffffffffffffffffffffffffffffff82169050919050565b6000819050919050565b600061431f82614338565b9050919050565b6000614331826142d7565b9050919050565b60006143438261434a565b9050919050565b6000614355826142ea565b9050919050565b82818337600083830152505050565b60005b8381101561438957808201518184015260208101905061436e565b83811115614398576000848401525b50505050565b600060028204905060018216806143b657607f821691505b602082108114156143ca576143c96143ff565b5b50919050565b7f4e487b7100000000000000000000000000000000000000000000000000000000600052602160045260246000fd5b7f4e487b7100000000000000000000000000000000000000000000000000000000600052602260045260246000fd5b7f4e487b7100000000000000000000000000000000000000000000000000000000600052604160045260246000fd5b6000601f19601f8301169050919050565b6004811061447f5761447e6143d0565b5b50565b61448b816142b9565b811461449657600080fd5b50565b6144a2816142cb565b81146144ad57600080fd5b50565b6144b98161430a565b81146144c457600080fd5b5056fe42e1bb9369207468c6b0e1bb9d6e672063686f206e67c6b0e1bb9d6920746875c3aaa2646970667358221220f1d657ab6fe7502120a1404e8b55be8e325435c40be2df75ad7bbf543b120d0064736f6c63430008000033",
  "immutableReferences": {},
  "source": "// SPDX-License-Identifier: MIT\r\npragma solidity ^0.8.0;\r\n\r\ncontract RentalContract {\r\n    enum RentalStatus { NotCreated, Deposited, Ongoing, Ended }\r\n\r\n    struct Contract {\r\n        string contractID;  \r\n        string propertyID;  // Thm propertyID kiu chui\r\n        address payable owner;   \r\n        address payable renter;  \r\n        uint depositAmount;\r\n        uint monthlyRent;\r\n        RentalStatus status;\r\n    }\r\n\r\n    struct Transaction {\r\n        address from;\r\n        address to;\r\n        uint amount;\r\n        uint timestamp;\r\n        string transactionType; \r\n    }\r\n\r\n    mapping(string => Contract) public contracts;  // Thay contractID kiu chui\r\n    mapping(string => Transaction[]) public contractTransactions;\r\n\r\n    event ContractCreated(string indexed contractID, string propertyID, address indexed owner, address indexed renter, uint depositAmount, uint monthlyRent);\r\n    event TransactionRecorded(string indexed contractID, address from, address to, uint amount, uint timestamp, string transactionType);\r\n    event ContractCancelledByRenter(string indexed contractID, address indexed renter, uint depositLoss, uint extraCharge, uint timestamp);\r\n    event ContractCancelledByOwner(string indexed contractID, address indexed owner, uint compensation, uint timestamp);\r\n    event ContractTerminated(string indexed contractID, string reason);\r\n    event ContractEnded(string indexed contractID, address indexed renter, uint depositRefundAmount, uint timestamp);\r\n\r\n    modifier onlyOwner(string memory _contractID) {\r\n        require(msg.sender == contracts[_contractID].owner, unicode\"Ch ch nh mi c th thc hin hnh ng ny\");\r\n        _;\r\n    }\r\n\r\n    modifier onlyRenter(string memory _contractID) {\r\n        require(msg.sender == contracts[_contractID].renter, unicode\"Ch ngi thu mi c th thc hin hnh ng ny\");\r\n        _;\r\n    }\r\n\r\n    modifier onlyContractOwner(address _owner) {\r\n        require(msg.sender == _owner, unicode\"Ch ch hp ng mi c th to hp ng\");\r\n        _;\r\n    }\r\n\r\n    function createContract(\r\n        string memory _contractID,\r\n        string memory _propertyID,\r\n        address payable _owner,\r\n        address payable _renter,\r\n        uint _depositAmount,\r\n        uint _monthlyRent\r\n    ) public onlyContractOwner(_owner) {\r\n        require(_owner != address(0) && _renter != address(0), unicode\"a ch khng hp l\");\r\n\r\n        contracts[_contractID] = Contract({\r\n            contractID: _contractID,\r\n            propertyID: _propertyID,\r\n            owner: _owner,\r\n            renter: _renter,\r\n            depositAmount: _depositAmount,\r\n            monthlyRent: _monthlyRent,\r\n            status: RentalStatus.NotCreated\r\n        });\r\n\r\n        emit ContractCreated(_contractID, _propertyID, _owner, _renter, _depositAmount, _monthlyRent);\r\n    }\r\n\r\n    function deposit(string memory _contractID) public payable onlyRenter(_contractID) {\r\n        Contract storage contractInfo = contracts[_contractID];\r\n\r\n        require(contractInfo.status == RentalStatus.NotCreated, unicode\"Trng thi hp ng khng hp l  t cc\");\r\n        require(address(msg.sender).balance >= msg.value, unicode\"S d khng   t cc\");\r\n\r\n        contractInfo.status = RentalStatus.Deposited;\r\n\r\n        _recordTransaction(_contractID, msg.sender, contractInfo.owner, msg.value, unicode\"t cc\");\r\n\r\n        emit TransactionRecorded(_contractID, msg.sender, contractInfo.owner, msg.value, block.timestamp, unicode\"t cc\");\r\n    }\r\n\r\n    function payRent(string memory _contractID) public payable onlyRenter(_contractID) {\r\n        Contract storage contractInfo = contracts[_contractID];\r\n\r\n        require(contractInfo.status == RentalStatus.Deposited || contractInfo.status == RentalStatus.Ongoing, unicode\"Trng thi hp ng khng hp l  thanh ton tin thu\");\r\n        require(address(msg.sender).balance >= msg.value, unicode\"S d khng   thanh ton tin thu\");\r\n\r\n        if (contractInfo.status == RentalStatus.Deposited) {\r\n            contractInfo.status = RentalStatus.Ongoing;\r\n        }\r\n\r\n        (bool success, ) = contractInfo.owner.call{value: msg.value}(\"\");\r\n        require(success, unicode\"Chuyn tin tht bi\");\r\n\r\n        _recordTransaction(_contractID, msg.sender, contractInfo.owner, msg.value, unicode\"Thanh ton tin thu\");\r\n\r\n        emit TransactionRecorded(_contractID, msg.sender, contractInfo.owner, msg.value, block.timestamp, unicode\"Thanh ton tin thu\");\r\n    }\r\n\r\n    function endContract(string memory _contractID) public {\r\n        Contract storage contractInfo = contracts[_contractID];\r\n\r\n        if (contractInfo.status == RentalStatus.NotCreated) {\r\n            contractInfo.status = RentalStatus.Ended;\r\n        } else if (contractInfo.status == RentalStatus.Deposited || contractInfo.status == RentalStatus.Ongoing) {\r\n            if (contractInfo.depositAmount > 0) {\r\n                require(address(this).balance >= contractInfo.depositAmount, unicode\"S d hp ng khng   hon tr tin cc\");\r\n\r\n                (bool success, ) = contractInfo.renter.call{value: contractInfo.depositAmount}(\"\");\r\n                require(success, unicode\"Chuyn tin cc tht bi\");\r\n\r\n                _recordTransaction(_contractID, contractInfo.owner, contractInfo.renter, contractInfo.depositAmount, unicode\"Tin cc hon tr\");\r\n            }\r\n            contractInfo.status = RentalStatus.Ended;\r\n        } else {\r\n            revert(unicode\"Hp ng khng  trng thi hp l  kt thc\");\r\n        }\r\n        emit ContractEnded(_contractID, contractInfo.renter, contractInfo.depositAmount, block.timestamp);\r\n    }\r\n\r\n    function _recordTransaction(string memory _contractID, address _from, address _to, uint _amount, string memory _transactionType) internal {\r\n        contractTransactions[_contractID].push(Transaction({\r\n            from: _from,\r\n            to: _to,\r\n            amount: _amount,\r\n            timestamp: block.timestamp,\r\n            transactionType: _transactionType\r\n        }));\r\n    }\r\n\r\n    function getContractDetails(string memory _contractID) public view returns (Contract memory) {\r\n        Contract memory contractInfo = contracts[_contractID];\r\n        require(msg.sender == contractInfo.owner || msg.sender == contractInfo.renter, unicode\"Ch ch hp ng hoc ngi thu mi c th xem chi tit hp ng\");\r\n        return contractInfo;\r\n    }\r\n\r\n    function getContractTransactions(string memory _contractID) public view returns (Transaction[] memory) {\r\n        Contract memory contractInfo = contracts[_contractID];\r\n        require(msg.sender == contractInfo.owner || msg.sender == contractInfo.renter, unicode\"Ch ch hp ng hoc ngi thu mi c th xem giao dch\");\r\n        return contractTransactions[_contractID];\r\n    }\r\n\r\n    function terminateForNonPayment(string memory _contractId) public {\r\n        Contract storage contractInfo = contracts[_contractId];\r\n\r\n        // Ch cho php khi trng thi hp ng l Deposited hoc Ongoing\r\n        require(contractInfo.status == RentalStatus.Ongoing, unicode\"Hp ng phi  trng thi ang hot ng\");\r\n\r\n        // X l logic mt tin cc nu khng thanh ton ng hn\r\n        if (contractInfo.depositAmount > 0) {\r\n            require(address(this).balance >= contractInfo.depositAmount, unicode\"S d hp ng khng   mt tin cc\");\r\n\r\n            // Chuyn tin cc cho ch nh\r\n            (bool success, ) = contractInfo.owner.call{value: contractInfo.depositAmount}(\"\");\r\n            require(success, unicode\"Chuyn tin cc tht bi\");\r\n\r\n            // Lu giao dch\r\n            _recordTransaction(_contractId, address(this), contractInfo.owner, contractInfo.depositAmount, unicode\"Tin cc b mt\");\r\n        }\r\n\r\n        // nh du hp ng  kt thc\r\n        contractInfo.status = RentalStatus.Ended;\r\n        emit ContractEnded(_contractId, contractInfo.renter, contractInfo.depositAmount, block.timestamp);\r\n\r\n    }\r\n\r\n    function cancelContractByRenter(string memory _contractId, bool notifyBefore30Days, uint depositAmount) public payable onlyRenter(_contractId) {\r\n        Contract storage contractInfo = contracts[_contractId];\r\n\r\n        uint depositLoss = 0;\r\n        uint extraCharge = 0;\r\n\r\n        if (!notifyBefore30Days) {\r\n            // Tnh ph b sung v chuyn tin cc nu khng thng bo trc 30 ngy\r\n            // extraCharge = contractInfo.monthlyRent;\r\n            // require(msg.value == extraCharge, \"Incorrect extra charge amount\");\r\n            // require(address(msg.sender).balance >= extraCharge, \"Insufficient balance of renter\");\r\n\r\n            // (bool successExtraCharge, ) = contractInfo.owner.call{value: extraCharge}(\"\");\r\n            // require(successExtraCharge, \"Extra charge transfer failed\");\r\n\r\n            // _recordTransaction(_contractId, msg.sender, contractInfo.owner, extraCharge, \"Extra Charge\");\r\n\r\n            depositLoss = depositAmount;\r\n            require(address(this).balance >= depositLoss, unicode\"S d hp ng khng   hon tr tin cc\");\r\n\r\n            (bool successDeposit, ) = contractInfo.owner.call{value: depositLoss}(\"\"); // Chuyn tin cc t ngi thu cho ch nh\r\n            require(successDeposit, unicode\"Chuyn tin cc tht bi\");\r\n\r\n            _recordTransaction(_contractId, msg.sender, contractInfo.owner, depositLoss, unicode\"Tin cc b mt\");\r\n        } else {\r\n            // Hon tr tin cc nu thng bo trc 30 ngy\r\n            require(address(this).balance >= depositAmount, unicode\"S d hp ng khng   hon tr tin cc\");\r\n\r\n            (bool successRefund, ) = contractInfo.renter.call{value: depositAmount}(\"\");\r\n            require(successRefund, unicode\"Chuyn tin cc tht bi\");\r\n\r\n            _recordTransaction(_contractId, contractInfo.owner, msg.sender, depositAmount, unicode\"Tin cc hon tr\");\r\n        }\r\n\r\n        contractInfo.status = RentalStatus.Ended;\r\n        emit ContractCancelledByRenter(_contractId, msg.sender, depositLoss, extraCharge, block.timestamp);\r\n    }\r\n\r\n    function cancelContractByOwner(string memory _contractId, bool notifyBefore30Days, uint monthlyRent, uint depositAmount) public payable onlyOwner(_contractId) {\r\n        Contract storage contractInfo = contracts[_contractId];\r\n\r\n        uint compensation = 0;\r\n\r\n        if (!notifyBefore30Days) {\r\n            // Tnh bi thng v chuyn cho ngi thu nu khng thng bo trc 30 ngy\r\n            compensation = monthlyRent;\r\n            require(address(msg.sender).balance >= compensation, unicode\"S d khng   bi thng cho ngi thu\");\r\n\r\n            (bool successCompensation, ) = contractInfo.renter.call{value: compensation}(\"\");\r\n            require(successCompensation, unicode\"Chuyn tin bi thng tht bi\");\r\n\r\n            _recordTransaction(_contractId, msg.sender, contractInfo.renter, compensation, unicode\"Bi thng cho ngi thu\");\r\n        }\r\n\r\n        if (contractInfo.status == RentalStatus.Deposited || contractInfo.status == RentalStatus.Ongoing) {\r\n            // Hon tr tin cc cho ngi thu nu hp ng vn cn hiu lc\r\n            require(address(this).balance >= depositAmount, unicode\"S d hp ng khng   hon tr tin cc\");\r\n\r\n            (bool successDeposit, ) = contractInfo.renter.call{value: contractInfo.depositAmount}(\"\");\r\n            require(successDeposit, unicode\"Chuyn tin cc tht bi\");\r\n\r\n            _recordTransaction(_contractId, msg.sender, contractInfo.renter, depositAmount, unicode\"Tin cc hon tr\");\r\n        }\r\n\r\n        contractInfo.status = RentalStatus.Ended;\r\n        emit ContractCancelledByOwner(_contractId, msg.sender, compensation, block.timestamp);\r\n    }\r\n\r\n\r\n}\r\n",
  "sourcePath": "C:\\Code\\kltn\\backend\\contract-service\\contractRental\\contracts\\RentalContract.sol",
  "compiler": {
    "name": "solc",
    "version": "0.8.0+commit.c7dfd78e.Emscripten.clang"
  },
  "schemaVersion": "3.4.16",
  "updatedAt": "2024-09-21T03:44:51.305Z",
  "networkType": "ethereum",
  "devdoc": {
    "kind": "dev",
    "methods": {},
    "version": 1
  },
  "userdoc": {
    "kind": "user",
    "methods": {},
    "version": 1
  }
}