{
  "contractName": "RentalContract",
  "abi": [
    {
      "anonymous": false,
      "inputs": [
        {
          "indexed": true,
          "internalType": "address",
          "name": "owner",
          "type": "address"
        },
        {
          "indexed": false,
          "internalType": "uint256",
          "name": "compensation",
          "type": "uint256"
        },
        {
          "indexed": false,
          "internalType": "string",
          "name": "propertyId",
          "type": "string"
        },
        {
          "indexed": false,
          "internalType": "uint256",
          "name": "timestamp",
          "type": "uint256"
        }
      ],
      "name": "ContractCancelledByOwner",
      "type": "event"
    },
    {
      "anonymous": false,
      "inputs": [
        {
          "indexed": true,
          "internalType": "address",
          "name": "renter",
          "type": "address"
        },
        {
          "indexed": false,
          "internalType": "uint256",
          "name": "depositLoss",
          "type": "uint256"
        },
        {
          "indexed": false,
          "internalType": "uint256",
          "name": "extraCharge",
          "type": "uint256"
        },
        {
          "indexed": false,
          "internalType": "string",
          "name": "propertyId",
          "type": "string"
        },
        {
          "indexed": false,
          "internalType": "uint256",
          "name": "timestamp",
          "type": "uint256"
        }
      ],
      "name": "ContractCancelledByRenter",
      "type": "event"
    },
    {
      "anonymous": false,
      "inputs": [
        {
          "indexed": true,
          "internalType": "address",
          "name": "owner",
          "type": "address"
        },
        {
          "indexed": true,
          "internalType": "address",
          "name": "renter",
          "type": "address"
        },
        {
          "indexed": false,
          "internalType": "string",
          "name": "propertyId",
          "type": "string"
        },
        {
          "indexed": false,
          "internalType": "uint256",
          "name": "startDate",
          "type": "uint256"
        },
        {
          "indexed": false,
          "internalType": "uint256",
          "name": "endDate",
          "type": "uint256"
        }
      ],
      "name": "ContractCreated",
      "type": "event"
    },
    {
      "anonymous": false,
      "inputs": [
        {
          "indexed": true,
          "internalType": "address",
          "name": "owner",
          "type": "address"
        },
        {
          "indexed": true,
          "internalType": "address",
          "name": "renter",
          "type": "address"
        },
        {
          "indexed": false,
          "internalType": "string",
          "name": "propertyId",
          "type": "string"
        },
        {
          "indexed": false,
          "internalType": "uint256",
          "name": "timestamp",
          "type": "uint256"
        }
      ],
      "name": "ContractEnded",
      "type": "event"
    },
    {
      "anonymous": false,
      "inputs": [
        {
          "indexed": true,
          "internalType": "address",
          "name": "renter",
          "type": "address"
        },
        {
          "indexed": false,
          "internalType": "uint256",
          "name": "amount",
          "type": "uint256"
        },
        {
          "indexed": false,
          "internalType": "string",
          "name": "propertyId",
          "type": "string"
        },
        {
          "indexed": false,
          "internalType": "uint256",
          "name": "timestamp",
          "type": "uint256"
        }
      ],
      "name": "DepositMade",
      "type": "event"
    },
    {
      "anonymous": false,
      "inputs": [
        {
          "indexed": true,
          "internalType": "address",
          "name": "renter",
          "type": "address"
        },
        {
          "indexed": false,
          "internalType": "uint256",
          "name": "amount",
          "type": "uint256"
        },
        {
          "indexed": false,
          "internalType": "string",
          "name": "propertyId",
          "type": "string"
        },
        {
          "indexed": false,
          "internalType": "uint256",
          "name": "timestamp",
          "type": "uint256"
        }
      ],
      "name": "DepositReturned",
      "type": "event"
    },
    {
      "anonymous": false,
      "inputs": [
        {
          "indexed": true,
          "internalType": "address",
          "name": "renter",
          "type": "address"
        },
        {
          "indexed": true,
          "internalType": "address",
          "name": "owner",
          "type": "address"
        },
        {
          "indexed": false,
          "internalType": "uint256",
          "name": "amount",
          "type": "uint256"
        },
        {
          "indexed": false,
          "internalType": "string",
          "name": "propertyId",
          "type": "string"
        },
        {
          "indexed": false,
          "internalType": "uint256",
          "name": "timestamp",
          "type": "uint256"
        }
      ],
      "name": "RentPaid",
      "type": "event"
    },
    {
      "inputs": [
        {
          "internalType": "uint256",
          "name": "",
          "type": "uint256"
        }
      ],
      "name": "rentals",
      "outputs": [
        {
          "internalType": "address payable",
          "name": "owner",
          "type": "address"
        },
        {
          "internalType": "address payable",
          "name": "renter",
          "type": "address"
        },
        {
          "internalType": "uint256",
          "name": "startDate",
          "type": "uint256"
        },
        {
          "internalType": "uint256",
          "name": "endDate",
          "type": "uint256"
        },
        {
          "internalType": "string",
          "name": "details",
          "type": "string"
        },
        {
          "internalType": "uint256",
          "name": "depositAmount",
          "type": "uint256"
        },
        {
          "internalType": "uint256",
          "name": "monthlyRent",
          "type": "uint256"
        },
        {
          "internalType": "string",
          "name": "propertyId",
          "type": "string"
        },
        {
          "internalType": "enum RentalContract.RentalStatus",
          "name": "status",
          "type": "uint8"
        }
      ],
      "stateMutability": "view",
      "type": "function",
      "constant": true
    },
    {
      "inputs": [
        {
          "internalType": "address payable",
          "name": "_owner",
          "type": "address"
        },
        {
          "internalType": "address payable",
          "name": "_renter",
          "type": "address"
        },
        {
          "internalType": "uint256",
          "name": "_startDate",
          "type": "uint256"
        },
        {
          "internalType": "uint256",
          "name": "_endDate",
          "type": "uint256"
        },
        {
          "internalType": "string",
          "name": "_details",
          "type": "string"
        },
        {
          "internalType": "uint256",
          "name": "_monthlyRent",
          "type": "uint256"
        },
        {
          "internalType": "string",
          "name": "_propertyId",
          "type": "string"
        },
        {
          "internalType": "uint256",
          "name": "_depositAmount",
          "type": "uint256"
        }
      ],
      "name": "createContract",
      "outputs": [],
      "stateMutability": "nonpayable",
      "type": "function"
    },
    {
      "inputs": [
        {
          "internalType": "uint256",
          "name": "_rentalIndex",
          "type": "uint256"
        }
      ],
      "name": "depositAndCreateContract",
      "outputs": [],
      "stateMutability": "payable",
      "type": "function",
      "payable": true
    },
    {
      "inputs": [
        {
          "internalType": "uint256",
          "name": "_rentalIndex",
          "type": "uint256"
        }
      ],
      "name": "payRent",
      "outputs": [],
      "stateMutability": "payable",
      "type": "function",
      "payable": true
    },
    {
      "inputs": [
        {
          "internalType": "uint256",
          "name": "_rentalIndex",
          "type": "uint256"
        }
      ],
      "name": "endContract",
      "outputs": [],
      "stateMutability": "nonpayable",
      "type": "function"
    },
    {
      "inputs": [
        {
          "internalType": "uint256",
          "name": "_rentalIndex",
          "type": "uint256"
        },
        {
          "internalType": "bool",
          "name": "notifyBefore30Days",
          "type": "bool"
        }
      ],
      "name": "cancelContractByRenter",
      "outputs": [],
      "stateMutability": "payable",
      "type": "function",
      "payable": true
    },
    {
      "inputs": [
        {
          "internalType": "uint256",
          "name": "_rentalIndex",
          "type": "uint256"
        },
        {
          "internalType": "bool",
          "name": "notifyBefore30Days",
          "type": "bool"
        }
      ],
      "name": "cancelContractByOwner",
      "outputs": [],
      "stateMutability": "payable",
      "type": "function",
      "payable": true
    },
    {
      "inputs": [
        {
          "internalType": "uint256",
          "name": "_rentalIndex",
          "type": "uint256"
        }
      ],
      "name": "getRentalDetails",
      "outputs": [
        {
          "components": [
            {
              "internalType": "address payable",
              "name": "owner",
              "type": "address"
            },
            {
              "internalType": "address payable",
              "name": "renter",
              "type": "address"
            },
            {
              "internalType": "uint256",
              "name": "startDate",
              "type": "uint256"
            },
            {
              "internalType": "uint256",
              "name": "endDate",
              "type": "uint256"
            },
            {
              "internalType": "string",
              "name": "details",
              "type": "string"
            },
            {
              "internalType": "uint256",
              "name": "depositAmount",
              "type": "uint256"
            },
            {
              "internalType": "uint256",
              "name": "monthlyRent",
              "type": "uint256"
            },
            {
              "internalType": "string",
              "name": "propertyId",
              "type": "string"
            },
            {
              "internalType": "enum RentalContract.RentalStatus",
              "name": "status",
              "type": "uint8"
            }
          ],
          "internalType": "struct RentalContract.Rental",
          "name": "",
          "type": "tuple"
        }
      ],
      "stateMutability": "view",
      "type": "function",
      "constant": true
    },
    {
      "inputs": [],
      "name": "getAllRentals",
      "outputs": [
        {
          "components": [
            {
              "internalType": "address payable",
              "name": "owner",
              "type": "address"
            },
            {
              "internalType": "address payable",
              "name": "renter",
              "type": "address"
            },
            {
              "internalType": "uint256",
              "name": "startDate",
              "type": "uint256"
            },
            {
              "internalType": "uint256",
              "name": "endDate",
              "type": "uint256"
            },
            {
              "internalType": "string",
              "name": "details",
              "type": "string"
            },
            {
              "internalType": "uint256",
              "name": "depositAmount",
              "type": "uint256"
            },
            {
              "internalType": "uint256",
              "name": "monthlyRent",
              "type": "uint256"
            },
            {
              "internalType": "string",
              "name": "propertyId",
              "type": "string"
            },
            {
              "internalType": "enum RentalContract.RentalStatus",
              "name": "status",
              "type": "uint8"
            }
          ],
          "internalType": "struct RentalContract.Rental[]",
          "name": "",
          "type": "tuple[]"
        }
      ],
      "stateMutability": "view",
      "type": "function",
      "constant": true
    },
    {
      "inputs": [],
      "name": "getContractBalance",
      "outputs": [
        {
          "internalType": "uint256",
          "name": "",
          "type": "uint256"
        }
      ],
      "stateMutability": "view",
      "type": "function",
      "constant": true
    }
  ],
  "bytecode": "0x608060405234801561001057600080fd5b50613906806100206000396000f3fe6080604052600436106100915760003560e01c80639a262c6a116100595780639a262c6a1461016e578063a1c8a5ce1461018a578063af94a1d1146101a6578063c85a6b3d146101eb578063d9e8843f1461021457610091565b806317088b34146100965780632ce2ff7c146100d35780634990268a146100fc5780636ac2551d146101185780636f9fb98a14610143575b600080fd5b3480156100a257600080fd5b506100bd60048036038101906100b89190612960565b610230565b6040516100ca919061354a565b60405180910390f35b3480156100df57600080fd5b506100fa60048036038101906100f5919061287e565b610512565b005b61011660048036038101906101119190612989565b610854565b005b34801561012457600080fd5b5061012d610e25565b60405161013a91906132ba565b60405180910390f35b34801561014f57600080fd5b50610158611104565b604051610165919061356c565b60405180910390f35b61018860048036038101906101839190612989565b61110c565b005b6101a4600480360381019061019f9190612960565b6116e9565b005b3480156101b257600080fd5b506101cd60048036038101906101c89190612960565b6119c3565b6040516101e29998979695949392919061321f565b60405180910390f35b3480156101f757600080fd5b50610212600480360381019061020d9190612960565b611b7e565b005b61022e60048036038101906102299190612960565b612097565b005b610238612684565b60008281548110610272577f4e487b7100000000000000000000000000000000000000000000000000000000600052603260045260246000fd5b9060005260206000209060090201604051806101200160405290816000820160009054906101000a900473ffffffffffffffffffffffffffffffffffffffff1673ffffffffffffffffffffffffffffffffffffffff1673ffffffffffffffffffffffffffffffffffffffff1681526020016001820160009054906101000a900473ffffffffffffffffffffffffffffffffffffffff1673ffffffffffffffffffffffffffffffffffffffff1673ffffffffffffffffffffffffffffffffffffffff168152602001600282015481526020016003820154815260200160048201805461035c906137a7565b80601f0160208091040260200160405190810160405280929190818152602001828054610388906137a7565b80156103d55780601f106103aa576101008083540402835291602001916103d5565b820191906000526020600020905b8154815290600101906020018083116103b857829003601f168201915b505050505081526020016005820154815260200160068201548152602001600782018054610402906137a7565b80601f016020809104026020016040519081016040528092919081815260200182805461042e906137a7565b801561047b5780601f106104505761010080835404028352916020019161047b565b820191906000526020600020905b81548152906001019060200180831161045e57829003601f168201915b505050505081526020016008820160009054906101000a900460ff1660038111156104cf577f4e487b7100000000000000000000000000000000000000000000000000000000600052602160045260246000fd5b6003811115610507577f4e487b7100000000000000000000000000000000000000000000000000000000600052602160045260246000fd5b815250509050919050565b8773ffffffffffffffffffffffffffffffffffffffff163373ffffffffffffffffffffffffffffffffffffffff1614610580576040517f08c379a0000000000000000000000000000000000000000000000000000000008152600401610577906134ca565b60405180910390fd5b8486106105c2576040517f08c379a00000000000000000000000000000000000000000000000000000000081526004016105b99061334a565b60405180910390fd5b60006040518061012001604052808a73ffffffffffffffffffffffffffffffffffffffff1681526020018973ffffffffffffffffffffffffffffffffffffffff16815260200188815260200187815260200186815260200183815260200185815260200184815260200160006003811115610666577f4e487b7100000000000000000000000000000000000000000000000000000000600052602160045260246000fd5b8152509050600081908060018154018082558091505060019003906000526020600020906009020160009091909190915060008201518160000160006101000a81548173ffffffffffffffffffffffffffffffffffffffff021916908373ffffffffffffffffffffffffffffffffffffffff16021790555060208201518160010160006101000a81548173ffffffffffffffffffffffffffffffffffffffff021916908373ffffffffffffffffffffffffffffffffffffffff16021790555060408201518160020155606082015181600301556080820151816004019080519060200190610755929190612734565b5060a0820151816005015560c0820151816006015560e0820151816007019080519060200190610786929190612734565b506101008201518160080160006101000a81548160ff021916908360038111156107d9577f4e487b7100000000000000000000000000000000000000000000000000000000600052602160045260246000fd5b021790555050508773ffffffffffffffffffffffffffffffffffffffff168973ffffffffffffffffffffffffffffffffffffffff167fe6a2416df4719182da0352491ac0e761483a33e5abae5e640f7d843690c4a627858a8a604051610841939291906132dc565b60405180910390a3505050505050505050565b816000818154811061088f577f4e487b7100000000000000000000000000000000000000000000000000000000600052603260045260246000fd5b906000526020600020906009020160000160009054906101000a900473ffffffffffffffffffffffffffffffffffffffff1673ffffffffffffffffffffffffffffffffffffffff163373ffffffffffffffffffffffffffffffffffffffff161461092e576040517f08c379a0000000000000000000000000000000000000000000000000000000008152600401610925906133aa565b60405180910390fd5b82600380811115610968577f4e487b7100000000000000000000000000000000000000000000000000000000600052602160045260246000fd5b600082815481106109a2577f4e487b7100000000000000000000000000000000000000000000000000000000600052603260045260246000fd5b906000526020600020906009020160080160009054906101000a900460ff1660038111156109f9577f4e487b7100000000000000000000000000000000000000000000000000000000600052602160045260246000fd5b1415610a3a576040517f08c379a0000000000000000000000000000000000000000000000000000000008152600401610a319061344a565b60405180910390fd5b6000808581548110610a75577f4e487b7100000000000000000000000000000000000000000000000000000000600052603260045260246000fd5b90600052602060002090600902019050600084610b65578160060154905060008260010160009054906101000a900473ffffffffffffffffffffffffffffffffffffffff1673ffffffffffffffffffffffffffffffffffffffff1682604051610add9061320a565b60006040518083038185875af1925050503d8060008114610b1a576040519150601f19603f3d011682016040523d82523d6000602084013e610b1f565b606091505b5050905080610b63576040517f08c379a0000000000000000000000000000000000000000000000000000000008152600401610b5a9061350a565b60405180910390fd5b505b60016003811115610b9f577f4e487b7100000000000000000000000000000000000000000000000000000000600052602160045260246000fd5b8260080160009054906101000a900460ff166003811115610be9577f4e487b7100000000000000000000000000000000000000000000000000000000600052602160045260246000fd5b1480610c76575060026003811115610c2a577f4e487b7100000000000000000000000000000000000000000000000000000000600052602160045260246000fd5b8260080160009054906101000a900460ff166003811115610c74577f4e487b7100000000000000000000000000000000000000000000000000000000600052602160045260246000fd5b145b15610d515760008260010160009054906101000a900473ffffffffffffffffffffffffffffffffffffffff1673ffffffffffffffffffffffffffffffffffffffff168360050154604051610cc99061320a565b60006040518083038185875af1925050503d8060008114610d06576040519150601f19603f3d011682016040523d82523d6000602084013e610d0b565b606091505b5050905080610d4f576040517f08c379a0000000000000000000000000000000000000000000000000000000008152600401610d469061336a565b60405180910390fd5b505b60038260080160006101000a81548160ff02191690836003811115610d9f577f4e487b7100000000000000000000000000000000000000000000000000000000600052602160045260246000fd5b02179055508160000160009054906101000a900473ffffffffffffffffffffffffffffffffffffffff1673ffffffffffffffffffffffffffffffffffffffff167f82ca5fb5c7e09f36161f76d346fa596042e7e53e98b361be31e6deef3681e165828460070142604051610e1593929190613587565b60405180910390a2505050505050565b60606000805480602002602001604051908101604052809291908181526020016000905b828210156110fb5783829060005260206000209060090201604051806101200160405290816000820160009054906101000a900473ffffffffffffffffffffffffffffffffffffffff1673ffffffffffffffffffffffffffffffffffffffff1673ffffffffffffffffffffffffffffffffffffffff1681526020016001820160009054906101000a900473ffffffffffffffffffffffffffffffffffffffff1673ffffffffffffffffffffffffffffffffffffffff1673ffffffffffffffffffffffffffffffffffffffff1681526020016002820154815260200160038201548152602001600482018054610f3d906137a7565b80601f0160208091040260200160405190810160405280929190818152602001828054610f69906137a7565b8015610fb65780601f10610f8b57610100808354040283529160200191610fb6565b820191906000526020600020905b815481529060010190602001808311610f9957829003601f168201915b505050505081526020016005820154815260200160068201548152602001600782018054610fe3906137a7565b80601f016020809104026020016040519081016040528092919081815260200182805461100f906137a7565b801561105c5780601f106110315761010080835404028352916020019161105c565b820191906000526020600020905b81548152906001019060200180831161103f57829003601f168201915b505050505081526020016008820160009054906101000a900460ff1660038111156110b0577f4e487b7100000000000000000000000000000000000000000000000000000000600052602160045260246000fd5b60038111156110e8577f4e487b7100000000000000000000000000000000000000000000000000000000600052602160045260246000fd5b8152505081526020019060010190610e49565b50505050905090565b600047905090565b8160008181548110611147577f4e487b7100000000000000000000000000000000000000000000000000000000600052603260045260246000fd5b906000526020600020906009020160010160009054906101000a900473ffffffffffffffffffffffffffffffffffffffff1673ffffffffffffffffffffffffffffffffffffffff163373ffffffffffffffffffffffffffffffffffffffff16146111e6576040517f08c379a00000000000000000000000000000000000000000000000000000000081526004016111dd9061342a565b60405180910390fd5b82600380811115611220577f4e487b7100000000000000000000000000000000000000000000000000000000600052602160045260246000fd5b6000828154811061125a577f4e487b7100000000000000000000000000000000000000000000000000000000600052603260045260246000fd5b906000526020600020906009020160080160009054906101000a900460ff1660038111156112b1577f4e487b7100000000000000000000000000000000000000000000000000000000600052602160045260246000fd5b14156112f2576040517f08c379a00000000000000000000000000000000000000000000000000000000081526004016112e99061344a565b60405180910390fd5b600080858154811061132d577f4e487b7100000000000000000000000000000000000000000000000000000000600052603260045260246000fd5b906000526020600020906009020190506000808561153c578260060154905080341461138e576040517f08c379a00000000000000000000000000000000000000000000000000000000081526004016113859061340a565b60405180910390fd5b60008360000160009054906101000a900473ffffffffffffffffffffffffffffffffffffffff1673ffffffffffffffffffffffffffffffffffffffff16826040516113d89061320a565b60006040518083038185875af1925050503d8060008114611415576040519150601f19603f3d011682016040523d82523d6000602084013e61141a565b606091505b505090508061145e576040517f08c379a00000000000000000000000000000000000000000000000000000000081526004016114559061348a565b60405180910390fd5b8360050154925060008460000160009054906101000a900473ffffffffffffffffffffffffffffffffffffffff1673ffffffffffffffffffffffffffffffffffffffff16846040516114af9061320a565b60006040518083038185875af1925050503d80600081146114ec576040519150601f19603f3d011682016040523d82523d6000602084013e6114f1565b606091505b5050905080611535576040517f08c379a000000000000000000000000000000000000000000000000000000000815260040161152c9061352a565b60405180910390fd5b5050611612565b60008360010160009054906101000a900473ffffffffffffffffffffffffffffffffffffffff1673ffffffffffffffffffffffffffffffffffffffff16846005015460405161158a9061320a565b60006040518083038185875af1925050503d80600081146115c7576040519150601f19603f3d011682016040523d82523d6000602084013e6115cc565b606091505b5050905080611610576040517f08c379a00000000000000000000000000000000000000000000000000000000081526004016116079061336a565b60405180910390fd5b505b60038360080160006101000a81548160ff02191690836003811115611660577f4e487b7100000000000000000000000000000000000000000000000000000000600052602160045260246000fd5b02179055508260010160009054906101000a900473ffffffffffffffffffffffffffffffffffffffff1673ffffffffffffffffffffffffffffffffffffffff167fb393eb3ef2874f5eb07fc6bfc9b1c4e25df810c92743f008afad7ed2c543a1b7838386600701426040516116d894939291906135c5565b60405180910390a250505050505050565b6000805490508110611730576040517f08c379a00000000000000000000000000000000000000000000000000000000081526004016117279061346a565b60405180910390fd5b600080828154811061176b577f4e487b7100000000000000000000000000000000000000000000000000000000600052603260045260246000fd5b906000526020600020906009020190508060010160009054906101000a900473ffffffffffffffffffffffffffffffffffffffff1673ffffffffffffffffffffffffffffffffffffffff163373ffffffffffffffffffffffffffffffffffffffff161461180d576040517f08c379a0000000000000000000000000000000000000000000000000000000008152600401611804906134ea565b60405180910390fd5b60006003811115611847577f4e487b7100000000000000000000000000000000000000000000000000000000600052602160045260246000fd5b8160080160009054906101000a900460ff166003811115611891577f4e487b7100000000000000000000000000000000000000000000000000000000600052602160045260246000fd5b146118d1576040517f08c379a00000000000000000000000000000000000000000000000000000000081526004016118c89061338a565b60405180910390fd5b80600501543414611917576040517f08c379a000000000000000000000000000000000000000000000000000000000815260040161190e906134aa565b60405180910390fd5b60018160080160006101000a81548160ff02191690836003811115611965577f4e487b7100000000000000000000000000000000000000000000000000000000600052602160045260246000fd5b02179055503373ffffffffffffffffffffffffffffffffffffffff167f02a1e2b102b2abfec4db5b5403f79fe06aa66cfef8cf4fc1017e47655c9c82253483600701426040516119b793929190613587565b60405180910390a25050565b600081815481106119d357600080fd5b90600052602060002090600902016000915090508060000160009054906101000a900473ffffffffffffffffffffffffffffffffffffffff16908060010160009054906101000a900473ffffffffffffffffffffffffffffffffffffffff1690806002015490806003015490806004018054611a4e906137a7565b80601f0160208091040260200160405190810160405280929190818152602001828054611a7a906137a7565b8015611ac75780601f10611a9c57610100808354040283529160200191611ac7565b820191906000526020600020905b815481529060010190602001808311611aaa57829003601f168201915b505050505090806005015490806006015490806007018054611ae8906137a7565b80601f0160208091040260200160405190810160405280929190818152602001828054611b14906137a7565b8015611b615780601f10611b3657610100808354040283529160200191611b61565b820191906000526020600020905b815481529060010190602001808311611b4457829003601f168201915b5050505050908060080160009054906101000a900460ff16905089565b8060008181548110611bb9577f4e487b7100000000000000000000000000000000000000000000000000000000600052603260045260246000fd5b906000526020600020906009020160000160009054906101000a900473ffffffffffffffffffffffffffffffffffffffff1673ffffffffffffffffffffffffffffffffffffffff163373ffffffffffffffffffffffffffffffffffffffff1614611c58576040517f08c379a0000000000000000000000000000000000000000000000000000000008152600401611c4f906133aa565b60405180910390fd5b81600380811115611c92577f4e487b7100000000000000000000000000000000000000000000000000000000600052602160045260246000fd5b60008281548110611ccc577f4e487b7100000000000000000000000000000000000000000000000000000000600052603260045260246000fd5b906000526020600020906009020160080160009054906101000a900460ff166003811115611d23577f4e487b7100000000000000000000000000000000000000000000000000000000600052602160045260246000fd5b1415611d64576040517f08c379a0000000000000000000000000000000000000000000000000000000008152600401611d5b9061344a565b60405180910390fd5b6000808481548110611d9f577f4e487b7100000000000000000000000000000000000000000000000000000000600052603260045260246000fd5b9060005260206000209060090201905060038160080160006101000a81548160ff02191690836003811115611dfd577f4e487b7100000000000000000000000000000000000000000000000000000000600052602160045260246000fd5b021790555060026003811115611e3c577f4e487b7100000000000000000000000000000000000000000000000000000000600052602160045260246000fd5b8160080160009054906101000a900460ff166003811115611e86577f4e487b7100000000000000000000000000000000000000000000000000000000600052602160045260246000fd5b1415611fdf5760008160010160009054906101000a900473ffffffffffffffffffffffffffffffffffffffff1673ffffffffffffffffffffffffffffffffffffffff168260050154604051611eda9061320a565b60006040518083038185875af1925050503d8060008114611f17576040519150601f19603f3d011682016040523d82523d6000602084013e611f1c565b606091505b5050905080611f60576040517f08c379a0000000000000000000000000000000000000000000000000000000008152600401611f579061336a565b60405180910390fd5b8160010160009054906101000a900473ffffffffffffffffffffffffffffffffffffffff1673ffffffffffffffffffffffffffffffffffffffff167fdb9c314fac9ff457de5c842044f1bc3ef7c670f7c60a64484bc75831c4270cef83600501548460070142604051611fd593929190613587565b60405180910390a2505b8060010160009054906101000a900473ffffffffffffffffffffffffffffffffffffffff1673ffffffffffffffffffffffffffffffffffffffff168160000160009054906101000a900473ffffffffffffffffffffffffffffffffffffffff1673ffffffffffffffffffffffffffffffffffffffff167fe333e1780e73b76312b3e4dcdaa176843638fa200ae744da417bf68b1828a444836007014260405161208992919061331a565b60405180910390a350505050565b80600081815481106120d2577f4e487b7100000000000000000000000000000000000000000000000000000000600052603260045260246000fd5b906000526020600020906009020160010160009054906101000a900473ffffffffffffffffffffffffffffffffffffffff1673ffffffffffffffffffffffffffffffffffffffff163373ffffffffffffffffffffffffffffffffffffffff1614612171576040517f08c379a00000000000000000000000000000000000000000000000000000000081526004016121689061342a565b60405180910390fd5b816003808111156121ab577f4e487b7100000000000000000000000000000000000000000000000000000000600052602160045260246000fd5b600082815481106121e5577f4e487b7100000000000000000000000000000000000000000000000000000000600052603260045260246000fd5b906000526020600020906009020160080160009054906101000a900460ff16600381111561223c577f4e487b7100000000000000000000000000000000000000000000000000000000600052602160045260246000fd5b141561227d576040517f08c379a00000000000000000000000000000000000000000000000000000000081526004016122749061344a565b60405180910390fd5b60008054905083106122c4576040517f08c379a00000000000000000000000000000000000000000000000000000000081526004016122bb9061346a565b60405180910390fd5b60008084815481106122ff577f4e487b7100000000000000000000000000000000000000000000000000000000600052603260045260246000fd5b9060005260206000209060090201905060026003811115612349577f4e487b7100000000000000000000000000000000000000000000000000000000600052602160045260246000fd5b8160080160009054906101000a900460ff166003811115612393577f4e487b7100000000000000000000000000000000000000000000000000000000600052602160045260246000fd5b14806124205750600160038111156123d4577f4e487b7100000000000000000000000000000000000000000000000000000000600052602160045260246000fd5b8160080160009054906101000a900460ff16600381111561241e577f4e487b7100000000000000000000000000000000000000000000000000000000600052602160045260246000fd5b145b61245f576040517f08c379a0000000000000000000000000000000000000000000000000000000008152600401612456906133ea565b60405180910390fd5b806006015434146124a5576040517f08c379a000000000000000000000000000000000000000000000000000000000815260040161249c906133ca565b60405180910390fd5b600160038111156124df577f4e487b7100000000000000000000000000000000000000000000000000000000600052602160045260246000fd5b8160080160009054906101000a900460ff166003811115612529577f4e487b7100000000000000000000000000000000000000000000000000000000600052602160045260246000fd5b14156125835760028160080160006101000a81548160ff0219169083600381111561257d577f4e487b7100000000000000000000000000000000000000000000000000000000600052602160045260246000fd5b02179055505b8060000160009054906101000a900473ffffffffffffffffffffffffffffffffffffffff1673ffffffffffffffffffffffffffffffffffffffff166108fc349081150290604051600060405180830381858888f193505050501580156125ed573d6000803e3d6000fd5b508060000160009054906101000a900473ffffffffffffffffffffffffffffffffffffffff1673ffffffffffffffffffffffffffffffffffffffff163373ffffffffffffffffffffffffffffffffffffffff167f53d8f6089d902f87f506cbe2fd7aa28135292f98afb226e8374c5291077b425234846007014260405161267693929190613587565b60405180910390a350505050565b604051806101200160405280600073ffffffffffffffffffffffffffffffffffffffff168152602001600073ffffffffffffffffffffffffffffffffffffffff1681526020016000815260200160008152602001606081526020016000815260200160008152602001606081526020016000600381111561272e577f4e487b7100000000000000000000000000000000000000000000000000000000600052602160045260246000fd5b81525090565b828054612740906137a7565b90600052602060002090601f01602090048101928261276257600085556127a9565b82601f1061277b57805160ff19168380011785556127a9565b828001600101855582156127a9579182015b828111156127a857825182559160200191906001019061278d565b5b5090506127b691906127ba565b5090565b5b808211156127d35760008160009055506001016127bb565b5090565b60006127ea6127e584613642565b613611565b90508281526020810184848401111561280257600080fd5b61280d848285613765565b509392505050565b6000813590506128248161388b565b92915050565b600081359050612839816138a2565b92915050565b600082601f83011261285057600080fd5b81356128608482602086016127d7565b91505092915050565b600081359050612878816138b9565b92915050565b600080600080600080600080610100898b03121561289b57600080fd5b60006128a98b828c01612815565b98505060206128ba8b828c01612815565b97505060406128cb8b828c01612869565b96505060606128dc8b828c01612869565b955050608089013567ffffffffffffffff8111156128f957600080fd5b6129058b828c0161283f565b94505060a06129168b828c01612869565b93505060c089013567ffffffffffffffff81111561293357600080fd5b61293f8b828c0161283f565b92505060e06129508b828c01612869565b9150509295985092959890939650565b60006020828403121561297257600080fd5b600061298084828501612869565b91505092915050565b6000806040838503121561299c57600080fd5b60006129aa85828601612869565b92505060206129bb8582860161282a565b9150509250929050565b60006129d18383613054565b905092915050565b6129e2816136f8565b82525050565b6129f1816136f8565b82525050565b6000612a0282613697565b612a0c81856136ba565b935083602082028501612a1e85613672565b8060005b85811015612a5a5784840389528151612a3b85826129c5565b9450612a46836136ad565b925060208a01995050600181019050612a22565b50829750879550505050505092915050565b612a7581613753565b82525050565b612a8481613753565b82525050565b6000612a95826136a2565b612a9f81856136d6565b9350612aaf818560208601613774565b612ab881613866565b840191505092915050565b6000612ace826136a2565b612ad881856136e7565b9350612ae8818560208601613774565b612af181613866565b840191505092915050565b60008154612b09816137a7565b612b1381866136e7565b94506001821660008114612b2e5760018114612b4057612b73565b60ff1983168652602086019350612b73565b612b4985613682565b60005b83811015612b6b57815481890152600182019150602081019050612b4c565b808801955050505b50505092915050565b6000612b896014836136e7565b91507f496e76616c69642072656e74616c2064617465730000000000000000000000006000830152602082019050919050565b6000612bc9601e836136e7565b91507f4465706f73697420726566756e64207472616e73666572206661696c656400006000830152602082019050919050565b6000612c096018836136e7565b91507f436f6e747261637420616c7265616479206372656174656400000000000000006000830152602082019050919050565b6000612c496026836136e7565b91507f4f6e6c7920746865206f776e65722063616e20706572666f726d20746869732060008301527f616374696f6e00000000000000000000000000000000000000000000000000006020830152604082019050919050565b6000612caf6015836136e7565b91507f496e636f72726563742072656e7420616d6f756e7400000000000000000000006000830152602082019050919050565b6000612cef602a836136e7565b91507f52656e74616c20706572696f64206e6f742073746172746564206f7220616c7260008301527f6561647920656e646564000000000000000000000000000000000000000000006020830152604082019050919050565b6000612d55601d836136e7565b91507f496e636f72726563742065787472612063686172676520616d6f756e740000006000830152602082019050919050565b6000612d956027836136e7565b91507f4f6e6c79207468652072656e7465722063616e20706572666f726d207468697360008301527f20616374696f6e000000000000000000000000000000000000000000000000006020830152604082019050919050565b6000612dfb6010836136e7565b91507f52656e74616c2068617320656e646564000000000000000000000000000000006000830152602082019050919050565b6000612e3b6014836136e7565b91507f496e76616c69642072656e74616c20696e6465780000000000000000000000006000830152602082019050919050565b6000612e7b601c836136e7565b91507f457874726120636861726765207472616e73666572206661696c6564000000006000830152602082019050919050565b6000612ebb6018836136e7565b91507f496e636f7272656374206465706f73697420616d6f756e7400000000000000006000830152602082019050919050565b6000612efb6026836136e7565b91507f4f6e6c7920746865206f776e65722063616e206372656174652074686520636f60008301527f6e747261637400000000000000000000000000000000000000000000000000006020830152604082019050919050565b6000612f616022836136e7565b91507f4f6e6c79207468652072656e7465722063616e206d616b652061206465706f7360008301527f69740000000000000000000000000000000000000000000000000000000000006020830152604082019050919050565b6000612fc76000836136cb565b9150600082019050919050565b6000612fe1601c836136e7565b91507f436f6d70656e736174696f6e207472616e73666572206661696c6564000000006000830152602082019050919050565b60006130216017836136e7565b91507f4465706f736974207472616e73666572206661696c65640000000000000000006000830152602082019050919050565b60006101208301600083015161306d60008601826129d9565b50602083015161308060208601826129d9565b50604083015161309360408601826131ec565b5060608301516130a660608601826131ec565b50608083015184820360808601526130be8282612a8a565b91505060a08301516130d360a08601826131ec565b5060c08301516130e660c08601826131ec565b5060e083015184820360e08601526130fe8282612a8a565b915050610100830151613115610100860182612a6c565b508091505092915050565b60006101208301600083015161313960008601826129d9565b50602083015161314c60208601826129d9565b50604083015161315f60408601826131ec565b50606083015161317260608601826131ec565b506080830151848203608086015261318a8282612a8a565b91505060a083015161319f60a08601826131ec565b5060c08301516131b260c08601826131ec565b5060e083015184820360e08601526131ca8282612a8a565b9150506101008301516131e1610100860182612a6c565b508091505092915050565b6131f581613749565b82525050565b61320481613749565b82525050565b600061321582612fba565b9150819050919050565b600061012082019050613235600083018c6129e8565b613242602083018b6129e8565b61324f604083018a6131fb565b61325c60608301896131fb565b818103608083015261326e8188612ac3565b905061327d60a08301876131fb565b61328a60c08301866131fb565b81810360e083015261329c8185612ac3565b90506132ac610100830184612a7b565b9a9950505050505050505050565b600060208201905081810360008301526132d481846129f7565b905092915050565b600060608201905081810360008301526132f68186612ac3565b905061330560208301856131fb565b61331260408301846131fb565b949350505050565b600060408201905081810360008301526133348185612afc565b905061334360208301846131fb565b9392505050565b6000602082019050818103600083015261336381612b7c565b9050919050565b6000602082019050818103600083015261338381612bbc565b9050919050565b600060208201905081810360008301526133a381612bfc565b9050919050565b600060208201905081810360008301526133c381612c3c565b9050919050565b600060208201905081810360008301526133e381612ca2565b9050919050565b6000602082019050818103600083015261340381612ce2565b9050919050565b6000602082019050818103600083015261342381612d48565b9050919050565b6000602082019050818103600083015261344381612d88565b9050919050565b6000602082019050818103600083015261346381612dee565b9050919050565b6000602082019050818103600083015261348381612e2e565b9050919050565b600060208201905081810360008301526134a381612e6e565b9050919050565b600060208201905081810360008301526134c381612eae565b9050919050565b600060208201905081810360008301526134e381612eee565b9050919050565b6000602082019050818103600083015261350381612f54565b9050919050565b6000602082019050818103600083015261352381612fd4565b9050919050565b6000602082019050818103600083015261354381613014565b9050919050565b600060208201905081810360008301526135648184613120565b905092915050565b600060208201905061358160008301846131fb565b92915050565b600060608201905061359c60008301866131fb565b81810360208301526135ae8185612afc565b90506135bd60408301846131fb565b949350505050565b60006080820190506135da60008301876131fb565b6135e760208301866131fb565b81810360408301526135f98185612afc565b905061360860608301846131fb565b95945050505050565b6000604051905081810181811067ffffffffffffffff8211171561363857613637613837565b5b8060405250919050565b600067ffffffffffffffff82111561365d5761365c613837565b5b601f19601f8301169050602081019050919050565b6000819050602082019050919050565b60008190508160005260206000209050919050565b600081519050919050565b600081519050919050565b6000602082019050919050565b600082825260208201905092915050565b600081905092915050565b600082825260208201905092915050565b600082825260208201905092915050565b600061370382613729565b9050919050565b60008115159050919050565b600081905061372482613877565b919050565b600073ffffffffffffffffffffffffffffffffffffffff82169050919050565b6000819050919050565b600061375e82613716565b9050919050565b82818337600083830152505050565b60005b83811015613792578082015181840152602081019050613777565b838111156137a1576000848401525b50505050565b600060028204905060018216806137bf57607f821691505b602082108114156137d3576137d2613808565b5b50919050565b7f4e487b7100000000000000000000000000000000000000000000000000000000600052602160045260246000fd5b7f4e487b7100000000000000000000000000000000000000000000000000000000600052602260045260246000fd5b7f4e487b7100000000000000000000000000000000000000000000000000000000600052604160045260246000fd5b6000601f19601f8301169050919050565b60048110613888576138876137d9565b5b50565b613894816136f8565b811461389f57600080fd5b50565b6138ab8161370a565b81146138b657600080fd5b50565b6138c281613749565b81146138cd57600080fd5b5056fea26469706673582212206f69e811a0442bdd4ead83562da5e760c9686bf491b23c458f6cd104b50c900464736f6c63430008000033",
  "immutableReferences": {},
  "source": "// SPDX-License-Identifier: MIT\r\npragma solidity ^0.8.0;\r\n\r\ncontract RentalContract {\r\n    enum RentalStatus { NotCreated, Deposited, Ongoing, Ended }\r\n\r\n    struct Rental {\r\n        address payable owner;\r\n        address payable renter;\r\n        uint startDate;\r\n        uint endDate;\r\n        string details;\r\n        uint depositAmount;\r\n        uint monthlyRent;\r\n        string propertyId;\r\n        RentalStatus status;\r\n    }\r\n\r\n    Rental[] public rentals;\r\n\r\n    event ContractCreated(address indexed owner, address indexed renter, string propertyId, uint startDate, uint endDate);\r\n    event RentPaid(address indexed renter, address indexed owner, uint amount, string propertyId, uint timestamp);\r\n    event DepositReturned(address indexed renter, uint amount, string propertyId, uint timestamp);\r\n    event ContractEnded(address indexed owner, address indexed renter, string propertyId, uint timestamp);\r\n    event DepositMade(address indexed renter, uint amount, string propertyId, uint timestamp);\r\n    event ContractCancelledByRenter(address indexed renter, uint depositLoss, uint extraCharge, string propertyId, uint timestamp);\r\n    event ContractCancelledByOwner(address indexed owner, uint compensation, string propertyId, uint timestamp);\r\n\r\n    modifier onlyOwner(uint _rentalIndex) {\r\n        require(msg.sender == rentals[_rentalIndex].owner, \"Only the owner can perform this action\");\r\n        _;\r\n    }\r\n\r\n    modifier onlyRenter(uint _rentalIndex) {\r\n        require(msg.sender == rentals[_rentalIndex].renter, \"Only the renter can perform this action\");\r\n        _;\r\n    }\r\n\r\n    modifier rentalNotEnded(uint _rentalIndex) {\r\n        require(rentals[_rentalIndex].status != RentalStatus.Ended, \"Rental has ended\");\r\n        _;\r\n    }\r\n\r\n    function createContract(\r\n        address payable _owner,\r\n        address payable _renter,\r\n        uint _startDate,\r\n        uint _endDate,\r\n        string memory _details,\r\n        uint _monthlyRent,\r\n        string memory _propertyId,\r\n        uint _depositAmount\r\n    ) public {\r\n        // Kim tra rng ngi gi hm l ch hp ng\r\n        require(msg.sender == _owner, \"Only the owner can create the contract\");\r\n        require(_startDate < _endDate, \"Invalid rental dates\");\r\n\r\n        Rental memory newRental = Rental({\r\n            owner: _owner,\r\n            renter: _renter,\r\n            startDate: _startDate,\r\n            endDate: _endDate,\r\n            details: _details,\r\n            depositAmount: _depositAmount,\r\n            monthlyRent: _monthlyRent,\r\n            propertyId: _propertyId,\r\n            status: RentalStatus.NotCreated\r\n        });\r\n\r\n        rentals.push(newRental);\r\n        emit ContractCreated(_owner, _renter, _propertyId, _startDate, _endDate);\r\n    }\r\n\r\n    function depositAndCreateContract(uint _rentalIndex) public payable {\r\n        require(_rentalIndex < rentals.length, \"Invalid rental index\");\r\n        Rental storage rental = rentals[_rentalIndex];\r\n\r\n        require(msg.sender == rental.renter, \"Only the renter can make a deposit\");\r\n        require(rental.status == RentalStatus.NotCreated, \"Contract already created\");\r\n        require(msg.value == rental.depositAmount, \"Incorrect deposit amount\");\r\n\r\n        // Gi tin cc trong hp ng\r\n        rental.status = RentalStatus.Deposited;\r\n        emit DepositMade(msg.sender, msg.value, rental.propertyId, block.timestamp);\r\n    }\r\n\r\n    function payRent(uint _rentalIndex) public payable onlyRenter(_rentalIndex) rentalNotEnded(_rentalIndex) {\r\n        require(_rentalIndex < rentals.length, \"Invalid rental index\");\r\n        Rental storage rental = rentals[_rentalIndex];\r\n\r\n        require(rental.status == RentalStatus.Ongoing || rental.status == RentalStatus.Deposited, \"Rental period not started or already ended\");\r\n        require(msg.value == rental.monthlyRent, \"Incorrect rent amount\");\r\n\r\n        if (rental.status == RentalStatus.Deposited) {\r\n            rental.status = RentalStatus.Ongoing; // Start the rental period\r\n        }\r\n\r\n        rental.owner.transfer(msg.value);\r\n        emit RentPaid(msg.sender, rental.owner, msg.value, rental.propertyId, block.timestamp);\r\n    }\r\n\r\n    function endContract(uint _rentalIndex) public onlyOwner(_rentalIndex) rentalNotEnded(_rentalIndex) {\r\n        Rental storage rental = rentals[_rentalIndex];\r\n        rental.status = RentalStatus.Ended;\r\n\r\n        if (rental.status == RentalStatus.Ongoing) {\r\n            // Hon tin cc cho ngi thu\r\n            (bool success, ) = rental.renter.call{value: rental.depositAmount}(\"\");\r\n            require(success, \"Deposit refund transfer failed\");\r\n            emit DepositReturned(rental.renter, rental.depositAmount, rental.propertyId, block.timestamp);\r\n        }\r\n\r\n        emit ContractEnded(rental.owner, rental.renter, rental.propertyId, block.timestamp);\r\n    }\r\n\r\n    function cancelContractByRenter(uint _rentalIndex, bool notifyBefore30Days) public payable onlyRenter(_rentalIndex) rentalNotEnded(_rentalIndex) {\r\n        Rental storage rental = rentals[_rentalIndex];\r\n\r\n        uint depositLoss = 0;\r\n        uint extraCharge = 0;\r\n\r\n        if (!notifyBefore30Days) {\r\n            // Nu khng thng bo trc 30 ngy\r\n            extraCharge = rental.monthlyRent;\r\n            require(msg.value == extraCharge, \"Incorrect extra charge amount\");\r\n            \r\n            // Chuyn tin b sung cho ch nh\r\n            (bool successExtraCharge, ) = rental.owner.call{value: extraCharge}(\"\");\r\n            require(successExtraCharge, \"Extra charge transfer failed\");\r\n\r\n            // Chuyn tin cc cho ch nh\r\n            depositLoss = rental.depositAmount;\r\n            (bool successDeposit, ) = rental.owner.call{value: depositLoss}(\"\");\r\n            require(successDeposit, \"Deposit transfer failed\");\r\n        } else {\r\n            // Nu thng bo trc 30 ngy\r\n            // Hon li tin cc cho ngi thu\r\n            (bool successRefund, ) = rental.renter.call{value: rental.depositAmount}(\"\");\r\n            require(successRefund, \"Deposit refund transfer failed\");\r\n        }\r\n\r\n        // Cp nht trng thi hp ng\r\n        rental.status = RentalStatus.Ended;\r\n        emit ContractCancelledByRenter(rental.renter, depositLoss, extraCharge, rental.propertyId, block.timestamp);\r\n    }\r\n\r\n    function cancelContractByOwner(uint _rentalIndex, bool notifyBefore30Days) public payable onlyOwner(_rentalIndex) rentalNotEnded(_rentalIndex) {\r\n        Rental storage rental = rentals[_rentalIndex];\r\n\r\n        uint compensation = 0;\r\n\r\n        if (!notifyBefore30Days) {\r\n            // Nu khng thng bo trc 30 ngy, ch nh phi bi thng\r\n            compensation = rental.monthlyRent;\r\n\r\n            // Thc hin chuyn tin bi thng cho ngi thu t ti khon ch nh\r\n            (bool successCompensation, ) = rental.renter.call{value: compensation}(\"\");\r\n            require(successCompensation, \"Compensation transfer failed\");\r\n        }\r\n\r\n        // Thc hin hon tin cc cho ngi thu nu hp ng  c cc\r\n        if (rental.status == RentalStatus.Deposited || rental.status == RentalStatus.Ongoing) {\r\n            (bool successDeposit, ) = rental.renter.call{value: rental.depositAmount}(\"\");\r\n            require(successDeposit, \"Deposit refund transfer failed\");\r\n        }\r\n\r\n        rental.status = RentalStatus.Ended;\r\n        emit ContractCancelledByOwner(rental.owner, compensation, rental.propertyId, block.timestamp);\r\n    }\r\n\r\n    function getRentalDetails(uint _rentalIndex) public view returns (Rental memory) {\r\n        return rentals[_rentalIndex];\r\n    }\r\n\r\n    function getAllRentals() public view returns (Rental[] memory) {\r\n        return rentals;\r\n    }\r\n\r\n    // Hm tr v s d hin ti ca hp ng\r\n    function getContractBalance() public view returns (uint) {\r\n        return address(this).balance;\r\n    }\r\n}\r\n",
  "sourcePath": "E:\\kltn-backend\\contract-service\\contractRental\\contracts\\RentalContract.sol",
  "compiler": {
    "name": "solc",
    "version": "0.8.0+commit.c7dfd78e.Emscripten.clang"
  },
  "schemaVersion": "3.4.16",
  "updatedAt": "2024-08-24T05:45:16.052Z",
  "networkType": "ethereum",
  "devdoc": {
    "kind": "dev",
    "methods": {},
    "version": 1
  },
  "userdoc": {
    "kind": "user",
    "methods": {},
    "version": 1
  }
}