{
  "contractName": "RentalContract",
  "abi": [
    {
      "anonymous": false,
      "inputs": [
        {
          "indexed": true,
          "internalType": "string",
          "name": "contractID",
          "type": "string"
        },
        {
          "indexed": true,
          "internalType": "address",
          "name": "owner",
          "type": "address"
        },
        {
          "indexed": false,
          "internalType": "uint256",
          "name": "compensation",
          "type": "uint256"
        },
        {
          "indexed": false,
          "internalType": "uint256",
          "name": "timestamp",
          "type": "uint256"
        }
      ],
      "name": "ContractCancelledByOwner",
      "type": "event"
    },
    {
      "anonymous": false,
      "inputs": [
        {
          "indexed": true,
          "internalType": "string",
          "name": "contractID",
          "type": "string"
        },
        {
          "indexed": true,
          "internalType": "address",
          "name": "renter",
          "type": "address"
        },
        {
          "indexed": false,
          "internalType": "uint256",
          "name": "depositLoss",
          "type": "uint256"
        },
        {
          "indexed": false,
          "internalType": "uint256",
          "name": "extraCharge",
          "type": "uint256"
        },
        {
          "indexed": false,
          "internalType": "uint256",
          "name": "timestamp",
          "type": "uint256"
        }
      ],
      "name": "ContractCancelledByRenter",
      "type": "event"
    },
    {
      "anonymous": false,
      "inputs": [
        {
          "indexed": true,
          "internalType": "string",
          "name": "contractID",
          "type": "string"
        },
        {
          "indexed": false,
          "internalType": "string",
          "name": "propertyID",
          "type": "string"
        },
        {
          "indexed": true,
          "internalType": "address",
          "name": "owner",
          "type": "address"
        },
        {
          "indexed": true,
          "internalType": "address",
          "name": "renter",
          "type": "address"
        },
        {
          "indexed": false,
          "internalType": "uint256",
          "name": "depositAmount",
          "type": "uint256"
        },
        {
          "indexed": false,
          "internalType": "uint256",
          "name": "monthlyRent",
          "type": "uint256"
        }
      ],
      "name": "ContractCreated",
      "type": "event"
    },
    {
      "anonymous": false,
      "inputs": [
        {
          "indexed": true,
          "internalType": "string",
          "name": "contractID",
          "type": "string"
        },
        {
          "indexed": true,
          "internalType": "address",
          "name": "renter",
          "type": "address"
        },
        {
          "indexed": false,
          "internalType": "uint256",
          "name": "depositRefundAmount",
          "type": "uint256"
        },
        {
          "indexed": false,
          "internalType": "uint256",
          "name": "timestamp",
          "type": "uint256"
        }
      ],
      "name": "ContractEnded",
      "type": "event"
    },
    {
      "anonymous": false,
      "inputs": [
        {
          "indexed": true,
          "internalType": "string",
          "name": "contractID",
          "type": "string"
        },
        {
          "indexed": false,
          "internalType": "string",
          "name": "reason",
          "type": "string"
        }
      ],
      "name": "ContractTerminated",
      "type": "event"
    },
    {
      "anonymous": false,
      "inputs": [
        {
          "indexed": true,
          "internalType": "string",
          "name": "contractID",
          "type": "string"
        },
        {
          "indexed": false,
          "internalType": "address",
          "name": "from",
          "type": "address"
        },
        {
          "indexed": false,
          "internalType": "address",
          "name": "to",
          "type": "address"
        },
        {
          "indexed": false,
          "internalType": "uint256",
          "name": "amount",
          "type": "uint256"
        },
        {
          "indexed": false,
          "internalType": "uint256",
          "name": "timestamp",
          "type": "uint256"
        },
        {
          "indexed": false,
          "internalType": "string",
          "name": "transactionType",
          "type": "string"
        }
      ],
      "name": "TransactionRecorded",
      "type": "event"
    },
    {
      "inputs": [
        {
          "internalType": "string",
          "name": "",
          "type": "string"
        },
        {
          "internalType": "uint256",
          "name": "",
          "type": "uint256"
        }
      ],
      "name": "contractTransactions",
      "outputs": [
        {
          "internalType": "address",
          "name": "from",
          "type": "address"
        },
        {
          "internalType": "address",
          "name": "to",
          "type": "address"
        },
        {
          "internalType": "uint256",
          "name": "amount",
          "type": "uint256"
        },
        {
          "internalType": "uint256",
          "name": "timestamp",
          "type": "uint256"
        },
        {
          "internalType": "string",
          "name": "transactionType",
          "type": "string"
        }
      ],
      "stateMutability": "view",
      "type": "function",
      "constant": true
    },
    {
      "inputs": [
        {
          "internalType": "string",
          "name": "",
          "type": "string"
        }
      ],
      "name": "contracts",
      "outputs": [
        {
          "internalType": "string",
          "name": "contractID",
          "type": "string"
        },
        {
          "internalType": "string",
          "name": "propertyID",
          "type": "string"
        },
        {
          "internalType": "address payable",
          "name": "owner",
          "type": "address"
        },
        {
          "internalType": "address payable",
          "name": "renter",
          "type": "address"
        },
        {
          "internalType": "uint256",
          "name": "depositAmount",
          "type": "uint256"
        },
        {
          "internalType": "uint256",
          "name": "monthlyRent",
          "type": "uint256"
        },
        {
          "internalType": "enum RentalContract.RentalStatus",
          "name": "status",
          "type": "uint8"
        }
      ],
      "stateMutability": "view",
      "type": "function",
      "constant": true
    },
    {
      "inputs": [
        {
          "internalType": "string",
          "name": "_contractID",
          "type": "string"
        },
        {
          "internalType": "string",
          "name": "_propertyID",
          "type": "string"
        },
        {
          "internalType": "address payable",
          "name": "_owner",
          "type": "address"
        },
        {
          "internalType": "address payable",
          "name": "_renter",
          "type": "address"
        },
        {
          "internalType": "uint256",
          "name": "_depositAmount",
          "type": "uint256"
        },
        {
          "internalType": "uint256",
          "name": "_monthlyRent",
          "type": "uint256"
        }
      ],
      "name": "createContract",
      "outputs": [],
      "stateMutability": "nonpayable",
      "type": "function"
    },
    {
      "inputs": [
        {
          "internalType": "string",
          "name": "_contractID",
          "type": "string"
        }
      ],
      "name": "deposit",
      "outputs": [],
      "stateMutability": "payable",
      "type": "function",
      "payable": true
    },
    {
      "inputs": [
        {
          "internalType": "string",
          "name": "_contractID",
          "type": "string"
        }
      ],
      "name": "payRent",
      "outputs": [],
      "stateMutability": "payable",
      "type": "function",
      "payable": true
    },
    {
      "inputs": [
        {
          "internalType": "string",
          "name": "_contractID",
          "type": "string"
        }
      ],
      "name": "endContract",
      "outputs": [],
      "stateMutability": "nonpayable",
      "type": "function"
    },
    {
      "inputs": [
        {
          "internalType": "string",
          "name": "_contractID",
          "type": "string"
        }
      ],
      "name": "getContractDetails",
      "outputs": [
        {
          "components": [
            {
              "internalType": "string",
              "name": "contractID",
              "type": "string"
            },
            {
              "internalType": "string",
              "name": "propertyID",
              "type": "string"
            },
            {
              "internalType": "address payable",
              "name": "owner",
              "type": "address"
            },
            {
              "internalType": "address payable",
              "name": "renter",
              "type": "address"
            },
            {
              "internalType": "uint256",
              "name": "depositAmount",
              "type": "uint256"
            },
            {
              "internalType": "uint256",
              "name": "monthlyRent",
              "type": "uint256"
            },
            {
              "internalType": "enum RentalContract.RentalStatus",
              "name": "status",
              "type": "uint8"
            }
          ],
          "internalType": "struct RentalContract.Contract",
          "name": "",
          "type": "tuple"
        }
      ],
      "stateMutability": "view",
      "type": "function",
      "constant": true
    },
    {
      "inputs": [
        {
          "internalType": "string",
          "name": "_contractID",
          "type": "string"
        }
      ],
      "name": "getContractTransactions",
      "outputs": [
        {
          "components": [
            {
              "internalType": "address",
              "name": "from",
              "type": "address"
            },
            {
              "internalType": "address",
              "name": "to",
              "type": "address"
            },
            {
              "internalType": "uint256",
              "name": "amount",
              "type": "uint256"
            },
            {
              "internalType": "uint256",
              "name": "timestamp",
              "type": "uint256"
            },
            {
              "internalType": "string",
              "name": "transactionType",
              "type": "string"
            }
          ],
          "internalType": "struct RentalContract.Transaction[]",
          "name": "",
          "type": "tuple[]"
        }
      ],
      "stateMutability": "view",
      "type": "function",
      "constant": true
    },
    {
      "inputs": [
        {
          "internalType": "string",
          "name": "_contractId",
          "type": "string"
        }
      ],
      "name": "terminateForNonPayment",
      "outputs": [],
      "stateMutability": "nonpayable",
      "type": "function"
    },
    {
      "inputs": [
        {
          "internalType": "string",
          "name": "_contractId",
          "type": "string"
        },
        {
          "internalType": "bool",
          "name": "notifyBefore30Days",
          "type": "bool"
        }
      ],
      "name": "cancelContractByRenter",
      "outputs": [],
      "stateMutability": "payable",
      "type": "function",
      "payable": true
    },
    {
      "inputs": [
        {
          "internalType": "string",
          "name": "_contractId",
          "type": "string"
        },
        {
          "internalType": "bool",
          "name": "notifyBefore30Days",
          "type": "bool"
        }
      ],
      "name": "cancelContractByOwner",
      "outputs": [],
      "stateMutability": "payable",
      "type": "function",
      "payable": true
    }
  ],
  "bytecode": "0x608060405234801561001057600080fd5b5061475c806100206000396000f3fe60806040526004361061009c5760003560e01c80637bef444c116100645780637bef444c146101685780638c5b838514610184578063a26e1186146101c7578063bfafff5b146101e3578063cd7c114714610220578063d6ba4006146102615761009c565b8063134787d7146100a15780631f0833af146100bd5780632b27ddd0146100e65780635076efd81461010f578063541881c11461012b575b600080fd5b6100bb60048036038101906100b69190613251565b61028a565b005b3480156100c957600080fd5b506100e460048036038101906100df9190613210565b61090d565b005b3480156100f257600080fd5b5061010d600480360381019061010891906132a5565b610e04565b005b61012960048036038101906101249190613251565b61118f565b005b34801561013757600080fd5b50610152600480360381019061014d9190613210565b61179f565b60405161015f9190613fca565b60405180910390f35b610182600480360381019061017d9190613210565b611cb2565b005b34801561019057600080fd5b506101ab60048036038101906101a69190613210565b6121be565b6040516101be9796959493929190613fec565b60405180910390f35b6101e160048036038101906101dc9190613210565b612373565b005b3480156101ef57600080fd5b5061020a60048036038101906102059190613210565b612697565b60405161021791906143a7565b60405180910390f35b34801561022c57600080fd5b506102476004803603810190610242919061335e565b6129eb565b604051610258959493929190613f70565b60405180910390f35b34801561026d57600080fd5b5061028860048036038101906102839190613210565b612b1c565b005b8160008160405161029b9190613e94565b908152602001604051809103902060030160009054906101000a900473ffffffffffffffffffffffffffffffffffffffff1673ffffffffffffffffffffffffffffffffffffffff163373ffffffffffffffffffffffffffffffffffffffff161461033a576040517f08c379a0000000000000000000000000000000000000000000000000000000008152600401610331906141a7565b60405180910390fd5b6000808460405161034b9190613e94565b90815260200160405180910390209050600080846106c357826005015490508034146103ac576040517f08c379a00000000000000000000000000000000000000000000000000000000081526004016103a390614187565b60405180910390fd5b803373ffffffffffffffffffffffffffffffffffffffff16311015610406576040517f08c379a00000000000000000000000000000000000000000000000000000000081526004016103fd90614287565b60405180910390fd5b60008360020160009054906101000a900473ffffffffffffffffffffffffffffffffffffffff1673ffffffffffffffffffffffffffffffffffffffff168260405161045090613eab565b60006040518083038185875af1925050503d806000811461048d576040519150601f19603f3d011682016040523d82523d6000602084013e610492565b606091505b50509050806104d6576040517f08c379a00000000000000000000000000000000000000000000000000000000081526004016104cd90614247565b60405180910390fd5b61053c87338660020160009054906101000a900473ffffffffffffffffffffffffffffffffffffffff16856040518060400160405280600c81526020017f4578747261204368617267650000000000000000000000000000000000000000815250612ec3565b8360040154925082471015610586576040517f08c379a000000000000000000000000000000000000000000000000000000000815260040161057d906140c7565b60405180910390fd5b60008460020160009054906101000a900473ffffffffffffffffffffffffffffffffffffffff1673ffffffffffffffffffffffffffffffffffffffff16846040516105d090613eab565b60006040518083038185875af1925050503d806000811461060d576040519150601f19603f3d011682016040523d82523d6000602084013e610612565b606091505b5050905080610656576040517f08c379a000000000000000000000000000000000000000000000000000000000815260040161064d90614387565b60405180910390fd5b6106bc88338760020160009054906101000a900473ffffffffffffffffffffffffffffffffffffffff16876040518060400160405280600c81526020017f4465706f736974204c6f73730000000000000000000000000000000000000000815250612ec3565b505061084a565b826004015447101561070a576040517f08c379a0000000000000000000000000000000000000000000000000000000008152600401610701906140c7565b60405180910390fd5b60008360030160009054906101000a900473ffffffffffffffffffffffffffffffffffffffff1673ffffffffffffffffffffffffffffffffffffffff16846004015460405161075890613eab565b60006040518083038185875af1925050503d8060008114610795576040519150601f19603f3d011682016040523d82523d6000602084013e61079a565b606091505b50509050806107de576040517f08c379a00000000000000000000000000000000000000000000000000000000081526004016107d5906140a7565b60405180910390fd5b610848878560020160009054906101000a900473ffffffffffffffffffffffffffffffffffffffff163387600401546040518060400160405280600e81526020017f4465706f73697420526566756e64000000000000000000000000000000000000815250612ec3565b505b60038360060160006101000a81548160ff02191690836003811115610898577f4e487b7100000000000000000000000000000000000000000000000000000000600052602160045260246000fd5b02179055503373ffffffffffffffffffffffffffffffffffffffff16866040516108c29190613e94565b60405180910390207fadafc36edcd60759441410797064a212430ea809b0ca5ffd4aa273c16b1313328484426040516108fd939291906143f2565b60405180910390a3505050505050565b6000808260405161091e9190613e94565b9081526020016040518091039020905060006003811115610968577f4e487b7100000000000000000000000000000000000000000000000000000000600052602160045260246000fd5b8160060160009054906101000a900460ff1660038111156109b2577f4e487b7100000000000000000000000000000000000000000000000000000000600052602160045260246000fd5b1415610a105760038160060160006101000a81548160ff02191690836003811115610a06577f4e487b7100000000000000000000000000000000000000000000000000000000600052602160045260246000fd5b0217905550610d72565b60016003811115610a4a577f4e487b7100000000000000000000000000000000000000000000000000000000600052602160045260246000fd5b8160060160009054906101000a900460ff166003811115610a94577f4e487b7100000000000000000000000000000000000000000000000000000000600052602160045260246000fd5b1480610b21575060026003811115610ad5577f4e487b7100000000000000000000000000000000000000000000000000000000600052602160045260246000fd5b8160060160009054906101000a900460ff166003811115610b1f577f4e487b7100000000000000000000000000000000000000000000000000000000600052602160045260246000fd5b145b15610d3657600081600401541115610cde578060040154471015610b7a576040517f08c379a0000000000000000000000000000000000000000000000000000000008152600401610b7190614167565b60405180910390fd5b60008160030160009054906101000a900473ffffffffffffffffffffffffffffffffffffffff1673ffffffffffffffffffffffffffffffffffffffff168260040154604051610bc890613eab565b60006040518083038185875af1925050503d8060008114610c05576040519150601f19603f3d011682016040523d82523d6000602084013e610c0a565b606091505b5050905080610c4e576040517f08c379a0000000000000000000000000000000000000000000000000000000008152600401610c45906140a7565b60405180910390fd5b610cdc838360020160009054906101000a900473ffffffffffffffffffffffffffffffffffffffff168460030160009054906101000a900473ffffffffffffffffffffffffffffffffffffffff1685600401546040518060400160405280600681526020017f526566756e640000000000000000000000000000000000000000000000000000815250612ec3565b505b60038160060160006101000a81548160ff02191690836003811115610d2c577f4e487b7100000000000000000000000000000000000000000000000000000000600052602160045260246000fd5b0217905550610d71565b6040517f08c379a0000000000000000000000000000000000000000000000000000000008152600401610d68906142e7565b60405180910390fd5b5b8060030160009054906101000a900473ffffffffffffffffffffffffffffffffffffffff1673ffffffffffffffffffffffffffffffffffffffff1682604051610dbb9190613e94565b60405180910390207ff6b22571c1ecf2dee47f025f69793accfe7ed12f07404c638536d16998c1ea47836004015442604051610df89291906143c9565b60405180910390a35050565b838073ffffffffffffffffffffffffffffffffffffffff163373ffffffffffffffffffffffffffffffffffffffff1614610e73576040517f08c379a0000000000000000000000000000000000000000000000000000000008152600401610e6a90614227565b60405180910390fd5b600073ffffffffffffffffffffffffffffffffffffffff168573ffffffffffffffffffffffffffffffffffffffff1614158015610edd5750600073ffffffffffffffffffffffffffffffffffffffff168473ffffffffffffffffffffffffffffffffffffffff1614155b610f1c576040517f08c379a0000000000000000000000000000000000000000000000000000000008152600401610f13906140e7565b60405180910390fd5b6040518060e001604052808881526020018781526020018673ffffffffffffffffffffffffffffffffffffffff1681526020018573ffffffffffffffffffffffffffffffffffffffff16815260200184815260200183815260200160006003811115610fb1577f4e487b7100000000000000000000000000000000000000000000000000000000600052602160045260246000fd5b815250600088604051610fc49190613e94565b90815260200160405180910390206000820151816000019080519060200190610fee929190613025565b50602082015181600101908051906020019061100b929190613025565b5060408201518160020160006101000a81548173ffffffffffffffffffffffffffffffffffffffff021916908373ffffffffffffffffffffffffffffffffffffffff16021790555060608201518160030160006101000a81548173ffffffffffffffffffffffffffffffffffffffff021916908373ffffffffffffffffffffffffffffffffffffffff1602179055506080820151816004015560a0820151816005015560c08201518160060160006101000a81548160ff021916908360038111156110ff577f4e487b7100000000000000000000000000000000000000000000000000000000600052602160045260246000fd5b02179055509050508373ffffffffffffffffffffffffffffffffffffffff168573ffffffffffffffffffffffffffffffffffffffff16886040516111439190613e94565b60405180910390207ff7ecc3071b5ebed4a1d5658be0963bdf71f705336198be1add3186546995259489878760405161117e93929190614069565b60405180910390a450505050505050565b816000816040516111a09190613e94565b908152602001604051809103902060020160009054906101000a900473ffffffffffffffffffffffffffffffffffffffff1673ffffffffffffffffffffffffffffffffffffffff163373ffffffffffffffffffffffffffffffffffffffff161461123f576040517f08c379a000000000000000000000000000000000000000000000000000000000815260040161123690614107565b60405180910390fd5b600080846040516112509190613e94565b9081526020016040518091039020905060008361144257816005015490508034146112b0576040517f08c379a00000000000000000000000000000000000000000000000000000000081526004016112a790614207565b60405180910390fd5b803373ffffffffffffffffffffffffffffffffffffffff1631101561130a576040517f08c379a000000000000000000000000000000000000000000000000000000000815260040161130190614307565b60405180910390fd5b60008260030160009054906101000a900473ffffffffffffffffffffffffffffffffffffffff1673ffffffffffffffffffffffffffffffffffffffff168260405161135490613eab565b60006040518083038185875af1925050503d8060008114611391576040519150601f19603f3d011682016040523d82523d6000602084013e611396565b606091505b50509050806113da576040517f08c379a00000000000000000000000000000000000000000000000000000000081526004016113d1906142c7565b60405180910390fd5b61144086338560030160009054906101000a900473ffffffffffffffffffffffffffffffffffffffff16856040518060400160405280600c81526020017f436f6d70656e736174696f6e0000000000000000000000000000000000000000815250612ec3565b505b6001600381111561147c577f4e487b7100000000000000000000000000000000000000000000000000000000600052602160045260246000fd5b8260060160009054906101000a900460ff1660038111156114c6577f4e487b7100000000000000000000000000000000000000000000000000000000600052602160045260246000fd5b1480611553575060026003811115611507577f4e487b7100000000000000000000000000000000000000000000000000000000600052602160045260246000fd5b8260060160009054906101000a900460ff166003811115611551577f4e487b7100000000000000000000000000000000000000000000000000000000600052602160045260246000fd5b145b156116df57816004015447101561159f576040517f08c379a000000000000000000000000000000000000000000000000000000000815260040161159690614167565b60405180910390fd5b60008260030160009054906101000a900473ffffffffffffffffffffffffffffffffffffffff1673ffffffffffffffffffffffffffffffffffffffff1683600401546040516115ed90613eab565b60006040518083038185875af1925050503d806000811461162a576040519150601f19603f3d011682016040523d82523d6000602084013e61162f565b606091505b5050905080611673576040517f08c379a000000000000000000000000000000000000000000000000000000000815260040161166a906140a7565b60405180910390fd5b6116dd86338560030160009054906101000a900473ffffffffffffffffffffffffffffffffffffffff1686600401546040518060400160405280600e81526020017f4465706f73697420526566756e64000000000000000000000000000000000000815250612ec3565b505b60038260060160006101000a81548160ff0219169083600381111561172d577f4e487b7100000000000000000000000000000000000000000000000000000000600052602160045260246000fd5b02179055503373ffffffffffffffffffffffffffffffffffffffff16856040516117579190613e94565b60405180910390207fe2da9dcf01d3bce438e81353c3540671c45029b87abdf8074d5a9bfb045ef6f983426040516117909291906143c9565b60405180910390a35050505050565b6060600080836040516117b29190613e94565b90815260200160405180910390206040518060e00160405290816000820180546117db906145fd565b80601f0160208091040260200160405190810160405280929190818152602001828054611807906145fd565b80156118545780601f1061182957610100808354040283529160200191611854565b820191906000526020600020905b81548152906001019060200180831161183757829003601f168201915b5050505050815260200160018201805461186d906145fd565b80601f0160208091040260200160405190810160405280929190818152602001828054611899906145fd565b80156118e65780601f106118bb576101008083540402835291602001916118e6565b820191906000526020600020905b8154815290600101906020018083116118c957829003601f168201915b505050505081526020016002820160009054906101000a900473ffffffffffffffffffffffffffffffffffffffff1673ffffffffffffffffffffffffffffffffffffffff1673ffffffffffffffffffffffffffffffffffffffff1681526020016003820160009054906101000a900473ffffffffffffffffffffffffffffffffffffffff1673ffffffffffffffffffffffffffffffffffffffff1673ffffffffffffffffffffffffffffffffffffffff16815260200160048201548152602001600582015481526020016006820160009054906101000a900460ff1660038111156119fa577f4e487b7100000000000000000000000000000000000000000000000000000000600052602160045260246000fd5b6003811115611a32577f4e487b7100000000000000000000000000000000000000000000000000000000600052602160045260246000fd5b815250509050806040015173ffffffffffffffffffffffffffffffffffffffff163373ffffffffffffffffffffffffffffffffffffffff161480611aa55750806060015173ffffffffffffffffffffffffffffffffffffffff163373ffffffffffffffffffffffffffffffffffffffff16145b611ae4576040517f08c379a0000000000000000000000000000000000000000000000000000000008152600401611adb906141e7565b60405180910390fd5b600183604051611af49190613e94565b9081526020016040518091039020805480602002602001604051908101604052809291908181526020016000905b82821015611ca657838290600052602060002090600502016040518060a00160405290816000820160009054906101000a900473ffffffffffffffffffffffffffffffffffffffff1673ffffffffffffffffffffffffffffffffffffffff1673ffffffffffffffffffffffffffffffffffffffff1681526020016001820160009054906101000a900473ffffffffffffffffffffffffffffffffffffffff1673ffffffffffffffffffffffffffffffffffffffff1673ffffffffffffffffffffffffffffffffffffffff1681526020016002820154815260200160038201548152602001600482018054611c15906145fd565b80601f0160208091040260200160405190810160405280929190818152602001828054611c41906145fd565b8015611c8e5780601f10611c6357610100808354040283529160200191611c8e565b820191906000526020600020905b815481529060010190602001808311611c7157829003601f168201915b50505050508152505081526020019060010190611b22565b50505050915050919050565b80600081604051611cc39190613e94565b908152602001604051809103902060030160009054906101000a900473ffffffffffffffffffffffffffffffffffffffff1673ffffffffffffffffffffffffffffffffffffffff163373ffffffffffffffffffffffffffffffffffffffff1614611d62576040517f08c379a0000000000000000000000000000000000000000000000000000000008152600401611d59906141a7565b60405180910390fd5b60008083604051611d739190613e94565b9081526020016040518091039020905060016003811115611dbd577f4e487b7100000000000000000000000000000000000000000000000000000000600052602160045260246000fd5b8160060160009054906101000a900460ff166003811115611e07577f4e487b7100000000000000000000000000000000000000000000000000000000600052602160045260246000fd5b1480611e94575060026003811115611e48577f4e487b7100000000000000000000000000000000000000000000000000000000600052602160045260246000fd5b8160060160009054906101000a900460ff166003811115611e92577f4e487b7100000000000000000000000000000000000000000000000000000000600052602160045260246000fd5b145b611ed3576040517f08c379a0000000000000000000000000000000000000000000000000000000008152600401611eca90614127565b60405180910390fd5b343373ffffffffffffffffffffffffffffffffffffffff16311015611f2d576040517f08c379a0000000000000000000000000000000000000000000000000000000008152600401611f2490614287565b60405180910390fd5b60016003811115611f67577f4e487b7100000000000000000000000000000000000000000000000000000000600052602160045260246000fd5b8160060160009054906101000a900460ff166003811115611fb1577f4e487b7100000000000000000000000000000000000000000000000000000000600052602160045260246000fd5b141561200b5760028160060160006101000a81548160ff02191690836003811115612005577f4e487b7100000000000000000000000000000000000000000000000000000000600052602160045260246000fd5b02179055505b60008160020160009054906101000a900473ffffffffffffffffffffffffffffffffffffffff1673ffffffffffffffffffffffffffffffffffffffff163460405161205590613eab565b60006040518083038185875af1925050503d8060008114612092576040519150601f19603f3d011682016040523d82523d6000602084013e612097565b606091505b50509050806120db576040517f08c379a00000000000000000000000000000000000000000000000000000000081526004016120d290614147565b60405180910390fd5b61214184338460020160009054906101000a900473ffffffffffffffffffffffffffffffffffffffff16346040518060400160405280600c81526020017f52656e74205061796d656e740000000000000000000000000000000000000000815250612ec3565b8360405161214f9190613e94565b60405180910390207f533295cd82e521ef5bdedbc6debf352fcb558fe7f98c397a0d52cc90e107f310338460020160009054906101000a900473ffffffffffffffffffffffffffffffffffffffff1634426040516121b09493929190613ec0565b60405180910390a250505050565b6000818051602081018201805184825260208301602085012081835280955050505050506000915090508060000180546121f7906145fd565b80601f0160208091040260200160405190810160405280929190818152602001828054612223906145fd565b80156122705780601f1061224557610100808354040283529160200191612270565b820191906000526020600020905b81548152906001019060200180831161225357829003601f168201915b505050505090806001018054612285906145fd565b80601f01602080910402602001604051908101604052809291908181526020018280546122b1906145fd565b80156122fe5780601f106122d3576101008083540402835291602001916122fe565b820191906000526020600020905b8154815290600101906020018083116122e157829003601f168201915b5050505050908060020160009054906101000a900473ffffffffffffffffffffffffffffffffffffffff16908060030160009054906101000a900473ffffffffffffffffffffffffffffffffffffffff16908060040154908060050154908060060160009054906101000a900460ff16905087565b806000816040516123849190613e94565b908152602001604051809103902060030160009054906101000a900473ffffffffffffffffffffffffffffffffffffffff1673ffffffffffffffffffffffffffffffffffffffff163373ffffffffffffffffffffffffffffffffffffffff1614612423576040517f08c379a000000000000000000000000000000000000000000000000000000000815260040161241a906141a7565b60405180910390fd5b600080836040516124349190613e94565b908152602001604051809103902090506000600381111561247e577f4e487b7100000000000000000000000000000000000000000000000000000000600052602160045260246000fd5b8160060160009054906101000a900460ff1660038111156124c8577f4e487b7100000000000000000000000000000000000000000000000000000000600052602160045260246000fd5b14612508576040517f08c379a00000000000000000000000000000000000000000000000000000000081526004016124ff90614367565b60405180910390fd5b343373ffffffffffffffffffffffffffffffffffffffff16311015612562576040517f08c379a000000000000000000000000000000000000000000000000000000000815260040161255990614287565b60405180910390fd5b60018160060160006101000a81548160ff021916908360038111156125b0577f4e487b7100000000000000000000000000000000000000000000000000000000600052602160045260246000fd5b021790555061261b83338360020160009054906101000a900473ffffffffffffffffffffffffffffffffffffffff16346040518060400160405280600781526020017f4465706f73697400000000000000000000000000000000000000000000000000815250612ec3565b826040516126299190613e94565b60405180910390207f533295cd82e521ef5bdedbc6debf352fcb558fe7f98c397a0d52cc90e107f310338360020160009054906101000a900473ffffffffffffffffffffffffffffffffffffffff16344260405161268a9493929190613f18565b60405180910390a2505050565b61269f6130ab565b600080836040516126b09190613e94565b90815260200160405180910390206040518060e00160405290816000820180546126d9906145fd565b80601f0160208091040260200160405190810160405280929190818152602001828054612705906145fd565b80156127525780601f1061272757610100808354040283529160200191612752565b820191906000526020600020905b81548152906001019060200180831161273557829003601f168201915b5050505050815260200160018201805461276b906145fd565b80601f0160208091040260200160405190810160405280929190818152602001828054612797906145fd565b80156127e45780601f106127b9576101008083540402835291602001916127e4565b820191906000526020600020905b8154815290600101906020018083116127c757829003601f168201915b505050505081526020016002820160009054906101000a900473ffffffffffffffffffffffffffffffffffffffff1673ffffffffffffffffffffffffffffffffffffffff1673ffffffffffffffffffffffffffffffffffffffff1681526020016003820160009054906101000a900473ffffffffffffffffffffffffffffffffffffffff1673ffffffffffffffffffffffffffffffffffffffff1673ffffffffffffffffffffffffffffffffffffffff16815260200160048201548152602001600582015481526020016006820160009054906101000a900460ff1660038111156128f8577f4e487b7100000000000000000000000000000000000000000000000000000000600052602160045260246000fd5b6003811115612930577f4e487b7100000000000000000000000000000000000000000000000000000000600052602160045260246000fd5b815250509050806040015173ffffffffffffffffffffffffffffffffffffffff163373ffffffffffffffffffffffffffffffffffffffff1614806129a35750806060015173ffffffffffffffffffffffffffffffffffffffff163373ffffffffffffffffffffffffffffffffffffffff16145b6129e2576040517f08c379a00000000000000000000000000000000000000000000000000000000081526004016129d990614267565b60405180910390fd5b80915050919050565b6001828051602081018201805184825260208301602085012081835280955050505050508181548110612a1d57600080fd5b9060005260206000209060050201600091509150508060000160009054906101000a900473ffffffffffffffffffffffffffffffffffffffff16908060010160009054906101000a900473ffffffffffffffffffffffffffffffffffffffff1690806002015490806003015490806004018054612a99906145fd565b80601f0160208091040260200160405190810160405280929190818152602001828054612ac5906145fd565b8015612b125780601f10612ae757610100808354040283529160200191612b12565b820191906000526020600020905b815481529060010190602001808311612af557829003601f168201915b5050505050905085565b60008082604051612b2d9190613e94565b9081526020016040518091039020905060016003811115612b77577f4e487b7100000000000000000000000000000000000000000000000000000000600052602160045260246000fd5b8160060160009054906101000a900460ff166003811115612bc1577f4e487b7100000000000000000000000000000000000000000000000000000000600052602160045260246000fd5b1480612c4e575060026003811115612c02577f4e487b7100000000000000000000000000000000000000000000000000000000600052602160045260246000fd5b8160060160009054906101000a900460ff166003811115612c4c577f4e487b7100000000000000000000000000000000000000000000000000000000600052602160045260246000fd5b145b612c8d576040517f08c379a0000000000000000000000000000000000000000000000000000000008152600401612c8490614327565b60405180910390fd5b600081600401541115612e21578060040154471015612ce1576040517f08c379a0000000000000000000000000000000000000000000000000000000008152600401612cd8906142a7565b60405180910390fd5b60008160020160009054906101000a900473ffffffffffffffffffffffffffffffffffffffff1673ffffffffffffffffffffffffffffffffffffffff168260040154604051612d2f90613eab565b60006040518083038185875af1925050503d8060008114612d6c576040519150601f19603f3d011682016040523d82523d6000602084013e612d71565b606091505b5050905080612db5576040517f08c379a0000000000000000000000000000000000000000000000000000000008152600401612dac906141c7565b60405180910390fd5b612e1f83308460020160009054906101000a900473ffffffffffffffffffffffffffffffffffffffff1685600401546040518060400160405280601181526020017f4465706f73697420466f72666569746564000000000000000000000000000000815250612ec3565b505b60038160060160006101000a81548160ff02191690836003811115612e6f577f4e487b7100000000000000000000000000000000000000000000000000000000600052602160045260246000fd5b021790555081604051612e829190613e94565b60405180910390207f62053ec7b590a1785a5832f731771c8a67d47e1c16b9407b5bc1903ff9b7c525604051612eb790614347565b60405180910390a25050565b600185604051612ed39190613e94565b90815260200160405180910390206040518060a001604052808673ffffffffffffffffffffffffffffffffffffffff1681526020018573ffffffffffffffffffffffffffffffffffffffff16815260200184815260200142815260200183815250908060018154018082558091505060019003906000526020600020906005020160009091909190915060008201518160000160006101000a81548173ffffffffffffffffffffffffffffffffffffffff021916908373ffffffffffffffffffffffffffffffffffffffff16021790555060208201518160010160006101000a81548173ffffffffffffffffffffffffffffffffffffffff021916908373ffffffffffffffffffffffffffffffffffffffff1602179055506040820151816002015560608201518160030155608082015181600401908051906020019061301b929190613025565b5050505050505050565b828054613031906145fd565b90600052602060002090601f016020900481019282613053576000855561309a565b82601f1061306c57805160ff191683800117855561309a565b8280016001018555821561309a579182015b8281111561309957825182559160200191906001019061307e565b5b5090506130a7919061314c565b5090565b6040518060e001604052806060815260200160608152602001600073ffffffffffffffffffffffffffffffffffffffff168152602001600073ffffffffffffffffffffffffffffffffffffffff168152602001600081526020016000815260200160006003811115613146577f4e487b7100000000000000000000000000000000000000000000000000000000600052602160045260246000fd5b81525090565b5b8082111561316557600081600090555060010161314d565b5090565b600061317c6131778461445a565b614429565b90508281526020810184848401111561319457600080fd5b61319f8482856145bb565b509392505050565b6000813590506131b6816146e1565b92915050565b6000813590506131cb816146f8565b92915050565b600082601f8301126131e257600080fd5b81356131f2848260208601613169565b91505092915050565b60008135905061320a8161470f565b92915050565b60006020828403121561322257600080fd5b600082013567ffffffffffffffff81111561323c57600080fd5b613248848285016131d1565b91505092915050565b6000806040838503121561326457600080fd5b600083013567ffffffffffffffff81111561327e57600080fd5b61328a858286016131d1565b925050602061329b858286016131bc565b9150509250929050565b60008060008060008060c087890312156132be57600080fd5b600087013567ffffffffffffffff8111156132d857600080fd5b6132e489828a016131d1565b965050602087013567ffffffffffffffff81111561330157600080fd5b61330d89828a016131d1565b955050604061331e89828a016131a7565b945050606061332f89828a016131a7565b935050608061334089828a016131fb565b92505060a061335189828a016131fb565b9150509295509295509295565b6000806040838503121561337157600080fd5b600083013567ffffffffffffffff81111561338b57600080fd5b613397858286016131d1565b92505060206133a8858286016131fb565b9150509250929050565b60006133be8383613e00565b905092915050565b6133cf81614573565b82525050565b6133de81614518565b82525050565b6133ed81614518565b82525050565b6133fc81614506565b82525050565b61340b81614506565b82525050565b600061341c8261449a565b61342681856144bd565b9350836020820285016134388561448a565b8060005b85811015613474578484038952815161345585826133b2565b9450613460836144b0565b925060208a0199505060018101905061343c565b50829750879550505050505092915050565b61348f81614585565b82525050565b61349e81614585565b82525050565b60006134af826144a5565b6134b981856144d9565b93506134c98185602086016145ca565b6134d2816146bc565b840191505092915050565b60006134e8826144a5565b6134f281856144ea565b93506135028185602086016145ca565b61350b816146bc565b840191505092915050565b6000613521826144a5565b61352b81856144fb565b935061353b8185602086016145ca565b80840191505092915050565b6000613554601e836144ea565b91507f4465706f73697420726566756e64207472616e73666572206661696c656400006000830152602082019050919050565b6000613594601d836144ea565b91507f436f6e74726163742062616c616e636520696e73756666696369656e740000006000830152602082019050919050565b60006135d4600f836144ea565b91507f496e76616c6964206164647265737300000000000000000000000000000000006000830152602082019050919050565b60006136146026836144ea565b91507f4f6e6c7920746865206f776e65722063616e20706572666f726d20746869732060008301527f616374696f6e00000000000000000000000000000000000000000000000000006020830152604082019050919050565b600061367a6017836144ea565b91507f52656e74616c20706572696f64206e6f742076616c69640000000000000000006000830152602082019050919050565b60006136ba601c836144ea565b91507f52656e74207061796d656e74207472616e73666572206661696c6564000000006000830152602082019050919050565b60006136fa6030836144ea565b91507f436f6e74726163742062616c616e636520696e73756666696369656e7420666f60008301527f72206465706f73697420726566756e64000000000000000000000000000000006020830152604082019050919050565b6000613760601d836144ea565b91507f496e636f72726563742065787472612063686172676520616d6f756e740000006000830152602082019050919050565b60006137a06027836144ea565b91507f4f6e6c79207468652072656e7465722063616e20706572666f726d207468697360008301527f20616374696f6e000000000000000000000000000000000000000000000000006020830152604082019050919050565b60006138066020836144ea565b91507f4465706f736974207472616e7366657220746f206f776e6572206661696c65646000830152602082019050919050565b6000613846603b836144ea565b91507f4f6e6c792074686520636f6e7472616374206f776e6572206f722072656e746560008301527f722063616e207669657720746865207472616e73616374696f6e7300000000006020830152604082019050919050565b60006138ac601d836144ea565b91507f496e636f727265637420636f6d70656e736174696f6e20616d6f756e740000006000830152602082019050919050565b60006138ec602f836144ea565b91507f4f6e6c792074686520636f6e7472616374206f776e65722063616e206372656160008301527f74652074686520636f6e747261637400000000000000000000000000000000006020830152604082019050919050565b6000613952601c836144ea565b91507f457874726120636861726765207472616e73666572206661696c6564000000006000830152602082019050919050565b6000613992603f836144ea565b91507f4f6e6c792074686520636f6e7472616374206f776e6572206f722072656e746560008301527f722063616e20766965772074686520636f6e74726163742064657461696c73006020830152604082019050919050565b60006139f8600c836144ea565b91507f52656e74205061796d656e7400000000000000000000000000000000000000006000830152602082019050919050565b6000613a38601e836144ea565b91507f496e73756666696369656e742062616c616e6365206f662072656e74657200006000830152602082019050919050565b6000613a786000836144ce565b9150600082019050919050565b6000613a926031836144ea565b91507f436f6e74726163742062616c616e636520696e73756666696369656e7420666f60008301527f72206465706f73697420666f72666569740000000000000000000000000000006020830152604082019050919050565b6000613af8601c836144ea565b91507f436f6d70656e736174696f6e207472616e73666572206661696c6564000000006000830152602082019050919050565b6000613b386007836144ea565b91507f4465706f736974000000000000000000000000000000000000000000000000006000830152602082019050919050565b6000613b78602b836144ea565b91507f436f6e7472616374206973206e6f7420696e20612076616c696420737461746560008301527f20666f7220656e64696e670000000000000000000000000000000000000000006020830152604082019050919050565b6000613bde602d836144ea565b91507f4f776e657227732062616c616e636520696e73756666696369656e7420666f7260008301527f20636f6d70656e736174696f6e000000000000000000000000000000000000006020830152604082019050919050565b6000613c446017836144ea565b91507f436f6e7472616374206d757374206265206163746976650000000000000000006000830152602082019050919050565b6000613c84600b836144ea565b91507f4e6f6e2d7061796d656e740000000000000000000000000000000000000000006000830152602082019050919050565b6000613cc46028836144ea565b91507f436f6e747261637420737461747573206973206e6f742076616c696420666f7260008301527f206465706f7369740000000000000000000000000000000000000000000000006020830152604082019050919050565b6000613d2a6017836144ea565b91507f4465706f736974207472616e73666572206661696c65640000000000000000006000830152602082019050919050565b600060e0830160008301518482036000860152613d7a82826134a4565b91505060208301518482036020860152613d9482826134a4565b9150506040830151613da960408601826133d5565b506060830151613dbc60608601826133d5565b506080830151613dcf6080860182613e76565b5060a0830151613de260a0860182613e76565b5060c0830151613df560c0860182613486565b508091505092915050565b600060a083016000830151613e1860008601826133f3565b506020830151613e2b60208601826133f3565b506040830151613e3e6040860182613e76565b506060830151613e516060860182613e76565b5060808301518482036080860152613e6982826134a4565b9150508091505092915050565b613e7f81614569565b82525050565b613e8e81614569565b82525050565b6000613ea08284613516565b915081905092915050565b6000613eb682613a6b565b9150819050919050565b600060a082019050613ed56000830187613402565b613ee260208301866133c6565b613eef6040830185613e85565b613efc6060830184613e85565b8181036080830152613f0d816139eb565b905095945050505050565b600060a082019050613f2d6000830187613402565b613f3a60208301866133c6565b613f476040830185613e85565b613f546060830184613e85565b8181036080830152613f6581613b2b565b905095945050505050565b600060a082019050613f856000830188613402565b613f926020830187613402565b613f9f6040830186613e85565b613fac6060830185613e85565b8181036080830152613fbe81846134dd565b90509695505050505050565b60006020820190508181036000830152613fe48184613411565b905092915050565b600060e0820190508181036000830152614006818a6134dd565b9050818103602083015261401a81896134dd565b905061402960408301886133e4565b61403660608301876133e4565b6140436080830186613e85565b61405060a0830185613e85565b61405d60c0830184613495565b98975050505050505050565b6000606082019050818103600083015261408381866134dd565b90506140926020830185613e85565b61409f6040830184613e85565b949350505050565b600060208201905081810360008301526140c081613547565b9050919050565b600060208201905081810360008301526140e081613587565b9050919050565b60006020820190508181036000830152614100816135c7565b9050919050565b6000602082019050818103600083015261412081613607565b9050919050565b600060208201905081810360008301526141408161366d565b9050919050565b60006020820190508181036000830152614160816136ad565b9050919050565b60006020820190508181036000830152614180816136ed565b9050919050565b600060208201905081810360008301526141a081613753565b9050919050565b600060208201905081810360008301526141c081613793565b9050919050565b600060208201905081810360008301526141e0816137f9565b9050919050565b6000602082019050818103600083015261420081613839565b9050919050565b600060208201905081810360008301526142208161389f565b9050919050565b60006020820190508181036000830152614240816138df565b9050919050565b6000602082019050818103600083015261426081613945565b9050919050565b6000602082019050818103600083015261428081613985565b9050919050565b600060208201905081810360008301526142a081613a2b565b9050919050565b600060208201905081810360008301526142c081613a85565b9050919050565b600060208201905081810360008301526142e081613aeb565b9050919050565b6000602082019050818103600083015261430081613b6b565b9050919050565b6000602082019050818103600083015261432081613bd1565b9050919050565b6000602082019050818103600083015261434081613c37565b9050919050565b6000602082019050818103600083015261436081613c77565b9050919050565b6000602082019050818103600083015261438081613cb7565b9050919050565b600060208201905081810360008301526143a081613d1d565b9050919050565b600060208201905081810360008301526143c18184613d5d565b905092915050565b60006040820190506143de6000830185613e85565b6143eb6020830184613e85565b9392505050565b60006060820190506144076000830186613e85565b6144146020830185613e85565b6144216040830184613e85565b949350505050565b6000604051905081810181811067ffffffffffffffff821117156144505761444f61468d565b5b8060405250919050565b600067ffffffffffffffff8211156144755761447461468d565b5b601f19601f8301169050602081019050919050565b6000819050602082019050919050565b600081519050919050565b600081519050919050565b6000602082019050919050565b600082825260208201905092915050565b600081905092915050565b600082825260208201905092915050565b600082825260208201905092915050565b600081905092915050565b600061451182614549565b9050919050565b600061452382614549565b9050919050565b60008115159050919050565b6000819050614544826146cd565b919050565b600073ffffffffffffffffffffffffffffffffffffffff82169050919050565b6000819050919050565b600061457e82614597565b9050919050565b600061459082614536565b9050919050565b60006145a2826145a9565b9050919050565b60006145b482614549565b9050919050565b82818337600083830152505050565b60005b838110156145e85780820151818401526020810190506145cd565b838111156145f7576000848401525b50505050565b6000600282049050600182168061461557607f821691505b602082108114156146295761462861465e565b5b50919050565b7f4e487b7100000000000000000000000000000000000000000000000000000000600052602160045260246000fd5b7f4e487b7100000000000000000000000000000000000000000000000000000000600052602260045260246000fd5b7f4e487b7100000000000000000000000000000000000000000000000000000000600052604160045260246000fd5b6000601f19601f8301169050919050565b600481106146de576146dd61462f565b5b50565b6146ea81614518565b81146146f557600080fd5b50565b6147018161452a565b811461470c57600080fd5b50565b61471881614569565b811461472357600080fd5b5056fea2646970667358221220e0f109a82c644acdc870fadbf79e1495592924213114644a41fc513587509c9d64736f6c63430008000033",
  "immutableReferences": {},
  "source": "// SPDX-License-Identifier: MIT\r\npragma solidity ^0.8.0;\r\n\r\ncontract RentalContract {\r\n    enum RentalStatus { NotCreated, Deposited, Ongoing, Ended }\r\n\r\n    struct Contract {\r\n        string contractID;  \r\n        string propertyID;  // Thm propertyID kiu chui\r\n        address payable owner;   \r\n        address payable renter;  \r\n        uint depositAmount;\r\n        uint monthlyRent;\r\n        RentalStatus status;\r\n    }\r\n\r\n    struct Transaction {\r\n        address from;\r\n        address to;\r\n        uint amount;\r\n        uint timestamp;\r\n        string transactionType; \r\n    }\r\n\r\n    mapping(string => Contract) public contracts;  // Thay contractID kiu chui\r\n    mapping(string => Transaction[]) public contractTransactions;\r\n\r\n    event ContractCreated(string indexed contractID, string propertyID, address indexed owner, address indexed renter, uint depositAmount, uint monthlyRent);\r\n    event TransactionRecorded(string indexed contractID, address from, address to, uint amount, uint timestamp, string transactionType);\r\n    event ContractCancelledByRenter(string indexed contractID, address indexed renter, uint depositLoss, uint extraCharge, uint timestamp);\r\n    event ContractCancelledByOwner(string indexed contractID, address indexed owner, uint compensation, uint timestamp);\r\n    event ContractTerminated(string indexed contractID, string reason);\r\n    event ContractEnded(string indexed contractID, address indexed renter, uint depositRefundAmount, uint timestamp);\r\n\r\n    modifier onlyOwner(string memory _contractID) {\r\n        require(msg.sender == contracts[_contractID].owner, \"Only the owner can perform this action\");\r\n        _;\r\n    }\r\n\r\n    modifier onlyRenter(string memory _contractID) {\r\n        require(msg.sender == contracts[_contractID].renter, \"Only the renter can perform this action\");\r\n        _;\r\n    }\r\n\r\n    modifier onlyContractOwner(address _owner) {\r\n        require(msg.sender == _owner, \"Only the contract owner can create the contract\");\r\n        _;\r\n    }\r\n\r\n    function createContract(\r\n        string memory _contractID,\r\n        string memory _propertyID,\r\n        address payable _owner,\r\n        address payable _renter,\r\n        uint _depositAmount,\r\n        uint _monthlyRent\r\n    ) public onlyContractOwner(_owner) {\r\n        require(_owner != address(0) && _renter != address(0), \"Invalid address\");\r\n\r\n        contracts[_contractID] = Contract({\r\n            contractID: _contractID,\r\n            propertyID: _propertyID,\r\n            owner: _owner,\r\n            renter: _renter,\r\n            depositAmount: _depositAmount,\r\n            monthlyRent: _monthlyRent,\r\n            status: RentalStatus.NotCreated\r\n        });\r\n\r\n        emit ContractCreated(_contractID, _propertyID, _owner, _renter, _depositAmount, _monthlyRent);\r\n    }\r\n\r\n    function deposit(string memory _contractID) public payable onlyRenter(_contractID) {\r\n        Contract storage contractInfo = contracts[_contractID];\r\n\r\n        require(contractInfo.status == RentalStatus.NotCreated, \"Contract status is not valid for deposit\");\r\n        require(address(msg.sender).balance >= msg.value, \"Insufficient balance of renter\");\r\n\r\n        contractInfo.status = RentalStatus.Deposited;\r\n\r\n        _recordTransaction(_contractID, msg.sender, contractInfo.owner, msg.value, \"Deposit\");\r\n\r\n        emit TransactionRecorded(_contractID, msg.sender, contractInfo.owner, msg.value, block.timestamp, \"Deposit\");\r\n    }\r\n\r\n    function payRent(string memory _contractID) public payable onlyRenter(_contractID) {\r\n        Contract storage contractInfo = contracts[_contractID];\r\n\r\n        require(contractInfo.status == RentalStatus.Deposited || contractInfo.status == RentalStatus.Ongoing, \"Rental period not valid\");\r\n        require(address(msg.sender).balance >= msg.value, \"Insufficient balance of renter\");\r\n\r\n        if (contractInfo.status == RentalStatus.Deposited) {\r\n            contractInfo.status = RentalStatus.Ongoing;\r\n        }\r\n\r\n        (bool success, ) = contractInfo.owner.call{value: msg.value}(\"\");\r\n        require(success, \"Rent payment transfer failed\");\r\n\r\n        _recordTransaction(_contractID, msg.sender, contractInfo.owner, msg.value, \"Rent Payment\");\r\n\r\n        emit TransactionRecorded(_contractID, msg.sender, contractInfo.owner, msg.value, block.timestamp, \"Rent Payment\");\r\n    }\r\n\r\n    function endContract(string memory _contractID) public {\r\n        Contract storage contractInfo = contracts[_contractID];\r\n\r\n        if (contractInfo.status == RentalStatus.NotCreated) {\r\n            contractInfo.status = RentalStatus.Ended;\r\n        } else if (contractInfo.status == RentalStatus.Deposited || contractInfo.status == RentalStatus.Ongoing) {\r\n            if (contractInfo.depositAmount > 0) {\r\n                require(address(this).balance >= contractInfo.depositAmount, \"Contract balance insufficient for deposit refund\");\r\n\r\n                (bool success, ) = contractInfo.renter.call{value: contractInfo.depositAmount}(\"\");\r\n                require(success, \"Deposit refund transfer failed\");\r\n\r\n                _recordTransaction(_contractID, contractInfo.owner, contractInfo.renter, contractInfo.depositAmount, \"Refund\");\r\n            }\r\n            contractInfo.status = RentalStatus.Ended;\r\n        } else {\r\n            revert(\"Contract is not in a valid state for ending\");\r\n        }\r\n        emit ContractEnded(_contractID, contractInfo.renter, contractInfo.depositAmount, block.timestamp);\r\n    }\r\n\r\n    function _recordTransaction(string memory _contractID, address _from, address _to, uint _amount, string memory _transactionType) internal {\r\n        contractTransactions[_contractID].push(Transaction({\r\n            from: _from,\r\n            to: _to,\r\n            amount: _amount,\r\n            timestamp: block.timestamp,\r\n            transactionType: _transactionType\r\n        }));\r\n    }\r\n\r\n    function getContractDetails(string memory _contractID) public view returns (Contract memory) {\r\n        Contract memory contractInfo = contracts[_contractID];\r\n        require(msg.sender == contractInfo.owner || msg.sender == contractInfo.renter, \"Only the contract owner or renter can view the contract details\");\r\n        return contractInfo;\r\n    }\r\n\r\n    function getContractTransactions(string memory _contractID) public view returns (Transaction[] memory) {\r\n        Contract memory contractInfo = contracts[_contractID];\r\n        require(msg.sender == contractInfo.owner || msg.sender == contractInfo.renter, \"Only the contract owner or renter can view the transactions\");\r\n        return contractTransactions[_contractID];\r\n    }\r\n\r\n    function terminateForNonPayment(string memory _contractId) public {\r\n        Contract storage contractInfo = contracts[_contractId];\r\n\r\n        // Ch cho php khi trng thi hp ng l Deposited hoc Ongoing\r\n        require(contractInfo.status == RentalStatus.Deposited || contractInfo.status == RentalStatus.Ongoing, \"Contract must be active\");\r\n\r\n        // X l logic mt tin cc nu khng thanh ton ng hn\r\n        if (contractInfo.depositAmount > 0) {\r\n            require(address(this).balance >= contractInfo.depositAmount, \"Contract balance insufficient for deposit forfeit\");\r\n\r\n            // Chuyn tin cc cho ch nh\r\n            (bool success, ) = contractInfo.owner.call{value: contractInfo.depositAmount}(\"\");\r\n            require(success, \"Deposit transfer to owner failed\");\r\n\r\n            // Lu giao dch\r\n            _recordTransaction(_contractId, address(this), contractInfo.owner, contractInfo.depositAmount, \"Deposit Forfeited\");\r\n        }\r\n\r\n        // nh du hp ng  kt thc\r\n        contractInfo.status = RentalStatus.Ended;\r\n        emit ContractTerminated(_contractId, \"Non-payment\");\r\n\r\n    }\r\n\r\n    function cancelContractByRenter(string memory _contractId, bool notifyBefore30Days) public payable onlyRenter(_contractId) {\r\n        Contract storage contractInfo = contracts[_contractId];\r\n\r\n        uint depositLoss = 0;\r\n        uint extraCharge = 0;\r\n\r\n        if (!notifyBefore30Days) {\r\n            // Tnh ph b sung v chuyn tin cc nu khng thng bo trc 30 ngy\r\n            extraCharge = contractInfo.monthlyRent;\r\n            require(msg.value == extraCharge, \"Incorrect extra charge amount\");\r\n            require(address(msg.sender).balance >= extraCharge, \"Insufficient balance of renter\");\r\n\r\n            (bool successExtraCharge, ) = contractInfo.owner.call{value: extraCharge}(\"\");\r\n            require(successExtraCharge, \"Extra charge transfer failed\");\r\n\r\n            _recordTransaction(_contractId, msg.sender, contractInfo.owner, extraCharge, \"Extra Charge\");\r\n\r\n            depositLoss = contractInfo.depositAmount;\r\n            require(address(this).balance >= depositLoss, \"Contract balance insufficient\");\r\n\r\n            (bool successDeposit, ) = contractInfo.owner.call{value: depositLoss}(\"\");\r\n            require(successDeposit, \"Deposit transfer failed\");\r\n\r\n            _recordTransaction(_contractId, msg.sender, contractInfo.owner, depositLoss, \"Deposit Loss\");\r\n        } else {\r\n            // Hon tr tin cc nu thng bo trc 30 ngy\r\n            require(address(this).balance >= contractInfo.depositAmount, \"Contract balance insufficient\");\r\n\r\n            (bool successRefund, ) = contractInfo.renter.call{value: contractInfo.depositAmount}(\"\");\r\n            require(successRefund, \"Deposit refund transfer failed\");\r\n\r\n            _recordTransaction(_contractId, contractInfo.owner, msg.sender, contractInfo.depositAmount, \"Deposit Refund\");\r\n        }\r\n\r\n        contractInfo.status = RentalStatus.Ended;\r\n        emit ContractCancelledByRenter(_contractId, msg.sender, depositLoss, extraCharge, block.timestamp);\r\n    }\r\n\r\n    function cancelContractByOwner(string memory _contractId, bool notifyBefore30Days) public payable onlyOwner(_contractId) {\r\n        Contract storage contractInfo = contracts[_contractId];\r\n\r\n        uint compensation = 0;\r\n\r\n        if (!notifyBefore30Days) {\r\n            // Tnh bi thng v chuyn cho ngi thu nu khng thng bo trc 30 ngy\r\n            compensation = contractInfo.monthlyRent;\r\n            require(msg.value == compensation, \"Incorrect compensation amount\");\r\n            require(address(msg.sender).balance >= compensation, \"Owner's balance insufficient for compensation\");\r\n\r\n            (bool successCompensation, ) = contractInfo.renter.call{value: compensation}(\"\");\r\n            require(successCompensation, \"Compensation transfer failed\");\r\n\r\n            _recordTransaction(_contractId, msg.sender, contractInfo.renter, compensation, \"Compensation\");\r\n        }\r\n\r\n        if (contractInfo.status == RentalStatus.Deposited || contractInfo.status == RentalStatus.Ongoing) {\r\n            // Hon tr tin cc cho ngi thu nu hp ng vn cn hiu lc\r\n            require(address(this).balance >= contractInfo.depositAmount, \"Contract balance insufficient for deposit refund\");\r\n\r\n            (bool successDeposit, ) = contractInfo.renter.call{value: contractInfo.depositAmount}(\"\");\r\n            require(successDeposit, \"Deposit refund transfer failed\");\r\n\r\n            _recordTransaction(_contractId, msg.sender, contractInfo.renter, contractInfo.depositAmount, \"Deposit Refund\");\r\n        }\r\n\r\n        contractInfo.status = RentalStatus.Ended;\r\n        emit ContractCancelledByOwner(_contractId, msg.sender, compensation, block.timestamp);\r\n    }\r\n\r\n\r\n}\r\n",
  "sourcePath": "C:\\Code\\kltn\\backend\\contract-service\\contractRental\\contracts\\RentalContract.sol",
  "compiler": {
    "name": "solc",
    "version": "0.8.0+commit.c7dfd78e.Emscripten.clang"
  },
  "schemaVersion": "3.4.16",
  "updatedAt": "2024-09-20T02:37:20.058Z",
  "networkType": "ethereum",
  "devdoc": {
    "kind": "dev",
    "methods": {},
    "version": 1
  },
  "userdoc": {
    "kind": "user",
    "methods": {},
    "version": 1
  }
}