{
  "contractName": "RentalContract",
  "abi": [
    {
      "anonymous": false,
      "inputs": [
        {
          "indexed": false,
          "internalType": "address",
          "name": "owner",
          "type": "address"
        },
        {
          "indexed": false,
          "internalType": "uint256",
          "name": "compensation",
          "type": "uint256"
        },
        {
          "indexed": false,
          "internalType": "uint256",
          "name": "contractId",
          "type": "uint256"
        },
        {
          "indexed": false,
          "internalType": "uint256",
          "name": "timestamp",
          "type": "uint256"
        }
      ],
      "name": "ContractCancelledByOwner",
      "type": "event"
    },
    {
      "anonymous": false,
      "inputs": [
        {
          "indexed": false,
          "internalType": "address",
          "name": "renter",
          "type": "address"
        },
        {
          "indexed": false,
          "internalType": "uint256",
          "name": "depositLoss",
          "type": "uint256"
        },
        {
          "indexed": false,
          "internalType": "uint256",
          "name": "extraCharge",
          "type": "uint256"
        },
        {
          "indexed": false,
          "internalType": "uint256",
          "name": "contractId",
          "type": "uint256"
        },
        {
          "indexed": false,
          "internalType": "uint256",
          "name": "timestamp",
          "type": "uint256"
        }
      ],
      "name": "ContractCancelledByRenter",
      "type": "event"
    },
    {
      "anonymous": false,
      "inputs": [
        {
          "indexed": true,
          "internalType": "uint256",
          "name": "contractId",
          "type": "uint256"
        },
        {
          "indexed": true,
          "internalType": "address",
          "name": "owner",
          "type": "address"
        },
        {
          "indexed": true,
          "internalType": "address",
          "name": "renter",
          "type": "address"
        },
        {
          "indexed": false,
          "internalType": "uint256",
          "name": "startDate",
          "type": "uint256"
        },
        {
          "indexed": false,
          "internalType": "uint256",
          "name": "endDate",
          "type": "uint256"
        },
        {
          "indexed": false,
          "internalType": "uint256",
          "name": "depositAmount",
          "type": "uint256"
        },
        {
          "indexed": false,
          "internalType": "uint256",
          "name": "monthlyRent",
          "type": "uint256"
        }
      ],
      "name": "ContractCreated",
      "type": "event"
    },
    {
      "anonymous": false,
      "inputs": [
        {
          "indexed": true,
          "internalType": "uint256",
          "name": "contractId",
          "type": "uint256"
        },
        {
          "indexed": false,
          "internalType": "address",
          "name": "from",
          "type": "address"
        },
        {
          "indexed": false,
          "internalType": "address",
          "name": "to",
          "type": "address"
        },
        {
          "indexed": false,
          "internalType": "uint256",
          "name": "amount",
          "type": "uint256"
        },
        {
          "indexed": false,
          "internalType": "uint256",
          "name": "timestamp",
          "type": "uint256"
        },
        {
          "indexed": false,
          "internalType": "string",
          "name": "transactionType",
          "type": "string"
        }
      ],
      "name": "TransactionRecorded",
      "type": "event"
    },
    {
      "inputs": [
        {
          "internalType": "uint256",
          "name": "",
          "type": "uint256"
        },
        {
          "internalType": "uint256",
          "name": "",
          "type": "uint256"
        }
      ],
      "name": "contractTransactions",
      "outputs": [
        {
          "internalType": "address",
          "name": "from",
          "type": "address"
        },
        {
          "internalType": "address",
          "name": "to",
          "type": "address"
        },
        {
          "internalType": "uint256",
          "name": "amount",
          "type": "uint256"
        },
        {
          "internalType": "uint256",
          "name": "timestamp",
          "type": "uint256"
        },
        {
          "internalType": "string",
          "name": "transactionType",
          "type": "string"
        }
      ],
      "stateMutability": "view",
      "type": "function",
      "constant": true
    },
    {
      "inputs": [
        {
          "internalType": "uint256",
          "name": "",
          "type": "uint256"
        }
      ],
      "name": "contracts",
      "outputs": [
        {
          "internalType": "address payable",
          "name": "owner",
          "type": "address"
        },
        {
          "internalType": "address payable",
          "name": "renter",
          "type": "address"
        },
        {
          "internalType": "uint256",
          "name": "startDate",
          "type": "uint256"
        },
        {
          "internalType": "uint256",
          "name": "endDate",
          "type": "uint256"
        },
        {
          "internalType": "uint256",
          "name": "depositAmount",
          "type": "uint256"
        },
        {
          "internalType": "uint256",
          "name": "monthlyRent",
          "type": "uint256"
        },
        {
          "internalType": "enum RentalContract.RentalStatus",
          "name": "status",
          "type": "uint8"
        }
      ],
      "stateMutability": "view",
      "type": "function",
      "constant": true
    },
    {
      "inputs": [],
      "name": "nextContractId",
      "outputs": [
        {
          "internalType": "uint256",
          "name": "",
          "type": "uint256"
        }
      ],
      "stateMutability": "view",
      "type": "function",
      "constant": true
    },
    {
      "inputs": [
        {
          "internalType": "address payable",
          "name": "_owner",
          "type": "address"
        },
        {
          "internalType": "address payable",
          "name": "_renter",
          "type": "address"
        },
        {
          "internalType": "uint256",
          "name": "_startDate",
          "type": "uint256"
        },
        {
          "internalType": "uint256",
          "name": "_endDate",
          "type": "uint256"
        },
        {
          "internalType": "uint256",
          "name": "_depositAmount",
          "type": "uint256"
        },
        {
          "internalType": "uint256",
          "name": "_monthlyRent",
          "type": "uint256"
        }
      ],
      "name": "createContract",
      "outputs": [],
      "stateMutability": "nonpayable",
      "type": "function"
    },
    {
      "inputs": [
        {
          "internalType": "uint256",
          "name": "_contractId",
          "type": "uint256"
        }
      ],
      "name": "deposit",
      "outputs": [],
      "stateMutability": "payable",
      "type": "function",
      "payable": true
    },
    {
      "inputs": [
        {
          "internalType": "uint256",
          "name": "_contractId",
          "type": "uint256"
        }
      ],
      "name": "payRent",
      "outputs": [],
      "stateMutability": "payable",
      "type": "function",
      "payable": true
    },
    {
      "inputs": [
        {
          "internalType": "uint256",
          "name": "_contractId",
          "type": "uint256"
        }
      ],
      "name": "endContract",
      "outputs": [],
      "stateMutability": "nonpayable",
      "type": "function"
    },
    {
      "inputs": [
        {
          "internalType": "uint256",
          "name": "_contractId",
          "type": "uint256"
        },
        {
          "internalType": "bool",
          "name": "notifyBefore30Days",
          "type": "bool"
        }
      ],
      "name": "cancelContractByRenter",
      "outputs": [],
      "stateMutability": "payable",
      "type": "function",
      "payable": true
    },
    {
      "inputs": [
        {
          "internalType": "uint256",
          "name": "_contractId",
          "type": "uint256"
        },
        {
          "internalType": "bool",
          "name": "notifyBefore30Days",
          "type": "bool"
        }
      ],
      "name": "cancelContractByOwner",
      "outputs": [],
      "stateMutability": "payable",
      "type": "function",
      "payable": true
    },
    {
      "inputs": [
        {
          "internalType": "uint256",
          "name": "_contractId",
          "type": "uint256"
        }
      ],
      "name": "getContractDetails",
      "outputs": [
        {
          "components": [
            {
              "internalType": "address payable",
              "name": "owner",
              "type": "address"
            },
            {
              "internalType": "address payable",
              "name": "renter",
              "type": "address"
            },
            {
              "internalType": "uint256",
              "name": "startDate",
              "type": "uint256"
            },
            {
              "internalType": "uint256",
              "name": "endDate",
              "type": "uint256"
            },
            {
              "internalType": "uint256",
              "name": "depositAmount",
              "type": "uint256"
            },
            {
              "internalType": "uint256",
              "name": "monthlyRent",
              "type": "uint256"
            },
            {
              "internalType": "enum RentalContract.RentalStatus",
              "name": "status",
              "type": "uint8"
            }
          ],
          "internalType": "struct RentalContract.Contract",
          "name": "",
          "type": "tuple"
        }
      ],
      "stateMutability": "view",
      "type": "function",
      "constant": true
    },
    {
      "inputs": [
        {
          "internalType": "uint256",
          "name": "_contractId",
          "type": "uint256"
        }
      ],
      "name": "getContractTransactions",
      "outputs": [
        {
          "components": [
            {
              "internalType": "address",
              "name": "from",
              "type": "address"
            },
            {
              "internalType": "address",
              "name": "to",
              "type": "address"
            },
            {
              "internalType": "uint256",
              "name": "amount",
              "type": "uint256"
            },
            {
              "internalType": "uint256",
              "name": "timestamp",
              "type": "uint256"
            },
            {
              "internalType": "string",
              "name": "transactionType",
              "type": "string"
            }
          ],
          "internalType": "struct RentalContract.Transaction[]",
          "name": "",
          "type": "tuple[]"
        }
      ],
      "stateMutability": "view",
      "type": "function",
      "constant": true
    }
  ],
  "bytecode": "0x6080604052600160025534801561001557600080fd5b50613a44806100256000396000f3fe60806040526004361061009c5760003560e01c80636d3a973c116100645780636d3a973c146101bb5780639a262c6a146101e45780639b4bc53014610200578063b6b55f251461022b578063c85a6b3d14610247578063d9e8843f146102705761009c565b80633257ede5146100a1578063474da79a146100de5780634990268a146101215780634d6d6a9c1461013d5780636b0500ed1461017a575b600080fd5b3480156100ad57600080fd5b506100c860048036038101906100c39190612837565b61028c565b6040516100d59190613466565b60405180910390f35b3480156100ea57600080fd5b5061010560048036038101906101009190612837565b610679565b6040516101189796959493929190613255565b60405180910390f35b61013b60048036038101906101369190612860565b610708565b005b34801561014957600080fd5b50610164600480360381019061015f9190612837565b610cf0565b60405161017191906136c8565b60405180910390f35b34801561018657600080fd5b506101a1600480360381019061019c919061289c565b610f29565b6040516101b295949392919061340c565b60405180910390f35b3480156101c757600080fd5b506101e260048036038101906101dd91906127ae565b611044565b005b6101fe60048036038101906101f99190612860565b611425565b005b34801561020c57600080fd5b50610215611a7f565b60405161022291906136e3565b60405180910390f35b61024560048036038101906102409190612837565b611a85565b005b34801561025357600080fd5b5061026e60048036038101906102699190612837565b611d69565b005b61028a60048036038101906102859190612837565b612068565b005b606060008060008481526020019081526020016000206040518060e00160405290816000820160009054906101000a900473ffffffffffffffffffffffffffffffffffffffff1673ffffffffffffffffffffffffffffffffffffffff1673ffffffffffffffffffffffffffffffffffffffff1681526020016001820160009054906101000a900473ffffffffffffffffffffffffffffffffffffffff1673ffffffffffffffffffffffffffffffffffffffff1673ffffffffffffffffffffffffffffffffffffffff168152602001600282015481526020016003820154815260200160048201548152602001600582015481526020016006820160009054906101000a900460ff1660038111156103cc577f4e487b7100000000000000000000000000000000000000000000000000000000600052602160045260246000fd5b6003811115610404577f4e487b7100000000000000000000000000000000000000000000000000000000600052602160045260246000fd5b815250509050806000015173ffffffffffffffffffffffffffffffffffffffff163373ffffffffffffffffffffffffffffffffffffffff1614806104775750806020015173ffffffffffffffffffffffffffffffffffffffff163373ffffffffffffffffffffffffffffffffffffffff16145b6104b6576040517f08c379a00000000000000000000000000000000000000000000000000000000081526004016104ad90613588565b60405180910390fd5b60016000848152602001908152602001600020805480602002602001604051908101604052809291908181526020016000905b8282101561066d57838290600052602060002090600502016040518060a00160405290816000820160009054906101000a900473ffffffffffffffffffffffffffffffffffffffff1673ffffffffffffffffffffffffffffffffffffffff1673ffffffffffffffffffffffffffffffffffffffff1681526020016001820160009054906101000a900473ffffffffffffffffffffffffffffffffffffffff1673ffffffffffffffffffffffffffffffffffffffff1673ffffffffffffffffffffffffffffffffffffffff16815260200160028201548152602001600382015481526020016004820180546105dc9061389c565b80601f01602080910402602001604051908101604052809291908181526020018280546106089061389c565b80156106555780601f1061062a57610100808354040283529160200191610655565b820191906000526020600020905b81548152906001019060200180831161063857829003601f168201915b505050505081525050815260200190600101906104e9565b50505050915050919050565b60006020528060005260406000206000915090508060000160009054906101000a900473ffffffffffffffffffffffffffffffffffffffff16908060010160009054906101000a900473ffffffffffffffffffffffffffffffffffffffff16908060020154908060030154908060040154908060050154908060060160009054906101000a900460ff16905087565b8160008082815260200190815260200160002060000160009054906101000a900473ffffffffffffffffffffffffffffffffffffffff1673ffffffffffffffffffffffffffffffffffffffff163373ffffffffffffffffffffffffffffffffffffffff16146107ac576040517f08c379a00000000000000000000000000000000000000000000000000000000081526004016107a3906134a8565b60405180910390fd5b826003808111156107e6577f4e487b7100000000000000000000000000000000000000000000000000000000600052602160045260246000fd5b60008083815260200190815260200160002060060160009054906101000a900460ff166003811115610841577f4e487b7100000000000000000000000000000000000000000000000000000000600052602160045260246000fd5b1415610882576040517f08c379a0000000000000000000000000000000000000000000000000000000008152600401610879906136a8565b60405180910390fd5b600080600086815260200190815260200160002090506000846109de578160050154905060008260010160009054906101000a900473ffffffffffffffffffffffffffffffffffffffff1673ffffffffffffffffffffffffffffffffffffffff16826040516108f0906131e8565b60006040518083038185875af1925050503d806000811461092d576040519150601f19603f3d011682016040523d82523d6000602084013e610932565b606091505b5050905080610976576040517f08c379a000000000000000000000000000000000000000000000000000000000815260040161096d90613648565b60405180910390fd5b6109dc87338560010160009054906101000a900473ffffffffffffffffffffffffffffffffffffffff16856040518060400160405280600c81526020017f436f6d70656e736174696f6e00000000000000000000000000000000000000008152506124ce565b505b60016003811115610a18577f4e487b7100000000000000000000000000000000000000000000000000000000600052602160045260246000fd5b8260060160009054906101000a900460ff166003811115610a62577f4e487b7100000000000000000000000000000000000000000000000000000000600052602160045260246000fd5b1480610aef575060026003811115610aa3577f4e487b7100000000000000000000000000000000000000000000000000000000600052602160045260246000fd5b8260060160009054906101000a900460ff166003811115610aed577f4e487b7100000000000000000000000000000000000000000000000000000000600052602160045260246000fd5b145b15610c345760008260010160009054906101000a900473ffffffffffffffffffffffffffffffffffffffff1673ffffffffffffffffffffffffffffffffffffffff168360040154604051610b42906131e8565b60006040518083038185875af1925050503d8060008114610b7f576040519150601f19603f3d011682016040523d82523d6000602084013e610b84565b606091505b5050905080610bc8576040517f08c379a0000000000000000000000000000000000000000000000000000000008152600401610bbf90613488565b60405180910390fd5b610c3287338560010160009054906101000a900473ffffffffffffffffffffffffffffffffffffffff1686600401546040518060400160405280600e81526020017f4465706f73697420526566756e640000000000000000000000000000000000008152506124ce565b505b60038260060160006101000a81548160ff02191690836003811115610c82577f4e487b7100000000000000000000000000000000000000000000000000000000600052602160045260246000fd5b02179055507f1dc21aa8807070e92e91089a649cab58fae1f758f3a76282193c35a25702836e8260000160009054906101000a900473ffffffffffffffffffffffffffffffffffffffff16828842604051610ce094939291906132c4565b60405180910390a1505050505050565b610cf861262b565b60008060008481526020019081526020016000206040518060e00160405290816000820160009054906101000a900473ffffffffffffffffffffffffffffffffffffffff1673ffffffffffffffffffffffffffffffffffffffff1673ffffffffffffffffffffffffffffffffffffffff1681526020016001820160009054906101000a900473ffffffffffffffffffffffffffffffffffffffff1673ffffffffffffffffffffffffffffffffffffffff1673ffffffffffffffffffffffffffffffffffffffff168152602001600282015481526020016003820154815260200160048201548152602001600582015481526020016006820160009054906101000a900460ff166003811115610e36577f4e487b7100000000000000000000000000000000000000000000000000000000600052602160045260246000fd5b6003811115610e6e577f4e487b7100000000000000000000000000000000000000000000000000000000600052602160045260246000fd5b815250509050806000015173ffffffffffffffffffffffffffffffffffffffff163373ffffffffffffffffffffffffffffffffffffffff161480610ee15750806020015173ffffffffffffffffffffffffffffffffffffffff163373ffffffffffffffffffffffffffffffffffffffff16145b610f20576040517f08c379a0000000000000000000000000000000000000000000000000000000008152600401610f1790613608565b60405180910390fd5b80915050919050565b60016020528160005260406000208181548110610f4557600080fd5b9060005260206000209060050201600091509150508060000160009054906101000a900473ffffffffffffffffffffffffffffffffffffffff16908060010160009054906101000a900473ffffffffffffffffffffffffffffffffffffffff1690806002015490806003015490806004018054610fc19061389c565b80601f0160208091040260200160405190810160405280929190818152602001828054610fed9061389c565b801561103a5780601f1061100f5761010080835404028352916020019161103a565b820191906000526020600020905b81548152906001019060200180831161101d57829003601f168201915b5050505050905085565b858073ffffffffffffffffffffffffffffffffffffffff163373ffffffffffffffffffffffffffffffffffffffff16146110b3576040517f08c379a00000000000000000000000000000000000000000000000000000000081526004016110aa906135c8565b60405180910390fd5b600073ffffffffffffffffffffffffffffffffffffffff168773ffffffffffffffffffffffffffffffffffffffff161415611123576040517f08c379a000000000000000000000000000000000000000000000000000000000815260040161111a906135a8565b60405180910390fd5b600073ffffffffffffffffffffffffffffffffffffffff168673ffffffffffffffffffffffffffffffffffffffff161415611193576040517f08c379a000000000000000000000000000000000000000000000000000000000815260040161118a90613528565b60405180910390fd5b8385106111d5576040517f08c379a00000000000000000000000000000000000000000000000000000000081526004016111cc906134e8565b60405180910390fd5b6000600260008154809291906111ea906138ce565b91905055905060006040518060e001604052808a73ffffffffffffffffffffffffffffffffffffffff1681526020018973ffffffffffffffffffffffffffffffffffffffff16815260200188815260200187815260200186815260200185815260200160006003811115611287577f4e487b7100000000000000000000000000000000000000000000000000000000600052602160045260246000fd5b81525090508060008084815260200190815260200160002060008201518160000160006101000a81548173ffffffffffffffffffffffffffffffffffffffff021916908373ffffffffffffffffffffffffffffffffffffffff16021790555060208201518160010160006101000a81548173ffffffffffffffffffffffffffffffffffffffff021916908373ffffffffffffffffffffffffffffffffffffffff16021790555060408201518160020155606082015181600301556080820151816004015560a0820151816005015560c08201518160060160006101000a81548160ff021916908360038111156113a6577f4e487b7100000000000000000000000000000000000000000000000000000000600052602160045260246000fd5b02179055509050508773ffffffffffffffffffffffffffffffffffffffff168973ffffffffffffffffffffffffffffffffffffffff16837fb54b8f26c8e97d2df79f478478998d33804e8f3091d4098e3b1de3d6e59f97408a8a8a8a60405161141294939291906136fe565b60405180910390a4505050505050505050565b8160008082815260200190815260200160002060010160009054906101000a900473ffffffffffffffffffffffffffffffffffffffff1673ffffffffffffffffffffffffffffffffffffffff163373ffffffffffffffffffffffffffffffffffffffff16146114c9576040517f08c379a00000000000000000000000000000000000000000000000000000000081526004016114c090613568565b60405180910390fd5b82600380811115611503577f4e487b7100000000000000000000000000000000000000000000000000000000600052602160045260246000fd5b60008083815260200190815260200160002060060160009054906101000a900460ff16600381111561155e577f4e487b7100000000000000000000000000000000000000000000000000000000600052602160045260246000fd5b141561159f576040517f08c379a0000000000000000000000000000000000000000000000000000000008152600401611596906136a8565b60405180910390fd5b60008060008681526020019081526020016000209050600080856118805782600501549050803414611606576040517f08c379a00000000000000000000000000000000000000000000000000000000081526004016115fd90613548565b60405180910390fd5b60008360000160009054906101000a900473ffffffffffffffffffffffffffffffffffffffff1673ffffffffffffffffffffffffffffffffffffffff1682604051611650906131e8565b60006040518083038185875af1925050503d806000811461168d576040519150601f19603f3d011682016040523d82523d6000602084013e611692565b606091505b50509050806116d6576040517f08c379a00000000000000000000000000000000000000000000000000000000081526004016116cd906135e8565b60405180910390fd5b61173c88338660000160009054906101000a900473ffffffffffffffffffffffffffffffffffffffff16856040518060400160405280600c81526020017f45787472612043686172676500000000000000000000000000000000000000008152506124ce565b8360040154925060008460000160009054906101000a900473ffffffffffffffffffffffffffffffffffffffff1673ffffffffffffffffffffffffffffffffffffffff168460405161178d906131e8565b60006040518083038185875af1925050503d80600081146117ca576040519150601f19603f3d011682016040523d82523d6000602084013e6117cf565b606091505b5050905080611813576040517f08c379a000000000000000000000000000000000000000000000000000000000815260040161180a90613688565b60405180910390fd5b61187989338760000160009054906101000a900473ffffffffffffffffffffffffffffffffffffffff16876040518060400160405280600c81526020017f4465706f736974204c6f737300000000000000000000000000000000000000008152506124ce565b50506119c0565b60008360010160009054906101000a900473ffffffffffffffffffffffffffffffffffffffff1673ffffffffffffffffffffffffffffffffffffffff1684600401546040516118ce906131e8565b60006040518083038185875af1925050503d806000811461190b576040519150601f19603f3d011682016040523d82523d6000602084013e611910565b606091505b5050905080611954576040517f08c379a000000000000000000000000000000000000000000000000000000000815260040161194b90613488565b60405180910390fd5b6119be888560000160009054906101000a900473ffffffffffffffffffffffffffffffffffffffff163387600401546040518060400160405280600e81526020017f4465706f73697420526566756e640000000000000000000000000000000000008152506124ce565b505b60038360060160006101000a81548160ff02191690836003811115611a0e577f4e487b7100000000000000000000000000000000000000000000000000000000600052602160045260246000fd5b02179055507fdc58c53a744e2f800430f6ba17ee79f387de734fae71f9b804356c7b194cce5e8360010160009054906101000a900473ffffffffffffffffffffffffffffffffffffffff1683838a42604051611a6e959493929190613309565b60405180910390a150505050505050565b60025481565b8060008082815260200190815260200160002060010160009054906101000a900473ffffffffffffffffffffffffffffffffffffffff1673ffffffffffffffffffffffffffffffffffffffff163373ffffffffffffffffffffffffffffffffffffffff1614611b29576040517f08c379a0000000000000000000000000000000000000000000000000000000008152600401611b2090613568565b60405180910390fd5b6000806000848152602001908152602001600020905060006003811115611b79577f4e487b7100000000000000000000000000000000000000000000000000000000600052602160045260246000fd5b8160060160009054906101000a900460ff166003811115611bc3577f4e487b7100000000000000000000000000000000000000000000000000000000600052602160045260246000fd5b14611c03576040517f08c379a0000000000000000000000000000000000000000000000000000000008152600401611bfa90613668565b60405180910390fd5b80600401543414611c49576040517f08c379a0000000000000000000000000000000000000000000000000000000008152600401611c4090613628565b60405180910390fd5b60018160060160006101000a81548160ff02191690836003811115611c97577f4e487b7100000000000000000000000000000000000000000000000000000000600052602160045260246000fd5b0217905550611d0283338360000160009054906101000a900473ffffffffffffffffffffffffffffffffffffffff16346040518060400160405280600781526020017f4465706f736974000000000000000000000000000000000000000000000000008152506124ce565b827f7c1125fa63ff0df75487a4f7f7e9612f2fe97a7f74899a121b7d87e271f45274338360000160009054906101000a900473ffffffffffffffffffffffffffffffffffffffff163442604051611d5c94939291906133b4565b60405180910390a2505050565b8060008082815260200190815260200160002060000160009054906101000a900473ffffffffffffffffffffffffffffffffffffffff1673ffffffffffffffffffffffffffffffffffffffff163373ffffffffffffffffffffffffffffffffffffffff1614611e0d576040517f08c379a0000000000000000000000000000000000000000000000000000000008152600401611e04906134a8565b60405180910390fd5b6000806000848152602001908152602001600020905060038160060160006101000a81548160ff02191690836003811115611e71577f4e487b7100000000000000000000000000000000000000000000000000000000600052602160045260246000fd5b021790555060008160010160009054906101000a900473ffffffffffffffffffffffffffffffffffffffff1673ffffffffffffffffffffffffffffffffffffffff168260040154604051611ec4906131e8565b60006040518083038185875af1925050503d8060008114611f01576040519150601f19603f3d011682016040523d82523d6000602084013e611f06565b606091505b5050905080611f4a576040517f08c379a0000000000000000000000000000000000000000000000000000000008152600401611f4190613488565b60405180910390fd5b611fd8848360000160009054906101000a900473ffffffffffffffffffffffffffffffffffffffff168460010160009054906101000a900473ffffffffffffffffffffffffffffffffffffffff1685600401546040518060400160405280600681526020017f526566756e6400000000000000000000000000000000000000000000000000008152506124ce565b837f7c1125fa63ff0df75487a4f7f7e9612f2fe97a7f74899a121b7d87e271f452748360000160009054906101000a900473ffffffffffffffffffffffffffffffffffffffff168460010160009054906101000a900473ffffffffffffffffffffffffffffffffffffffff1685600401544260405161205a94939291906131fd565b60405180910390a250505050565b8060008082815260200190815260200160002060010160009054906101000a900473ffffffffffffffffffffffffffffffffffffffff1673ffffffffffffffffffffffffffffffffffffffff163373ffffffffffffffffffffffffffffffffffffffff161461210c576040517f08c379a000000000000000000000000000000000000000000000000000000000815260040161210390613568565b60405180910390fd5b600080600084815260200190815260200160002090506001600381111561215c577f4e487b7100000000000000000000000000000000000000000000000000000000600052602160045260246000fd5b8160060160009054906101000a900460ff1660038111156121a6577f4e487b7100000000000000000000000000000000000000000000000000000000600052602160045260246000fd5b14806122335750600260038111156121e7577f4e487b7100000000000000000000000000000000000000000000000000000000600052602160045260246000fd5b8160060160009054906101000a900460ff166003811115612231577f4e487b7100000000000000000000000000000000000000000000000000000000600052602160045260246000fd5b145b612272576040517f08c379a0000000000000000000000000000000000000000000000000000000008152600401612269906134c8565b60405180910390fd5b806005015434146122b8576040517f08c379a00000000000000000000000000000000000000000000000000000000081526004016122af90613508565b60405180910390fd5b600160038111156122f2577f4e487b7100000000000000000000000000000000000000000000000000000000600052602160045260246000fd5b8160060160009054906101000a900460ff16600381111561233c577f4e487b7100000000000000000000000000000000000000000000000000000000600052602160045260246000fd5b14156123965760028160060160006101000a81548160ff02191690836003811115612390577f4e487b7100000000000000000000000000000000000000000000000000000000600052602160045260246000fd5b02179055505b8060000160009054906101000a900473ffffffffffffffffffffffffffffffffffffffff1673ffffffffffffffffffffffffffffffffffffffff166108fc349081150290604051600060405180830381858888f19350505050158015612400573d6000803e3d6000fd5b5061246783338360000160009054906101000a900473ffffffffffffffffffffffffffffffffffffffff16346040518060400160405280600c81526020017f52656e74205061796d656e7400000000000000000000000000000000000000008152506124ce565b827f7c1125fa63ff0df75487a4f7f7e9612f2fe97a7f74899a121b7d87e271f45274338360000160009054906101000a900473ffffffffffffffffffffffffffffffffffffffff1634426040516124c1949392919061335c565b60405180910390a2505050565b60006040518060a001604052808673ffffffffffffffffffffffffffffffffffffffff1681526020018573ffffffffffffffffffffffffffffffffffffffff1681526020018481526020014281526020018381525090506001600087815260200190815260200160002081908060018154018082558091505060019003906000526020600020906005020160009091909190915060008201518160000160006101000a81548173ffffffffffffffffffffffffffffffffffffffff021916908373ffffffffffffffffffffffffffffffffffffffff16021790555060208201518160010160006101000a81548173ffffffffffffffffffffffffffffffffffffffff021916908373ffffffffffffffffffffffffffffffffffffffff160217905550604082015181600201556060820151816003015560808201518160040190805190602001906126209291906126cc565b505050505050505050565b6040518060e00160405280600073ffffffffffffffffffffffffffffffffffffffff168152602001600073ffffffffffffffffffffffffffffffffffffffff16815260200160008152602001600081526020016000815260200160008152602001600060038111156126c6577f4e487b7100000000000000000000000000000000000000000000000000000000600052602160045260246000fd5b81525090565b8280546126d89061389c565b90600052602060002090601f0160209004810192826126fa5760008555612741565b82601f1061271357805160ff1916838001178555612741565b82800160010185558215612741579182015b82811115612740578251825591602001919060010190612725565b5b50905061274e9190612752565b5090565b5b8082111561276b576000816000905550600101612753565b5090565b60008135905061277e816139c9565b92915050565b600081359050612793816139e0565b92915050565b6000813590506127a8816139f7565b92915050565b60008060008060008060c087890312156127c757600080fd5b60006127d589828a0161276f565b96505060206127e689828a0161276f565b95505060406127f789828a01612799565b945050606061280889828a01612799565b935050608061281989828a01612799565b92505060a061282a89828a01612799565b9150509295509295509295565b60006020828403121561284957600080fd5b600061285784828501612799565b91505092915050565b6000806040838503121561287357600080fd5b600061288185828601612799565b925050602061289285828601612784565b9150509250929050565b600080604083850312156128af57600080fd5b60006128bd85828601612799565b92505060206128ce85828601612799565b9150509250929050565b60006128e48383613154565b905092915050565b6128f581613821565b82525050565b612904816137c6565b82525050565b612913816137c6565b82525050565b612922816137b4565b82525050565b612931816137b4565b82525050565b600061294282613753565b61294c8185613776565b93508360208202850161295e85613743565b8060005b8581101561299a578484038952815161297b85826128d8565b945061298683613769565b925060208a01995050600181019050612962565b50829750879550505050505092915050565b6129b581613833565b82525050565b6129c481613833565b82525050565b60006129d58261375e565b6129df8185613792565b93506129ef818560208601613869565b6129f8816139a4565b840191505092915050565b6000612a0e8261375e565b612a1881856137a3565b9350612a28818560208601613869565b612a31816139a4565b840191505092915050565b6000612a49601e836137a3565b91507f4465706f73697420726566756e64207472616e73666572206661696c656400006000830152602082019050919050565b6000612a896006836137a3565b91507f526566756e6400000000000000000000000000000000000000000000000000006000830152602082019050919050565b6000612ac96026836137a3565b91507f4f6e6c7920746865206f776e65722063616e20706572666f726d20746869732060008301527f616374696f6e00000000000000000000000000000000000000000000000000006020830152604082019050919050565b6000612b2f6017836137a3565b91507f52656e74616c20706572696f64206e6f742076616c69640000000000000000006000830152602082019050919050565b6000612b6f6022836137a3565b91507f53746172742064617465206d757374206265206265666f726520656e6420646160008301527f74650000000000000000000000000000000000000000000000000000000000006020830152604082019050919050565b6000612bd56015836137a3565b91507f496e636f72726563742072656e7420616d6f756e7400000000000000000000006000830152602082019050919050565b6000612c156016836137a3565b91507f496e76616c69642072656e7465722061646472657373000000000000000000006000830152602082019050919050565b6000612c55601d836137a3565b91507f496e636f72726563742065787472612063686172676520616d6f756e740000006000830152602082019050919050565b6000612c956027836137a3565b91507f4f6e6c79207468652072656e7465722063616e20706572666f726d207468697360008301527f20616374696f6e000000000000000000000000000000000000000000000000006020830152604082019050919050565b6000612cfb603b836137a3565b91507f4f6e6c792074686520636f6e7472616374206f776e6572206f722072656e746560008301527f722063616e207669657720746865207472616e73616374696f6e7300000000006020830152604082019050919050565b6000612d616015836137a3565b91507f496e76616c6964206f776e6572206164647265737300000000000000000000006000830152602082019050919050565b6000612da1602f836137a3565b91507f4f6e6c792074686520636f6e7472616374206f776e65722063616e206372656160008301527f74652074686520636f6e747261637400000000000000000000000000000000006020830152604082019050919050565b6000612e07601c836137a3565b91507f457874726120636861726765207472616e73666572206661696c6564000000006000830152602082019050919050565b6000612e47603f836137a3565b91507f4f6e6c792074686520636f6e7472616374206f776e6572206f722072656e746560008301527f722063616e20766965772074686520636f6e74726163742064657461696c73006020830152604082019050919050565b6000612ead600c836137a3565b91507f52656e74205061796d656e7400000000000000000000000000000000000000006000830152602082019050919050565b6000612eed6018836137a3565b91507f496e636f7272656374206465706f73697420616d6f756e7400000000000000006000830152602082019050919050565b6000612f2d600083613787565b9150600082019050919050565b6000612f47601c836137a3565b91507f436f6d70656e736174696f6e207472616e73666572206661696c6564000000006000830152602082019050919050565b6000612f876007836137a3565b91507f4465706f736974000000000000000000000000000000000000000000000000006000830152602082019050919050565b6000612fc76028836137a3565b91507f436f6e747261637420737461747573206973206e6f742076616c696420666f7260008301527f206465706f7369740000000000000000000000000000000000000000000000006020830152604082019050919050565b600061302d6017836137a3565b91507f4465706f736974207472616e73666572206661696c65640000000000000000006000830152602082019050919050565b600061306d6021836137a3565b91507f52656e74616c20636f6e74726163742068617320616c726561647920656e646560008301527f64000000000000000000000000000000000000000000000000000000000000006020830152604082019050919050565b60e0820160008201516130dc60008501826128fb565b5060208201516130ef60208501826128fb565b50604082015161310260408501826131ca565b50606082015161311560608501826131ca565b50608082015161312860808501826131ca565b5060a082015161313b60a08501826131ca565b5060c082015161314e60c08501826129ac565b50505050565b600060a08301600083015161316c6000860182612919565b50602083015161317f6020860182612919565b50604083015161319260408601826131ca565b5060608301516131a560608601826131ca565b50608083015184820360808601526131bd82826129ca565b9150508091505092915050565b6131d381613817565b82525050565b6131e281613817565b82525050565b60006131f382612f20565b9150819050919050565b600060a08201905061321260008301876128ec565b61321f60208301866128ec565b61322c60408301856131d9565b61323960608301846131d9565b818103608083015261324a81612a7c565b905095945050505050565b600060e08201905061326a600083018a61290a565b613277602083018961290a565b61328460408301886131d9565b61329160608301876131d9565b61329e60808301866131d9565b6132ab60a08301856131d9565b6132b860c08301846129bb565b98975050505050505050565b60006080820190506132d960008301876128ec565b6132e660208301866131d9565b6132f360408301856131d9565b61330060608301846131d9565b95945050505050565b600060a08201905061331e60008301886128ec565b61332b60208301876131d9565b61333860408301866131d9565b61334560608301856131d9565b61335260808301846131d9565b9695505050505050565b600060a0820190506133716000830187612928565b61337e60208301866128ec565b61338b60408301856131d9565b61339860608301846131d9565b81810360808301526133a981612ea0565b905095945050505050565b600060a0820190506133c96000830187612928565b6133d660208301866128ec565b6133e360408301856131d9565b6133f060608301846131d9565b818103608083015261340181612f7a565b905095945050505050565b600060a0820190506134216000830188612928565b61342e6020830187612928565b61343b60408301866131d9565b61344860608301856131d9565b818103608083015261345a8184612a03565b90509695505050505050565b600060208201905081810360008301526134808184612937565b905092915050565b600060208201905081810360008301526134a181612a3c565b9050919050565b600060208201905081810360008301526134c181612abc565b9050919050565b600060208201905081810360008301526134e181612b22565b9050919050565b6000602082019050818103600083015261350181612b62565b9050919050565b6000602082019050818103600083015261352181612bc8565b9050919050565b6000602082019050818103600083015261354181612c08565b9050919050565b6000602082019050818103600083015261356181612c48565b9050919050565b6000602082019050818103600083015261358181612c88565b9050919050565b600060208201905081810360008301526135a181612cee565b9050919050565b600060208201905081810360008301526135c181612d54565b9050919050565b600060208201905081810360008301526135e181612d94565b9050919050565b6000602082019050818103600083015261360181612dfa565b9050919050565b6000602082019050818103600083015261362181612e3a565b9050919050565b6000602082019050818103600083015261364181612ee0565b9050919050565b6000602082019050818103600083015261366181612f3a565b9050919050565b6000602082019050818103600083015261368181612fba565b9050919050565b600060208201905081810360008301526136a181613020565b9050919050565b600060208201905081810360008301526136c181613060565b9050919050565b600060e0820190506136dd60008301846130c6565b92915050565b60006020820190506136f860008301846131d9565b92915050565b600060808201905061371360008301876131d9565b61372060208301866131d9565b61372d60408301856131d9565b61373a60608301846131d9565b95945050505050565b6000819050602082019050919050565b600081519050919050565b600081519050919050565b6000602082019050919050565b600082825260208201905092915050565b600081905092915050565b600082825260208201905092915050565b600082825260208201905092915050565b60006137bf826137f7565b9050919050565b60006137d1826137f7565b9050919050565b60008115159050919050565b60008190506137f2826139b5565b919050565b600073ffffffffffffffffffffffffffffffffffffffff82169050919050565b6000819050919050565b600061382c82613845565b9050919050565b600061383e826137e4565b9050919050565b600061385082613857565b9050919050565b6000613862826137f7565b9050919050565b60005b8381101561388757808201518184015260208101905061386c565b83811115613896576000848401525b50505050565b600060028204905060018216806138b457607f821691505b602082108114156138c8576138c7613975565b5b50919050565b60006138d982613817565b91507fffffffffffffffffffffffffffffffffffffffffffffffffffffffffffffffff82141561390c5761390b613917565b5b600182019050919050565b7f4e487b7100000000000000000000000000000000000000000000000000000000600052601160045260246000fd5b7f4e487b7100000000000000000000000000000000000000000000000000000000600052602160045260246000fd5b7f4e487b7100000000000000000000000000000000000000000000000000000000600052602260045260246000fd5b6000601f19601f8301169050919050565b600481106139c6576139c5613946565b5b50565b6139d2816137c6565b81146139dd57600080fd5b50565b6139e9816137d8565b81146139f457600080fd5b50565b613a0081613817565b8114613a0b57600080fd5b5056fea2646970667358221220561d5d3658cdac757df3b6450f667e095d9a8b2ba467e345a65c8442ad3fabca64736f6c63430008000033",
  "immutableReferences": {},
  "source": "// SPDX-License-Identifier: MIT\r\npragma solidity ^0.8.0;\r\n\r\ncontract RentalContract {\r\n    enum RentalStatus { NotCreated, Deposited, Ongoing, Ended }\r\n\r\n    struct Contract {\r\n        address payable owner;   \r\n        address payable renter;  \r\n        uint startDate;\r\n        uint endDate;\r\n        uint depositAmount;\r\n        uint monthlyRent;\r\n        RentalStatus status;\r\n    }\r\n\r\n    struct Transaction {\r\n        address from;\r\n        address to;\r\n        uint amount;\r\n        uint timestamp;\r\n        string transactionType; // V d: \"Deposit\", \"Rent Payment\", \"Refund\"\r\n    }\r\n\r\n    mapping(uint => Contract) public contracts;\r\n    mapping(uint => Transaction[]) public contractTransactions; // Lu tr cc giao dch ca mi hp ng\r\n    uint public nextContractId = 1;  // Bt u t 1\r\n\r\n    event ContractCreated(uint indexed contractId, address indexed owner, address indexed renter, uint startDate, uint endDate, uint depositAmount, uint monthlyRent);\r\n    event TransactionRecorded(uint indexed contractId, address from, address to, uint amount, uint timestamp, string transactionType);\r\n    event ContractCancelledByRenter(address renter, uint depositLoss, uint extraCharge, uint contractId, uint timestamp);\r\n    event ContractCancelledByOwner(address owner, uint compensation, uint contractId, uint timestamp);\r\n\r\n    modifier onlyOwner(uint _contractId) {\r\n        require(msg.sender == contracts[_contractId].owner, \"Only the owner can perform this action\");\r\n        _;\r\n    }\r\n\r\n    modifier onlyRenter(uint _contractId) {\r\n        require(msg.sender == contracts[_contractId].renter, \"Only the renter can perform this action\");\r\n        _;\r\n    }\r\n\r\n    modifier rentalNotEnded(uint _contractId) {\r\n        require(contracts[_contractId].status != RentalStatus.Ended, \"Rental contract has already ended\");\r\n        _;\r\n    }\r\n\r\n    modifier onlyContractOwner(address _owner) {\r\n        require(msg.sender == _owner, \"Only the contract owner can create the contract\");\r\n        _;\r\n    }\r\n\r\n    function createContract(\r\n        address payable _owner,\r\n        address payable _renter,\r\n        uint _startDate,\r\n        uint _endDate,\r\n        uint _depositAmount,\r\n        uint _monthlyRent\r\n       \r\n    ) public onlyContractOwner(_owner) {\r\n        require(_owner != address(0), \"Invalid owner address\");\r\n        require(_renter != address(0), \"Invalid renter address\");\r\n        require(_startDate < _endDate, \"Start date must be before end date\");\r\n\r\n        uint contractId = nextContractId++;\r\n\r\n        Contract memory newContract = Contract({\r\n            owner: _owner,\r\n            renter: _renter,\r\n            startDate: _startDate,\r\n            endDate: _endDate,\r\n            depositAmount: _depositAmount,\r\n            monthlyRent: _monthlyRent,\r\n            status: RentalStatus.NotCreated\r\n           \r\n        });\r\n\r\n        contracts[contractId] = newContract;\r\n        emit ContractCreated(contractId, _owner, _renter, _startDate, _endDate, _depositAmount, _monthlyRent);\r\n    }\r\n\r\n    function deposit(uint _contractId) public payable onlyRenter(_contractId) {\r\n        Contract storage contractInfo = contracts[_contractId];\r\n\r\n        require(contractInfo.status == RentalStatus.NotCreated, \"Contract status is not valid for deposit\");\r\n        require(msg.value == contractInfo.depositAmount, \"Incorrect deposit amount\");\r\n\r\n        contractInfo.status = RentalStatus.Deposited;\r\n\r\n        recordTransaction(_contractId, msg.sender, contractInfo.owner, msg.value, \"Deposit\");\r\n\r\n        emit TransactionRecorded(_contractId, msg.sender, contractInfo.owner, msg.value, block.timestamp, \"Deposit\");\r\n    }\r\n\r\n    function payRent(uint _contractId) public payable onlyRenter(_contractId) {\r\n        Contract storage contractInfo = contracts[_contractId];\r\n\r\n        require(contractInfo.status == RentalStatus.Deposited || contractInfo.status == RentalStatus.Ongoing, \"Rental period not valid\");\r\n        require(msg.value == contractInfo.monthlyRent, \"Incorrect rent amount\");\r\n\r\n        if (contractInfo.status == RentalStatus.Deposited) {\r\n            contractInfo.status = RentalStatus.Ongoing;\r\n        }\r\n\r\n        contractInfo.owner.transfer(msg.value);\r\n\r\n        recordTransaction(_contractId, msg.sender, contractInfo.owner, msg.value, \"Rent Payment\");\r\n\r\n        emit TransactionRecorded(_contractId, msg.sender, contractInfo.owner, msg.value, block.timestamp, \"Rent Payment\");\r\n    }\r\n\r\n    function endContract(uint _contractId) public onlyOwner(_contractId) {\r\n        Contract storage contractInfo = contracts[_contractId];\r\n        contractInfo.status = RentalStatus.Ended;\r\n\r\n        (bool success, ) = contractInfo.renter.call{value: contractInfo.depositAmount}(\"\");\r\n        require(success, \"Deposit refund transfer failed\");\r\n\r\n        recordTransaction(_contractId, contractInfo.owner, contractInfo.renter, contractInfo.depositAmount, \"Refund\");\r\n\r\n        emit TransactionRecorded(_contractId, contractInfo.owner, contractInfo.renter, contractInfo.depositAmount, block.timestamp, \"Refund\");\r\n    }\r\n\r\n    function cancelContractByRenter(uint _contractId, bool notifyBefore30Days) public payable onlyRenter(_contractId) rentalNotEnded(_contractId) {\r\n    Contract storage contractInfo = contracts[_contractId];\r\n\r\n    uint depositLoss = 0;\r\n    uint extraCharge = 0;\r\n\r\n    if (!notifyBefore30Days) {\r\n        // Nu khng thng bo trc 30 ngy\r\n        extraCharge = contractInfo.monthlyRent;\r\n        require(msg.value == extraCharge, \"Incorrect extra charge amount\");\r\n\r\n        (bool successExtraCharge, ) = contractInfo.owner.call{value: extraCharge}(\"\");\r\n        require(successExtraCharge, \"Extra charge transfer failed\");\r\n\r\n        // Lu giao dch chuyn khon tin bi thng cho ch nh\r\n        recordTransaction(_contractId, msg.sender, contractInfo.owner, extraCharge, \"Extra Charge\");\r\n\r\n        depositLoss = contractInfo.depositAmount;\r\n        (bool successDeposit, ) = contractInfo.owner.call{value: depositLoss}(\"\");\r\n        require(successDeposit, \"Deposit transfer failed\");\r\n\r\n        // Lu giao dch chuyn khon tin t cc cho ch nh\r\n        recordTransaction(_contractId, msg.sender, contractInfo.owner, depositLoss, \"Deposit Loss\");\r\n    } else {\r\n        // Nu thng bo trc 30 ngy\r\n        (bool successRefund, ) = contractInfo.renter.call{value: contractInfo.depositAmount}(\"\");\r\n        require(successRefund, \"Deposit refund transfer failed\");\r\n\r\n        // Lu giao dch hon tr tin t cc cho ngi thu\r\n        recordTransaction(_contractId, contractInfo.owner, msg.sender, contractInfo.depositAmount, \"Deposit Refund\");\r\n    }\r\n\r\n    contractInfo.status = RentalStatus.Ended;\r\n    emit ContractCancelledByRenter(contractInfo.renter, depositLoss, extraCharge, _contractId, block.timestamp);\r\n}\r\n\r\nfunction cancelContractByOwner(uint _contractId, bool notifyBefore30Days) public payable onlyOwner(_contractId) rentalNotEnded(_contractId) {\r\n    Contract storage contractInfo = contracts[_contractId];\r\n\r\n    uint compensation = 0;\r\n\r\n    if (!notifyBefore30Days) {\r\n        // Nu khng thng bo trc 30 ngy, ch nh phi bi thng\r\n        compensation = contractInfo.monthlyRent;\r\n\r\n        (bool successCompensation, ) = contractInfo.renter.call{value: compensation}(\"\");\r\n        require(successCompensation, \"Compensation transfer failed\");\r\n\r\n        // Lu giao dch chuyn khon tin bi thng cho ngi thu\r\n        recordTransaction(_contractId, msg.sender, contractInfo.renter, compensation, \"Compensation\");\r\n    }\r\n\r\n    if (contractInfo.status == RentalStatus.Deposited || contractInfo.status == RentalStatus.Ongoing) {\r\n        (bool successDeposit, ) = contractInfo.renter.call{value: contractInfo.depositAmount}(\"\");\r\n        require(successDeposit, \"Deposit refund transfer failed\");\r\n\r\n        // Lu giao dch hon tr tin t cc cho ngi thu\r\n        recordTransaction(_contractId, msg.sender, contractInfo.renter, contractInfo.depositAmount, \"Deposit Refund\");\r\n    }\r\n\r\n    contractInfo.status = RentalStatus.Ended;\r\n    emit ContractCancelledByOwner(contractInfo.owner, compensation, _contractId, block.timestamp);\r\n}\r\n\r\n\r\n    // function cancelContractByRenter(uint _contractId, bool notifyBefore30Days) public payable onlyRenter(_contractId) rentalNotEnded(_contractId) {\r\n    //     Contract storage contractInfo = contracts[_contractId];\r\n\r\n    //     uint depositLoss = 0;\r\n    //     uint extraCharge = 0;\r\n\r\n    //     if (!notifyBefore30Days) {\r\n    //         // Nu khng thng bo trc 30 ngy\r\n    //         extraCharge = contractInfo.monthlyRent;\r\n    //         require(msg.value == extraCharge, \"Incorrect extra charge amount\");\r\n\r\n    //         (bool successExtraCharge, ) = contractInfo.owner.call{value: extraCharge}(\"\");\r\n    //         require(successExtraCharge, \"Extra charge transfer failed\");\r\n\r\n    //         depositLoss = contractInfo.depositAmount;\r\n    //         (bool successDeposit, ) = contractInfo.owner.call{value: depositLoss}(\"\");\r\n    //         require(successDeposit, \"Deposit transfer failed\");\r\n    //     } else {\r\n    //         // Nu thng bo trc 30 ngy\r\n    //         (bool successRefund, ) = contractInfo.renter.call{value: contractInfo.depositAmount}(\"\");\r\n    //         require(successRefund, \"Deposit refund transfer failed\");\r\n    //     }\r\n\r\n    //     contractInfo.status = RentalStatus.Ended;\r\n    //     emit ContractCancelledByRenter(contractInfo.renter, depositLoss, extraCharge, _contractId, block.timestamp);\r\n    // }\r\n\r\n    // function cancelContractByOwner(uint _contractId, bool notifyBefore30Days) public payable onlyOwner(_contractId) rentalNotEnded(_contractId) {\r\n    //     Contract storage contractInfo = contracts[_contractId];\r\n\r\n    //     uint compensation = 0;\r\n\r\n    //     if (!notifyBefore30Days) {\r\n    //         // Nu khng thng bo trc 30 ngy, ch nh phi bi thng\r\n    //         compensation = contractInfo.monthlyRent;\r\n\r\n    //         (bool successCompensation, ) = contractInfo.renter.call{value: compensation}(\"\");\r\n    //         require(successCompensation, \"Compensation transfer failed\");\r\n    //     }\r\n\r\n    //     if (contractInfo.status == RentalStatus.Deposited || contractInfo.status == RentalStatus.Ongoing) {\r\n    //         (bool successDeposit, ) = contractInfo.renter.call{value: contractInfo.depositAmount}(\"\");\r\n    //         require(successDeposit, \"Deposit refund transfer failed\");\r\n    //     }\r\n\r\n    //     contractInfo.status = RentalStatus.Ended;\r\n    //     emit ContractCancelledByOwner(contractInfo.owner, compensation, _contractId, block.timestamp);\r\n    // }\r\n\r\n    function recordTransaction(uint _contractId, address _from, address _to, uint _amount, string memory _transactionType) internal {\r\n        Transaction memory newTransaction = Transaction({\r\n            from: _from,\r\n            to: _to,\r\n            amount: _amount,\r\n            timestamp: block.timestamp,\r\n            transactionType: _transactionType\r\n        });\r\n\r\n        contractTransactions[_contractId].push(newTransaction);\r\n    }\r\n\r\n    function getContractDetails(uint _contractId) public view returns (Contract memory) {\r\n    Contract memory contractInfo = contracts[_contractId];\r\n    \r\n    // Kim tra quyn truy cp\r\n    require(msg.sender == contractInfo.owner || msg.sender == contractInfo.renter, \"Only the contract owner or renter can view the contract details\");\r\n\r\n    return contractInfo;\r\n    }\r\n\r\n\r\n    function getContractTransactions(uint _contractId) public view returns (Transaction[] memory) {\r\n        Contract memory contractInfo = contracts[_contractId];\r\n\r\n        require(msg.sender == contractInfo.owner || msg.sender == contractInfo.renter, \"Only the contract owner or renter can view the transactions\");\r\n\r\n        return contractTransactions[_contractId];\r\n    }\r\n}\r\n",
  "sourcePath": "C:\\kltn-backend\\contract-service\\contractRental\\contracts\\RentalContract.sol",
  "compiler": {
    "name": "solc",
    "version": "0.8.0+commit.c7dfd78e.Emscripten.clang"
  },
  "schemaVersion": "3.4.16",
  "updatedAt": "2024-09-01T05:20:14.192Z",
  "networkType": "ethereum",
  "devdoc": {
    "kind": "dev",
    "methods": {},
    "version": 1
  },
  "userdoc": {
    "kind": "user",
    "methods": {},
    "version": 1
  }
}