{
  "contractName": "RentalContract",
  "abi": [
    {
      "anonymous": false,
      "inputs": [
        {
          "indexed": true,
          "internalType": "string",
          "name": "contractID",
          "type": "string"
        },
        {
          "indexed": true,
          "internalType": "address",
          "name": "owner",
          "type": "address"
        },
        {
          "indexed": false,
          "internalType": "uint256",
          "name": "compensation",
          "type": "uint256"
        },
        {
          "indexed": false,
          "internalType": "uint256",
          "name": "timestamp",
          "type": "uint256"
        }
      ],
      "name": "ContractCancelledByOwner",
      "type": "event"
    },
    {
      "anonymous": false,
      "inputs": [
        {
          "indexed": true,
          "internalType": "string",
          "name": "contractID",
          "type": "string"
        },
        {
          "indexed": true,
          "internalType": "address",
          "name": "renter",
          "type": "address"
        },
        {
          "indexed": false,
          "internalType": "uint256",
          "name": "depositLoss",
          "type": "uint256"
        },
        {
          "indexed": false,
          "internalType": "uint256",
          "name": "extraCharge",
          "type": "uint256"
        },
        {
          "indexed": false,
          "internalType": "uint256",
          "name": "timestamp",
          "type": "uint256"
        }
      ],
      "name": "ContractCancelledByRenter",
      "type": "event"
    },
    {
      "anonymous": false,
      "inputs": [
        {
          "indexed": true,
          "internalType": "string",
          "name": "contractID",
          "type": "string"
        },
        {
          "indexed": false,
          "internalType": "string",
          "name": "propertyID",
          "type": "string"
        },
        {
          "indexed": true,
          "internalType": "address",
          "name": "owner",
          "type": "address"
        },
        {
          "indexed": true,
          "internalType": "address",
          "name": "renter",
          "type": "address"
        },
        {
          "indexed": false,
          "internalType": "uint256",
          "name": "depositAmount",
          "type": "uint256"
        },
        {
          "indexed": false,
          "internalType": "uint256",
          "name": "monthlyRent",
          "type": "uint256"
        }
      ],
      "name": "ContractCreated",
      "type": "event"
    },
    {
      "anonymous": false,
      "inputs": [
        {
          "indexed": true,
          "internalType": "string",
          "name": "contractID",
          "type": "string"
        },
        {
          "indexed": true,
          "internalType": "address",
          "name": "renter",
          "type": "address"
        },
        {
          "indexed": false,
          "internalType": "uint256",
          "name": "depositRefundAmount",
          "type": "uint256"
        },
        {
          "indexed": false,
          "internalType": "uint256",
          "name": "timestamp",
          "type": "uint256"
        }
      ],
      "name": "ContractEnded",
      "type": "event"
    },
    {
      "anonymous": false,
      "inputs": [
        {
          "indexed": true,
          "internalType": "string",
          "name": "contractID",
          "type": "string"
        },
        {
          "indexed": false,
          "internalType": "string",
          "name": "reason",
          "type": "string"
        }
      ],
      "name": "ContractTerminated",
      "type": "event"
    },
    {
      "anonymous": false,
      "inputs": [
        {
          "indexed": true,
          "internalType": "string",
          "name": "contractID",
          "type": "string"
        },
        {
          "indexed": false,
          "internalType": "address",
          "name": "from",
          "type": "address"
        },
        {
          "indexed": false,
          "internalType": "address",
          "name": "to",
          "type": "address"
        },
        {
          "indexed": false,
          "internalType": "uint256",
          "name": "amount",
          "type": "uint256"
        },
        {
          "indexed": false,
          "internalType": "uint256",
          "name": "timestamp",
          "type": "uint256"
        },
        {
          "indexed": false,
          "internalType": "string",
          "name": "transactionType",
          "type": "string"
        }
      ],
      "name": "TransactionRecorded",
      "type": "event"
    },
    {
      "inputs": [
        {
          "internalType": "string",
          "name": "",
          "type": "string"
        },
        {
          "internalType": "uint256",
          "name": "",
          "type": "uint256"
        }
      ],
      "name": "contractTransactions",
      "outputs": [
        {
          "internalType": "address",
          "name": "from",
          "type": "address"
        },
        {
          "internalType": "address",
          "name": "to",
          "type": "address"
        },
        {
          "internalType": "uint256",
          "name": "amount",
          "type": "uint256"
        },
        {
          "internalType": "uint256",
          "name": "timestamp",
          "type": "uint256"
        },
        {
          "internalType": "string",
          "name": "transactionType",
          "type": "string"
        }
      ],
      "stateMutability": "view",
      "type": "function",
      "constant": true
    },
    {
      "inputs": [
        {
          "internalType": "string",
          "name": "",
          "type": "string"
        }
      ],
      "name": "contracts",
      "outputs": [
        {
          "internalType": "string",
          "name": "contractID",
          "type": "string"
        },
        {
          "internalType": "string",
          "name": "propertyID",
          "type": "string"
        },
        {
          "internalType": "address payable",
          "name": "owner",
          "type": "address"
        },
        {
          "internalType": "address payable",
          "name": "renter",
          "type": "address"
        },
        {
          "internalType": "uint256",
          "name": "depositAmount",
          "type": "uint256"
        },
        {
          "internalType": "uint256",
          "name": "monthlyRent",
          "type": "uint256"
        },
        {
          "internalType": "enum RentalContract.RentalStatus",
          "name": "status",
          "type": "uint8"
        }
      ],
      "stateMutability": "view",
      "type": "function",
      "constant": true
    },
    {
      "inputs": [
        {
          "internalType": "string",
          "name": "_contractID",
          "type": "string"
        },
        {
          "internalType": "string",
          "name": "_propertyID",
          "type": "string"
        },
        {
          "internalType": "address payable",
          "name": "_owner",
          "type": "address"
        },
        {
          "internalType": "address payable",
          "name": "_renter",
          "type": "address"
        },
        {
          "internalType": "uint256",
          "name": "_depositAmount",
          "type": "uint256"
        },
        {
          "internalType": "uint256",
          "name": "_monthlyRent",
          "type": "uint256"
        }
      ],
      "name": "createContract",
      "outputs": [],
      "stateMutability": "nonpayable",
      "type": "function"
    },
    {
      "inputs": [
        {
          "internalType": "string",
          "name": "_contractID",
          "type": "string"
        }
      ],
      "name": "deposit",
      "outputs": [],
      "stateMutability": "payable",
      "type": "function",
      "payable": true
    },
    {
      "inputs": [
        {
          "internalType": "string",
          "name": "_contractID",
          "type": "string"
        }
      ],
      "name": "payRent",
      "outputs": [],
      "stateMutability": "payable",
      "type": "function",
      "payable": true
    },
    {
      "inputs": [
        {
          "internalType": "string",
          "name": "_contractID",
          "type": "string"
        },
        {
          "internalType": "address payable",
          "name": "recipient",
          "type": "address"
        },
        {
          "internalType": "uint256",
          "name": "amount",
          "type": "uint256"
        }
      ],
      "name": "transferToAddress",
      "outputs": [],
      "stateMutability": "nonpayable",
      "type": "function"
    },
    {
      "inputs": [
        {
          "internalType": "string",
          "name": "_contractID",
          "type": "string"
        }
      ],
      "name": "transferToSmartContract",
      "outputs": [],
      "stateMutability": "payable",
      "type": "function",
      "payable": true
    },
    {
      "inputs": [
        {
          "internalType": "string",
          "name": "_contractID",
          "type": "string"
        },
        {
          "internalType": "address payable",
          "name": "recipient",
          "type": "address"
        },
        {
          "internalType": "string",
          "name": "description",
          "type": "string"
        }
      ],
      "name": "transferAddressToAddress",
      "outputs": [],
      "stateMutability": "payable",
      "type": "function",
      "payable": true
    },
    {
      "inputs": [
        {
          "internalType": "string",
          "name": "_contractID",
          "type": "string"
        }
      ],
      "name": "cancelContractBeforeDeposit",
      "outputs": [],
      "stateMutability": "nonpayable",
      "type": "function"
    },
    {
      "inputs": [
        {
          "internalType": "string",
          "name": "_contractID",
          "type": "string"
        },
        {
          "internalType": "uint256",
          "name": "depositAmount",
          "type": "uint256"
        }
      ],
      "name": "endContract",
      "outputs": [],
      "stateMutability": "payable",
      "type": "function",
      "payable": true
    },
    {
      "inputs": [
        {
          "internalType": "string",
          "name": "_contractID",
          "type": "string"
        }
      ],
      "name": "getContractDetails",
      "outputs": [
        {
          "components": [
            {
              "internalType": "string",
              "name": "contractID",
              "type": "string"
            },
            {
              "internalType": "string",
              "name": "propertyID",
              "type": "string"
            },
            {
              "internalType": "address payable",
              "name": "owner",
              "type": "address"
            },
            {
              "internalType": "address payable",
              "name": "renter",
              "type": "address"
            },
            {
              "internalType": "uint256",
              "name": "depositAmount",
              "type": "uint256"
            },
            {
              "internalType": "uint256",
              "name": "monthlyRent",
              "type": "uint256"
            },
            {
              "internalType": "enum RentalContract.RentalStatus",
              "name": "status",
              "type": "uint8"
            }
          ],
          "internalType": "struct RentalContract.Contract",
          "name": "",
          "type": "tuple"
        }
      ],
      "stateMutability": "view",
      "type": "function",
      "constant": true
    },
    {
      "inputs": [
        {
          "internalType": "string",
          "name": "_contractID",
          "type": "string"
        }
      ],
      "name": "getContractTransactions",
      "outputs": [
        {
          "components": [
            {
              "internalType": "address",
              "name": "from",
              "type": "address"
            },
            {
              "internalType": "address",
              "name": "to",
              "type": "address"
            },
            {
              "internalType": "uint256",
              "name": "amount",
              "type": "uint256"
            },
            {
              "internalType": "uint256",
              "name": "timestamp",
              "type": "uint256"
            },
            {
              "internalType": "string",
              "name": "transactionType",
              "type": "string"
            }
          ],
          "internalType": "struct RentalContract.Transaction[]",
          "name": "",
          "type": "tuple[]"
        }
      ],
      "stateMutability": "view",
      "type": "function",
      "constant": true
    },
    {
      "inputs": [
        {
          "internalType": "string",
          "name": "_contractId",
          "type": "string"
        },
        {
          "internalType": "bool",
          "name": "notifyBefore30Days",
          "type": "bool"
        },
        {
          "internalType": "uint256",
          "name": "depositAmount",
          "type": "uint256"
        }
      ],
      "name": "cancelContractByRenter",
      "outputs": [],
      "stateMutability": "payable",
      "type": "function",
      "payable": true
    },
    {
      "inputs": [
        {
          "internalType": "string",
          "name": "_contractId",
          "type": "string"
        },
        {
          "internalType": "uint256",
          "name": "depositAmount",
          "type": "uint256"
        }
      ],
      "name": "cancelContractByOwner",
      "outputs": [],
      "stateMutability": "payable",
      "type": "function",
      "payable": true
    }
  ],
  "bytecode": "0x608060405234801561001057600080fd5b50615ab180620000216000396000f3fe6080604052600436106100dd5760003560e01c80637bef444c1161007f578063a26e118611610059578063a26e118614610269578063a458330d14610285578063bfafff5b146102a1578063cd7c1147146102de576100dd565b80637bef444c146101e15780638c5b8385146101fd578063931c700814610240576100dd565b806340b815fe116100bb57806340b815fe1461014357806353d04b851461015f578063541881c11461017b578063706a9c6c146101b8576100dd565b8063132756b5146100e25780632799a284146100fe5780632b27ddd01461011a575b600080fd5b6100fc60048036038101906100f79190613bc9565b61031f565b005b61011860048036038101906101139190613bc9565b6108e0565b005b34801561012657600080fd5b50610141600480360381019061013c9190613b10565b610db1565b005b61015d60048036038101906101589190613aa9565b61113c565b005b61017960048036038101906101749190613982565b611793565b005b34801561018757600080fd5b506101a2600480360381019061019d9190613982565b61195f565b6040516101af91906150f9565b60405180910390f35b3480156101c457600080fd5b506101df60048036038101906101da9190613982565b611e72565b005b6101fb60048036038101906101f69190613982565b612175565b005b34801561020957600080fd5b50610224600480360381019061021f9190613982565b612664565b604051610237979695949392919061513d565b60405180910390f35b34801561024c57600080fd5b5061026760048036038101906102629190613a42565b612819565b005b610283600480360381019061027e9190613982565b6129d4565b005b61029f600480360381019061029a91906139c3565b612cb0565b005b3480156102ad57600080fd5b506102c860048036038101906102c39190613982565b6131b0565b6040516102d59190615518565b60405180910390f35b3480156102ea57600080fd5b5061030560048036038101906103009190613bc9565b613504565b604051610316959493929190614f97565b60405180910390f35b816000816040516103309190614d59565b908152602001604051809103902060020160009054906101000a900473ffffffffffffffffffffffffffffffffffffffff1673ffffffffffffffffffffffffffffffffffffffff163373ffffffffffffffffffffffffffffffffffffffff16146103cf576040517f08c379a00000000000000000000000000000000000000000000000000000000081526004016103c690615238565b60405180910390fd5b600080846040516103e09190614d59565b908152602001604051809103902090506000600481111561042a577f4e487b7100000000000000000000000000000000000000000000000000000000600052602160045260246000fd5b8160060160009054906101000a900460ff166004811115610474577f4e487b7100000000000000000000000000000000000000000000000000000000600052602160045260246000fd5b14156104d25760038160060160006101000a81548160ff021916908360048111156104c8577f4e487b7100000000000000000000000000000000000000000000000000000000600052602160045260246000fd5b0217905550610850565b6001600481111561050c577f4e487b7100000000000000000000000000000000000000000000000000000000600052602160045260246000fd5b8160060160009054906101000a900460ff166004811115610556577f4e487b7100000000000000000000000000000000000000000000000000000000600052602160045260246000fd5b14806105e3575060026004811115610597577f4e487b7100000000000000000000000000000000000000000000000000000000600052602160045260246000fd5b8160060160009054906101000a900460ff1660048111156105e1577f4e487b7100000000000000000000000000000000000000000000000000000000600052602160045260246000fd5b145b15610814578247101561062b576040517f08c379a000000000000000000000000000000000000000000000000000000000815260040161062290615458565b60405180910390fd5b60008160030160009054906101000a900473ffffffffffffffffffffffffffffffffffffffff1673ffffffffffffffffffffffffffffffffffffffff168460405161067590614d70565b60006040518083038185875af1925050503d80600081146106b2576040519150601f19603f3d011682016040523d82523d6000602084013e6106b7565b606091505b50509050806106fb576040517f08c379a00000000000000000000000000000000000000000000000000000000081526004016106f290615358565b60405180910390fd5b61074485308460030160009054906101000a900473ffffffffffffffffffffffffffffffffffffffff16876040518060800160405280604981526020016158c160499139613635565b846040516107529190614d59565b60405180910390207f533295cd82e521ef5bdedbc6debf352fcb558fe7f98c397a0d52cc90e107f310308460030160009054906101000a900473ffffffffffffffffffffffffffffffffffffffff1687426040516107b39493929190614e37565b60405180910390a260038260060160006101000a81548160ff02191690836004811115610809577f4e487b7100000000000000000000000000000000000000000000000000000000600052602160045260246000fd5b02179055505061084f565b6040517f08c379a0000000000000000000000000000000000000000000000000000000008152600401610846906152f8565b60405180910390fd5b5b8060030160009054906101000a900473ffffffffffffffffffffffffffffffffffffffff1673ffffffffffffffffffffffffffffffffffffffff16846040516108999190614d59565b60405180910390207ff6b22571c1ecf2dee47f025f69793accfe7ed12f07404c638536d16998c1ea4785426040516108d292919061553a565b60405180910390a350505050565b816000816040516108f19190614d59565b908152602001604051809103902060020160009054906101000a900473ffffffffffffffffffffffffffffffffffffffff1673ffffffffffffffffffffffffffffffffffffffff163373ffffffffffffffffffffffffffffffffffffffff1614610990576040517f08c379a000000000000000000000000000000000000000000000000000000000815260040161098790615238565b60405180910390fd5b600080846040516109a19190614d59565b90815260200160405180910390209050600160048111156109eb577f4e487b7100000000000000000000000000000000000000000000000000000000600052602160045260246000fd5b8160060160009054906101000a900460ff166004811115610a35577f4e487b7100000000000000000000000000000000000000000000000000000000600052602160045260246000fd5b1480610ac2575060026004811115610a76577f4e487b7100000000000000000000000000000000000000000000000000000000600052602160045260246000fd5b8160060160009054906101000a900460ff166004811115610ac0577f4e487b7100000000000000000000000000000000000000000000000000000000600052602160045260246000fd5b145b610b01576040517f08c379a0000000000000000000000000000000000000000000000000000000008152600401610af890615278565b60405180910390fd5b82471015610b44576040517f08c379a0000000000000000000000000000000000000000000000000000000008152600401610b3b90615458565b60405180910390fd5b60008160030160009054906101000a900473ffffffffffffffffffffffffffffffffffffffff1673ffffffffffffffffffffffffffffffffffffffff1684604051610b8e90614d70565b60006040518083038185875af1925050503d8060008114610bcb576040519150601f19603f3d011682016040523d82523d6000602084013e610bd0565b606091505b5050905080610c14576040517f08c379a0000000000000000000000000000000000000000000000000000000008152600401610c0b90615358565b60405180910390fd5b610c7a85308460030160009054906101000a900473ffffffffffffffffffffffffffffffffffffffff16876040518060400160405280601881526020017f486fc3a06e207472e1baa3207469e1bb816e2063e1bb8d630000000000000000815250613635565b84604051610c889190614d59565b60405180910390207f533295cd82e521ef5bdedbc6debf352fcb558fe7f98c397a0d52cc90e107f310308460030160009054906101000a900473ffffffffffffffffffffffffffffffffffffffff168742604051610ce99493929190614ee7565b60405180910390a260038260060160006101000a81548160ff02191690836004811115610d3f577f4e487b7100000000000000000000000000000000000000000000000000000000600052602160045260246000fd5b02179055503373ffffffffffffffffffffffffffffffffffffffff1685604051610d699190614d59565b60405180910390207fe2da9dcf01d3bce438e81353c3540671c45029b87abdf8074d5a9bfb045ef6f98642604051610da292919061553a565b60405180910390a35050505050565b838073ffffffffffffffffffffffffffffffffffffffff163373ffffffffffffffffffffffffffffffffffffffff1614610e20576040517f08c379a0000000000000000000000000000000000000000000000000000000008152600401610e17906151f8565b60405180910390fd5b600073ffffffffffffffffffffffffffffffffffffffff168573ffffffffffffffffffffffffffffffffffffffff1614158015610e8a5750600073ffffffffffffffffffffffffffffffffffffffff168473ffffffffffffffffffffffffffffffffffffffff1614155b610ec9576040517f08c379a0000000000000000000000000000000000000000000000000000000008152600401610ec090615498565b60405180910390fd5b6040518060e001604052808881526020018781526020018673ffffffffffffffffffffffffffffffffffffffff1681526020018573ffffffffffffffffffffffffffffffffffffffff16815260200184815260200183815260200160006004811115610f5e577f4e487b7100000000000000000000000000000000000000000000000000000000600052602160045260246000fd5b815250600088604051610f719190614d59565b90815260200160405180910390206000820151816000019080519060200190610f9b929190613797565b506020820151816001019080519060200190610fb8929190613797565b5060408201518160020160006101000a81548173ffffffffffffffffffffffffffffffffffffffff021916908373ffffffffffffffffffffffffffffffffffffffff16021790555060608201518160030160006101000a81548173ffffffffffffffffffffffffffffffffffffffff021916908373ffffffffffffffffffffffffffffffffffffffff1602179055506080820151816004015560a0820151816005015560c08201518160060160006101000a81548160ff021916908360048111156110ac577f4e487b7100000000000000000000000000000000000000000000000000000000600052602160045260246000fd5b02179055509050508373ffffffffffffffffffffffffffffffffffffffff168573ffffffffffffffffffffffffffffffffffffffff16886040516110f09190614d59565b60405180910390207ff7ecc3071b5ebed4a1d5658be0963bdf71f705336198be1add3186546995259489878760405161112b939291906151ba565b60405180910390a450505050505050565b8260008160405161114d9190614d59565b908152602001604051809103902060030160009054906101000a900473ffffffffffffffffffffffffffffffffffffffff1673ffffffffffffffffffffffffffffffffffffffff163373ffffffffffffffffffffffffffffffffffffffff16146111ec576040517f08c379a00000000000000000000000000000000000000000000000000000000081526004016111e390615378565b60405180910390fd5b600080856040516111fd9190614d59565b9081526020016040518091039020905060016004811115611247577f4e487b7100000000000000000000000000000000000000000000000000000000600052602160045260246000fd5b8160060160009054906101000a900460ff166004811115611291577f4e487b7100000000000000000000000000000000000000000000000000000000600052602160045260246000fd5b148061131e5750600260048111156112d2577f4e487b7100000000000000000000000000000000000000000000000000000000600052602160045260246000fd5b8160060160009054906101000a900460ff16600481111561131c577f4e487b7100000000000000000000000000000000000000000000000000000000600052602160045260246000fd5b145b61135d576040517f08c379a000000000000000000000000000000000000000000000000000000000815260040161135490615278565b60405180910390fd5b60008085156114f757844710156113a9576040517f08c379a00000000000000000000000000000000000000000000000000000000081526004016113a090615458565b60405180910390fd5b60008360030160009054906101000a900473ffffffffffffffffffffffffffffffffffffffff1673ffffffffffffffffffffffffffffffffffffffff16866040516113f390614d70565b60006040518083038185875af1925050503d8060008114611430576040519150601f19603f3d011682016040523d82523d6000602084013e611435565b606091505b5050905080611479576040517f08c379a000000000000000000000000000000000000000000000000000000000815260040161147090615338565b60405180910390fd5b61149e883033896040518060600160405280602b8152602001615a51602b9139613635565b876040516114ac9190614d59565b60405180910390207f533295cd82e521ef5bdedbc6debf352fcb558fe7f98c397a0d52cc90e107f310303389426040516114e99493929190615049565b60405180910390a2506116cf565b8491508147101561153d576040517f08c379a000000000000000000000000000000000000000000000000000000000815260040161153490615458565b60405180910390fd5b60008360020160009054906101000a900473ffffffffffffffffffffffffffffffffffffffff1673ffffffffffffffffffffffffffffffffffffffff168360405161158790614d70565b60006040518083038185875af1925050503d80600081146115c4576040519150601f19603f3d011682016040523d82523d6000602084013e6115c9565b606091505b505090508061160d576040517f08c379a000000000000000000000000000000000000000000000000000000000815260040161160490615318565b60405180910390fd5b61165688308660020160009054906101000a900473ffffffffffffffffffffffffffffffffffffffff1686604051806060016040528060278152602001615a2a60279139613635565b876040516116649190614d59565b60405180910390207f533295cd82e521ef5bdedbc6debf352fcb558fe7f98c397a0d52cc90e107f310308660020160009054906101000a900473ffffffffffffffffffffffffffffffffffffffff1686426040516116c59493929190614f3f565b60405180910390a2505b60038360060160006101000a81548160ff0219169083600481111561171d577f4e487b7100000000000000000000000000000000000000000000000000000000600052602160045260246000fd5b02179055503373ffffffffffffffffffffffffffffffffffffffff16876040516117479190614d59565b60405180910390207fadafc36edcd60759441410797064a212430ea809b0ca5ffd4aa273c16b13133284844260405161178293929190615563565b60405180910390a350505050505050565b600080826040516117a49190614d59565b908152602001604051809103902090508060020160009054906101000a900473ffffffffffffffffffffffffffffffffffffffff1673ffffffffffffffffffffffffffffffffffffffff163373ffffffffffffffffffffffffffffffffffffffff1614611846576040517f08c379a000000000000000000000000000000000000000000000000000000000815260040161183d906154b8565b60405180910390fd5b60003411611889576040517f08c379a0000000000000000000000000000000000000000000000000000000008152600401611880906154f8565b60405180910390fd5b343373ffffffffffffffffffffffffffffffffffffffff163110156118e3576040517f08c379a00000000000000000000000000000000000000000000000000000000081526004016118da90615258565b60405180910390fd5b611908823330346040518060a001604052806063815260200161598960639139613635565b816040516119169190614d59565b60405180910390207f533295cd82e521ef5bdedbc6debf352fcb558fe7f98c397a0d52cc90e107f310333034426040516119539493929190614ff1565b60405180910390a25050565b6060600080836040516119729190614d59565b90815260200160405180910390206040518060e001604052908160008201805461199b9061576e565b80601f01602080910402602001604051908101604052809291908181526020018280546119c79061576e565b8015611a145780601f106119e957610100808354040283529160200191611a14565b820191906000526020600020905b8154815290600101906020018083116119f757829003601f168201915b50505050508152602001600182018054611a2d9061576e565b80601f0160208091040260200160405190810160405280929190818152602001828054611a599061576e565b8015611aa65780601f10611a7b57610100808354040283529160200191611aa6565b820191906000526020600020905b815481529060010190602001808311611a8957829003601f168201915b505050505081526020016002820160009054906101000a900473ffffffffffffffffffffffffffffffffffffffff1673ffffffffffffffffffffffffffffffffffffffff1673ffffffffffffffffffffffffffffffffffffffff1681526020016003820160009054906101000a900473ffffffffffffffffffffffffffffffffffffffff1673ffffffffffffffffffffffffffffffffffffffff1673ffffffffffffffffffffffffffffffffffffffff16815260200160048201548152602001600582015481526020016006820160009054906101000a900460ff166004811115611bba577f4e487b7100000000000000000000000000000000000000000000000000000000600052602160045260246000fd5b6004811115611bf2577f4e487b7100000000000000000000000000000000000000000000000000000000600052602160045260246000fd5b815250509050806040015173ffffffffffffffffffffffffffffffffffffffff163373ffffffffffffffffffffffffffffffffffffffff161480611c655750806060015173ffffffffffffffffffffffffffffffffffffffff163373ffffffffffffffffffffffffffffffffffffffff16145b611ca4576040517f08c379a0000000000000000000000000000000000000000000000000000000008152600401611c9b90615418565b60405180910390fd5b600183604051611cb49190614d59565b9081526020016040518091039020805480602002602001604051908101604052809291908181526020016000905b82821015611e6657838290600052602060002090600502016040518060a00160405290816000820160009054906101000a900473ffffffffffffffffffffffffffffffffffffffff1673ffffffffffffffffffffffffffffffffffffffff1673ffffffffffffffffffffffffffffffffffffffff1681526020016001820160009054906101000a900473ffffffffffffffffffffffffffffffffffffffff1673ffffffffffffffffffffffffffffffffffffffff1673ffffffffffffffffffffffffffffffffffffffff1681526020016002820154815260200160038201548152602001600482018054611dd59061576e565b80601f0160208091040260200160405190810160405280929190818152602001828054611e019061576e565b8015611e4e5780601f10611e2357610100808354040283529160200191611e4e565b820191906000526020600020905b815481529060010190602001808311611e3157829003601f168201915b50505050508152505081526020019060010190611ce2565b50505050915050919050565b60008082604051611e839190614d59565b908152602001604051809103902090508060020160009054906101000a900473ffffffffffffffffffffffffffffffffffffffff1673ffffffffffffffffffffffffffffffffffffffff163373ffffffffffffffffffffffffffffffffffffffff161480611f4057508060030160009054906101000a900473ffffffffffffffffffffffffffffffffffffffff1673ffffffffffffffffffffffffffffffffffffffff163373ffffffffffffffffffffffffffffffffffffffff16145b611f7f576040517f08c379a0000000000000000000000000000000000000000000000000000000008152600401611f7690615438565b60405180910390fd5b60006004811115611fb9577f4e487b7100000000000000000000000000000000000000000000000000000000600052602160045260246000fd5b8160060160009054906101000a900460ff166004811115612003577f4e487b7100000000000000000000000000000000000000000000000000000000600052602160045260246000fd5b14612043576040517f08c379a000000000000000000000000000000000000000000000000000000000815260040161203a906152b8565b60405180910390fd5b60048160060160006101000a81548160ff02191690836004811115612091577f4e487b7100000000000000000000000000000000000000000000000000000000600052602160045260246000fd5b0217905550816040516120a49190614d59565b60405180910390207f62053ec7b590a1785a5832f731771c8a67d47e1c16b9407b5bc1903ff9b7c5258260020160009054906101000a900473ffffffffffffffffffffffffffffffffffffffff1673ffffffffffffffffffffffffffffffffffffffff163373ffffffffffffffffffffffffffffffffffffffff1614612142576040518060800160405280604281526020016159476042913961215c565b6040518060600160405280603e81526020016159ec603e91395b604051612169919061511b565b60405180910390a25050565b806000816040516121869190614d59565b908152602001604051809103902060030160009054906101000a900473ffffffffffffffffffffffffffffffffffffffff1673ffffffffffffffffffffffffffffffffffffffff163373ffffffffffffffffffffffffffffffffffffffff1614612225576040517f08c379a000000000000000000000000000000000000000000000000000000000815260040161221c90615378565b60405180910390fd5b600080836040516122369190614d59565b9081526020016040518091039020905060016004811115612280577f4e487b7100000000000000000000000000000000000000000000000000000000600052602160045260246000fd5b8160060160009054906101000a900460ff1660048111156122ca577f4e487b7100000000000000000000000000000000000000000000000000000000600052602160045260246000fd5b148061235757506002600481111561230b577f4e487b7100000000000000000000000000000000000000000000000000000000600052602160045260246000fd5b8160060160009054906101000a900460ff166004811115612355577f4e487b7100000000000000000000000000000000000000000000000000000000600052602160045260246000fd5b145b612396576040517f08c379a000000000000000000000000000000000000000000000000000000000815260040161238d906153b8565b60405180910390fd5b343373ffffffffffffffffffffffffffffffffffffffff163110156123f0576040517f08c379a00000000000000000000000000000000000000000000000000000000081526004016123e7906154d8565b60405180910390fd5b6001600481111561242a577f4e487b7100000000000000000000000000000000000000000000000000000000600052602160045260246000fd5b8160060160009054906101000a900460ff166004811115612474577f4e487b7100000000000000000000000000000000000000000000000000000000600052602160045260246000fd5b14156124ce5760028160060160006101000a81548160ff021916908360048111156124c8577f4e487b7100000000000000000000000000000000000000000000000000000000600052602160045260246000fd5b02179055505b60008160020160009054906101000a900473ffffffffffffffffffffffffffffffffffffffff1673ffffffffffffffffffffffffffffffffffffffff163460405161251890614d70565b60006040518083038185875af1925050503d8060008114612555576040519150601f19603f3d011682016040523d82523d6000602084013e61255a565b606091505b505090508061259e576040517f08c379a000000000000000000000000000000000000000000000000000000000815260040161259590615398565b60405180910390fd5b6125e784338460020160009054906101000a900473ffffffffffffffffffffffffffffffffffffffff163460405180606001604052806029815260200161589860299139613635565b836040516125f59190614d59565b60405180910390207f533295cd82e521ef5bdedbc6debf352fcb558fe7f98c397a0d52cc90e107f310338460020160009054906101000a900473ffffffffffffffffffffffffffffffffffffffff1634426040516126569493929190614ddf565b60405180910390a250505050565b60008180516020810182018051848252602083016020850120818352809550505050505060009150905080600001805461269d9061576e565b80601f01602080910402602001604051908101604052809291908181526020018280546126c99061576e565b80156127165780601f106126eb57610100808354040283529160200191612716565b820191906000526020600020905b8154815290600101906020018083116126f957829003601f168201915b50505050509080600101805461272b9061576e565b80601f01602080910402602001604051908101604052809291908181526020018280546127579061576e565b80156127a45780601f10612779576101008083540402835291602001916127a4565b820191906000526020600020905b81548152906001019060200180831161278757829003601f168201915b5050505050908060020160009054906101000a900473ffffffffffffffffffffffffffffffffffffffff16908060030160009054906101000a900473ffffffffffffffffffffffffffffffffffffffff16908060040154908060050154908060060160009054906101000a900460ff16905087565b6000808460405161282a9190614d59565b908152602001604051809103902090508060020160009054906101000a900473ffffffffffffffffffffffffffffffffffffffff1673ffffffffffffffffffffffffffffffffffffffff163373ffffffffffffffffffffffffffffffffffffffff16146128cc576040517f08c379a00000000000000000000000000000000000000000000000000000000081526004016128c3906154b8565b60405180910390fd5b8147101561290f576040517f08c379a000000000000000000000000000000000000000000000000000000000815260040161290690615258565b60405180910390fd5b8273ffffffffffffffffffffffffffffffffffffffff166108fc839081150290604051600060405180830381858888f19350505050158015612955573d6000803e3d6000fd5b5061297b843085856040518060600160405280603d815260200161590a603d9139613635565b836040516129899190614d59565b60405180910390207f533295cd82e521ef5bdedbc6debf352fcb558fe7f98c397a0d52cc90e107f310308585426040516129c69493929190614e8f565b60405180910390a250505050565b806000816040516129e59190614d59565b908152602001604051809103902060030160009054906101000a900473ffffffffffffffffffffffffffffffffffffffff1673ffffffffffffffffffffffffffffffffffffffff163373ffffffffffffffffffffffffffffffffffffffff1614612a84576040517f08c379a0000000000000000000000000000000000000000000000000000000008152600401612a7b90615378565b60405180910390fd5b60008083604051612a959190614d59565b9081526020016040518091039020905060006004811115612adf577f4e487b7100000000000000000000000000000000000000000000000000000000600052602160045260246000fd5b8160060160009054906101000a900460ff166004811115612b29577f4e487b7100000000000000000000000000000000000000000000000000000000600052602160045260246000fd5b14612b69576040517f08c379a0000000000000000000000000000000000000000000000000000000008152600401612b60906152d8565b60405180910390fd5b343373ffffffffffffffffffffffffffffffffffffffff16311015612bc3576040517f08c379a0000000000000000000000000000000000000000000000000000000008152600401612bba906153d8565b60405180910390fd5b60018160060160006101000a81548160ff02191690836004811115612c11577f4e487b7100000000000000000000000000000000000000000000000000000000600052602160045260246000fd5b0217905550612c58833330346040518060400160405280600c81526020017fc490e1bab7742063e1bb8d630000000000000000000000000000000000000000815250613635565b82604051612c669190614d59565b60405180910390207f533295cd82e521ef5bdedbc6debf352fcb558fe7f98c397a0d52cc90e107f31033303442604051612ca394939291906150a1565b60405180910390a2505050565b60008084604051612cc19190614d59565b908152602001604051809103902090508060020160009054906101000a900473ffffffffffffffffffffffffffffffffffffffff1673ffffffffffffffffffffffffffffffffffffffff163373ffffffffffffffffffffffffffffffffffffffff161480612d7e57508060030160009054906101000a900473ffffffffffffffffffffffffffffffffffffffff1673ffffffffffffffffffffffffffffffffffffffff163373ffffffffffffffffffffffffffffffffffffffff16145b612dbd576040517f08c379a0000000000000000000000000000000000000000000000000000000008152600401612db4906154b8565b60405180910390fd5b8060020160009054906101000a900473ffffffffffffffffffffffffffffffffffffffff1673ffffffffffffffffffffffffffffffffffffffff168373ffffffffffffffffffffffffffffffffffffffff161480612e6a57508060030160009054906101000a900473ffffffffffffffffffffffffffffffffffffffff1673ffffffffffffffffffffffffffffffffffffffff168373ffffffffffffffffffffffffffffffffffffffff16145b612ea9576040517f08c379a0000000000000000000000000000000000000000000000000000000008152600401612ea0906153f8565b60405180910390fd5b60016004811115612ee3577f4e487b7100000000000000000000000000000000000000000000000000000000600052602160045260246000fd5b8160060160009054906101000a900460ff166004811115612f2d577f4e487b7100000000000000000000000000000000000000000000000000000000600052602160045260246000fd5b1480612fba575060026004811115612f6e577f4e487b7100000000000000000000000000000000000000000000000000000000600052602160045260246000fd5b8160060160009054906101000a900460ff166004811115612fb8577f4e487b7100000000000000000000000000000000000000000000000000000000600052602160045260246000fd5b145b612ff9576040517f08c379a0000000000000000000000000000000000000000000000000000000008152600401612ff090615478565b60405180910390fd5b343373ffffffffffffffffffffffffffffffffffffffff16311015613053576040517f08c379a000000000000000000000000000000000000000000000000000000000815260040161304a90615258565b60405180910390fd5b60008373ffffffffffffffffffffffffffffffffffffffff163460405161307990614d70565b60006040518083038185875af1925050503d80600081146130b6576040519150601f19603f3d011682016040523d82523d6000602084013e6130bb565b606091505b50509050806130ff576040517f08c379a00000000000000000000000000000000000000000000000000000000081526004016130f690615298565b60405180910390fd5b61313085338460020160009054906101000a900473ffffffffffffffffffffffffffffffffffffffff163487613635565b8460405161313e9190614d59565b60405180910390207f533295cd82e521ef5bdedbc6debf352fcb558fe7f98c397a0d52cc90e107f310338460020160009054906101000a900473ffffffffffffffffffffffffffffffffffffffff163442886040516131a1959493929190614d85565b60405180910390a25050505050565b6131b861381d565b600080836040516131c99190614d59565b90815260200160405180910390206040518060e00160405290816000820180546131f29061576e565b80601f016020809104026020016040519081016040528092919081815260200182805461321e9061576e565b801561326b5780601f106132405761010080835404028352916020019161326b565b820191906000526020600020905b81548152906001019060200180831161324e57829003601f168201915b505050505081526020016001820180546132849061576e565b80601f01602080910402602001604051908101604052809291908181526020018280546132b09061576e565b80156132fd5780601f106132d2576101008083540402835291602001916132fd565b820191906000526020600020905b8154815290600101906020018083116132e057829003601f168201915b505050505081526020016002820160009054906101000a900473ffffffffffffffffffffffffffffffffffffffff1673ffffffffffffffffffffffffffffffffffffffff1673ffffffffffffffffffffffffffffffffffffffff1681526020016003820160009054906101000a900473ffffffffffffffffffffffffffffffffffffffff1673ffffffffffffffffffffffffffffffffffffffff1673ffffffffffffffffffffffffffffffffffffffff16815260200160048201548152602001600582015481526020016006820160009054906101000a900460ff166004811115613411577f4e487b7100000000000000000000000000000000000000000000000000000000600052602160045260246000fd5b6004811115613449577f4e487b7100000000000000000000000000000000000000000000000000000000600052602160045260246000fd5b815250509050806040015173ffffffffffffffffffffffffffffffffffffffff163373ffffffffffffffffffffffffffffffffffffffff1614806134bc5750806060015173ffffffffffffffffffffffffffffffffffffffff163373ffffffffffffffffffffffffffffffffffffffff16145b6134fb576040517f08c379a00000000000000000000000000000000000000000000000000000000081526004016134f290615218565b60405180910390fd5b80915050919050565b600182805160208101820180518482526020830160208501208183528095505050505050818154811061353657600080fd5b9060005260206000209060050201600091509150508060000160009054906101000a900473ffffffffffffffffffffffffffffffffffffffff16908060010160009054906101000a900473ffffffffffffffffffffffffffffffffffffffff16908060020154908060030154908060040180546135b29061576e565b80601f01602080910402602001604051908101604052809291908181526020018280546135de9061576e565b801561362b5780601f106136005761010080835404028352916020019161362b565b820191906000526020600020905b81548152906001019060200180831161360e57829003601f168201915b5050505050905085565b6001856040516136459190614d59565b90815260200160405180910390206040518060a001604052808673ffffffffffffffffffffffffffffffffffffffff1681526020018573ffffffffffffffffffffffffffffffffffffffff16815260200184815260200142815260200183815250908060018154018082558091505060019003906000526020600020906005020160009091909190915060008201518160000160006101000a81548173ffffffffffffffffffffffffffffffffffffffff021916908373ffffffffffffffffffffffffffffffffffffffff16021790555060208201518160010160006101000a81548173ffffffffffffffffffffffffffffffffffffffff021916908373ffffffffffffffffffffffffffffffffffffffff1602179055506040820151816002015560608201518160030155608082015181600401908051906020019061378d929190613797565b5050505050505050565b8280546137a39061576e565b90600052602060002090601f0160209004810192826137c5576000855561380c565b82601f106137de57805160ff191683800117855561380c565b8280016001018555821561380c579182015b8281111561380b5782518255916020019190600101906137f0565b5b50905061381991906138be565b5090565b6040518060e001604052806060815260200160608152602001600073ffffffffffffffffffffffffffffffffffffffff168152602001600073ffffffffffffffffffffffffffffffffffffffff1681526020016000815260200160008152602001600060048111156138b8577f4e487b7100000000000000000000000000000000000000000000000000000000600052602160045260246000fd5b81525090565b5b808211156138d75760008160009055506001016138bf565b5090565b60006138ee6138e9846155cb565b61559a565b90508281526020810184848401111561390657600080fd5b61391184828561572c565b509392505050565b60008135905061392881615852565b92915050565b60008135905061393d81615869565b92915050565b600082601f83011261395457600080fd5b81356139648482602086016138db565b91505092915050565b60008135905061397c81615880565b92915050565b60006020828403121561399457600080fd5b600082013567ffffffffffffffff8111156139ae57600080fd5b6139ba84828501613943565b91505092915050565b6000806000606084860312156139d857600080fd5b600084013567ffffffffffffffff8111156139f257600080fd5b6139fe86828701613943565b9350506020613a0f86828701613919565b925050604084013567ffffffffffffffff811115613a2c57600080fd5b613a3886828701613943565b9150509250925092565b600080600060608486031215613a5757600080fd5b600084013567ffffffffffffffff811115613a7157600080fd5b613a7d86828701613943565b9350506020613a8e86828701613919565b9250506040613a9f8682870161396d565b9150509250925092565b600080600060608486031215613abe57600080fd5b600084013567ffffffffffffffff811115613ad857600080fd5b613ae486828701613943565b9350506020613af58682870161392e565b9250506040613b068682870161396d565b9150509250925092565b60008060008060008060c08789031215613b2957600080fd5b600087013567ffffffffffffffff811115613b4357600080fd5b613b4f89828a01613943565b965050602087013567ffffffffffffffff811115613b6c57600080fd5b613b7889828a01613943565b9550506040613b8989828a01613919565b9450506060613b9a89828a01613919565b9350506080613bab89828a0161396d565b92505060a0613bbc89828a0161396d565b9150509295509295509295565b60008060408385031215613bdc57600080fd5b600083013567ffffffffffffffff811115613bf657600080fd5b613c0285828601613943565b9250506020613c138582860161396d565b9150509250929050565b6000613c298383614cc5565b905092915050565b613c3a816156e4565b82525050565b613c4981615689565b82525050565b613c5881615689565b82525050565b613c6781615677565b82525050565b613c7681615677565b82525050565b6000613c878261560b565b613c91818561562e565b935083602082028501613ca3856155fb565b8060005b85811015613cdf5784840389528151613cc08582613c1d565b9450613ccb83615621565b925060208a01995050600181019050613ca7565b50829750879550505050505092915050565b613cfa816156f6565b82525050565b613d09816156f6565b82525050565b6000613d1a82615616565b613d24818561564a565b9350613d3481856020860161573b565b613d3d8161582d565b840191505092915050565b6000613d5382615616565b613d5d818561565b565b9350613d6d81856020860161573b565b613d768161582d565b840191505092915050565b6000613d8c82615616565b613d96818561566c565b9350613da681856020860161573b565b80840191505092915050565b6000613dbf603d8361565b565b91507f4368e1bb89206368e1bba72068e1bba37020c491e1bb936e67206de1bb9b692060008301527f63c3b3207468e1bb832074e1baa16f2068e1bba37020c491e1bb936e670000006020830152604082019050919050565b6000613e25605c8361565b565b91507f4368e1bb89206368e1bba72068e1bba37020c491e1bb936e6720686fe1bab76360008301527f206e67c6b0e1bb9d6920746875c3aa206de1bb9b692063c3b3207468e1bb832060208301527f78656d20636869207469e1babf742068e1bba37020c491e1bb936e67000000006040830152606082019050919050565b6000613eb160418361565b565b91507f4368e1bb89206368e1bba7206e68c3a0206de1bb9b692063c3b3207468e1bb8360008301527f207468e1bbb163206869e1bb876e2068c3a06e6820c491e1bb996e67206ec3a060208301527f79000000000000000000000000000000000000000000000000000000000000006040830152606082019050919050565b6000613f3d602b8361565b565b91507f53e1bb912064c6b0206b68c3b46e6720c491e1bba720c491e1bb83206368757960008301527fe1bb836e207469e1bb816e0000000000000000000000000000000000000000006020830152604082019050919050565b6000613fa360398361565b565b91507f5472e1baa16e67207468c3a1692068e1bba37020c491e1bb936e67206b68c3b460008301527f6e672068e1bba370206ce1bb8720c491e1bb832068e1bba779000000000000006020830152604082019050919050565b6000614009601c8361565b565b91507f43687579e1bb836e207469e1bb816e207468e1baa5742062e1baa169000000006000830152602082019050919050565b6000614049603f8361565b565b91507f5472e1baa16e67207468c3a1692068e1bba37020c491e1bb936e67206b68c3b460008301527f6e672068e1bba370206ce1bb8720c491e1bb83206be1babf74207468c3ba63006020830152604082019050919050565b60006140af60408361565b565b91507f5472e1baa16e67207468c3a1692068e1bba37020c491e1bb936e67206b68c3b460008301527f6e672068e1bba370206ce1bb8720c491e1bb8320c491e1bab7742063e1bb8d636020830152604082019050919050565b600061411560438361565b565b91507f48e1bba37020c491e1bb936e67206b68c3b46e6720e1bb9f207472e1baa16e6760008301527f207468c3a1692068e1bba370206ce1bb8720c491e1bb83206be1babf7420746860208301527fc3ba6300000000000000000000000000000000000000000000000000000000006040830152606082019050919050565b60006141a160348361565b565b91507f5468616e6820746fc3a16e207469e1bb816e2063e1bb8d632063686f206368e160008301527fbba7206e68c3a0207468e1baa5742062e1baa1690000000000000000000000006020830152604082019050919050565b600061420760388361565b565b91507f486fc3a06e207472e1baa3207469e1bb816e2063e1bb8d632063686f206e67c660008301527fb0e1bb9d6920746875c3aa207468e1baa5742062e1baa16900000000000000006020830152604082019050919050565b600061426d60258361565b565b91507f486fc3a06e207472e1baa3207469e1bb816e2063e1bb8d63207468e1baa5742060008301527f62e1baa1690000000000000000000000000000000000000000000000000000006020830152604082019050919050565b60006142d360458361565b565b91507f4368e1bb89206e67c6b0e1bb9d6920746875c3aa206de1bb9b692063c3b3207460008301527f68e1bb83207468e1bbb163206869e1bb876e2068c3a06e6820c491e1bb996e6760208301527f206ec3a0790000000000000000000000000000000000000000000000000000006040830152606082019050919050565b600061435f60258361565b565b91507f5468616e6820746fc3a16e207469e1bb816e20746875c3aa207468e1baa5742060008301527f62e1baa1690000000000000000000000000000000000000000000000000000006020830152604082019050919050565b60006143c560298361565b565b91507f5468616e6820746fc3a16e207469e1bb816e20746875c3aa2076e1bb9b69206360008301527f68e1bba7206e68c3a000000000000000000000000000000000000000000000006020830152604082019050919050565b600061442b60498361565b565b91507f486fc3a06e207472e1baa3207469e1bb816e2063e1bb8d632063686f206e67c660008301527fb0e1bb9d6920746875c3aa206b6869206be1babf74207468c3ba632068e1bba360208301527f7020c491e1bb936e6700000000000000000000000000000000000000000000006040830152606082019050919050565b60006144b7604c8361565b565b91507f5472e1baa16e67207468c3a1692068e1bba37020c491e1bb936e67206b68c3b460008301527f6e672068e1bba370206ce1bb8720c491e1bb83207468616e6820746fc3a16e2060208301527f7469e1bb816e20746875c3aa00000000000000000000000000000000000000006040830152606082019050919050565b6000614543603d8361565b565b91507f42e1bb9369207468c6b0e1bb9d6e67207469e1bb816e206875e1bbb72068e1bb60008301527fa37020c491e1bb936e672063686f206e67c6b0e1bb9d6920746875c3aa0000006020830152604082019050919050565b60006145a960288361565b565b91507f53e1bb912064c6b0206b68c3b46e6720c491e1bba720c491e1bb8320c491e1ba60008301527fb7742063e1bb8d630000000000000000000000000000000000000000000000006020830152604082019050919050565b600061460f60258361565b565b91507fc490e1bb8b61206368e1bb89206e68e1baad6e206b68c3b46e672068e1bba37060008301527f206ce1bb870000000000000000000000000000000000000000000000000000006020830152604082019050919050565b6000614675604f8361565b565b91507f4368e1bb89206368e1bba72068e1bba37020c491e1bb936e6720686fe1bab76360008301527f206e67c6b0e1bb9d6920746875c3aa206de1bb9b692063c3b3207468e1bb832060208301527f78656d206769616f2064e1bb8b636800000000000000000000000000000000006040830152606082019050919050565b600061470160548361565b565b91507f4368e1bb892063c3b3206368e1bba7206e68c3a020686fe1bab763206e67c6b060008301527fe1bb9d6920746875c3aa206de1bb9b692063c3b3207468e1bb83206be1babf7460208301527f207468c3ba632068e1bba37020c491e1bb936e670000000000000000000000006040830152606082019050919050565b600061478d60188361565b565b91507f486fc3a06e207472e1baa3207469e1bb816e2063e1bb8d6300000000000000006000830152602082019050919050565b60006147cd60428361565b565b91507f53e1bb912064c6b02068e1bba37020c491e1bb936e67206b68c3b46e6720c49160008301527fe1bba720c491e1bb8320686fc3a06e207472e1baa3207469e1bb816e2063e1bb60208301527f8d630000000000000000000000000000000000000000000000000000000000006040830152606082019050919050565b600061485960638361565b565b91507f43687579e1bb836e207469e1bb816e2076c3a06f2068e1bba37020c491e1bb9360008301527f6e6720c491e1bb832062e1bb9369207468c6b0e1bb9d6e672063686f206e67c660208301527fb0e1bb9d6920746875c3aa2076c3ac2068e1bba7792068e1bba37020c491e1bb60408301527f936e6700000000000000000000000000000000000000000000000000000000006060830152608082019050919050565b600061490b60438361565b565b91507f5472e1baa16e67207468c3a1692068e1bba37020c491e1bb936e67206b68c3b460008301527f6e672068e1bba370206ce1bb8720c491e1bb832063687579e1bb836e207469e160208301527fbb816e00000000000000000000000000000000000000000000000000000000006040830152606082019050919050565b6000614997601e8361565b565b91507fc490e1bb8b61206368e1bb89206b68c3b46e672068e1bba370206ce1bb8700006000830152602082019050919050565b60006149d760008361563f565b9150600082019050919050565b60006149f160398361565b565b91507f4368e1bb89206368e1bba72068e1bba37020c491e1bb936e67206de1bb9b692060008301527f63c3b3207468e1bb832063687579e1bb836e207469e1bb816e000000000000006020830152604082019050919050565b6000614a5760278361565b565b91507f5468616e6820746fc3a16e207469e1bb816e2063e1bb8d632063686f206368e160008301527fbba7206e68c3a0000000000000000000000000000000000000000000000000006020830152604082019050919050565b6000614abd60348361565b565b91507f53e1bb912064c6b0206b68c3b46e6720c491e1bba720c491e1bb83207468616e60008301527f6820746fc3a16e207469e1bb816e20746875c3aa0000000000000000000000006020830152604082019050919050565b6000614b2360288361565b565b91507f53e1bb91207469e1bb816e2063687579e1bb836e207068e1baa369206ce1bb9b60008301527f6e2068c6a16e20300000000000000000000000000000000000000000000000006020830152604082019050919050565b6000614b89602b8361565b565b91507f486fc3a06e207472e1baa3207469e1bb816e2063e1bb8d632063686f206e67c660008301527fb0e1bb9d6920746875c3aa0000000000000000000000000000000000000000006020830152604082019050919050565b6000614bef600c8361565b565b91507fc490e1bab7742063e1bb8d6300000000000000000000000000000000000000006000830152602082019050919050565b600060e0830160008301518482036000860152614c3f8282613d0f565b91505060208301518482036020860152614c598282613d0f565b9150506040830151614c6e6040860182613c40565b506060830151614c816060860182613c40565b506080830151614c946080860182614d3b565b5060a0830151614ca760a0860182614d3b565b5060c0830151614cba60c0860182613cf1565b508091505092915050565b600060a083016000830151614cdd6000860182613c5e565b506020830151614cf06020860182613c5e565b506040830151614d036040860182614d3b565b506060830151614d166060860182614d3b565b5060808301518482036080860152614d2e8282613d0f565b9150508091505092915050565b614d44816156da565b82525050565b614d53816156da565b82525050565b6000614d658284613d81565b915081905092915050565b6000614d7b826149ca565b9150819050919050565b600060a082019050614d9a6000830188613c6d565b614da76020830187613c31565b614db46040830186614d4a565b614dc16060830185614d4a565b8181036080830152614dd38184613d48565b90509695505050505050565b600060a082019050614df46000830187613c6d565b614e016020830186613c31565b614e0e6040830185614d4a565b614e1b6060830184614d4a565b8181036080830152614e2c816143b8565b905095945050505050565b600060a082019050614e4c6000830187613c6d565b614e596020830186613c31565b614e666040830185614d4a565b614e736060830184614d4a565b8181036080830152614e848161441e565b905095945050505050565b600060a082019050614ea46000830187613c6d565b614eb16020830186613c31565b614ebe6040830185614d4a565b614ecb6060830184614d4a565b8181036080830152614edc81614536565b905095945050505050565b600060a082019050614efc6000830187613c6d565b614f096020830186613c31565b614f166040830185614d4a565b614f236060830184614d4a565b8181036080830152614f3481614780565b905095945050505050565b600060a082019050614f546000830187613c6d565b614f616020830186613c31565b614f6e6040830185614d4a565b614f7b6060830184614d4a565b8181036080830152614f8c81614a4a565b905095945050505050565b600060a082019050614fac6000830188613c6d565b614fb96020830187613c6d565b614fc66040830186614d4a565b614fd36060830185614d4a565b8181036080830152614fe58184613d48565b90509695505050505050565b600060a0820190506150066000830187613c6d565b6150136020830186613c6d565b6150206040830185614d4a565b61502d6060830184614d4a565b818103608083015261503e8161484c565b905095945050505050565b600060a08201905061505e6000830187613c6d565b61506b6020830186613c6d565b6150786040830185614d4a565b6150856060830184614d4a565b818103608083015261509681614b7c565b905095945050505050565b600060a0820190506150b66000830187613c6d565b6150c36020830186613c6d565b6150d06040830185614d4a565b6150dd6060830184614d4a565b81810360808301526150ee81614be2565b905095945050505050565b600060208201905081810360008301526151138184613c7c565b905092915050565b600060208201905081810360008301526151358184613d48565b905092915050565b600060e0820190508181036000830152615157818a613d48565b9050818103602083015261516b8189613d48565b905061517a6040830188613c4f565b6151876060830187613c4f565b6151946080830186614d4a565b6151a160a0830185614d4a565b6151ae60c0830184613d00565b98975050505050505050565b600060608201905081810360008301526151d48186613d48565b90506151e36020830185614d4a565b6151f06040830184614d4a565b949350505050565b6000602082019050818103600083015261521181613db2565b9050919050565b6000602082019050818103600083015261523181613e18565b9050919050565b6000602082019050818103600083015261525181613ea4565b9050919050565b6000602082019050818103600083015261527181613f30565b9050919050565b6000602082019050818103600083015261529181613f96565b9050919050565b600060208201905081810360008301526152b181613ffc565b9050919050565b600060208201905081810360008301526152d18161403c565b9050919050565b600060208201905081810360008301526152f1816140a2565b9050919050565b6000602082019050818103600083015261531181614108565b9050919050565b6000602082019050818103600083015261533181614194565b9050919050565b60006020820190508181036000830152615351816141fa565b9050919050565b6000602082019050818103600083015261537181614260565b9050919050565b60006020820190508181036000830152615391816142c6565b9050919050565b600060208201905081810360008301526153b181614352565b9050919050565b600060208201905081810360008301526153d1816144aa565b9050919050565b600060208201905081810360008301526153f18161459c565b9050919050565b6000602082019050818103600083015261541181614602565b9050919050565b6000602082019050818103600083015261543181614668565b9050919050565b60006020820190508181036000830152615451816146f4565b9050919050565b60006020820190508181036000830152615471816147c0565b9050919050565b60006020820190508181036000830152615491816148fe565b9050919050565b600060208201905081810360008301526154b18161498a565b9050919050565b600060208201905081810360008301526154d1816149e4565b9050919050565b600060208201905081810360008301526154f181614ab0565b9050919050565b6000602082019050818103600083015261551181614b16565b9050919050565b600060208201905081810360008301526155328184614c22565b905092915050565b600060408201905061554f6000830185614d4a565b61555c6020830184614d4a565b9392505050565b60006060820190506155786000830186614d4a565b6155856020830185614d4a565b6155926040830184614d4a565b949350505050565b6000604051905081810181811067ffffffffffffffff821117156155c1576155c06157fe565b5b8060405250919050565b600067ffffffffffffffff8211156155e6576155e56157fe565b5b601f19601f8301169050602081019050919050565b6000819050602082019050919050565b600081519050919050565b600081519050919050565b6000602082019050919050565b600082825260208201905092915050565b600081905092915050565b600082825260208201905092915050565b600082825260208201905092915050565b600081905092915050565b6000615682826156ba565b9050919050565b6000615694826156ba565b9050919050565b60008115159050919050565b60008190506156b58261583e565b919050565b600073ffffffffffffffffffffffffffffffffffffffff82169050919050565b6000819050919050565b60006156ef82615708565b9050919050565b6000615701826156a7565b9050919050565b60006157138261571a565b9050919050565b6000615725826156ba565b9050919050565b82818337600083830152505050565b60005b8381101561575957808201518184015260208101905061573e565b83811115615768576000848401525b50505050565b6000600282049050600182168061578657607f821691505b6020821081141561579a576157996157cf565b5b50919050565b7f4e487b7100000000000000000000000000000000000000000000000000000000600052602160045260246000fd5b7f4e487b7100000000000000000000000000000000000000000000000000000000600052602260045260246000fd5b7f4e487b7100000000000000000000000000000000000000000000000000000000600052604160045260246000fd5b6000601f19601f8301169050919050565b6005811061584f5761584e6157a0565b5b50565b61585b81615689565b811461586657600080fd5b50565b6158728161569b565b811461587d57600080fd5b50565b615889816156da565b811461589457600080fd5b5056fe5468616e6820746fc3a16e207469e1bb816e20746875c3aa2076e1bb9b69206368e1bba7206e68c3a0486fc3a06e207472e1baa3207469e1bb816e2063e1bb8d632063686f206e67c6b0e1bb9d6920746875c3aa206b6869206be1babf74207468c3ba632068e1bba37020c491e1bb936e6742e1bb9369207468c6b0e1bb9d6e67207469e1bb816e206875e1bbb72068e1bba37020c491e1bb936e672063686f206e67c6b0e1bb9d6920746875c3aa4e67c6b0e1bb9d6920746875c3aa206be1babf74207468c3ba632068e1bba37020c491e1bb936e67207472c6b0e1bb9b63206b686920c491e1bab7742063e1bb8d6343687579e1bb836e207469e1bb816e2076c3a06f2068e1bba37020c491e1bb936e6720c491e1bb832062e1bb9369207468c6b0e1bb9d6e672063686f206e67c6b0e1bb9d6920746875c3aa2076c3ac2068e1bba7792068e1bba37020c491e1bb936e674368e1bba7206e68c3a0206be1babf74207468c3ba632068e1bba37020c491e1bb936e67207472c6b0e1bb9b63206b686920c491e1bab7742063e1bb8d635468616e6820746fc3a16e207469e1bb816e2063e1bb8d632063686f206368e1bba7206e68c3a0486fc3a06e207472e1baa3207469e1bb816e2063e1bb8d632063686f206e67c6b0e1bb9d6920746875c3aaa2646970667358221220c89eecfe45436773d18bec48af6d0855739a6839aa85581142af76d6f4f73e2a64736f6c63430008000033",
  "immutableReferences": {},
  "source": "// SPDX-License-Identifier: MIT\r\npragma solidity ^0.8.0;\r\n\r\ncontract RentalContract {\r\n    enum RentalStatus {\r\n        NotCreated,\r\n        Deposited,\r\n        Ongoing,\r\n        Ended,\r\n        Cancelled\r\n    }\r\n\r\n    struct Contract {\r\n        string contractID;\r\n        string propertyID; // Thm propertyID kiu chui\r\n        address payable owner;\r\n        address payable renter;\r\n        uint depositAmount;\r\n        uint monthlyRent;\r\n        RentalStatus status;\r\n    }\r\n\r\n    struct Transaction {\r\n        address from;\r\n        address to;\r\n        uint amount;\r\n        uint timestamp;\r\n        string transactionType;\r\n    }\r\n\r\n    mapping(string => Contract) public contracts; // Thay contractID kiu chui\r\n    mapping(string => Transaction[]) public contractTransactions;\r\n\r\n    event ContractCreated(\r\n        string indexed contractID,\r\n        string propertyID,\r\n        address indexed owner,\r\n        address indexed renter,\r\n        uint depositAmount,\r\n        uint monthlyRent\r\n    );\r\n    event TransactionRecorded(\r\n        string indexed contractID,\r\n        address from,\r\n        address to,\r\n        uint amount,\r\n        uint timestamp,\r\n        string transactionType\r\n    );\r\n    event ContractCancelledByRenter(\r\n        string indexed contractID,\r\n        address indexed renter,\r\n        uint depositLoss,\r\n        uint extraCharge,\r\n        uint timestamp\r\n    );\r\n    event ContractCancelledByOwner(string indexed contractID, address indexed owner, uint compensation, uint timestamp);\r\n    event ContractTerminated(string indexed contractID, string reason);\r\n    event ContractEnded(string indexed contractID, address indexed renter, uint depositRefundAmount, uint timestamp);\r\n\r\n    modifier onlyOwner(string memory _contractID) {\r\n        require(msg.sender == contracts[_contractID].owner, unicode'Ch ch nh mi c th thc hin hnh ng ny');\r\n        _;\r\n    }\r\n\r\n    modifier onlyRenter(string memory _contractID) {\r\n        require(\r\n            msg.sender == contracts[_contractID].renter,\r\n            unicode'Ch ngi thu mi c th thc hin hnh ng ny'\r\n        );\r\n        _;\r\n    }\r\n\r\n    modifier onlyContractOwner(address _owner) {\r\n        require(msg.sender == _owner, unicode'Ch ch hp ng mi c th to hp ng');\r\n        _;\r\n    }\r\n\r\n    function createContract(\r\n        string memory _contractID,\r\n        string memory _propertyID,\r\n        address payable _owner,\r\n        address payable _renter,\r\n        uint _depositAmount,\r\n        uint _monthlyRent\r\n    ) public onlyContractOwner(_owner) {\r\n        require(_owner != address(0) && _renter != address(0), unicode'a ch khng hp l');\r\n\r\n        contracts[_contractID] = Contract({\r\n            contractID: _contractID,\r\n            propertyID: _propertyID,\r\n            owner: _owner,\r\n            renter: _renter,\r\n            depositAmount: _depositAmount,\r\n            monthlyRent: _monthlyRent,\r\n            status: RentalStatus.NotCreated\r\n        });\r\n\r\n        emit ContractCreated(_contractID, _propertyID, _owner, _renter, _depositAmount, _monthlyRent);\r\n    }\r\n\r\n    function deposit(string memory _contractID) public payable onlyRenter(_contractID) {\r\n        Contract storage contractInfo = contracts[_contractID];\r\n\r\n        require(contractInfo.status == RentalStatus.NotCreated, unicode'Trng thi hp ng khng hp l  t cc');\r\n        require(address(msg.sender).balance >= msg.value, unicode'S d khng   t cc');\r\n\r\n        contractInfo.status = RentalStatus.Deposited;\r\n\r\n        _recordTransaction(_contractID, msg.sender, address(this), msg.value, unicode't cc');\r\n\r\n        emit TransactionRecorded(_contractID, msg.sender, address(this), msg.value, block.timestamp, unicode't cc');\r\n    }\r\n\r\n    function payRent(string memory _contractID) public payable onlyRenter(_contractID) {\r\n        Contract storage contractInfo = contracts[_contractID];\r\n\r\n        require(\r\n            contractInfo.status == RentalStatus.Deposited || contractInfo.status == RentalStatus.Ongoing,\r\n            unicode'Trng thi hp ng khng hp l  thanh ton tin thu'\r\n        );\r\n        require(address(msg.sender).balance >= msg.value, unicode'S d khng   thanh ton tin thu');\r\n\r\n        if (contractInfo.status == RentalStatus.Deposited) {\r\n            contractInfo.status = RentalStatus.Ongoing;\r\n        }\r\n\r\n        (bool success, ) = contractInfo.owner.call{ value: msg.value }('');\r\n        require(success, unicode'Thanh ton tin thu tht bi');\r\n\r\n        _recordTransaction(\r\n            _contractID,\r\n            msg.sender,\r\n            contractInfo.owner,\r\n            msg.value,\r\n            unicode'Thanh ton tin thu vi ch nh'\r\n        );\r\n\r\n        emit TransactionRecorded(\r\n            _contractID,\r\n            msg.sender,\r\n            contractInfo.owner,\r\n            msg.value,\r\n            block.timestamp,\r\n            unicode'Thanh ton tin thu vi ch nh'\r\n        );\r\n    }\r\n\r\n    // FIXME\r\n    function transferToAddress(string memory _contractID, address payable recipient, uint256 amount) public {\r\n        Contract storage contractInfo = contracts[_contractID];\r\n\r\n        require(msg.sender == contractInfo.owner, unicode'Ch ch hp ng mi c th chuyn tin');\r\n        require(address(this).balance >= amount, unicode'S d khng   chuyn tin');\r\n        recipient.transfer(amount);\r\n\r\n        _recordTransaction(\r\n            _contractID,\r\n            address(this),\r\n            recipient,\r\n            amount,\r\n            unicode'Bi thng tin hu hp ng cho ngi thu'\r\n        );\r\n\r\n        emit TransactionRecorded(\r\n            _contractID,\r\n            address(this),\r\n            recipient,\r\n            amount,\r\n            block.timestamp,\r\n            unicode'Bi thng tin hu hp ng cho ngi thu'\r\n        );\r\n    }\r\n\r\n    // FIXME\r\n    function transferToSmartContract(string memory _contractID) public payable {\r\n        Contract storage contractInfo = contracts[_contractID];\r\n\r\n        require(msg.sender == contractInfo.owner, unicode'Ch ch hp ng mi c th chuyn tin');\r\n\r\n        require(msg.value > 0, unicode'S tin chuyn phi ln hn 0');\r\n        require(address(msg.sender).balance >= msg.value, unicode'S d khng   chuyn tin');\r\n\r\n        _recordTransaction(\r\n            _contractID,\r\n            msg.sender,\r\n            address(this),\r\n            msg.value,\r\n            unicode'Chuyn tin vo hp ng  bi thng cho ngi thu v hy hp ng'\r\n        );\r\n\r\n        emit TransactionRecorded(\r\n            _contractID,\r\n            msg.sender,\r\n            address(this),\r\n            msg.value,\r\n            block.timestamp,\r\n            unicode'Chuyn tin vo hp ng  bi thng cho ngi thu v hy hp ng'\r\n        );\r\n    }\r\n\r\n    // chuyn tin t a ch ny sang a ch khc\r\n    function transferAddressToAddress(\r\n        string memory _contractID,\r\n        address payable recipient,\r\n        string memory description\r\n    ) public payable {\r\n        Contract storage contractInfo = contracts[_contractID];\r\n\r\n        require(\r\n            msg.sender == contractInfo.owner || msg.sender == contractInfo.renter,\r\n            unicode'Ch ch hp ng mi c th chuyn tin'\r\n        );\r\n        require(\r\n            recipient == contractInfo.owner || recipient == contractInfo.renter,\r\n            unicode'a ch nhn khng hp l'\r\n        );\r\n\r\n        require(\r\n            contractInfo.status == RentalStatus.Deposited || contractInfo.status == RentalStatus.Ongoing,\r\n            unicode'Trng thi hp ng khng hp l  chuyn tin'\r\n        );\r\n        require(address(msg.sender).balance >= msg.value, unicode'S d khng   chuyn tin');\r\n\r\n        (bool success, ) = recipient.call{ value: msg.value }('');\r\n        require(success, unicode'Chuyn tin tht bi');\r\n\r\n        _recordTransaction(_contractID, msg.sender, contractInfo.owner, msg.value, description);\r\n\r\n        emit TransactionRecorded(_contractID, msg.sender, contractInfo.owner, msg.value, block.timestamp, description);\r\n    }\r\n\r\n    // function contractualIndemnity(string memory _contractID) public payable onlyOwner(_contractID) {\r\n    //     Contract storage contractInfo = contracts[_contractID];\r\n\r\n    //     require(\r\n    //         contractInfo.status == RentalStatus.Deposited || contractInfo.status == RentalStatus.Ongoing,\r\n    //         unicode'Trng thi hp ng khng hp l  thanh ton tin thu'\r\n    //     );\r\n    //     require(address(msg.sender).balance >= msg.value, unicode'S d khng   bi thng');\r\n\r\n    //     (bool success, ) = contractInfo.renter.call{ value: msg.value }('');\r\n    //     require(success, unicode'Bi thng tin hu hp ng tht bi');\r\n\r\n    //     _recordTransaction(\r\n    //         _contractID,\r\n    //         msg.sender,\r\n    //         contractInfo.renter,\r\n    //         msg.value,\r\n    //         unicode'Bi thng hp ng cho ngi thu'\r\n    //     );\r\n\r\n    //     emit TransactionRecorded(\r\n    //         _contractID,\r\n    //         msg.sender,\r\n    //         contractInfo.renter,\r\n    //         msg.value,\r\n    //         block.timestamp,\r\n    //         unicode'Bi thng hp ng cho ngi thu'\r\n    //     );\r\n    // }\r\n\r\n    function cancelContractBeforeDeposit(string memory _contractID) public {\r\n        Contract storage contractInfo = contracts[_contractID];\r\n\r\n        // Kim tra xem ngi gi hm c phi l ch nh hoc ngi thu hay khng\r\n        require(\r\n            msg.sender == contractInfo.owner || msg.sender == contractInfo.renter,\r\n            unicode'Ch c ch nh hoc ngi thu mi c th kt thc hp ng'\r\n        );\r\n\r\n        // Kim tra trng thi hp ng\r\n        require(contractInfo.status == RentalStatus.NotCreated, unicode'Trng thi hp ng khng hp l  kt thc');\r\n\r\n        // Cp nht trng thi hp ng\r\n        contractInfo.status = RentalStatus.Cancelled;\r\n\r\n        // Pht s kin kt thc hp ng\r\n        emit ContractTerminated(\r\n            _contractID,\r\n            msg.sender == contractInfo.owner\r\n                ? unicode'Ch nh kt thc hp ng trc khi t cc'\r\n                : unicode'Ngi thu kt thc hp ng trc khi t cc'\r\n        );\r\n    }\r\n\r\n    // TODO\r\n    function endContract(string memory _contractID, uint depositAmount) public payable onlyOwner(_contractID) {\r\n        Contract storage contractInfo = contracts[_contractID];\r\n\r\n        if (contractInfo.status == RentalStatus.NotCreated) {\r\n            contractInfo.status = RentalStatus.Ended;\r\n        } else if (contractInfo.status == RentalStatus.Deposited || contractInfo.status == RentalStatus.Ongoing) {\r\n            require(address(this).balance >= depositAmount, unicode'S d hp ng khng   hon tr tin cc');\r\n\r\n            (bool success, ) = contractInfo.renter.call{ value: depositAmount }('');\r\n            require(success, unicode'Hon tr tin cc tht bi');\r\n\r\n            _recordTransaction(\r\n                _contractID,\r\n                address(this),\r\n                contractInfo.renter,\r\n                depositAmount,\r\n                unicode'Hon tr tin cc cho ngi thu khi kt thc hp ng'\r\n            );\r\n\r\n            emit TransactionRecorded(\r\n                _contractID,\r\n                address(this),\r\n                contractInfo.renter,\r\n                depositAmount,\r\n                block.timestamp,\r\n                unicode'Hon tr tin cc cho ngi thu khi kt thc hp ng'\r\n            );\r\n\r\n            contractInfo.status = RentalStatus.Ended;\r\n        } else {\r\n            revert(unicode'Hp ng khng  trng thi hp l  kt thc');\r\n        }\r\n        emit ContractEnded(_contractID, contractInfo.renter, depositAmount, block.timestamp);\r\n    }\r\n\r\n    function _recordTransaction(\r\n        string memory _contractID,\r\n        address _from,\r\n        address _to,\r\n        uint _amount,\r\n        string memory _transactionType\r\n    ) internal {\r\n        contractTransactions[_contractID].push(\r\n            Transaction({\r\n                from: _from,\r\n                to: _to,\r\n                amount: _amount,\r\n                timestamp: block.timestamp,\r\n                transactionType: _transactionType\r\n            })\r\n        );\r\n    }\r\n\r\n    function getContractDetails(string memory _contractID) public view returns (Contract memory) {\r\n        Contract memory contractInfo = contracts[_contractID];\r\n        require(\r\n            msg.sender == contractInfo.owner || msg.sender == contractInfo.renter,\r\n            unicode'Ch ch hp ng hoc ngi thu mi c th xem chi tit hp ng'\r\n        );\r\n        return contractInfo;\r\n    }\r\n\r\n    function getContractTransactions(string memory _contractID) public view returns (Transaction[] memory) {\r\n        Contract memory contractInfo = contracts[_contractID];\r\n        require(\r\n            msg.sender == contractInfo.owner || msg.sender == contractInfo.renter,\r\n            unicode'Ch ch hp ng hoc ngi thu mi c th xem giao dch'\r\n        );\r\n        return contractTransactions[_contractID];\r\n    }\r\n\r\n    // function terminateForNonPayment(string memory _contractId, uint depositAmount) public {\r\n    //     Contract storage contractInfo = contracts[_contractId];\r\n\r\n    //     // Ch cho php khi trng thi hp ng l Deposited hoc Ongoing\r\n    //     require(contractInfo.status == RentalStatus.Ongoing, unicode'Hp ng phi  trng thi ang hot ng');\r\n\r\n    //     // X l logic mt tin cc nu khng thanh ton ng hn\r\n    //     if (depositAmount > 0) {\r\n    //         require(address(this).balance >= depositAmount, unicode'S d hp ng khng   mt tin cc');\r\n\r\n    //         // Chuyn tin cc cho ch nh\r\n    //         (bool success, ) = contractInfo.owner.call{ value: depositAmount }('');\r\n    //         require(success, unicode'Thanh ton tin cc cho ch nh tht bi');\r\n\r\n    //         // Lu giao dch\r\n    //         _recordTransaction(\r\n    //             _contractId,\r\n    //             address(this),\r\n    //             contractInfo.owner,\r\n    //             depositAmount,\r\n    //             unicode'Thanh ton tin cc cho ch nh v khng thanh ton ng hn'\r\n    //         );\r\n    //     }\r\n\r\n    //     // nh du hp ng  kt thc\r\n    //     contractInfo.status = RentalStatus.Ended;\r\n    //     emit ContractEnded(_contractId, contractInfo.renter, depositAmount, block.timestamp);\r\n    // }\r\n\r\n    // FIXME\r\n    function cancelContractByRenter(\r\n        string memory _contractId,\r\n        bool notifyBefore30Days,\r\n        uint depositAmount\r\n    ) public payable onlyRenter(_contractId) {\r\n        Contract storage contractInfo = contracts[_contractId];\r\n\r\n        require(\r\n            contractInfo.status == RentalStatus.Deposited || contractInfo.status == RentalStatus.Ongoing,\r\n            unicode'Trng thi hp ng khng hp l  hy'\r\n        );\r\n\r\n        uint depositLoss = 0;\r\n        uint extraCharge = 0;\r\n\r\n        if (notifyBefore30Days) {\r\n            // Hon tr tin cc nu thng bo trc 30 ngy\r\n            require(address(this).balance >= depositAmount, unicode'S d hp ng khng   hon tr tin cc');\r\n\r\n            (bool successRefund, ) = contractInfo.renter.call{ value: depositAmount }('');\r\n            require(successRefund, unicode'Hon tr tin cc cho ngi thu tht bi');\r\n\r\n            _recordTransaction(\r\n                _contractId,\r\n                address(this),\r\n                msg.sender,\r\n                depositAmount,\r\n                unicode'Hon tr tin cc cho ngi thu'\r\n            );\r\n\r\n            emit TransactionRecorded(\r\n                _contractId,\r\n                address(this),\r\n                msg.sender,\r\n                depositAmount,\r\n                block.timestamp,\r\n                unicode'Hon tr tin cc cho ngi thu'\r\n            );\r\n        } else {\r\n            // Tnh ph b sung v chuyn tin cc nu khng thng bo trc 30 ngy\r\n            // extraCharge = contractInfo.monthlyRent;\r\n            // require(msg.value == extraCharge, \"Incorrect extra charge amount\");\r\n            // require(address(msg.sender).balance >= extraCharge, \"Insufficient balance of renter\");\r\n\r\n            // (bool successExtraCharge, ) = contractInfo.owner.call{value: extraCharge}(\"\");\r\n            // require(successExtraCharge, \"Extra charge transfer failed\");\r\n\r\n            // _recordTransaction(_contractId, msg.sender, contractInfo.owner, extraCharge, \"Extra Charge\");\r\n\r\n            depositLoss = depositAmount;\r\n            require(address(this).balance >= depositLoss, unicode'S d hp ng khng   hon tr tin cc');\r\n\r\n            (bool successDeposit, ) = contractInfo.owner.call{ value: depositLoss }(''); // Chuyn tin cc t ngi thu cho ch nh\r\n            require(successDeposit, unicode'Thanh ton tin cc cho ch nh tht bi');\r\n\r\n            _recordTransaction(\r\n                _contractId,\r\n                address(this),\r\n                contractInfo.owner,\r\n                depositLoss,\r\n                unicode'Thanh ton tin cc cho ch nh'\r\n            );\r\n\r\n            emit TransactionRecorded(\r\n                _contractId,\r\n                address(this),\r\n                contractInfo.owner,\r\n                depositLoss,\r\n                block.timestamp,\r\n                unicode'Thanh ton tin cc cho ch nh'\r\n            );\r\n        }\r\n\r\n        contractInfo.status = RentalStatus.Ended;\r\n        emit ContractCancelledByRenter(_contractId, msg.sender, depositLoss, extraCharge, block.timestamp);\r\n    }\r\n\r\n    // FIXME\r\n    function cancelContractByOwner(\r\n        string memory _contractId,\r\n        uint depositAmount\r\n    ) public payable onlyOwner(_contractId) {\r\n        Contract storage contractInfo = contracts[_contractId];\r\n\r\n        require(\r\n            contractInfo.status == RentalStatus.Deposited || contractInfo.status == RentalStatus.Ongoing,\r\n            unicode'Trng thi hp ng khng hp l  hy'\r\n        );\r\n\r\n        // Hon tr tin cc cho ngi thu nu hp ng vn cn hiu lc\r\n        require(address(this).balance >= depositAmount, unicode'S d hp ng khng   hon tr tin cc');\r\n\r\n        (bool successDeposit, ) = contractInfo.renter.call{ value: depositAmount }('');\r\n        require(successDeposit, unicode'Hon tr tin cc tht bi');\r\n\r\n        _recordTransaction(_contractId, address(this), contractInfo.renter, depositAmount, unicode'Hon tr tin cc');\r\n\r\n        emit TransactionRecorded(\r\n            _contractId,\r\n            address(this),\r\n            contractInfo.renter,\r\n            depositAmount,\r\n            block.timestamp,\r\n            unicode'Hon tr tin cc'\r\n        );\r\n\r\n        contractInfo.status = RentalStatus.Ended;\r\n        emit ContractCancelledByOwner(_contractId, msg.sender, depositAmount, block.timestamp);\r\n    }\r\n}\r\n",
  "sourcePath": "C:\\code\\node\\kltn-backend\\contract-service\\contractRental\\contracts\\RentalContract.sol",
  "compiler": {
    "name": "solc",
    "version": "0.8.0+commit.c7dfd78e.Emscripten.clang"
  },
  "schemaVersion": "3.4.16",
  "updatedAt": "2025-05-20T13:40:55.674Z",
  "networkType": "ethereum",
  "devdoc": {
    "kind": "dev",
    "methods": {},
    "version": 1
  },
  "userdoc": {
    "kind": "user",
    "methods": {},
    "version": 1
  }
}